{
	"contracts/DecentralizedLottery2.sol": {
		"DecentralizedLottery": {
			"abi": [
				{
					"inputs": [],
					"stateMutability": "nonpayable",
					"type": "constructor"
				},
				{
					"anonymous": false,
					"inputs": [
						{
							"indexed": false,
							"internalType": "uint256",
							"name": "roundNumber",
							"type": "uint256"
						},
						{
							"indexed": false,
							"internalType": "uint256",
							"name": "endTime",
							"type": "uint256"
						}
					],
					"name": "RoundStarted",
					"type": "event"
				},
				{
					"anonymous": false,
					"inputs": [
						{
							"indexed": true,
							"internalType": "address",
							"name": "player",
							"type": "address"
						},
						{
							"indexed": false,
							"internalType": "uint256",
							"name": "ticketCount",
							"type": "uint256"
						}
					],
					"name": "TicketPurchased",
					"type": "event"
				},
				{
					"anonymous": false,
					"inputs": [
						{
							"indexed": true,
							"internalType": "address",
							"name": "winner",
							"type": "address"
						},
						{
							"indexed": false,
							"internalType": "uint256",
							"name": "prize",
							"type": "uint256"
						},
						{
							"indexed": false,
							"internalType": "uint256",
							"name": "roundNumber",
							"type": "uint256"
						}
					],
					"name": "WinnerSelected",
					"type": "event"
				},
				{
					"stateMutability": "payable",
					"type": "fallback"
				},
				{
					"inputs": [],
					"name": "ROUND_DURATION",
					"outputs": [
						{
							"internalType": "uint256",
							"name": "",
							"type": "uint256"
						}
					],
					"stateMutability": "view",
					"type": "function"
				},
				{
					"inputs": [],
					"name": "TICKET_PRICE",
					"outputs": [
						{
							"internalType": "uint256",
							"name": "",
							"type": "uint256"
						}
					],
					"stateMutability": "view",
					"type": "function"
				},
				{
					"inputs": [],
					"name": "buyTicket",
					"outputs": [],
					"stateMutability": "payable",
					"type": "function"
				},
				{
					"inputs": [],
					"name": "getLotteryStatus",
					"outputs": [
						{
							"internalType": "bool",
							"name": "_isActive",
							"type": "bool"
						},
						{
							"internalType": "uint256",
							"name": "_timeRemaining",
							"type": "uint256"
						},
						{
							"internalType": "uint256",
							"name": "_playerCount",
							"type": "uint256"
						},
						{
							"internalType": "uint256",
							"name": "_prizePool",
							"type": "uint256"
						},
						{
							"internalType": "uint256",
							"name": "_roundNumber",
							"type": "uint256"
						}
					],
					"stateMutability": "view",
					"type": "function"
				},
				{
					"inputs": [],
					"name": "getPlayerCount",
					"outputs": [
						{
							"internalType": "uint256",
							"name": "",
							"type": "uint256"
						}
					],
					"stateMutability": "view",
					"type": "function"
				},
				{
					"inputs": [
						{
							"internalType": "address",
							"name": "player",
							"type": "address"
						}
					],
					"name": "getPlayerTicketCount",
					"outputs": [
						{
							"internalType": "uint256",
							"name": "",
							"type": "uint256"
						}
					],
					"stateMutability": "view",
					"type": "function"
				},
				{
					"inputs": [],
					"name": "getPlayers",
					"outputs": [
						{
							"internalType": "address[]",
							"name": "",
							"type": "address[]"
						}
					],
					"stateMutability": "view",
					"type": "function"
				},
				{
					"inputs": [],
					"name": "getPrizePool",
					"outputs": [
						{
							"internalType": "uint256",
							"name": "",
							"type": "uint256"
						}
					],
					"stateMutability": "view",
					"type": "function"
				},
				{
					"inputs": [],
					"name": "getTimeRemaining",
					"outputs": [
						{
							"internalType": "uint256",
							"name": "",
							"type": "uint256"
						}
					],
					"stateMutability": "view",
					"type": "function"
				},
				{
					"inputs": [],
					"name": "isRoundActive",
					"outputs": [
						{
							"internalType": "bool",
							"name": "",
							"type": "bool"
						}
					],
					"stateMutability": "view",
					"type": "function"
				},
				{
					"inputs": [],
					"name": "lastPrizeAmount",
					"outputs": [
						{
							"internalType": "uint256",
							"name": "",
							"type": "uint256"
						}
					],
					"stateMutability": "view",
					"type": "function"
				},
				{
					"inputs": [],
					"name": "lastWinner",
					"outputs": [
						{
							"internalType": "address",
							"name": "",
							"type": "address"
						}
					],
					"stateMutability": "view",
					"type": "function"
				},
				{
					"inputs": [],
					"name": "owner",
					"outputs": [
						{
							"internalType": "address",
							"name": "",
							"type": "address"
						}
					],
					"stateMutability": "view",
					"type": "function"
				},
				{
					"inputs": [
						{
							"internalType": "uint256",
							"name": "",
							"type": "uint256"
						}
					],
					"name": "players",
					"outputs": [
						{
							"internalType": "address",
							"name": "",
							"type": "address"
						}
					],
					"stateMutability": "view",
					"type": "function"
				},
				{
					"inputs": [],
					"name": "roundEndTime",
					"outputs": [
						{
							"internalType": "uint256",
							"name": "",
							"type": "uint256"
						}
					],
					"stateMutability": "view",
					"type": "function"
				},
				{
					"inputs": [],
					"name": "roundNumber",
					"outputs": [
						{
							"internalType": "uint256",
							"name": "",
							"type": "uint256"
						}
					],
					"stateMutability": "view",
					"type": "function"
				},
				{
					"inputs": [],
					"name": "selectWinner",
					"outputs": [],
					"stateMutability": "nonpayable",
					"type": "function"
				},
				{
					"inputs": [],
					"name": "startNewRound",
					"outputs": [],
					"stateMutability": "nonpayable",
					"type": "function"
				},
				{
					"stateMutability": "payable",
					"type": "receive"
				}
			],
			"devdoc": {
				"author": "Your Name",
				"details": "Implements time-based rounds, secure ETH handling with CEI pattern, and pseudo-random winner selection",
				"kind": "dev",
				"methods": {
					"buyTicket()": {
						"details": "Players can buy multiple tickets by sending exact multiples of TICKET_PRICE      Each ticket gives the player one entry in the draw"
					},
					"constructor": {
						"details": "Sets the deployer as the owner and initializes round number to 0"
					},
					"getLotteryStatus()": {
						"returns": {
							"_isActive": "Whether round is active",
							"_playerCount": "Number of entries",
							"_prizePool": "Current prize amount",
							"_roundNumber": "Current round number",
							"_timeRemaining": "Seconds remaining in round"
						}
					},
					"getPlayerCount()": {
						"returns": {
							"_0": "uint Number of entries"
						}
					},
					"getPlayerTicketCount(address)": {
						"params": {
							"player": "Address to check"
						},
						"returns": {
							"_0": "uint Number of tickets owned by the address"
						}
					},
					"getPlayers()": {
						"returns": {
							"_0": "address[] Array of all player addresses (with duplicates for multiple tickets)"
						}
					},
					"getPrizePool()": {
						"returns": {
							"_0": "uint Total ETH in the contract"
						}
					},
					"getTimeRemaining()": {
						"returns": {
							"_0": "uint Seconds remaining, or 0 if no active round"
						}
					},
					"isRoundActive()": {
						"returns": {
							"_0": "bool True if a round is currently active"
						}
					},
					"selectWinner()": {
						"details": "Can be called by anyone after the round ends      Uses pseudo-random number generation (suitable for low-stakes lottery)      Follows Checks-Effects-Interactions pattern for security"
					},
					"startNewRound()": {
						"details": "Only owner can call. Clears previous round data and sets new end time"
					}
				},
				"stateVariables": {
					"players": {
						"details": "Players can appear multiple times if they bought multiple tickets"
					}
				},
				"title": "DecentralizedLottery",
				"version": 1
			},
			"evm": {
				"assembly": "    /* \"contracts/DecentralizedLottery2.sol\":328:8929  contract DecentralizedLottery {... */\n  mstore(0x40, 0x80)\n    /* \"contracts/DecentralizedLottery2.sol\":2213:2287  constructor() {... */\n  callvalue\n  dup1\n  iszero\n  tag_1\n  jumpi\n  revert(0x00, 0x00)\ntag_1:\n  pop\n    /* \"contracts/DecentralizedLottery2.sol\":2245:2255  msg.sender */\n  caller\n    /* \"contracts/DecentralizedLottery2.sol\":2237:2242  owner */\n  0x00\n  0x00\n    /* \"contracts/DecentralizedLottery2.sol\":2237:2255  owner = msg.sender */\n  0x0100\n  exp\n  dup2\n  sload\n  dup2\n  0xffffffffffffffffffffffffffffffffffffffff\n  mul\n  not\n  and\n  swap1\n  dup4\n  0xffffffffffffffffffffffffffffffffffffffff\n  and\n  mul\n  or\n  swap1\n  sstore\n  pop\n    /* \"contracts/DecentralizedLottery2.sol\":2279:2280  0 */\n  0x00\n    /* \"contracts/DecentralizedLottery2.sol\":2265:2276  roundNumber */\n  0x01\n    /* \"contracts/DecentralizedLottery2.sol\":2265:2280  roundNumber = 0 */\n  dup2\n  swap1\n  sstore\n  pop\n    /* \"contracts/DecentralizedLottery2.sol\":328:8929  contract DecentralizedLottery {... */\n  dataSize(sub_0)\n  dup1\n  dataOffset(sub_0)\n  0x00\n  codecopy\n  0x00\n  return\nstop\n\nsub_0: assembly {\n        /* \"contracts/DecentralizedLottery2.sol\":328:8929  contract DecentralizedLottery {... */\n      mstore(0x40, 0x80)\n      jumpi(tag_1, lt(calldatasize, 0x04))\n      shr(0xe0, calldataload(0x00))\n      dup1\n      0x8da5cb5b\n      gt\n      tag_21\n      jumpi\n      dup1\n      0xdac6270d\n      gt\n      tag_22\n      jumpi\n      dup1\n      0xdac6270d\n      eq\n      tag_16\n      jumpi\n      dup1\n      0xe40205d6\n      eq\n      tag_17\n      jumpi\n      dup1\n      0xedca914c\n      eq\n      tag_18\n      jumpi\n      dup1\n      0xf71d96cb\n      eq\n      tag_19\n      jumpi\n      dup1\n      0xfe188184\n      eq\n      tag_20\n      jumpi\n      jump(tag_2)\n    tag_22:\n      dup1\n      0x8da5cb5b\n      eq\n      tag_12\n      jumpi\n      dup1\n      0x99ea5259\n      eq\n      tag_13\n      jumpi\n      dup1\n      0xbd85948c\n      eq\n      tag_14\n      jumpi\n      dup1\n      0xc2e52206\n      eq\n      tag_15\n      jumpi\n      jump(tag_2)\n    tag_21:\n      dup1\n      0x45945a45\n      gt\n      tag_23\n      jumpi\n      dup1\n      0x45945a45\n      eq\n      tag_7\n      jumpi\n      dup1\n      0x4e2786fb\n      eq\n      tag_8\n      jumpi\n      dup1\n      0x6641ea08\n      eq\n      tag_9\n      jumpi\n      dup1\n      0x884bf67c\n      eq\n      tag_10\n      jumpi\n      dup1\n      0x8b5b9ccc\n      eq\n      tag_11\n      jumpi\n      jump(tag_2)\n    tag_23:\n      dup1\n      0x1a89a43b\n      eq\n      tag_3\n      jumpi\n      dup1\n      0x1a95f15f\n      eq\n      tag_4\n      jumpi\n      dup1\n      0x2b6524cd\n      eq\n      tag_5\n      jumpi\n      dup1\n      0x33a99e04\n      eq\n      tag_6\n      jumpi\n      jump(tag_2)\n    tag_1:\n      jumpi(tag_2, calldatasize)\n        /* \"contracts/DecentralizedLottery2.sol\":8777:8823  revert(\"Use buyTicket() to enter the lottery\") */\n      mload(0x40)\n      0x08c379a000000000000000000000000000000000000000000000000000000000\n      dup2\n      mstore\n      0x04\n      add\n      tag_26\n      swap1\n      tag_27\n      jump\t// in\n    tag_26:\n      mload(0x40)\n      dup1\n      swap2\n      sub\n      swap1\n      revert\n        /* \"contracts/DecentralizedLottery2.sol\":328:8929  contract DecentralizedLottery {... */\n    tag_2:\n        /* \"contracts/DecentralizedLottery2.sol\":8874:8920  revert(\"Use buyTicket() to enter the lottery\") */\n      mload(0x40)\n      0x08c379a000000000000000000000000000000000000000000000000000000000\n      dup2\n      mstore\n      0x04\n      add\n      tag_30\n      swap1\n      tag_27\n      jump\t// in\n    tag_30:\n      mload(0x40)\n      dup1\n      swap2\n      sub\n      swap1\n      revert\n        /* \"contracts/DecentralizedLottery2.sol\":6920:7187  function getPlayerTicketCount(address player) public view returns (uint) {... */\n    tag_3:\n      callvalue\n      dup1\n      iszero\n      tag_31\n      jumpi\n      revert(0x00, 0x00)\n    tag_31:\n      pop\n      tag_32\n      0x04\n      dup1\n      calldatasize\n      sub\n      dup2\n      add\n      swap1\n      tag_33\n      swap2\n      swap1\n      tag_34\n      jump\t// in\n    tag_33:\n      tag_35\n      jump\t// in\n    tag_32:\n      mload(0x40)\n      tag_36\n      swap2\n      swap1\n      tag_37\n      jump\t// in\n    tag_36:\n      mload(0x40)\n      dup1\n      swap2\n      sub\n      swap1\n      return\n        /* \"contracts/DecentralizedLottery2.sol\":544:590  uint public constant TICKET_PRICE = 0.01 ether */\n    tag_4:\n      callvalue\n      dup1\n      iszero\n      tag_38\n      jumpi\n      revert(0x00, 0x00)\n    tag_38:\n      pop\n      tag_39\n      tag_40\n      jump\t// in\n    tag_39:\n      mload(0x40)\n      tag_41\n      swap2\n      swap1\n      tag_37\n      jump\t// in\n    tag_41:\n      mload(0x40)\n      dup1\n      swap2\n      sub\n      swap1\n      return\n        /* \"contracts/DecentralizedLottery2.sol\":7506:7871  function getLotteryStatus() public view returns (... */\n    tag_5:\n      callvalue\n      dup1\n      iszero\n      tag_42\n      jumpi\n      revert(0x00, 0x00)\n    tag_42:\n      pop\n      tag_43\n      tag_44\n      jump\t// in\n    tag_43:\n      mload(0x40)\n      tag_45\n      swap6\n      swap5\n      swap4\n      swap3\n      swap2\n      swap1\n      tag_46\n      jump\t// in\n    tag_45:\n      mload(0x40)\n      dup1\n      swap2\n      sub\n      swap1\n      return\n        /* \"contracts/DecentralizedLottery2.sol\":4318:5393  function selectWinner() public {... */\n    tag_6:\n      callvalue\n      dup1\n      iszero\n      tag_47\n      jumpi\n      revert(0x00, 0x00)\n    tag_47:\n      pop\n      tag_48\n      tag_49\n      jump\t// in\n    tag_48:\n      stop\n        /* \"contracts/DecentralizedLottery2.sol\":5570:5696  function isRoundActive() public view returns (bool) {... */\n    tag_7:\n      callvalue\n      dup1\n      iszero\n      tag_50\n      jumpi\n      revert(0x00, 0x00)\n    tag_50:\n      pop\n      tag_51\n      tag_52\n      jump\t// in\n    tag_51:\n      mload(0x40)\n      tag_53\n      swap2\n      swap1\n      tag_54\n      jump\t// in\n    tag_53:\n      mload(0x40)\n      dup1\n      swap2\n      sub\n      swap1\n      return\n        /* \"contracts/DecentralizedLottery2.sol\":785:808  uint public roundNumber */\n    tag_8:\n      callvalue\n      dup1\n      iszero\n      tag_55\n      jumpi\n      revert(0x00, 0x00)\n    tag_55:\n      pop\n      tag_56\n      tag_57\n      jump\t// in\n    tag_56:\n      mload(0x40)\n      tag_58\n      swap2\n      swap1\n      tag_37\n      jump\t// in\n    tag_58:\n      mload(0x40)\n      dup1\n      swap2\n      sub\n      swap1\n      return\n        /* \"contracts/DecentralizedLottery2.sol\":648:695  uint public constant ROUND_DURATION = 5 minutes */\n    tag_9:\n      callvalue\n      dup1\n      iszero\n      tag_59\n      jumpi\n      revert(0x00, 0x00)\n    tag_59:\n      pop\n      tag_60\n      tag_61\n      jump\t// in\n    tag_60:\n      mload(0x40)\n      tag_62\n      swap2\n      swap1\n      tag_37\n      jump\t// in\n    tag_62:\n      mload(0x40)\n      dup1\n      swap2\n      sub\n      swap1\n      return\n        /* \"contracts/DecentralizedLottery2.sol\":6358:6454  function getPrizePool() public view returns (uint) {... */\n    tag_10:\n      callvalue\n      dup1\n      iszero\n      tag_63\n      jumpi\n      revert(0x00, 0x00)\n    tag_63:\n      pop\n      tag_64\n      tag_65\n      jump\t// in\n    tag_64:\n      mload(0x40)\n      tag_66\n      swap2\n      swap1\n      tag_37\n      jump\t// in\n    tag_66:\n      mload(0x40)\n      dup1\n      swap2\n      sub\n      swap1\n      return\n        /* \"contracts/DecentralizedLottery2.sol\":6623:6715  function getPlayers() public view returns (address[] memory) {... */\n    tag_11:\n      callvalue\n      dup1\n      iszero\n      tag_67\n      jumpi\n      revert(0x00, 0x00)\n    tag_67:\n      pop\n      tag_68\n      tag_69\n      jump\t// in\n    tag_68:\n      mload(0x40)\n      tag_70\n      swap2\n      swap1\n      tag_71\n      jump\t// in\n    tag_70:\n      mload(0x40)\n      dup1\n      swap2\n      sub\n      swap1\n      return\n        /* \"contracts/DecentralizedLottery2.sol\":466:486  address public owner */\n    tag_12:\n      callvalue\n      dup1\n      iszero\n      tag_72\n      jumpi\n      revert(0x00, 0x00)\n    tag_72:\n      pop\n      tag_73\n      tag_74\n      jump\t// in\n    tag_73:\n      mload(0x40)\n      tag_75\n      swap2\n      swap1\n      tag_76\n      jump\t// in\n    tag_75:\n      mload(0x40)\n      dup1\n      swap2\n      sub\n      swap1\n      return\n        /* \"contracts/DecentralizedLottery2.sol\":1233:1260  uint public lastPrizeAmount */\n    tag_13:\n      callvalue\n      dup1\n      iszero\n      tag_77\n      jumpi\n      revert(0x00, 0x00)\n    tag_77:\n      pop\n      tag_78\n      tag_79\n      jump\t// in\n    tag_78:\n      mload(0x40)\n      tag_80\n      swap2\n      swap1\n      tag_37\n      jump\t// in\n    tag_80:\n      mload(0x40)\n      dup1\n      swap2\n      sub\n      swap1\n      return\n        /* \"contracts/DecentralizedLottery2.sol\":2482:3037  function startNewRound() public onlyOwner {... */\n    tag_14:\n      callvalue\n      dup1\n      iszero\n      tag_81\n      jumpi\n      revert(0x00, 0x00)\n    tag_81:\n      pop\n      tag_82\n      tag_83\n      jump\t// in\n    tag_82:\n      stop\n        /* \"contracts/DecentralizedLottery2.sol\":6156:6247  function getPlayerCount() public view returns (uint) {... */\n    tag_15:\n      callvalue\n      dup1\n      iszero\n      tag_84\n      jumpi\n      revert(0x00, 0x00)\n    tag_84:\n      pop\n      tag_85\n      tag_86\n      jump\t// in\n    tag_85:\n      mload(0x40)\n      tag_87\n      swap2\n      swap1\n      tag_37\n      jump\t// in\n    tag_87:\n      mload(0x40)\n      dup1\n      swap2\n      sub\n      swap1\n      return\n        /* \"contracts/DecentralizedLottery2.sol\":5841:6014  function getTimeRemaining() public view returns (uint) {... */\n    tag_16:\n      callvalue\n      dup1\n      iszero\n      tag_88\n      jumpi\n      revert(0x00, 0x00)\n    tag_88:\n      pop\n      tag_89\n      tag_90\n      jump\t// in\n    tag_89:\n      mload(0x40)\n      tag_91\n      swap2\n      swap1\n      tag_37\n      jump\t// in\n    tag_91:\n      mload(0x40)\n      dup1\n      swap2\n      sub\n      swap1\n      return\n        /* \"contracts/DecentralizedLottery2.sol\":873:897  uint public roundEndTime */\n    tag_17:\n      callvalue\n      dup1\n      iszero\n      tag_92\n      jumpi\n      revert(0x00, 0x00)\n    tag_92:\n      pop\n      tag_93\n      tag_94\n      jump\t// in\n    tag_93:\n      mload(0x40)\n      tag_95\n      swap2\n      swap1\n      tag_37\n      jump\t// in\n    tag_95:\n      mload(0x40)\n      dup1\n      swap2\n      sub\n      swap1\n      return\n        /* \"contracts/DecentralizedLottery2.sol\":3264:4022  function buyTicket() public payable {... */\n    tag_18:\n      tag_96\n      tag_97\n      jump\t// in\n    tag_96:\n      stop\n        /* \"contracts/DecentralizedLottery2.sol\":1060:1084  address[] public players */\n    tag_19:\n      callvalue\n      dup1\n      iszero\n      tag_98\n      jumpi\n      revert(0x00, 0x00)\n    tag_98:\n      pop\n      tag_99\n      0x04\n      dup1\n      calldatasize\n      sub\n      dup2\n      add\n      swap1\n      tag_100\n      swap2\n      swap1\n      tag_101\n      jump\t// in\n    tag_100:\n      tag_102\n      jump\t// in\n    tag_99:\n      mload(0x40)\n      tag_103\n      swap2\n      swap1\n      tag_76\n      jump\t// in\n    tag_103:\n      mload(0x40)\n      dup1\n      swap2\n      sub\n      swap1\n      return\n        /* \"contracts/DecentralizedLottery2.sol\":1146:1171  address public lastWinner */\n    tag_20:\n      callvalue\n      dup1\n      iszero\n      tag_104\n      jumpi\n      revert(0x00, 0x00)\n    tag_104:\n      pop\n      tag_105\n      tag_106\n      jump\t// in\n    tag_105:\n      mload(0x40)\n      tag_107\n      swap2\n      swap1\n      tag_76\n      jump\t// in\n    tag_107:\n      mload(0x40)\n      dup1\n      swap2\n      sub\n      swap1\n      return\n        /* \"contracts/DecentralizedLottery2.sol\":6920:7187  function getPlayerTicketCount(address player) public view returns (uint) {... */\n    tag_35:\n        /* \"contracts/DecentralizedLottery2.sol\":6987:6991  uint */\n      0x00\n        /* \"contracts/DecentralizedLottery2.sol\":7003:7013  uint count */\n      0x00\n        /* \"contracts/DecentralizedLottery2.sol\":7016:7017  0 */\n      0x00\n        /* \"contracts/DecentralizedLottery2.sol\":7003:7017  uint count = 0 */\n      swap1\n      pop\n        /* \"contracts/DecentralizedLottery2.sol\":7032:7038  uint i */\n      0x00\n        /* \"contracts/DecentralizedLottery2.sol\":7041:7042  0 */\n      0x00\n        /* \"contracts/DecentralizedLottery2.sol\":7032:7042  uint i = 0 */\n      swap1\n      pop\n        /* \"contracts/DecentralizedLottery2.sol\":7027:7159  for (uint i = 0; i < players.length; i++) {... */\n    tag_109:\n        /* \"contracts/DecentralizedLottery2.sol\":7048:7055  players */\n      0x03\n        /* \"contracts/DecentralizedLottery2.sol\":7048:7062  players.length */\n      dup1\n      sload\n      swap1\n      pop\n        /* \"contracts/DecentralizedLottery2.sol\":7044:7045  i */\n      dup2\n        /* \"contracts/DecentralizedLottery2.sol\":7044:7062  i < players.length */\n      lt\n        /* \"contracts/DecentralizedLottery2.sol\":7027:7159  for (uint i = 0; i < players.length; i++) {... */\n      iszero\n      tag_110\n      jumpi\n        /* \"contracts/DecentralizedLottery2.sol\":7101:7107  player */\n      dup4\n        /* \"contracts/DecentralizedLottery2.sol\":7087:7107  players[i] == player */\n      0xffffffffffffffffffffffffffffffffffffffff\n      and\n        /* \"contracts/DecentralizedLottery2.sol\":7087:7094  players */\n      0x03\n        /* \"contracts/DecentralizedLottery2.sol\":7095:7096  i */\n      dup3\n        /* \"contracts/DecentralizedLottery2.sol\":7087:7097  players[i] */\n      dup2\n      sload\n      dup2\n      lt\n      tag_112\n      jumpi\n      tag_113\n      tag_114\n      jump\t// in\n    tag_113:\n    tag_112:\n      swap1\n      0x00\n      mstore\n      keccak256(0x00, 0x20)\n      add\n      0x00\n      swap1\n      sload\n      swap1\n      0x0100\n      exp\n      swap1\n      div\n      0xffffffffffffffffffffffffffffffffffffffff\n      and\n        /* \"contracts/DecentralizedLottery2.sol\":7087:7107  players[i] == player */\n      0xffffffffffffffffffffffffffffffffffffffff\n      and\n      sub\n        /* \"contracts/DecentralizedLottery2.sol\":7083:7149  if (players[i] == player) {... */\n      tag_116\n      jumpi\n        /* \"contracts/DecentralizedLottery2.sol\":7127:7134  count++ */\n      dup2\n      dup1\n      tag_117\n      swap1\n      tag_118\n      jump\t// in\n    tag_117:\n      swap3\n      pop\n      pop\n        /* \"contracts/DecentralizedLottery2.sol\":7083:7149  if (players[i] == player) {... */\n    tag_116:\n        /* \"contracts/DecentralizedLottery2.sol\":7064:7067  i++ */\n      dup1\n      dup1\n      0x01\n      add\n      swap2\n      pop\n      pop\n        /* \"contracts/DecentralizedLottery2.sol\":7027:7159  for (uint i = 0; i < players.length; i++) {... */\n      jump(tag_109)\n    tag_110:\n      pop\n        /* \"contracts/DecentralizedLottery2.sol\":7175:7180  count */\n      dup1\n        /* \"contracts/DecentralizedLottery2.sol\":7168:7180  return count */\n      swap2\n      pop\n      pop\n        /* \"contracts/DecentralizedLottery2.sol\":6920:7187  function getPlayerTicketCount(address player) public view returns (uint) {... */\n      swap2\n      swap1\n      pop\n      jump\t// out\n        /* \"contracts/DecentralizedLottery2.sol\":544:590  uint public constant TICKET_PRICE = 0.01 ether */\n    tag_40:\n        /* \"contracts/DecentralizedLottery2.sol\":580:590  0.01 ether */\n      0x2386f26fc10000\n        /* \"contracts/DecentralizedLottery2.sol\":544:590  uint public constant TICKET_PRICE = 0.01 ether */\n      dup2\n      jump\t// out\n        /* \"contracts/DecentralizedLottery2.sol\":7506:7871  function getLotteryStatus() public view returns (... */\n    tag_44:\n        /* \"contracts/DecentralizedLottery2.sol\":7564:7578  bool _isActive */\n      0x00\n        /* \"contracts/DecentralizedLottery2.sol\":7588:7607  uint _timeRemaining */\n      0x00\n        /* \"contracts/DecentralizedLottery2.sol\":7617:7634  uint _playerCount */\n      0x00\n        /* \"contracts/DecentralizedLottery2.sol\":7644:7659  uint _prizePool */\n      0x00\n        /* \"contracts/DecentralizedLottery2.sol\":7669:7686  uint _roundNumber */\n      0x00\n        /* \"contracts/DecentralizedLottery2.sol\":7724:7739  isRoundActive() */\n      tag_120\n        /* \"contracts/DecentralizedLottery2.sol\":7724:7737  isRoundActive */\n      tag_52\n        /* \"contracts/DecentralizedLottery2.sol\":7724:7739  isRoundActive() */\n      jump\t// in\n    tag_120:\n        /* \"contracts/DecentralizedLottery2.sol\":7753:7771  getTimeRemaining() */\n      tag_121\n        /* \"contracts/DecentralizedLottery2.sol\":7753:7769  getTimeRemaining */\n      tag_90\n        /* \"contracts/DecentralizedLottery2.sol\":7753:7771  getTimeRemaining() */\n      jump\t// in\n    tag_121:\n        /* \"contracts/DecentralizedLottery2.sol\":7785:7801  getPlayerCount() */\n      tag_122\n        /* \"contracts/DecentralizedLottery2.sol\":7785:7799  getPlayerCount */\n      tag_86\n        /* \"contracts/DecentralizedLottery2.sol\":7785:7801  getPlayerCount() */\n      jump\t// in\n    tag_122:\n        /* \"contracts/DecentralizedLottery2.sol\":7815:7829  getPrizePool() */\n      tag_123\n        /* \"contracts/DecentralizedLottery2.sol\":7815:7827  getPrizePool */\n      tag_65\n        /* \"contracts/DecentralizedLottery2.sol\":7815:7829  getPrizePool() */\n      jump\t// in\n    tag_123:\n        /* \"contracts/DecentralizedLottery2.sol\":7843:7854  roundNumber */\n      sload(0x01)\n        /* \"contracts/DecentralizedLottery2.sol\":7703:7864  return (... */\n      swap5\n      pop\n      swap5\n      pop\n      swap5\n      pop\n      swap5\n      pop\n      swap5\n      pop\n        /* \"contracts/DecentralizedLottery2.sol\":7506:7871  function getLotteryStatus() public view returns (... */\n      swap1\n      swap2\n      swap3\n      swap4\n      swap5\n      jump\t// out\n        /* \"contracts/DecentralizedLottery2.sol\":4318:5393  function selectWinner() public {... */\n    tag_49:\n        /* \"contracts/DecentralizedLottery2.sol\":4386:4401  isRoundActive() */\n      tag_125\n        /* \"contracts/DecentralizedLottery2.sol\":4386:4399  isRoundActive */\n      tag_52\n        /* \"contracts/DecentralizedLottery2.sol\":4386:4401  isRoundActive() */\n      jump\t// in\n    tag_125:\n        /* \"contracts/DecentralizedLottery2.sol\":4385:4401  !isRoundActive() */\n      iszero\n        /* \"contracts/DecentralizedLottery2.sol\":4377:4427  require(!isRoundActive(), \"Round is still active\") */\n      tag_126\n      jumpi\n      mload(0x40)\n      0x08c379a000000000000000000000000000000000000000000000000000000000\n      dup2\n      mstore\n      0x04\n      add\n      tag_127\n      swap1\n      tag_128\n      jump\t// in\n    tag_127:\n      mload(0x40)\n      dup1\n      swap2\n      sub\n      swap1\n      revert\n    tag_126:\n        /* \"contracts/DecentralizedLottery2.sol\":4460:4461  0 */\n      0x00\n        /* \"contracts/DecentralizedLottery2.sol\":4445:4457  roundEndTime */\n      sload(0x02)\n        /* \"contracts/DecentralizedLottery2.sol\":4445:4461  roundEndTime > 0 */\n      gt\n        /* \"contracts/DecentralizedLottery2.sol\":4437:4491  require(roundEndTime > 0, \"No round has been started\") */\n      tag_129\n      jumpi\n      mload(0x40)\n      0x08c379a000000000000000000000000000000000000000000000000000000000\n      dup2\n      mstore\n      0x04\n      add\n      tag_130\n      swap1\n      tag_131\n      jump\t// in\n    tag_130:\n      mload(0x40)\n      dup1\n      swap2\n      sub\n      swap1\n      revert\n    tag_129:\n        /* \"contracts/DecentralizedLottery2.sol\":4526:4527  0 */\n      0x00\n        /* \"contracts/DecentralizedLottery2.sol\":4509:4516  players */\n      0x03\n        /* \"contracts/DecentralizedLottery2.sol\":4509:4523  players.length */\n      dup1\n      sload\n      swap1\n      pop\n        /* \"contracts/DecentralizedLottery2.sol\":4509:4527  players.length > 0 */\n      gt\n        /* \"contracts/DecentralizedLottery2.sol\":4501:4556  require(players.length > 0, \"No players in this round\") */\n      tag_132\n      jumpi\n      mload(0x40)\n      0x08c379a000000000000000000000000000000000000000000000000000000000\n      dup2\n      mstore\n      0x04\n      add\n      tag_133\n      swap1\n      tag_134\n      jump\t// in\n    tag_133:\n      mload(0x40)\n      dup1\n      swap2\n      sub\n      swap1\n      revert\n    tag_132:\n        /* \"contracts/DecentralizedLottery2.sol\":4609:4625  uint randomIndex */\n      0x00\n        /* \"contracts/DecentralizedLottery2.sol\":4654:4661  players */\n      0x03\n        /* \"contracts/DecentralizedLottery2.sol\":4654:4668  players.length */\n      dup1\n      sload\n      swap1\n      pop\n        /* \"contracts/DecentralizedLottery2.sol\":4628:4651  _generateRandomNumber() */\n      tag_135\n        /* \"contracts/DecentralizedLottery2.sol\":4628:4649  _generateRandomNumber */\n      tag_136\n        /* \"contracts/DecentralizedLottery2.sol\":4628:4651  _generateRandomNumber() */\n      jump\t// in\n    tag_135:\n        /* \"contracts/DecentralizedLottery2.sol\":4628:4668  _generateRandomNumber() % players.length */\n      tag_137\n      swap2\n      swap1\n      tag_138\n      jump\t// in\n    tag_137:\n        /* \"contracts/DecentralizedLottery2.sol\":4609:4668  uint randomIndex = _generateRandomNumber() % players.length */\n      swap1\n      pop\n        /* \"contracts/DecentralizedLottery2.sol\":4715:4729  address winner */\n      0x00\n        /* \"contracts/DecentralizedLottery2.sol\":4732:4739  players */\n      0x03\n        /* \"contracts/DecentralizedLottery2.sol\":4740:4751  randomIndex */\n      dup3\n        /* \"contracts/DecentralizedLottery2.sol\":4732:4752  players[randomIndex] */\n      dup2\n      sload\n      dup2\n      lt\n      tag_139\n      jumpi\n      tag_140\n      tag_114\n      jump\t// in\n    tag_140:\n    tag_139:\n      swap1\n      0x00\n      mstore\n      keccak256(0x00, 0x20)\n      add\n      0x00\n      swap1\n      sload\n      swap1\n      0x0100\n      exp\n      swap1\n      div\n      0xffffffffffffffffffffffffffffffffffffffff\n      and\n        /* \"contracts/DecentralizedLottery2.sol\":4715:4752  address winner = players[randomIndex] */\n      swap1\n      pop\n        /* \"contracts/DecentralizedLottery2.sol\":4828:4838  uint prize */\n      0x00\n        /* \"contracts/DecentralizedLottery2.sol\":4841:4862  address(this).balance */\n      selfbalance\n        /* \"contracts/DecentralizedLottery2.sol\":4828:4862  uint prize = address(this).balance */\n      swap1\n      pop\n        /* \"contracts/DecentralizedLottery2.sol\":4941:4947  winner */\n      dup2\n        /* \"contracts/DecentralizedLottery2.sol\":4928:4938  lastWinner */\n      0x04\n      0x00\n        /* \"contracts/DecentralizedLottery2.sol\":4928:4947  lastWinner = winner */\n      0x0100\n      exp\n      dup2\n      sload\n      dup2\n      0xffffffffffffffffffffffffffffffffffffffff\n      mul\n      not\n      and\n      swap1\n      dup4\n      0xffffffffffffffffffffffffffffffffffffffff\n      and\n      mul\n      or\n      swap1\n      sstore\n      pop\n        /* \"contracts/DecentralizedLottery2.sol\":4975:4980  prize */\n      dup1\n        /* \"contracts/DecentralizedLottery2.sol\":4957:4972  lastPrizeAmount */\n      0x05\n        /* \"contracts/DecentralizedLottery2.sol\":4957:4980  lastPrizeAmount = prize */\n      dup2\n      swap1\n      sstore\n      pop\n        /* \"contracts/DecentralizedLottery2.sol\":5052:5059  players */\n      0x03\n      0x00\n        /* \"contracts/DecentralizedLottery2.sol\":5045:5059  delete players */\n      tag_142\n      swap2\n      swap1\n      tag_143\n      jump\t// in\n    tag_142:\n        /* \"contracts/DecentralizedLottery2.sol\":5125:5126  0 */\n      0x00\n        /* \"contracts/DecentralizedLottery2.sol\":5110:5122  roundEndTime */\n      0x02\n        /* \"contracts/DecentralizedLottery2.sol\":5110:5126  roundEndTime = 0 */\n      dup2\n      swap1\n      sstore\n      pop\n        /* \"contracts/DecentralizedLottery2.sol\":5179:5185  winner */\n      dup2\n        /* \"contracts/DecentralizedLottery2.sol\":5164:5206  WinnerSelected(winner, prize, roundNumber) */\n      0xffffffffffffffffffffffffffffffffffffffff\n      and\n      0x866efae43947560fe9d0de9013bc323d5718730d5c1543261b48a7bcb0717b93\n        /* \"contracts/DecentralizedLottery2.sol\":5187:5192  prize */\n      dup3\n        /* \"contracts/DecentralizedLottery2.sol\":5194:5205  roundNumber */\n      sload(0x01)\n        /* \"contracts/DecentralizedLottery2.sol\":5164:5206  WinnerSelected(winner, prize, roundNumber) */\n      mload(0x40)\n      tag_144\n      swap3\n      swap2\n      swap1\n      tag_145\n      jump\t// in\n    tag_144:\n      mload(0x40)\n      dup1\n      swap2\n      sub\n      swap1\n      log2\n        /* \"contracts/DecentralizedLottery2.sol\":5279:5291  bool success */\n      0x00\n        /* \"contracts/DecentralizedLottery2.sol\":5305:5311  winner */\n      dup3\n        /* \"contracts/DecentralizedLottery2.sol\":5297:5317  payable(winner).call */\n      0xffffffffffffffffffffffffffffffffffffffff\n      and\n        /* \"contracts/DecentralizedLottery2.sol\":5325:5330  prize */\n      dup3\n        /* \"contracts/DecentralizedLottery2.sol\":5297:5335  payable(winner).call{value: prize}(\"\") */\n      mload(0x40)\n      tag_146\n      swap1\n      tag_147\n      jump\t// in\n    tag_146:\n      0x00\n      mload(0x40)\n      dup1\n      dup4\n      sub\n      dup2\n      dup6\n      dup8\n      gas\n      call\n      swap3\n      pop\n      pop\n      pop\n      returndatasize\n      dup1\n      0x00\n      dup2\n      eq\n      tag_150\n      jumpi\n      mload(0x40)\n      swap2\n      pop\n      and(add(returndatasize, 0x3f), not(0x1f))\n      dup3\n      add\n      0x40\n      mstore\n      returndatasize\n      dup3\n      mstore\n      returndatasize\n      0x00\n      0x20\n      dup5\n      add\n      returndatacopy\n      jump(tag_149)\n    tag_150:\n      0x60\n      swap2\n      pop\n    tag_149:\n      pop\n        /* \"contracts/DecentralizedLottery2.sol\":5278:5335  (bool success, ) = payable(winner).call{value: prize}(\"\") */\n      pop\n      swap1\n      pop\n        /* \"contracts/DecentralizedLottery2.sol\":5353:5360  success */\n      dup1\n        /* \"contracts/DecentralizedLottery2.sol\":5345:5386  require(success, \"Prize transfer failed\") */\n      tag_151\n      jumpi\n      mload(0x40)\n      0x08c379a000000000000000000000000000000000000000000000000000000000\n      dup2\n      mstore\n      0x04\n      add\n      tag_152\n      swap1\n      tag_153\n      jump\t// in\n    tag_152:\n      mload(0x40)\n      dup1\n      swap2\n      sub\n      swap1\n      revert\n    tag_151:\n        /* \"contracts/DecentralizedLottery2.sol\":4349:5393  {... */\n      pop\n      pop\n      pop\n      pop\n        /* \"contracts/DecentralizedLottery2.sol\":4318:5393  function selectWinner() public {... */\n      jump\t// out\n        /* \"contracts/DecentralizedLottery2.sol\":5570:5696  function isRoundActive() public view returns (bool) {... */\n    tag_52:\n        /* \"contracts/DecentralizedLottery2.sol\":5616:5620  bool */\n      0x00\n        /* \"contracts/DecentralizedLottery2.sol\":5657:5669  roundEndTime */\n      sload(0x02)\n        /* \"contracts/DecentralizedLottery2.sol\":5639:5654  block.timestamp */\n      timestamp\n        /* \"contracts/DecentralizedLottery2.sol\":5639:5669  block.timestamp < roundEndTime */\n      lt\n        /* \"contracts/DecentralizedLottery2.sol\":5639:5689  block.timestamp < roundEndTime && roundEndTime > 0 */\n      dup1\n      iszero\n      tag_155\n      jumpi\n      pop\n        /* \"contracts/DecentralizedLottery2.sol\":5688:5689  0 */\n      0x00\n        /* \"contracts/DecentralizedLottery2.sol\":5673:5685  roundEndTime */\n      sload(0x02)\n        /* \"contracts/DecentralizedLottery2.sol\":5673:5689  roundEndTime > 0 */\n      gt\n        /* \"contracts/DecentralizedLottery2.sol\":5639:5689  block.timestamp < roundEndTime && roundEndTime > 0 */\n    tag_155:\n        /* \"contracts/DecentralizedLottery2.sol\":5632:5689  return block.timestamp < roundEndTime && roundEndTime > 0 */\n      swap1\n      pop\n        /* \"contracts/DecentralizedLottery2.sol\":5570:5696  function isRoundActive() public view returns (bool) {... */\n      swap1\n      jump\t// out\n        /* \"contracts/DecentralizedLottery2.sol\":785:808  uint public roundNumber */\n    tag_57:\n      sload(0x01)\n      dup2\n      jump\t// out\n        /* \"contracts/DecentralizedLottery2.sol\":648:695  uint public constant ROUND_DURATION = 5 minutes */\n    tag_61:\n        /* \"contracts/DecentralizedLottery2.sol\":686:695  5 minutes */\n      0x012c\n        /* \"contracts/DecentralizedLottery2.sol\":648:695  uint public constant ROUND_DURATION = 5 minutes */\n      dup2\n      jump\t// out\n        /* \"contracts/DecentralizedLottery2.sol\":6358:6454  function getPrizePool() public view returns (uint) {... */\n    tag_65:\n        /* \"contracts/DecentralizedLottery2.sol\":6403:6407  uint */\n      0x00\n        /* \"contracts/DecentralizedLottery2.sol\":6426:6447  address(this).balance */\n      selfbalance\n        /* \"contracts/DecentralizedLottery2.sol\":6419:6447  return address(this).balance */\n      swap1\n      pop\n        /* \"contracts/DecentralizedLottery2.sol\":6358:6454  function getPrizePool() public view returns (uint) {... */\n      swap1\n      jump\t// out\n        /* \"contracts/DecentralizedLottery2.sol\":6623:6715  function getPlayers() public view returns (address[] memory) {... */\n    tag_69:\n        /* \"contracts/DecentralizedLottery2.sol\":6666:6682  address[] memory */\n      0x60\n        /* \"contracts/DecentralizedLottery2.sol\":6701:6708  players */\n      0x03\n        /* \"contracts/DecentralizedLottery2.sol\":6694:6708  return players */\n      dup1\n      sload\n      dup1\n      0x20\n      mul\n      0x20\n      add\n      mload(0x40)\n      swap1\n      dup2\n      add\n      0x40\n      mstore\n      dup1\n      swap3\n      swap2\n      swap1\n      dup2\n      dup2\n      mstore\n      0x20\n      add\n      dup3\n      dup1\n      sload\n      dup1\n      iszero\n      tag_158\n      jumpi\n      0x20\n      mul\n      dup3\n      add\n      swap2\n      swap1\n      0x00\n      mstore\n      keccak256(0x00, 0x20)\n      swap1\n    tag_159:\n      dup2\n      0x00\n      swap1\n      sload\n      swap1\n      0x0100\n      exp\n      swap1\n      div\n      0xffffffffffffffffffffffffffffffffffffffff\n      and\n      0xffffffffffffffffffffffffffffffffffffffff\n      and\n      dup2\n      mstore\n      0x20\n      add\n      swap1\n      0x01\n      add\n      swap1\n      dup1\n      dup4\n      gt\n      tag_159\n      jumpi\n    tag_158:\n      pop\n      pop\n      pop\n      pop\n      pop\n      swap1\n      pop\n        /* \"contracts/DecentralizedLottery2.sol\":6623:6715  function getPlayers() public view returns (address[] memory) {... */\n      swap1\n      jump\t// out\n        /* \"contracts/DecentralizedLottery2.sol\":466:486  address public owner */\n    tag_74:\n      0x00\n      0x00\n      swap1\n      sload\n      swap1\n      0x0100\n      exp\n      swap1\n      div\n      0xffffffffffffffffffffffffffffffffffffffff\n      and\n      dup2\n      jump\t// out\n        /* \"contracts/DecentralizedLottery2.sol\":1233:1260  uint public lastPrizeAmount */\n    tag_79:\n      sload(0x05)\n      dup2\n      jump\t// out\n        /* \"contracts/DecentralizedLottery2.sol\":2482:3037  function startNewRound() public onlyOwner {... */\n    tag_83:\n        /* \"contracts/DecentralizedLottery2.sol\":1959:1964  owner */\n      0x00\n      0x00\n      swap1\n      sload\n      swap1\n      0x0100\n      exp\n      swap1\n      div\n      0xffffffffffffffffffffffffffffffffffffffff\n      and\n        /* \"contracts/DecentralizedLottery2.sol\":1945:1964  msg.sender == owner */\n      0xffffffffffffffffffffffffffffffffffffffff\n      and\n        /* \"contracts/DecentralizedLottery2.sol\":1945:1955  msg.sender */\n      caller\n        /* \"contracts/DecentralizedLottery2.sol\":1945:1964  msg.sender == owner */\n      0xffffffffffffffffffffffffffffffffffffffff\n      and\n      eq\n        /* \"contracts/DecentralizedLottery2.sol\":1937:2002  require(msg.sender == owner, \"Only owner can call this function\") */\n      tag_161\n      jumpi\n      mload(0x40)\n      0x08c379a000000000000000000000000000000000000000000000000000000000\n      dup2\n      mstore\n      0x04\n      add\n      tag_162\n      swap1\n      tag_163\n      jump\t// in\n    tag_162:\n      mload(0x40)\n      dup1\n      swap2\n      sub\n      swap1\n      revert\n    tag_161:\n        /* \"contracts/DecentralizedLottery2.sol\":2641:2642  0 */\n      0x00\n        /* \"contracts/DecentralizedLottery2.sol\":2625:2637  roundEndTime */\n      sload(0x02)\n        /* \"contracts/DecentralizedLottery2.sol\":2625:2642  roundEndTime == 0 */\n      eq\n        /* \"contracts/DecentralizedLottery2.sol\":2625:2677  roundEndTime == 0 || block.timestamp >= roundEndTime */\n      dup1\n      tag_165\n      jumpi\n      pop\n        /* \"contracts/DecentralizedLottery2.sol\":2665:2677  roundEndTime */\n      sload(0x02)\n        /* \"contracts/DecentralizedLottery2.sol\":2646:2661  block.timestamp */\n      timestamp\n        /* \"contracts/DecentralizedLottery2.sol\":2646:2677  block.timestamp >= roundEndTime */\n      lt\n      iszero\n        /* \"contracts/DecentralizedLottery2.sol\":2625:2677  roundEndTime == 0 || block.timestamp >= roundEndTime */\n    tag_165:\n        /* \"contracts/DecentralizedLottery2.sol\":2604:2734  require(... */\n      tag_166\n      jumpi\n      mload(0x40)\n      0x08c379a000000000000000000000000000000000000000000000000000000000\n      dup2\n      mstore\n      0x04\n      add\n      tag_167\n      swap1\n      tag_168\n      jump\t// in\n    tag_167:\n      mload(0x40)\n      dup1\n      swap2\n      sub\n      swap1\n      revert\n    tag_166:\n        /* \"contracts/DecentralizedLottery2.sol\":2805:2812  players */\n      0x03\n      0x00\n        /* \"contracts/DecentralizedLottery2.sol\":2798:2812  delete players */\n      tag_169\n      swap2\n      swap1\n      tag_143\n      jump\t// in\n    tag_169:\n        /* \"contracts/DecentralizedLottery2.sol\":2861:2872  roundNumber */\n      0x01\n      0x00\n        /* \"contracts/DecentralizedLottery2.sol\":2861:2874  roundNumber++ */\n      dup2\n      sload\n      dup1\n      swap3\n      swap2\n      swap1\n      tag_170\n      swap1\n      tag_118\n      jump\t// in\n    tag_170:\n      swap2\n      swap1\n      pop\n      sstore\n      pop\n        /* \"contracts/DecentralizedLottery2.sol\":686:695  5 minutes */\n      0x012c\n        /* \"contracts/DecentralizedLottery2.sol\":2943:2958  block.timestamp */\n      timestamp\n        /* \"contracts/DecentralizedLottery2.sol\":2943:2975  block.timestamp + ROUND_DURATION */\n      tag_171\n      swap2\n      swap1\n      tag_172\n      jump\t// in\n    tag_171:\n        /* \"contracts/DecentralizedLottery2.sol\":2928:2940  roundEndTime */\n      0x02\n        /* \"contracts/DecentralizedLottery2.sol\":2928:2975  roundEndTime = block.timestamp + ROUND_DURATION */\n      dup2\n      swap1\n      sstore\n      pop\n        /* \"contracts/DecentralizedLottery2.sol\":2991:3030  RoundStarted(roundNumber, roundEndTime) */\n      0x278844837bcf8364a705384bf3a2812901f54155bae86dea81dd52aa5b9ec0e3\n        /* \"contracts/DecentralizedLottery2.sol\":3004:3015  roundNumber */\n      sload(0x01)\n        /* \"contracts/DecentralizedLottery2.sol\":3017:3029  roundEndTime */\n      sload(0x02)\n        /* \"contracts/DecentralizedLottery2.sol\":2991:3030  RoundStarted(roundNumber, roundEndTime) */\n      mload(0x40)\n      tag_173\n      swap3\n      swap2\n      swap1\n      tag_145\n      jump\t// in\n    tag_173:\n      mload(0x40)\n      dup1\n      swap2\n      sub\n      swap1\n      log1\n        /* \"contracts/DecentralizedLottery2.sol\":2482:3037  function startNewRound() public onlyOwner {... */\n      jump\t// out\n        /* \"contracts/DecentralizedLottery2.sol\":6156:6247  function getPlayerCount() public view returns (uint) {... */\n    tag_86:\n        /* \"contracts/DecentralizedLottery2.sol\":6203:6207  uint */\n      0x00\n        /* \"contracts/DecentralizedLottery2.sol\":6226:6233  players */\n      0x03\n        /* \"contracts/DecentralizedLottery2.sol\":6226:6240  players.length */\n      dup1\n      sload\n      swap1\n      pop\n        /* \"contracts/DecentralizedLottery2.sol\":6219:6240  return players.length */\n      swap1\n      pop\n        /* \"contracts/DecentralizedLottery2.sol\":6156:6247  function getPlayerCount() public view returns (uint) {... */\n      swap1\n      jump\t// out\n        /* \"contracts/DecentralizedLottery2.sol\":5841:6014  function getTimeRemaining() public view returns (uint) {... */\n    tag_90:\n        /* \"contracts/DecentralizedLottery2.sol\":5890:5894  uint */\n      0x00\n        /* \"contracts/DecentralizedLottery2.sol\":5911:5926  isRoundActive() */\n      tag_176\n        /* \"contracts/DecentralizedLottery2.sol\":5911:5924  isRoundActive */\n      tag_52\n        /* \"contracts/DecentralizedLottery2.sol\":5911:5926  isRoundActive() */\n      jump\t// in\n    tag_176:\n        /* \"contracts/DecentralizedLottery2.sol\":5906:5961  if (!isRoundActive()) {... */\n      tag_177\n      jumpi\n        /* \"contracts/DecentralizedLottery2.sol\":5949:5950  0 */\n      0x00\n        /* \"contracts/DecentralizedLottery2.sol\":5942:5950  return 0 */\n      swap1\n      pop\n      jump(tag_175)\n        /* \"contracts/DecentralizedLottery2.sol\":5906:5961  if (!isRoundActive()) {... */\n    tag_177:\n        /* \"contracts/DecentralizedLottery2.sol\":5992:6007  block.timestamp */\n      timestamp\n        /* \"contracts/DecentralizedLottery2.sol\":5977:5989  roundEndTime */\n      sload(0x02)\n        /* \"contracts/DecentralizedLottery2.sol\":5977:6007  roundEndTime - block.timestamp */\n      tag_178\n      swap2\n      swap1\n      tag_179\n      jump\t// in\n    tag_178:\n        /* \"contracts/DecentralizedLottery2.sol\":5970:6007  return roundEndTime - block.timestamp */\n      swap1\n      pop\n        /* \"contracts/DecentralizedLottery2.sol\":5841:6014  function getTimeRemaining() public view returns (uint) {... */\n    tag_175:\n      swap1\n      jump\t// out\n        /* \"contracts/DecentralizedLottery2.sol\":873:897  uint public roundEndTime */\n    tag_94:\n      sload(0x02)\n      dup2\n      jump\t// out\n        /* \"contracts/DecentralizedLottery2.sol\":3264:4022  function buyTicket() public payable {... */\n    tag_97:\n        /* \"contracts/DecentralizedLottery2.sol\":3336:3351  isRoundActive() */\n      tag_181\n        /* \"contracts/DecentralizedLottery2.sol\":3336:3349  isRoundActive */\n      tag_52\n        /* \"contracts/DecentralizedLottery2.sol\":3336:3351  isRoundActive() */\n      jump\t// in\n    tag_181:\n        /* \"contracts/DecentralizedLottery2.sol\":3328:3371  require(isRoundActive(), \"No active round\") */\n      tag_182\n      jumpi\n      mload(0x40)\n      0x08c379a000000000000000000000000000000000000000000000000000000000\n      dup2\n      mstore\n      0x04\n      add\n      tag_183\n      swap1\n      tag_184\n      jump\t// in\n    tag_183:\n      mload(0x40)\n      dup1\n      swap2\n      sub\n      swap1\n      revert\n    tag_182:\n        /* \"contracts/DecentralizedLottery2.sol\":3401:3402  0 */\n      0x00\n        /* \"contracts/DecentralizedLottery2.sol\":3389:3398  msg.value */\n      callvalue\n        /* \"contracts/DecentralizedLottery2.sol\":3389:3402  msg.value > 0 */\n      gt\n        /* \"contracts/DecentralizedLottery2.sol\":3381:3435  require(msg.value > 0, \"Must send ETH to buy tickets\") */\n      tag_185\n      jumpi\n      mload(0x40)\n      0x08c379a000000000000000000000000000000000000000000000000000000000\n      dup2\n      mstore\n      0x04\n      add\n      tag_186\n      swap1\n      tag_187\n      jump\t// in\n    tag_186:\n      mload(0x40)\n      dup1\n      swap2\n      sub\n      swap1\n      revert\n    tag_185:\n        /* \"contracts/DecentralizedLottery2.sol\":3481:3482  0 */\n      0x00\n        /* \"contracts/DecentralizedLottery2.sol\":580:590  0.01 ether */\n      0x2386f26fc10000\n        /* \"contracts/DecentralizedLottery2.sol\":3453:3462  msg.value */\n      callvalue\n        /* \"contracts/DecentralizedLottery2.sol\":3453:3477  msg.value % TICKET_PRICE */\n      tag_188\n      swap2\n      swap1\n      tag_138\n      jump\t// in\n    tag_188:\n        /* \"contracts/DecentralizedLottery2.sol\":3453:3482  msg.value % TICKET_PRICE == 0 */\n      eq\n        /* \"contracts/DecentralizedLottery2.sol\":3445:3527  require(msg.value % TICKET_PRICE == 0, \"Must send exact multiple of ticket price\") */\n      tag_189\n      jumpi\n      mload(0x40)\n      0x08c379a000000000000000000000000000000000000000000000000000000000\n      dup2\n      mstore\n      0x04\n      add\n      tag_190\n      swap1\n      tag_191\n      jump\t// in\n    tag_190:\n      mload(0x40)\n      dup1\n      swap2\n      sub\n      swap1\n      revert\n    tag_189:\n        /* \"contracts/DecentralizedLottery2.sol\":3593:3609  uint ticketCount */\n      0x00\n        /* \"contracts/DecentralizedLottery2.sol\":580:590  0.01 ether */\n      0x2386f26fc10000\n        /* \"contracts/DecentralizedLottery2.sol\":3612:3621  msg.value */\n      callvalue\n        /* \"contracts/DecentralizedLottery2.sol\":3612:3636  msg.value / TICKET_PRICE */\n      tag_192\n      swap2\n      swap1\n      tag_193\n      jump\t// in\n    tag_192:\n        /* \"contracts/DecentralizedLottery2.sol\":3593:3636  uint ticketCount = msg.value / TICKET_PRICE */\n      swap1\n      pop\n        /* \"contracts/DecentralizedLottery2.sol\":3800:3806  uint i */\n      0x00\n        /* \"contracts/DecentralizedLottery2.sol\":3809:3810  0 */\n      0x00\n        /* \"contracts/DecentralizedLottery2.sol\":3800:3810  uint i = 0 */\n      swap1\n      pop\n        /* \"contracts/DecentralizedLottery2.sol\":3795:3883  for (uint i = 0; i < ticketCount; i++) {... */\n    tag_194:\n        /* \"contracts/DecentralizedLottery2.sol\":3816:3827  ticketCount */\n      dup2\n        /* \"contracts/DecentralizedLottery2.sol\":3812:3813  i */\n      dup2\n        /* \"contracts/DecentralizedLottery2.sol\":3812:3827  i < ticketCount */\n      lt\n        /* \"contracts/DecentralizedLottery2.sol\":3795:3883  for (uint i = 0; i < ticketCount; i++) {... */\n      iszero\n      tag_195\n      jumpi\n        /* \"contracts/DecentralizedLottery2.sol\":3848:3855  players */\n      0x03\n        /* \"contracts/DecentralizedLottery2.sol\":3861:3871  msg.sender */\n      caller\n        /* \"contracts/DecentralizedLottery2.sol\":3848:3872  players.push(msg.sender) */\n      swap1\n      dup1\n      0x01\n      dup2\n      sload\n      add\n      dup1\n      dup3\n      sstore\n      dup1\n      swap2\n      pop\n      pop\n      0x01\n      swap1\n      sub\n      swap1\n      0x00\n      mstore\n      keccak256(0x00, 0x20)\n      add\n      0x00\n      swap1\n      swap2\n      swap1\n      swap2\n      swap1\n      swap2\n      0x0100\n      exp\n      dup2\n      sload\n      dup2\n      0xffffffffffffffffffffffffffffffffffffffff\n      mul\n      not\n      and\n      swap1\n      dup4\n      0xffffffffffffffffffffffffffffffffffffffff\n      and\n      mul\n      or\n      swap1\n      sstore\n      pop\n        /* \"contracts/DecentralizedLottery2.sol\":3829:3832  i++ */\n      dup1\n      dup1\n      0x01\n      add\n      swap2\n      pop\n      pop\n        /* \"contracts/DecentralizedLottery2.sol\":3795:3883  for (uint i = 0; i < ticketCount; i++) {... */\n      jump(tag_194)\n    tag_195:\n      pop\n        /* \"contracts/DecentralizedLottery2.sol\":3914:3924  msg.sender */\n      caller\n        /* \"contracts/DecentralizedLottery2.sol\":3898:3938  TicketPurchased(msg.sender, ticketCount) */\n      0xffffffffffffffffffffffffffffffffffffffff\n      and\n      0x0668f5b446eb814fe35b3206f43f14bd8567ba04ddaf7a3ee56516929ab22ccb\n        /* \"contracts/DecentralizedLottery2.sol\":3926:3937  ticketCount */\n      dup3\n        /* \"contracts/DecentralizedLottery2.sol\":3898:3938  TicketPurchased(msg.sender, ticketCount) */\n      mload(0x40)\n      tag_198\n      swap2\n      swap1\n      tag_37\n      jump\t// in\n    tag_198:\n      mload(0x40)\n      dup1\n      swap2\n      sub\n      swap1\n      log2\n        /* \"contracts/DecentralizedLottery2.sol\":3300:4022  {... */\n      pop\n        /* \"contracts/DecentralizedLottery2.sol\":3264:4022  function buyTicket() public payable {... */\n      jump\t// out\n        /* \"contracts/DecentralizedLottery2.sol\":1060:1084  address[] public players */\n    tag_102:\n      0x03\n      dup2\n      dup2\n      sload\n      dup2\n      lt\n      tag_199\n      jumpi\n      0x00\n      dup1\n      revert\n    tag_199:\n      swap1\n      0x00\n      mstore\n      keccak256(0x00, 0x20)\n      add\n      0x00\n      swap2\n      pop\n      sload\n      swap1\n      0x0100\n      exp\n      swap1\n      div\n      0xffffffffffffffffffffffffffffffffffffffff\n      and\n      dup2\n      jump\t// out\n        /* \"contracts/DecentralizedLottery2.sol\":1146:1171  address public lastWinner */\n    tag_106:\n      0x04\n      0x00\n      swap1\n      sload\n      swap1\n      0x0100\n      exp\n      swap1\n      div\n      0xffffffffffffffffffffffffffffffffffffffff\n      and\n      dup2\n      jump\t// out\n        /* \"contracts/DecentralizedLottery2.sol\":8230:8551  function _generateRandomNumber() private returns (uint) {... */\n    tag_136:\n        /* \"contracts/DecentralizedLottery2.sol\":8280:8284  uint */\n      0x00\n        /* \"contracts/DecentralizedLottery2.sol\":8296:8301  nonce */\n      0x06\n      0x00\n        /* \"contracts/DecentralizedLottery2.sol\":8296:8303  nonce++ */\n      dup2\n      sload\n      dup1\n      swap3\n      swap2\n      swap1\n      tag_202\n      swap1\n      tag_118\n      jump\t// in\n    tag_202:\n      swap2\n      swap1\n      pop\n      sstore\n      pop\n        /* \"contracts/DecentralizedLottery2.sol\":8365:8380  block.timestamp */\n      timestamp\n        /* \"contracts/DecentralizedLottery2.sol\":8394:8410  block.prevrandao */\n      prevrandao\n        /* \"contracts/DecentralizedLottery2.sol\":8475:8482  players */\n      0x03\n        /* \"contracts/DecentralizedLottery2.sol\":8475:8489  players.length */\n      dup1\n      sload\n      swap1\n      pop\n        /* \"contracts/DecentralizedLottery2.sol\":8503:8508  nonce */\n      sload(0x06)\n        /* \"contracts/DecentralizedLottery2.sol\":8522:8532  msg.sender */\n      caller\n        /* \"contracts/DecentralizedLottery2.sol\":8335:8542  abi.encodePacked(... */\n      add(0x20, mload(0x40))\n      tag_203\n      swap6\n      swap5\n      swap4\n      swap3\n      swap2\n      swap1\n      tag_204\n      jump\t// in\n    tag_203:\n      mload(0x40)\n      0x20\n      dup2\n      dup4\n      sub\n      sub\n      dup2\n      mstore\n      swap1\n      0x40\n      mstore\n        /* \"contracts/DecentralizedLottery2.sol\":8325:8543  keccak256(abi.encodePacked(... */\n      dup1\n      mload\n      swap1\n      0x20\n      add\n      keccak256\n        /* \"contracts/DecentralizedLottery2.sol\":8320:8544  uint(keccak256(abi.encodePacked(... */\n      0x00\n      shr\n        /* \"contracts/DecentralizedLottery2.sol\":8313:8544  return uint(keccak256(abi.encodePacked(... */\n      swap1\n      pop\n        /* \"contracts/DecentralizedLottery2.sol\":8230:8551  function _generateRandomNumber() private returns (uint) {... */\n      swap1\n      jump\t// out\n    tag_143:\n      pop\n      dup1\n      sload\n      0x00\n      dup3\n      sstore\n      swap1\n      0x00\n      mstore\n      keccak256(0x00, 0x20)\n      swap1\n      dup2\n      add\n      swap1\n      tag_206\n      swap2\n      swap1\n      tag_207\n      jump\t// in\n    tag_206:\n      pop\n      jump\t// out\n    tag_207:\n    tag_208:\n      dup1\n      dup3\n      gt\n      iszero\n      tag_209\n      jumpi\n      0x00\n      dup2\n      0x00\n      swap1\n      sstore\n      pop\n      0x01\n      add\n      jump(tag_208)\n    tag_209:\n      pop\n      swap1\n      jump\t// out\n        /* \"#utility.yul\":7:176   */\n    tag_210:\n        /* \"#utility.yul\":91:102   */\n      0x00\n        /* \"#utility.yul\":125:131   */\n      dup3\n        /* \"#utility.yul\":120:123   */\n      dup3\n        /* \"#utility.yul\":113:132   */\n      mstore\n        /* \"#utility.yul\":165:169   */\n      0x20\n        /* \"#utility.yul\":160:163   */\n      dup3\n        /* \"#utility.yul\":156:170   */\n      add\n        /* \"#utility.yul\":141:170   */\n      swap1\n      pop\n        /* \"#utility.yul\":7:176   */\n      swap3\n      swap2\n      pop\n      pop\n      jump\t// out\n        /* \"#utility.yul\":182:405   */\n    tag_211:\n        /* \"#utility.yul\":322:356   */\n      0x557365206275795469636b6574282920746f20656e74657220746865206c6f74\n        /* \"#utility.yul\":318:319   */\n      0x00\n        /* \"#utility.yul\":310:316   */\n      dup3\n        /* \"#utility.yul\":306:320   */\n      add\n        /* \"#utility.yul\":299:357   */\n      mstore\n        /* \"#utility.yul\":391:397   */\n      0x7465727900000000000000000000000000000000000000000000000000000000\n        /* \"#utility.yul\":386:388   */\n      0x20\n        /* \"#utility.yul\":378:384   */\n      dup3\n        /* \"#utility.yul\":374:389   */\n      add\n        /* \"#utility.yul\":367:398   */\n      mstore\n        /* \"#utility.yul\":182:405   */\n      pop\n      jump\t// out\n        /* \"#utility.yul\":411:777   */\n    tag_212:\n        /* \"#utility.yul\":553:556   */\n      0x00\n        /* \"#utility.yul\":574:641   */\n      tag_267\n        /* \"#utility.yul\":638:640   */\n      0x24\n        /* \"#utility.yul\":633:636   */\n      dup4\n        /* \"#utility.yul\":574:641   */\n      tag_210\n      jump\t// in\n    tag_267:\n        /* \"#utility.yul\":567:641   */\n      swap2\n      pop\n        /* \"#utility.yul\":650:743   */\n      tag_268\n        /* \"#utility.yul\":739:742   */\n      dup3\n        /* \"#utility.yul\":650:743   */\n      tag_211\n      jump\t// in\n    tag_268:\n        /* \"#utility.yul\":768:770   */\n      0x40\n        /* \"#utility.yul\":763:766   */\n      dup3\n        /* \"#utility.yul\":759:771   */\n      add\n        /* \"#utility.yul\":752:771   */\n      swap1\n      pop\n        /* \"#utility.yul\":411:777   */\n      swap2\n      swap1\n      pop\n      jump\t// out\n        /* \"#utility.yul\":783:1202   */\n    tag_27:\n        /* \"#utility.yul\":949:953   */\n      0x00\n        /* \"#utility.yul\":987:989   */\n      0x20\n        /* \"#utility.yul\":976:985   */\n      dup3\n        /* \"#utility.yul\":972:990   */\n      add\n        /* \"#utility.yul\":964:990   */\n      swap1\n      pop\n        /* \"#utility.yul\":1036:1045   */\n      dup2\n        /* \"#utility.yul\":1030:1034   */\n      dup2\n        /* \"#utility.yul\":1026:1046   */\n      sub\n        /* \"#utility.yul\":1022:1023   */\n      0x00\n        /* \"#utility.yul\":1011:1020   */\n      dup4\n        /* \"#utility.yul\":1007:1024   */\n      add\n        /* \"#utility.yul\":1000:1047   */\n      mstore\n        /* \"#utility.yul\":1064:1195   */\n      tag_270\n        /* \"#utility.yul\":1190:1194   */\n      dup2\n        /* \"#utility.yul\":1064:1195   */\n      tag_212\n      jump\t// in\n    tag_270:\n        /* \"#utility.yul\":1056:1195   */\n      swap1\n      pop\n        /* \"#utility.yul\":783:1202   */\n      swap2\n      swap1\n      pop\n      jump\t// out\n        /* \"#utility.yul\":1289:1406   */\n    tag_214:\n        /* \"#utility.yul\":1398:1399   */\n      0x00\n        /* \"#utility.yul\":1395:1396   */\n      0x00\n        /* \"#utility.yul\":1388:1400   */\n      revert\n        /* \"#utility.yul\":1535:1661   */\n    tag_216:\n        /* \"#utility.yul\":1572:1579   */\n      0x00\n        /* \"#utility.yul\":1612:1654   */\n      0xffffffffffffffffffffffffffffffffffffffff\n        /* \"#utility.yul\":1605:1610   */\n      dup3\n        /* \"#utility.yul\":1601:1655   */\n      and\n        /* \"#utility.yul\":1590:1655   */\n      swap1\n      pop\n        /* \"#utility.yul\":1535:1661   */\n      swap2\n      swap1\n      pop\n      jump\t// out\n        /* \"#utility.yul\":1667:1763   */\n    tag_217:\n        /* \"#utility.yul\":1704:1711   */\n      0x00\n        /* \"#utility.yul\":1733:1757   */\n      tag_276\n        /* \"#utility.yul\":1751:1756   */\n      dup3\n        /* \"#utility.yul\":1733:1757   */\n      tag_216\n      jump\t// in\n    tag_276:\n        /* \"#utility.yul\":1722:1757   */\n      swap1\n      pop\n        /* \"#utility.yul\":1667:1763   */\n      swap2\n      swap1\n      pop\n      jump\t// out\n        /* \"#utility.yul\":1769:1891   */\n    tag_218:\n        /* \"#utility.yul\":1842:1866   */\n      tag_278\n        /* \"#utility.yul\":1860:1865   */\n      dup2\n        /* \"#utility.yul\":1842:1866   */\n      tag_217\n      jump\t// in\n    tag_278:\n        /* \"#utility.yul\":1835:1840   */\n      dup2\n        /* \"#utility.yul\":1832:1867   */\n      eq\n        /* \"#utility.yul\":1822:1885   */\n      tag_279\n      jumpi\n        /* \"#utility.yul\":1881:1882   */\n      0x00\n        /* \"#utility.yul\":1878:1879   */\n      0x00\n        /* \"#utility.yul\":1871:1883   */\n      revert\n        /* \"#utility.yul\":1822:1885   */\n    tag_279:\n        /* \"#utility.yul\":1769:1891   */\n      pop\n      jump\t// out\n        /* \"#utility.yul\":1897:2036   */\n    tag_219:\n        /* \"#utility.yul\":1943:1948   */\n      0x00\n        /* \"#utility.yul\":1981:1987   */\n      dup2\n        /* \"#utility.yul\":1968:1988   */\n      calldataload\n        /* \"#utility.yul\":1959:1988   */\n      swap1\n      pop\n        /* \"#utility.yul\":1997:2030   */\n      tag_281\n        /* \"#utility.yul\":2024:2029   */\n      dup2\n        /* \"#utility.yul\":1997:2030   */\n      tag_218\n      jump\t// in\n    tag_281:\n        /* \"#utility.yul\":1897:2036   */\n      swap3\n      swap2\n      pop\n      pop\n      jump\t// out\n        /* \"#utility.yul\":2042:2371   */\n    tag_34:\n        /* \"#utility.yul\":2101:2107   */\n      0x00\n        /* \"#utility.yul\":2150:2152   */\n      0x20\n        /* \"#utility.yul\":2138:2147   */\n      dup3\n        /* \"#utility.yul\":2129:2136   */\n      dup5\n        /* \"#utility.yul\":2125:2148   */\n      sub\n        /* \"#utility.yul\":2121:2153   */\n      slt\n        /* \"#utility.yul\":2118:2237   */\n      iszero\n      tag_283\n      jumpi\n        /* \"#utility.yul\":2156:2235   */\n      tag_284\n      tag_214\n      jump\t// in\n    tag_284:\n        /* \"#utility.yul\":2118:2237   */\n    tag_283:\n        /* \"#utility.yul\":2276:2277   */\n      0x00\n        /* \"#utility.yul\":2301:2354   */\n      tag_285\n        /* \"#utility.yul\":2346:2353   */\n      dup5\n        /* \"#utility.yul\":2337:2343   */\n      dup3\n        /* \"#utility.yul\":2326:2335   */\n      dup6\n        /* \"#utility.yul\":2322:2344   */\n      add\n        /* \"#utility.yul\":2301:2354   */\n      tag_219\n      jump\t// in\n    tag_285:\n        /* \"#utility.yul\":2291:2354   */\n      swap2\n      pop\n        /* \"#utility.yul\":2247:2364   */\n      pop\n        /* \"#utility.yul\":2042:2371   */\n      swap3\n      swap2\n      pop\n      pop\n      jump\t// out\n        /* \"#utility.yul\":2377:2454   */\n    tag_220:\n        /* \"#utility.yul\":2414:2421   */\n      0x00\n        /* \"#utility.yul\":2443:2448   */\n      dup2\n        /* \"#utility.yul\":2432:2448   */\n      swap1\n      pop\n        /* \"#utility.yul\":2377:2454   */\n      swap2\n      swap1\n      pop\n      jump\t// out\n        /* \"#utility.yul\":2460:2578   */\n    tag_221:\n        /* \"#utility.yul\":2547:2571   */\n      tag_288\n        /* \"#utility.yul\":2565:2570   */\n      dup2\n        /* \"#utility.yul\":2547:2571   */\n      tag_220\n      jump\t// in\n    tag_288:\n        /* \"#utility.yul\":2542:2545   */\n      dup3\n        /* \"#utility.yul\":2535:2572   */\n      mstore\n        /* \"#utility.yul\":2460:2578   */\n      pop\n      pop\n      jump\t// out\n        /* \"#utility.yul\":2584:2806   */\n    tag_37:\n        /* \"#utility.yul\":2677:2681   */\n      0x00\n        /* \"#utility.yul\":2715:2717   */\n      0x20\n        /* \"#utility.yul\":2704:2713   */\n      dup3\n        /* \"#utility.yul\":2700:2718   */\n      add\n        /* \"#utility.yul\":2692:2718   */\n      swap1\n      pop\n        /* \"#utility.yul\":2728:2799   */\n      tag_290\n        /* \"#utility.yul\":2796:2797   */\n      0x00\n        /* \"#utility.yul\":2785:2794   */\n      dup4\n        /* \"#utility.yul\":2781:2798   */\n      add\n        /* \"#utility.yul\":2772:2778   */\n      dup5\n        /* \"#utility.yul\":2728:2799   */\n      tag_221\n      jump\t// in\n    tag_290:\n        /* \"#utility.yul\":2584:2806   */\n      swap3\n      swap2\n      pop\n      pop\n      jump\t// out\n        /* \"#utility.yul\":2812:2902   */\n    tag_222:\n        /* \"#utility.yul\":2846:2853   */\n      0x00\n        /* \"#utility.yul\":2889:2894   */\n      dup2\n        /* \"#utility.yul\":2882:2895   */\n      iszero\n        /* \"#utility.yul\":2875:2896   */\n      iszero\n        /* \"#utility.yul\":2864:2896   */\n      swap1\n      pop\n        /* \"#utility.yul\":2812:2902   */\n      swap2\n      swap1\n      pop\n      jump\t// out\n        /* \"#utility.yul\":2908:3017   */\n    tag_223:\n        /* \"#utility.yul\":2989:3010   */\n      tag_293\n        /* \"#utility.yul\":3004:3009   */\n      dup2\n        /* \"#utility.yul\":2989:3010   */\n      tag_222\n      jump\t// in\n    tag_293:\n        /* \"#utility.yul\":2984:2987   */\n      dup3\n        /* \"#utility.yul\":2977:3011   */\n      mstore\n        /* \"#utility.yul\":2908:3017   */\n      pop\n      pop\n      jump\t// out\n        /* \"#utility.yul\":3023:3675   */\n    tag_46:\n        /* \"#utility.yul\":3222:3226   */\n      0x00\n        /* \"#utility.yul\":3260:3263   */\n      0xa0\n        /* \"#utility.yul\":3249:3258   */\n      dup3\n        /* \"#utility.yul\":3245:3264   */\n      add\n        /* \"#utility.yul\":3237:3264   */\n      swap1\n      pop\n        /* \"#utility.yul\":3274:3339   */\n      tag_295\n        /* \"#utility.yul\":3336:3337   */\n      0x00\n        /* \"#utility.yul\":3325:3334   */\n      dup4\n        /* \"#utility.yul\":3321:3338   */\n      add\n        /* \"#utility.yul\":3312:3318   */\n      dup9\n        /* \"#utility.yul\":3274:3339   */\n      tag_223\n      jump\t// in\n    tag_295:\n        /* \"#utility.yul\":3349:3421   */\n      tag_296\n        /* \"#utility.yul\":3417:3419   */\n      0x20\n        /* \"#utility.yul\":3406:3415   */\n      dup4\n        /* \"#utility.yul\":3402:3420   */\n      add\n        /* \"#utility.yul\":3393:3399   */\n      dup8\n        /* \"#utility.yul\":3349:3421   */\n      tag_221\n      jump\t// in\n    tag_296:\n        /* \"#utility.yul\":3431:3503   */\n      tag_297\n        /* \"#utility.yul\":3499:3501   */\n      0x40\n        /* \"#utility.yul\":3488:3497   */\n      dup4\n        /* \"#utility.yul\":3484:3502   */\n      add\n        /* \"#utility.yul\":3475:3481   */\n      dup7\n        /* \"#utility.yul\":3431:3503   */\n      tag_221\n      jump\t// in\n    tag_297:\n        /* \"#utility.yul\":3513:3585   */\n      tag_298\n        /* \"#utility.yul\":3581:3583   */\n      0x60\n        /* \"#utility.yul\":3570:3579   */\n      dup4\n        /* \"#utility.yul\":3566:3584   */\n      add\n        /* \"#utility.yul\":3557:3563   */\n      dup6\n        /* \"#utility.yul\":3513:3585   */\n      tag_221\n      jump\t// in\n    tag_298:\n        /* \"#utility.yul\":3595:3668   */\n      tag_299\n        /* \"#utility.yul\":3663:3666   */\n      0x80\n        /* \"#utility.yul\":3652:3661   */\n      dup4\n        /* \"#utility.yul\":3648:3667   */\n      add\n        /* \"#utility.yul\":3639:3645   */\n      dup5\n        /* \"#utility.yul\":3595:3668   */\n      tag_221\n      jump\t// in\n    tag_299:\n        /* \"#utility.yul\":3023:3675   */\n      swap7\n      swap6\n      pop\n      pop\n      pop\n      pop\n      pop\n      pop\n      jump\t// out\n        /* \"#utility.yul\":3681:3891   */\n    tag_54:\n        /* \"#utility.yul\":3768:3772   */\n      0x00\n        /* \"#utility.yul\":3806:3808   */\n      0x20\n        /* \"#utility.yul\":3795:3804   */\n      dup3\n        /* \"#utility.yul\":3791:3809   */\n      add\n        /* \"#utility.yul\":3783:3809   */\n      swap1\n      pop\n        /* \"#utility.yul\":3819:3884   */\n      tag_301\n        /* \"#utility.yul\":3881:3882   */\n      0x00\n        /* \"#utility.yul\":3870:3879   */\n      dup4\n        /* \"#utility.yul\":3866:3883   */\n      add\n        /* \"#utility.yul\":3857:3863   */\n      dup5\n        /* \"#utility.yul\":3819:3884   */\n      tag_223\n      jump\t// in\n    tag_301:\n        /* \"#utility.yul\":3681:3891   */\n      swap3\n      swap2\n      pop\n      pop\n      jump\t// out\n        /* \"#utility.yul\":3897:4011   */\n    tag_224:\n        /* \"#utility.yul\":3964:3970   */\n      0x00\n        /* \"#utility.yul\":3998:4003   */\n      dup2\n        /* \"#utility.yul\":3992:4004   */\n      mload\n        /* \"#utility.yul\":3982:4004   */\n      swap1\n      pop\n        /* \"#utility.yul\":3897:4011   */\n      swap2\n      swap1\n      pop\n      jump\t// out\n        /* \"#utility.yul\":4017:4201   */\n    tag_225:\n        /* \"#utility.yul\":4116:4127   */\n      0x00\n        /* \"#utility.yul\":4150:4156   */\n      dup3\n        /* \"#utility.yul\":4145:4148   */\n      dup3\n        /* \"#utility.yul\":4138:4157   */\n      mstore\n        /* \"#utility.yul\":4190:4194   */\n      0x20\n        /* \"#utility.yul\":4185:4188   */\n      dup3\n        /* \"#utility.yul\":4181:4195   */\n      add\n        /* \"#utility.yul\":4166:4195   */\n      swap1\n      pop\n        /* \"#utility.yul\":4017:4201   */\n      swap3\n      swap2\n      pop\n      pop\n      jump\t// out\n        /* \"#utility.yul\":4207:4339   */\n    tag_226:\n        /* \"#utility.yul\":4274:4278   */\n      0x00\n        /* \"#utility.yul\":4297:4300   */\n      dup2\n        /* \"#utility.yul\":4289:4300   */\n      swap1\n      pop\n        /* \"#utility.yul\":4327:4331   */\n      0x20\n        /* \"#utility.yul\":4322:4325   */\n      dup3\n        /* \"#utility.yul\":4318:4332   */\n      add\n        /* \"#utility.yul\":4310:4332   */\n      swap1\n      pop\n        /* \"#utility.yul\":4207:4339   */\n      swap2\n      swap1\n      pop\n      jump\t// out\n        /* \"#utility.yul\":4345:4453   */\n    tag_227:\n        /* \"#utility.yul\":4422:4446   */\n      tag_306\n        /* \"#utility.yul\":4440:4445   */\n      dup2\n        /* \"#utility.yul\":4422:4446   */\n      tag_217\n      jump\t// in\n    tag_306:\n        /* \"#utility.yul\":4417:4420   */\n      dup3\n        /* \"#utility.yul\":4410:4447   */\n      mstore\n        /* \"#utility.yul\":4345:4453   */\n      pop\n      pop\n      jump\t// out\n        /* \"#utility.yul\":4459:4638   */\n    tag_228:\n        /* \"#utility.yul\":4528:4538   */\n      0x00\n        /* \"#utility.yul\":4549:4595   */\n      tag_308\n        /* \"#utility.yul\":4591:4594   */\n      dup4\n        /* \"#utility.yul\":4583:4589   */\n      dup4\n        /* \"#utility.yul\":4549:4595   */\n      tag_227\n      jump\t// in\n    tag_308:\n        /* \"#utility.yul\":4627:4631   */\n      0x20\n        /* \"#utility.yul\":4622:4625   */\n      dup4\n        /* \"#utility.yul\":4618:4632   */\n      add\n        /* \"#utility.yul\":4604:4632   */\n      swap1\n      pop\n        /* \"#utility.yul\":4459:4638   */\n      swap3\n      swap2\n      pop\n      pop\n      jump\t// out\n        /* \"#utility.yul\":4644:4757   */\n    tag_229:\n        /* \"#utility.yul\":4714:4718   */\n      0x00\n        /* \"#utility.yul\":4746:4750   */\n      0x20\n        /* \"#utility.yul\":4741:4744   */\n      dup3\n        /* \"#utility.yul\":4737:4751   */\n      add\n        /* \"#utility.yul\":4729:4751   */\n      swap1\n      pop\n        /* \"#utility.yul\":4644:4757   */\n      swap2\n      swap1\n      pop\n      jump\t// out\n        /* \"#utility.yul\":4793:5525   */\n    tag_230:\n        /* \"#utility.yul\":4912:4915   */\n      0x00\n        /* \"#utility.yul\":4941:4995   */\n      tag_311\n        /* \"#utility.yul\":4989:4994   */\n      dup3\n        /* \"#utility.yul\":4941:4995   */\n      tag_224\n      jump\t// in\n    tag_311:\n        /* \"#utility.yul\":5011:5097   */\n      tag_312\n        /* \"#utility.yul\":5090:5096   */\n      dup2\n        /* \"#utility.yul\":5085:5088   */\n      dup6\n        /* \"#utility.yul\":5011:5097   */\n      tag_225\n      jump\t// in\n    tag_312:\n        /* \"#utility.yul\":5004:5097   */\n      swap4\n      pop\n        /* \"#utility.yul\":5121:5177   */\n      tag_313\n        /* \"#utility.yul\":5171:5176   */\n      dup4\n        /* \"#utility.yul\":5121:5177   */\n      tag_226\n      jump\t// in\n    tag_313:\n        /* \"#utility.yul\":5200:5207   */\n      dup1\n        /* \"#utility.yul\":5231:5232   */\n      0x00\n        /* \"#utility.yul\":5216:5500   */\n    tag_314:\n        /* \"#utility.yul\":5241:5247   */\n      dup4\n        /* \"#utility.yul\":5238:5239   */\n      dup2\n        /* \"#utility.yul\":5235:5248   */\n      lt\n        /* \"#utility.yul\":5216:5500   */\n      iszero\n      tag_316\n      jumpi\n        /* \"#utility.yul\":5317:5323   */\n      dup2\n        /* \"#utility.yul\":5311:5324   */\n      mload\n        /* \"#utility.yul\":5344:5407   */\n      tag_317\n        /* \"#utility.yul\":5403:5406   */\n      dup9\n        /* \"#utility.yul\":5388:5401   */\n      dup3\n        /* \"#utility.yul\":5344:5407   */\n      tag_228\n      jump\t// in\n    tag_317:\n        /* \"#utility.yul\":5337:5407   */\n      swap8\n      pop\n        /* \"#utility.yul\":5430:5490   */\n      tag_318\n        /* \"#utility.yul\":5483:5489   */\n      dup4\n        /* \"#utility.yul\":5430:5490   */\n      tag_229\n      jump\t// in\n    tag_318:\n        /* \"#utility.yul\":5420:5490   */\n      swap3\n      pop\n        /* \"#utility.yul\":5276:5500   */\n      pop\n        /* \"#utility.yul\":5263:5264   */\n      0x01\n        /* \"#utility.yul\":5260:5261   */\n      dup2\n        /* \"#utility.yul\":5256:5265   */\n      add\n        /* \"#utility.yul\":5251:5265   */\n      swap1\n      pop\n        /* \"#utility.yul\":5216:5500   */\n      jump(tag_314)\n    tag_316:\n        /* \"#utility.yul\":5220:5234   */\n      pop\n        /* \"#utility.yul\":5516:5519   */\n      dup6\n        /* \"#utility.yul\":5509:5519   */\n      swap4\n      pop\n        /* \"#utility.yul\":4917:5525   */\n      pop\n      pop\n      pop\n        /* \"#utility.yul\":4793:5525   */\n      swap3\n      swap2\n      pop\n      pop\n      jump\t// out\n        /* \"#utility.yul\":5531:5904   */\n    tag_71:\n        /* \"#utility.yul\":5674:5678   */\n      0x00\n        /* \"#utility.yul\":5712:5714   */\n      0x20\n        /* \"#utility.yul\":5701:5710   */\n      dup3\n        /* \"#utility.yul\":5697:5715   */\n      add\n        /* \"#utility.yul\":5689:5715   */\n      swap1\n      pop\n        /* \"#utility.yul\":5761:5770   */\n      dup2\n        /* \"#utility.yul\":5755:5759   */\n      dup2\n        /* \"#utility.yul\":5751:5771   */\n      sub\n        /* \"#utility.yul\":5747:5748   */\n      0x00\n        /* \"#utility.yul\":5736:5745   */\n      dup4\n        /* \"#utility.yul\":5732:5749   */\n      add\n        /* \"#utility.yul\":5725:5772   */\n      mstore\n        /* \"#utility.yul\":5789:5897   */\n      tag_320\n        /* \"#utility.yul\":5892:5896   */\n      dup2\n        /* \"#utility.yul\":5883:5889   */\n      dup5\n        /* \"#utility.yul\":5789:5897   */\n      tag_230\n      jump\t// in\n    tag_320:\n        /* \"#utility.yul\":5781:5897   */\n      swap1\n      pop\n        /* \"#utility.yul\":5531:5904   */\n      swap3\n      swap2\n      pop\n      pop\n      jump\t// out\n        /* \"#utility.yul\":5910:6028   */\n    tag_231:\n        /* \"#utility.yul\":5997:6021   */\n      tag_322\n        /* \"#utility.yul\":6015:6020   */\n      dup2\n        /* \"#utility.yul\":5997:6021   */\n      tag_217\n      jump\t// in\n    tag_322:\n        /* \"#utility.yul\":5992:5995   */\n      dup3\n        /* \"#utility.yul\":5985:6022   */\n      mstore\n        /* \"#utility.yul\":5910:6028   */\n      pop\n      pop\n      jump\t// out\n        /* \"#utility.yul\":6034:6256   */\n    tag_76:\n        /* \"#utility.yul\":6127:6131   */\n      0x00\n        /* \"#utility.yul\":6165:6167   */\n      0x20\n        /* \"#utility.yul\":6154:6163   */\n      dup3\n        /* \"#utility.yul\":6150:6168   */\n      add\n        /* \"#utility.yul\":6142:6168   */\n      swap1\n      pop\n        /* \"#utility.yul\":6178:6249   */\n      tag_324\n        /* \"#utility.yul\":6246:6247   */\n      0x00\n        /* \"#utility.yul\":6235:6244   */\n      dup4\n        /* \"#utility.yul\":6231:6248   */\n      add\n        /* \"#utility.yul\":6222:6228   */\n      dup5\n        /* \"#utility.yul\":6178:6249   */\n      tag_231\n      jump\t// in\n    tag_324:\n        /* \"#utility.yul\":6034:6256   */\n      swap3\n      swap2\n      pop\n      pop\n      jump\t// out\n        /* \"#utility.yul\":6262:6384   */\n    tag_232:\n        /* \"#utility.yul\":6335:6359   */\n      tag_326\n        /* \"#utility.yul\":6353:6358   */\n      dup2\n        /* \"#utility.yul\":6335:6359   */\n      tag_220\n      jump\t// in\n    tag_326:\n        /* \"#utility.yul\":6328:6333   */\n      dup2\n        /* \"#utility.yul\":6325:6360   */\n      eq\n        /* \"#utility.yul\":6315:6378   */\n      tag_327\n      jumpi\n        /* \"#utility.yul\":6374:6375   */\n      0x00\n        /* \"#utility.yul\":6371:6372   */\n      0x00\n        /* \"#utility.yul\":6364:6376   */\n      revert\n        /* \"#utility.yul\":6315:6378   */\n    tag_327:\n        /* \"#utility.yul\":6262:6384   */\n      pop\n      jump\t// out\n        /* \"#utility.yul\":6390:6529   */\n    tag_233:\n        /* \"#utility.yul\":6436:6441   */\n      0x00\n        /* \"#utility.yul\":6474:6480   */\n      dup2\n        /* \"#utility.yul\":6461:6481   */\n      calldataload\n        /* \"#utility.yul\":6452:6481   */\n      swap1\n      pop\n        /* \"#utility.yul\":6490:6523   */\n      tag_329\n        /* \"#utility.yul\":6517:6522   */\n      dup2\n        /* \"#utility.yul\":6490:6523   */\n      tag_232\n      jump\t// in\n    tag_329:\n        /* \"#utility.yul\":6390:6529   */\n      swap3\n      swap2\n      pop\n      pop\n      jump\t// out\n        /* \"#utility.yul\":6535:6864   */\n    tag_101:\n        /* \"#utility.yul\":6594:6600   */\n      0x00\n        /* \"#utility.yul\":6643:6645   */\n      0x20\n        /* \"#utility.yul\":6631:6640   */\n      dup3\n        /* \"#utility.yul\":6622:6629   */\n      dup5\n        /* \"#utility.yul\":6618:6641   */\n      sub\n        /* \"#utility.yul\":6614:6646   */\n      slt\n        /* \"#utility.yul\":6611:6730   */\n      iszero\n      tag_331\n      jumpi\n        /* \"#utility.yul\":6649:6728   */\n      tag_332\n      tag_214\n      jump\t// in\n    tag_332:\n        /* \"#utility.yul\":6611:6730   */\n    tag_331:\n        /* \"#utility.yul\":6769:6770   */\n      0x00\n        /* \"#utility.yul\":6794:6847   */\n      tag_333\n        /* \"#utility.yul\":6839:6846   */\n      dup5\n        /* \"#utility.yul\":6830:6836   */\n      dup3\n        /* \"#utility.yul\":6819:6828   */\n      dup6\n        /* \"#utility.yul\":6815:6837   */\n      add\n        /* \"#utility.yul\":6794:6847   */\n      tag_233\n      jump\t// in\n    tag_333:\n        /* \"#utility.yul\":6784:6847   */\n      swap2\n      pop\n        /* \"#utility.yul\":6740:6857   */\n      pop\n        /* \"#utility.yul\":6535:6864   */\n      swap3\n      swap2\n      pop\n      pop\n      jump\t// out\n        /* \"#utility.yul\":6870:7050   */\n    tag_114:\n        /* \"#utility.yul\":6918:6995   */\n      0x4e487b7100000000000000000000000000000000000000000000000000000000\n        /* \"#utility.yul\":6915:6916   */\n      0x00\n        /* \"#utility.yul\":6908:6996   */\n      mstore\n        /* \"#utility.yul\":7015:7019   */\n      0x32\n        /* \"#utility.yul\":7012:7013   */\n      0x04\n        /* \"#utility.yul\":7005:7020   */\n      mstore\n        /* \"#utility.yul\":7039:7043   */\n      0x24\n        /* \"#utility.yul\":7036:7037   */\n      0x00\n        /* \"#utility.yul\":7029:7044   */\n      revert\n        /* \"#utility.yul\":7056:7236   */\n    tag_234:\n        /* \"#utility.yul\":7104:7181   */\n      0x4e487b7100000000000000000000000000000000000000000000000000000000\n        /* \"#utility.yul\":7101:7102   */\n      0x00\n        /* \"#utility.yul\":7094:7182   */\n      mstore\n        /* \"#utility.yul\":7201:7205   */\n      0x11\n        /* \"#utility.yul\":7198:7199   */\n      0x04\n        /* \"#utility.yul\":7191:7206   */\n      mstore\n        /* \"#utility.yul\":7225:7229   */\n      0x24\n        /* \"#utility.yul\":7222:7223   */\n      0x00\n        /* \"#utility.yul\":7215:7230   */\n      revert\n        /* \"#utility.yul\":7242:7475   */\n    tag_118:\n        /* \"#utility.yul\":7281:7284   */\n      0x00\n        /* \"#utility.yul\":7304:7328   */\n      tag_337\n        /* \"#utility.yul\":7322:7327   */\n      dup3\n        /* \"#utility.yul\":7304:7328   */\n      tag_220\n      jump\t// in\n    tag_337:\n        /* \"#utility.yul\":7295:7328   */\n      swap2\n      pop\n        /* \"#utility.yul\":7350:7416   */\n      0xffffffffffffffffffffffffffffffffffffffffffffffffffffffffffffffff\n        /* \"#utility.yul\":7343:7348   */\n      dup3\n        /* \"#utility.yul\":7340:7417   */\n      sub\n        /* \"#utility.yul\":7337:7440   */\n      tag_338\n      jumpi\n        /* \"#utility.yul\":7420:7438   */\n      tag_339\n      tag_234\n      jump\t// in\n    tag_339:\n        /* \"#utility.yul\":7337:7440   */\n    tag_338:\n        /* \"#utility.yul\":7467:7468   */\n      0x01\n        /* \"#utility.yul\":7460:7465   */\n      dup3\n        /* \"#utility.yul\":7456:7469   */\n      add\n        /* \"#utility.yul\":7449:7469   */\n      swap1\n      pop\n        /* \"#utility.yul\":7242:7475   */\n      swap2\n      swap1\n      pop\n      jump\t// out\n        /* \"#utility.yul\":7481:7652   */\n    tag_235:\n        /* \"#utility.yul\":7621:7644   */\n      0x526f756e64206973207374696c6c206163746976650000000000000000000000\n        /* \"#utility.yul\":7617:7618   */\n      0x00\n        /* \"#utility.yul\":7609:7615   */\n      dup3\n        /* \"#utility.yul\":7605:7619   */\n      add\n        /* \"#utility.yul\":7598:7645   */\n      mstore\n        /* \"#utility.yul\":7481:7652   */\n      pop\n      jump\t// out\n        /* \"#utility.yul\":7658:8024   */\n    tag_236:\n        /* \"#utility.yul\":7800:7803   */\n      0x00\n        /* \"#utility.yul\":7821:7888   */\n      tag_342\n        /* \"#utility.yul\":7885:7887   */\n      0x15\n        /* \"#utility.yul\":7880:7883   */\n      dup4\n        /* \"#utility.yul\":7821:7888   */\n      tag_210\n      jump\t// in\n    tag_342:\n        /* \"#utility.yul\":7814:7888   */\n      swap2\n      pop\n        /* \"#utility.yul\":7897:7990   */\n      tag_343\n        /* \"#utility.yul\":7986:7989   */\n      dup3\n        /* \"#utility.yul\":7897:7990   */\n      tag_235\n      jump\t// in\n    tag_343:\n        /* \"#utility.yul\":8015:8017   */\n      0x20\n        /* \"#utility.yul\":8010:8013   */\n      dup3\n        /* \"#utility.yul\":8006:8018   */\n      add\n        /* \"#utility.yul\":7999:8018   */\n      swap1\n      pop\n        /* \"#utility.yul\":7658:8024   */\n      swap2\n      swap1\n      pop\n      jump\t// out\n        /* \"#utility.yul\":8030:8449   */\n    tag_128:\n        /* \"#utility.yul\":8196:8200   */\n      0x00\n        /* \"#utility.yul\":8234:8236   */\n      0x20\n        /* \"#utility.yul\":8223:8232   */\n      dup3\n        /* \"#utility.yul\":8219:8237   */\n      add\n        /* \"#utility.yul\":8211:8237   */\n      swap1\n      pop\n        /* \"#utility.yul\":8283:8292   */\n      dup2\n        /* \"#utility.yul\":8277:8281   */\n      dup2\n        /* \"#utility.yul\":8273:8293   */\n      sub\n        /* \"#utility.yul\":8269:8270   */\n      0x00\n        /* \"#utility.yul\":8258:8267   */\n      dup4\n        /* \"#utility.yul\":8254:8271   */\n      add\n        /* \"#utility.yul\":8247:8294   */\n      mstore\n        /* \"#utility.yul\":8311:8442   */\n      tag_345\n        /* \"#utility.yul\":8437:8441   */\n      dup2\n        /* \"#utility.yul\":8311:8442   */\n      tag_236\n      jump\t// in\n    tag_345:\n        /* \"#utility.yul\":8303:8442   */\n      swap1\n      pop\n        /* \"#utility.yul\":8030:8449   */\n      swap2\n      swap1\n      pop\n      jump\t// out\n        /* \"#utility.yul\":8455:8630   */\n    tag_237:\n        /* \"#utility.yul\":8595:8622   */\n      0x4e6f20726f756e6420686173206265656e207374617274656400000000000000\n        /* \"#utility.yul\":8591:8592   */\n      0x00\n        /* \"#utility.yul\":8583:8589   */\n      dup3\n        /* \"#utility.yul\":8579:8593   */\n      add\n        /* \"#utility.yul\":8572:8623   */\n      mstore\n        /* \"#utility.yul\":8455:8630   */\n      pop\n      jump\t// out\n        /* \"#utility.yul\":8636:9002   */\n    tag_238:\n        /* \"#utility.yul\":8778:8781   */\n      0x00\n        /* \"#utility.yul\":8799:8866   */\n      tag_348\n        /* \"#utility.yul\":8863:8865   */\n      0x19\n        /* \"#utility.yul\":8858:8861   */\n      dup4\n        /* \"#utility.yul\":8799:8866   */\n      tag_210\n      jump\t// in\n    tag_348:\n        /* \"#utility.yul\":8792:8866   */\n      swap2\n      pop\n        /* \"#utility.yul\":8875:8968   */\n      tag_349\n        /* \"#utility.yul\":8964:8967   */\n      dup3\n        /* \"#utility.yul\":8875:8968   */\n      tag_237\n      jump\t// in\n    tag_349:\n        /* \"#utility.yul\":8993:8995   */\n      0x20\n        /* \"#utility.yul\":8988:8991   */\n      dup3\n        /* \"#utility.yul\":8984:8996   */\n      add\n        /* \"#utility.yul\":8977:8996   */\n      swap1\n      pop\n        /* \"#utility.yul\":8636:9002   */\n      swap2\n      swap1\n      pop\n      jump\t// out\n        /* \"#utility.yul\":9008:9427   */\n    tag_131:\n        /* \"#utility.yul\":9174:9178   */\n      0x00\n        /* \"#utility.yul\":9212:9214   */\n      0x20\n        /* \"#utility.yul\":9201:9210   */\n      dup3\n        /* \"#utility.yul\":9197:9215   */\n      add\n        /* \"#utility.yul\":9189:9215   */\n      swap1\n      pop\n        /* \"#utility.yul\":9261:9270   */\n      dup2\n        /* \"#utility.yul\":9255:9259   */\n      dup2\n        /* \"#utility.yul\":9251:9271   */\n      sub\n        /* \"#utility.yul\":9247:9248   */\n      0x00\n        /* \"#utility.yul\":9236:9245   */\n      dup4\n        /* \"#utility.yul\":9232:9249   */\n      add\n        /* \"#utility.yul\":9225:9272   */\n      mstore\n        /* \"#utility.yul\":9289:9420   */\n      tag_351\n        /* \"#utility.yul\":9415:9419   */\n      dup2\n        /* \"#utility.yul\":9289:9420   */\n      tag_238\n      jump\t// in\n    tag_351:\n        /* \"#utility.yul\":9281:9420   */\n      swap1\n      pop\n        /* \"#utility.yul\":9008:9427   */\n      swap2\n      swap1\n      pop\n      jump\t// out\n        /* \"#utility.yul\":9433:9607   */\n    tag_239:\n        /* \"#utility.yul\":9573:9599   */\n      0x4e6f20706c617965727320696e207468697320726f756e640000000000000000\n        /* \"#utility.yul\":9569:9570   */\n      0x00\n        /* \"#utility.yul\":9561:9567   */\n      dup3\n        /* \"#utility.yul\":9557:9571   */\n      add\n        /* \"#utility.yul\":9550:9600   */\n      mstore\n        /* \"#utility.yul\":9433:9607   */\n      pop\n      jump\t// out\n        /* \"#utility.yul\":9613:9979   */\n    tag_240:\n        /* \"#utility.yul\":9755:9758   */\n      0x00\n        /* \"#utility.yul\":9776:9843   */\n      tag_354\n        /* \"#utility.yul\":9840:9842   */\n      0x18\n        /* \"#utility.yul\":9835:9838   */\n      dup4\n        /* \"#utility.yul\":9776:9843   */\n      tag_210\n      jump\t// in\n    tag_354:\n        /* \"#utility.yul\":9769:9843   */\n      swap2\n      pop\n        /* \"#utility.yul\":9852:9945   */\n      tag_355\n        /* \"#utility.yul\":9941:9944   */\n      dup3\n        /* \"#utility.yul\":9852:9945   */\n      tag_239\n      jump\t// in\n    tag_355:\n        /* \"#utility.yul\":9970:9972   */\n      0x20\n        /* \"#utility.yul\":9965:9968   */\n      dup3\n        /* \"#utility.yul\":9961:9973   */\n      add\n        /* \"#utility.yul\":9954:9973   */\n      swap1\n      pop\n        /* \"#utility.yul\":9613:9979   */\n      swap2\n      swap1\n      pop\n      jump\t// out\n        /* \"#utility.yul\":9985:10404   */\n    tag_134:\n        /* \"#utility.yul\":10151:10155   */\n      0x00\n        /* \"#utility.yul\":10189:10191   */\n      0x20\n        /* \"#utility.yul\":10178:10187   */\n      dup3\n        /* \"#utility.yul\":10174:10192   */\n      add\n        /* \"#utility.yul\":10166:10192   */\n      swap1\n      pop\n        /* \"#utility.yul\":10238:10247   */\n      dup2\n        /* \"#utility.yul\":10232:10236   */\n      dup2\n        /* \"#utility.yul\":10228:10248   */\n      sub\n        /* \"#utility.yul\":10224:10225   */\n      0x00\n        /* \"#utility.yul\":10213:10222   */\n      dup4\n        /* \"#utility.yul\":10209:10226   */\n      add\n        /* \"#utility.yul\":10202:10249   */\n      mstore\n        /* \"#utility.yul\":10266:10397   */\n      tag_357\n        /* \"#utility.yul\":10392:10396   */\n      dup2\n        /* \"#utility.yul\":10266:10397   */\n      tag_240\n      jump\t// in\n    tag_357:\n        /* \"#utility.yul\":10258:10397   */\n      swap1\n      pop\n        /* \"#utility.yul\":9985:10404   */\n      swap2\n      swap1\n      pop\n      jump\t// out\n        /* \"#utility.yul\":10410:10590   */\n    tag_241:\n        /* \"#utility.yul\":10458:10535   */\n      0x4e487b7100000000000000000000000000000000000000000000000000000000\n        /* \"#utility.yul\":10455:10456   */\n      0x00\n        /* \"#utility.yul\":10448:10536   */\n      mstore\n        /* \"#utility.yul\":10555:10559   */\n      0x12\n        /* \"#utility.yul\":10552:10553   */\n      0x04\n        /* \"#utility.yul\":10545:10560   */\n      mstore\n        /* \"#utility.yul\":10579:10583   */\n      0x24\n        /* \"#utility.yul\":10576:10577   */\n      0x00\n        /* \"#utility.yul\":10569:10584   */\n      revert\n        /* \"#utility.yul\":10596:10772   */\n    tag_138:\n        /* \"#utility.yul\":10628:10629   */\n      0x00\n        /* \"#utility.yul\":10645:10665   */\n      tag_360\n        /* \"#utility.yul\":10663:10664   */\n      dup3\n        /* \"#utility.yul\":10645:10665   */\n      tag_220\n      jump\t// in\n    tag_360:\n        /* \"#utility.yul\":10640:10665   */\n      swap2\n      pop\n        /* \"#utility.yul\":10679:10699   */\n      tag_361\n        /* \"#utility.yul\":10697:10698   */\n      dup4\n        /* \"#utility.yul\":10679:10699   */\n      tag_220\n      jump\t// in\n    tag_361:\n        /* \"#utility.yul\":10674:10699   */\n      swap3\n      pop\n        /* \"#utility.yul\":10718:10719   */\n      dup3\n        /* \"#utility.yul\":10708:10743   */\n      tag_362\n      jumpi\n        /* \"#utility.yul\":10723:10741   */\n      tag_363\n      tag_241\n      jump\t// in\n    tag_363:\n        /* \"#utility.yul\":10708:10743   */\n    tag_362:\n        /* \"#utility.yul\":10764:10765   */\n      dup3\n        /* \"#utility.yul\":10761:10762   */\n      dup3\n        /* \"#utility.yul\":10757:10766   */\n      mod\n        /* \"#utility.yul\":10752:10766   */\n      swap1\n      pop\n        /* \"#utility.yul\":10596:10772   */\n      swap3\n      swap2\n      pop\n      pop\n      jump\t// out\n        /* \"#utility.yul\":10778:11110   */\n    tag_145:\n        /* \"#utility.yul\":10899:10903   */\n      0x00\n        /* \"#utility.yul\":10937:10939   */\n      0x40\n        /* \"#utility.yul\":10926:10935   */\n      dup3\n        /* \"#utility.yul\":10922:10940   */\n      add\n        /* \"#utility.yul\":10914:10940   */\n      swap1\n      pop\n        /* \"#utility.yul\":10950:11021   */\n      tag_365\n        /* \"#utility.yul\":11018:11019   */\n      0x00\n        /* \"#utility.yul\":11007:11016   */\n      dup4\n        /* \"#utility.yul\":11003:11020   */\n      add\n        /* \"#utility.yul\":10994:11000   */\n      dup6\n        /* \"#utility.yul\":10950:11021   */\n      tag_221\n      jump\t// in\n    tag_365:\n        /* \"#utility.yul\":11031:11103   */\n      tag_366\n        /* \"#utility.yul\":11099:11101   */\n      0x20\n        /* \"#utility.yul\":11088:11097   */\n      dup4\n        /* \"#utility.yul\":11084:11102   */\n      add\n        /* \"#utility.yul\":11075:11081   */\n      dup5\n        /* \"#utility.yul\":11031:11103   */\n      tag_221\n      jump\t// in\n    tag_366:\n        /* \"#utility.yul\":10778:11110   */\n      swap4\n      swap3\n      pop\n      pop\n      pop\n      jump\t// out\n        /* \"#utility.yul\":11116:11263   */\n    tag_242:\n        /* \"#utility.yul\":11217:11228   */\n      0x00\n        /* \"#utility.yul\":11254:11257   */\n      dup2\n        /* \"#utility.yul\":11239:11257   */\n      swap1\n      pop\n        /* \"#utility.yul\":11116:11263   */\n      swap3\n      swap2\n      pop\n      pop\n      jump\t// out\n        /* \"#utility.yul\":11269:11383   */\n    tag_243:\n      pop\n      jump\t// out\n        /* \"#utility.yul\":11389:11787   */\n    tag_244:\n        /* \"#utility.yul\":11548:11551   */\n      0x00\n        /* \"#utility.yul\":11569:11652   */\n      tag_370\n        /* \"#utility.yul\":11650:11651   */\n      0x00\n        /* \"#utility.yul\":11645:11648   */\n      dup4\n        /* \"#utility.yul\":11569:11652   */\n      tag_242\n      jump\t// in\n    tag_370:\n        /* \"#utility.yul\":11562:11652   */\n      swap2\n      pop\n        /* \"#utility.yul\":11661:11754   */\n      tag_371\n        /* \"#utility.yul\":11750:11753   */\n      dup3\n        /* \"#utility.yul\":11661:11754   */\n      tag_243\n      jump\t// in\n    tag_371:\n        /* \"#utility.yul\":11779:11780   */\n      0x00\n        /* \"#utility.yul\":11774:11777   */\n      dup3\n        /* \"#utility.yul\":11770:11781   */\n      add\n        /* \"#utility.yul\":11763:11781   */\n      swap1\n      pop\n        /* \"#utility.yul\":11389:11787   */\n      swap2\n      swap1\n      pop\n      jump\t// out\n        /* \"#utility.yul\":11793:12172   */\n    tag_147:\n        /* \"#utility.yul\":11977:11980   */\n      0x00\n        /* \"#utility.yul\":11999:12146   */\n      tag_373\n        /* \"#utility.yul\":12142:12145   */\n      dup3\n        /* \"#utility.yul\":11999:12146   */\n      tag_244\n      jump\t// in\n    tag_373:\n        /* \"#utility.yul\":11992:12146   */\n      swap2\n      pop\n        /* \"#utility.yul\":12163:12166   */\n      dup2\n        /* \"#utility.yul\":12156:12166   */\n      swap1\n      pop\n        /* \"#utility.yul\":11793:12172   */\n      swap2\n      swap1\n      pop\n      jump\t// out\n        /* \"#utility.yul\":12178:12349   */\n    tag_245:\n        /* \"#utility.yul\":12318:12341   */\n      0x5072697a65207472616e73666572206661696c65640000000000000000000000\n        /* \"#utility.yul\":12314:12315   */\n      0x00\n        /* \"#utility.yul\":12306:12312   */\n      dup3\n        /* \"#utility.yul\":12302:12316   */\n      add\n        /* \"#utility.yul\":12295:12342   */\n      mstore\n        /* \"#utility.yul\":12178:12349   */\n      pop\n      jump\t// out\n        /* \"#utility.yul\":12355:12721   */\n    tag_246:\n        /* \"#utility.yul\":12497:12500   */\n      0x00\n        /* \"#utility.yul\":12518:12585   */\n      tag_376\n        /* \"#utility.yul\":12582:12584   */\n      0x15\n        /* \"#utility.yul\":12577:12580   */\n      dup4\n        /* \"#utility.yul\":12518:12585   */\n      tag_210\n      jump\t// in\n    tag_376:\n        /* \"#utility.yul\":12511:12585   */\n      swap2\n      pop\n        /* \"#utility.yul\":12594:12687   */\n      tag_377\n        /* \"#utility.yul\":12683:12686   */\n      dup3\n        /* \"#utility.yul\":12594:12687   */\n      tag_245\n      jump\t// in\n    tag_377:\n        /* \"#utility.yul\":12712:12714   */\n      0x20\n        /* \"#utility.yul\":12707:12710   */\n      dup3\n        /* \"#utility.yul\":12703:12715   */\n      add\n        /* \"#utility.yul\":12696:12715   */\n      swap1\n      pop\n        /* \"#utility.yul\":12355:12721   */\n      swap2\n      swap1\n      pop\n      jump\t// out\n        /* \"#utility.yul\":12727:13146   */\n    tag_153:\n        /* \"#utility.yul\":12893:12897   */\n      0x00\n        /* \"#utility.yul\":12931:12933   */\n      0x20\n        /* \"#utility.yul\":12920:12929   */\n      dup3\n        /* \"#utility.yul\":12916:12934   */\n      add\n        /* \"#utility.yul\":12908:12934   */\n      swap1\n      pop\n        /* \"#utility.yul\":12980:12989   */\n      dup2\n        /* \"#utility.yul\":12974:12978   */\n      dup2\n        /* \"#utility.yul\":12970:12990   */\n      sub\n        /* \"#utility.yul\":12966:12967   */\n      0x00\n        /* \"#utility.yul\":12955:12964   */\n      dup4\n        /* \"#utility.yul\":12951:12968   */\n      add\n        /* \"#utility.yul\":12944:12991   */\n      mstore\n        /* \"#utility.yul\":13008:13139   */\n      tag_379\n        /* \"#utility.yul\":13134:13138   */\n      dup2\n        /* \"#utility.yul\":13008:13139   */\n      tag_246\n      jump\t// in\n    tag_379:\n        /* \"#utility.yul\":13000:13139   */\n      swap1\n      pop\n        /* \"#utility.yul\":12727:13146   */\n      swap2\n      swap1\n      pop\n      jump\t// out\n        /* \"#utility.yul\":13152:13372   */\n    tag_247:\n        /* \"#utility.yul\":13292:13326   */\n      0x4f6e6c79206f776e65722063616e2063616c6c20746869732066756e6374696f\n        /* \"#utility.yul\":13288:13289   */\n      0x00\n        /* \"#utility.yul\":13280:13286   */\n      dup3\n        /* \"#utility.yul\":13276:13290   */\n      add\n        /* \"#utility.yul\":13269:13327   */\n      mstore\n        /* \"#utility.yul\":13361:13364   */\n      0x6e00000000000000000000000000000000000000000000000000000000000000\n        /* \"#utility.yul\":13356:13358   */\n      0x20\n        /* \"#utility.yul\":13348:13354   */\n      dup3\n        /* \"#utility.yul\":13344:13359   */\n      add\n        /* \"#utility.yul\":13337:13365   */\n      mstore\n        /* \"#utility.yul\":13152:13372   */\n      pop\n      jump\t// out\n        /* \"#utility.yul\":13378:13744   */\n    tag_248:\n        /* \"#utility.yul\":13520:13523   */\n      0x00\n        /* \"#utility.yul\":13541:13608   */\n      tag_382\n        /* \"#utility.yul\":13605:13607   */\n      0x21\n        /* \"#utility.yul\":13600:13603   */\n      dup4\n        /* \"#utility.yul\":13541:13608   */\n      tag_210\n      jump\t// in\n    tag_382:\n        /* \"#utility.yul\":13534:13608   */\n      swap2\n      pop\n        /* \"#utility.yul\":13617:13710   */\n      tag_383\n        /* \"#utility.yul\":13706:13709   */\n      dup3\n        /* \"#utility.yul\":13617:13710   */\n      tag_247\n      jump\t// in\n    tag_383:\n        /* \"#utility.yul\":13735:13737   */\n      0x40\n        /* \"#utility.yul\":13730:13733   */\n      dup3\n        /* \"#utility.yul\":13726:13738   */\n      add\n        /* \"#utility.yul\":13719:13738   */\n      swap1\n      pop\n        /* \"#utility.yul\":13378:13744   */\n      swap2\n      swap1\n      pop\n      jump\t// out\n        /* \"#utility.yul\":13750:14169   */\n    tag_163:\n        /* \"#utility.yul\":13916:13920   */\n      0x00\n        /* \"#utility.yul\":13954:13956   */\n      0x20\n        /* \"#utility.yul\":13943:13952   */\n      dup3\n        /* \"#utility.yul\":13939:13957   */\n      add\n        /* \"#utility.yul\":13931:13957   */\n      swap1\n      pop\n        /* \"#utility.yul\":14003:14012   */\n      dup2\n        /* \"#utility.yul\":13997:14001   */\n      dup2\n        /* \"#utility.yul\":13993:14013   */\n      sub\n        /* \"#utility.yul\":13989:13990   */\n      0x00\n        /* \"#utility.yul\":13978:13987   */\n      dup4\n        /* \"#utility.yul\":13974:13991   */\n      add\n        /* \"#utility.yul\":13967:14014   */\n      mstore\n        /* \"#utility.yul\":14031:14162   */\n      tag_385\n        /* \"#utility.yul\":14157:14161   */\n      dup2\n        /* \"#utility.yul\":14031:14162   */\n      tag_248\n      jump\t// in\n    tag_385:\n        /* \"#utility.yul\":14023:14162   */\n      swap1\n      pop\n        /* \"#utility.yul\":13750:14169   */\n      swap2\n      swap1\n      pop\n      jump\t// out\n        /* \"#utility.yul\":14175:14356   */\n    tag_249:\n        /* \"#utility.yul\":14315:14348   */\n      0x43757272656e7420726f756e6420686173206e6f7420656e6465642079657400\n        /* \"#utility.yul\":14311:14312   */\n      0x00\n        /* \"#utility.yul\":14303:14309   */\n      dup3\n        /* \"#utility.yul\":14299:14313   */\n      add\n        /* \"#utility.yul\":14292:14349   */\n      mstore\n        /* \"#utility.yul\":14175:14356   */\n      pop\n      jump\t// out\n        /* \"#utility.yul\":14362:14728   */\n    tag_250:\n        /* \"#utility.yul\":14504:14507   */\n      0x00\n        /* \"#utility.yul\":14525:14592   */\n      tag_388\n        /* \"#utility.yul\":14589:14591   */\n      0x1f\n        /* \"#utility.yul\":14584:14587   */\n      dup4\n        /* \"#utility.yul\":14525:14592   */\n      tag_210\n      jump\t// in\n    tag_388:\n        /* \"#utility.yul\":14518:14592   */\n      swap2\n      pop\n        /* \"#utility.yul\":14601:14694   */\n      tag_389\n        /* \"#utility.yul\":14690:14693   */\n      dup3\n        /* \"#utility.yul\":14601:14694   */\n      tag_249\n      jump\t// in\n    tag_389:\n        /* \"#utility.yul\":14719:14721   */\n      0x20\n        /* \"#utility.yul\":14714:14717   */\n      dup3\n        /* \"#utility.yul\":14710:14722   */\n      add\n        /* \"#utility.yul\":14703:14722   */\n      swap1\n      pop\n        /* \"#utility.yul\":14362:14728   */\n      swap2\n      swap1\n      pop\n      jump\t// out\n        /* \"#utility.yul\":14734:15153   */\n    tag_168:\n        /* \"#utility.yul\":14900:14904   */\n      0x00\n        /* \"#utility.yul\":14938:14940   */\n      0x20\n        /* \"#utility.yul\":14927:14936   */\n      dup3\n        /* \"#utility.yul\":14923:14941   */\n      add\n        /* \"#utility.yul\":14915:14941   */\n      swap1\n      pop\n        /* \"#utility.yul\":14987:14996   */\n      dup2\n        /* \"#utility.yul\":14981:14985   */\n      dup2\n        /* \"#utility.yul\":14977:14997   */\n      sub\n        /* \"#utility.yul\":14973:14974   */\n      0x00\n        /* \"#utility.yul\":14962:14971   */\n      dup4\n        /* \"#utility.yul\":14958:14975   */\n      add\n        /* \"#utility.yul\":14951:14998   */\n      mstore\n        /* \"#utility.yul\":15015:15146   */\n      tag_391\n        /* \"#utility.yul\":15141:15145   */\n      dup2\n        /* \"#utility.yul\":15015:15146   */\n      tag_250\n      jump\t// in\n    tag_391:\n        /* \"#utility.yul\":15007:15146   */\n      swap1\n      pop\n        /* \"#utility.yul\":14734:15153   */\n      swap2\n      swap1\n      pop\n      jump\t// out\n        /* \"#utility.yul\":15159:15350   */\n    tag_172:\n        /* \"#utility.yul\":15199:15202   */\n      0x00\n        /* \"#utility.yul\":15218:15238   */\n      tag_393\n        /* \"#utility.yul\":15236:15237   */\n      dup3\n        /* \"#utility.yul\":15218:15238   */\n      tag_220\n      jump\t// in\n    tag_393:\n        /* \"#utility.yul\":15213:15238   */\n      swap2\n      pop\n        /* \"#utility.yul\":15252:15272   */\n      tag_394\n        /* \"#utility.yul\":15270:15271   */\n      dup4\n        /* \"#utility.yul\":15252:15272   */\n      tag_220\n      jump\t// in\n    tag_394:\n        /* \"#utility.yul\":15247:15272   */\n      swap3\n      pop\n        /* \"#utility.yul\":15295:15296   */\n      dup3\n        /* \"#utility.yul\":15292:15293   */\n      dup3\n        /* \"#utility.yul\":15288:15297   */\n      add\n        /* \"#utility.yul\":15281:15297   */\n      swap1\n      pop\n        /* \"#utility.yul\":15316:15319   */\n      dup1\n        /* \"#utility.yul\":15313:15314   */\n      dup3\n        /* \"#utility.yul\":15310:15320   */\n      gt\n        /* \"#utility.yul\":15307:15343   */\n      iszero\n      tag_395\n      jumpi\n        /* \"#utility.yul\":15323:15341   */\n      tag_396\n      tag_234\n      jump\t// in\n    tag_396:\n        /* \"#utility.yul\":15307:15343   */\n    tag_395:\n        /* \"#utility.yul\":15159:15350   */\n      swap3\n      swap2\n      pop\n      pop\n      jump\t// out\n        /* \"#utility.yul\":15356:15550   */\n    tag_179:\n        /* \"#utility.yul\":15396:15400   */\n      0x00\n        /* \"#utility.yul\":15416:15436   */\n      tag_398\n        /* \"#utility.yul\":15434:15435   */\n      dup3\n        /* \"#utility.yul\":15416:15436   */\n      tag_220\n      jump\t// in\n    tag_398:\n        /* \"#utility.yul\":15411:15436   */\n      swap2\n      pop\n        /* \"#utility.yul\":15450:15470   */\n      tag_399\n        /* \"#utility.yul\":15468:15469   */\n      dup4\n        /* \"#utility.yul\":15450:15470   */\n      tag_220\n      jump\t// in\n    tag_399:\n        /* \"#utility.yul\":15445:15470   */\n      swap3\n      pop\n        /* \"#utility.yul\":15494:15495   */\n      dup3\n        /* \"#utility.yul\":15491:15492   */\n      dup3\n        /* \"#utility.yul\":15487:15496   */\n      sub\n        /* \"#utility.yul\":15479:15496   */\n      swap1\n      pop\n        /* \"#utility.yul\":15518:15519   */\n      dup2\n        /* \"#utility.yul\":15512:15516   */\n      dup2\n        /* \"#utility.yul\":15509:15520   */\n      gt\n        /* \"#utility.yul\":15506:15543   */\n      iszero\n      tag_400\n      jumpi\n        /* \"#utility.yul\":15523:15541   */\n      tag_401\n      tag_234\n      jump\t// in\n    tag_401:\n        /* \"#utility.yul\":15506:15543   */\n    tag_400:\n        /* \"#utility.yul\":15356:15550   */\n      swap3\n      swap2\n      pop\n      pop\n      jump\t// out\n        /* \"#utility.yul\":15556:15721   */\n    tag_251:\n        /* \"#utility.yul\":15696:15713   */\n      0x4e6f2061637469766520726f756e640000000000000000000000000000000000\n        /* \"#utility.yul\":15692:15693   */\n      0x00\n        /* \"#utility.yul\":15684:15690   */\n      dup3\n        /* \"#utility.yul\":15680:15694   */\n      add\n        /* \"#utility.yul\":15673:15714   */\n      mstore\n        /* \"#utility.yul\":15556:15721   */\n      pop\n      jump\t// out\n        /* \"#utility.yul\":15727:16093   */\n    tag_252:\n        /* \"#utility.yul\":15869:15872   */\n      0x00\n        /* \"#utility.yul\":15890:15957   */\n      tag_404\n        /* \"#utility.yul\":15954:15956   */\n      0x0f\n        /* \"#utility.yul\":15949:15952   */\n      dup4\n        /* \"#utility.yul\":15890:15957   */\n      tag_210\n      jump\t// in\n    tag_404:\n        /* \"#utility.yul\":15883:15957   */\n      swap2\n      pop\n        /* \"#utility.yul\":15966:16059   */\n      tag_405\n        /* \"#utility.yul\":16055:16058   */\n      dup3\n        /* \"#utility.yul\":15966:16059   */\n      tag_251\n      jump\t// in\n    tag_405:\n        /* \"#utility.yul\":16084:16086   */\n      0x20\n        /* \"#utility.yul\":16079:16082   */\n      dup3\n        /* \"#utility.yul\":16075:16087   */\n      add\n        /* \"#utility.yul\":16068:16087   */\n      swap1\n      pop\n        /* \"#utility.yul\":15727:16093   */\n      swap2\n      swap1\n      pop\n      jump\t// out\n        /* \"#utility.yul\":16099:16518   */\n    tag_184:\n        /* \"#utility.yul\":16265:16269   */\n      0x00\n        /* \"#utility.yul\":16303:16305   */\n      0x20\n        /* \"#utility.yul\":16292:16301   */\n      dup3\n        /* \"#utility.yul\":16288:16306   */\n      add\n        /* \"#utility.yul\":16280:16306   */\n      swap1\n      pop\n        /* \"#utility.yul\":16352:16361   */\n      dup2\n        /* \"#utility.yul\":16346:16350   */\n      dup2\n        /* \"#utility.yul\":16342:16362   */\n      sub\n        /* \"#utility.yul\":16338:16339   */\n      0x00\n        /* \"#utility.yul\":16327:16336   */\n      dup4\n        /* \"#utility.yul\":16323:16340   */\n      add\n        /* \"#utility.yul\":16316:16363   */\n      mstore\n        /* \"#utility.yul\":16380:16511   */\n      tag_407\n        /* \"#utility.yul\":16506:16510   */\n      dup2\n        /* \"#utility.yul\":16380:16511   */\n      tag_252\n      jump\t// in\n    tag_407:\n        /* \"#utility.yul\":16372:16511   */\n      swap1\n      pop\n        /* \"#utility.yul\":16099:16518   */\n      swap2\n      swap1\n      pop\n      jump\t// out\n        /* \"#utility.yul\":16524:16702   */\n    tag_253:\n        /* \"#utility.yul\":16664:16694   */\n      0x4d7573742073656e642045544820746f20627579207469636b65747300000000\n        /* \"#utility.yul\":16660:16661   */\n      0x00\n        /* \"#utility.yul\":16652:16658   */\n      dup3\n        /* \"#utility.yul\":16648:16662   */\n      add\n        /* \"#utility.yul\":16641:16695   */\n      mstore\n        /* \"#utility.yul\":16524:16702   */\n      pop\n      jump\t// out\n        /* \"#utility.yul\":16708:17074   */\n    tag_254:\n        /* \"#utility.yul\":16850:16853   */\n      0x00\n        /* \"#utility.yul\":16871:16938   */\n      tag_410\n        /* \"#utility.yul\":16935:16937   */\n      0x1c\n        /* \"#utility.yul\":16930:16933   */\n      dup4\n        /* \"#utility.yul\":16871:16938   */\n      tag_210\n      jump\t// in\n    tag_410:\n        /* \"#utility.yul\":16864:16938   */\n      swap2\n      pop\n        /* \"#utility.yul\":16947:17040   */\n      tag_411\n        /* \"#utility.yul\":17036:17039   */\n      dup3\n        /* \"#utility.yul\":16947:17040   */\n      tag_253\n      jump\t// in\n    tag_411:\n        /* \"#utility.yul\":17065:17067   */\n      0x20\n        /* \"#utility.yul\":17060:17063   */\n      dup3\n        /* \"#utility.yul\":17056:17068   */\n      add\n        /* \"#utility.yul\":17049:17068   */\n      swap1\n      pop\n        /* \"#utility.yul\":16708:17074   */\n      swap2\n      swap1\n      pop\n      jump\t// out\n        /* \"#utility.yul\":17080:17499   */\n    tag_187:\n        /* \"#utility.yul\":17246:17250   */\n      0x00\n        /* \"#utility.yul\":17284:17286   */\n      0x20\n        /* \"#utility.yul\":17273:17282   */\n      dup3\n        /* \"#utility.yul\":17269:17287   */\n      add\n        /* \"#utility.yul\":17261:17287   */\n      swap1\n      pop\n        /* \"#utility.yul\":17333:17342   */\n      dup2\n        /* \"#utility.yul\":17327:17331   */\n      dup2\n        /* \"#utility.yul\":17323:17343   */\n      sub\n        /* \"#utility.yul\":17319:17320   */\n      0x00\n        /* \"#utility.yul\":17308:17317   */\n      dup4\n        /* \"#utility.yul\":17304:17321   */\n      add\n        /* \"#utility.yul\":17297:17344   */\n      mstore\n        /* \"#utility.yul\":17361:17492   */\n      tag_413\n        /* \"#utility.yul\":17487:17491   */\n      dup2\n        /* \"#utility.yul\":17361:17492   */\n      tag_254\n      jump\t// in\n    tag_413:\n        /* \"#utility.yul\":17353:17492   */\n      swap1\n      pop\n        /* \"#utility.yul\":17080:17499   */\n      swap2\n      swap1\n      pop\n      jump\t// out\n        /* \"#utility.yul\":17505:17732   */\n    tag_255:\n        /* \"#utility.yul\":17645:17679   */\n      0x4d7573742073656e64206578616374206d756c7469706c65206f66207469636b\n        /* \"#utility.yul\":17641:17642   */\n      0x00\n        /* \"#utility.yul\":17633:17639   */\n      dup3\n        /* \"#utility.yul\":17629:17643   */\n      add\n        /* \"#utility.yul\":17622:17680   */\n      mstore\n        /* \"#utility.yul\":17714:17724   */\n      0x6574207072696365000000000000000000000000000000000000000000000000\n        /* \"#utility.yul\":17709:17711   */\n      0x20\n        /* \"#utility.yul\":17701:17707   */\n      dup3\n        /* \"#utility.yul\":17697:17712   */\n      add\n        /* \"#utility.yul\":17690:17725   */\n      mstore\n        /* \"#utility.yul\":17505:17732   */\n      pop\n      jump\t// out\n        /* \"#utility.yul\":17738:18104   */\n    tag_256:\n        /* \"#utility.yul\":17880:17883   */\n      0x00\n        /* \"#utility.yul\":17901:17968   */\n      tag_416\n        /* \"#utility.yul\":17965:17967   */\n      0x28\n        /* \"#utility.yul\":17960:17963   */\n      dup4\n        /* \"#utility.yul\":17901:17968   */\n      tag_210\n      jump\t// in\n    tag_416:\n        /* \"#utility.yul\":17894:17968   */\n      swap2\n      pop\n        /* \"#utility.yul\":17977:18070   */\n      tag_417\n        /* \"#utility.yul\":18066:18069   */\n      dup3\n        /* \"#utility.yul\":17977:18070   */\n      tag_255\n      jump\t// in\n    tag_417:\n        /* \"#utility.yul\":18095:18097   */\n      0x40\n        /* \"#utility.yul\":18090:18093   */\n      dup3\n        /* \"#utility.yul\":18086:18098   */\n      add\n        /* \"#utility.yul\":18079:18098   */\n      swap1\n      pop\n        /* \"#utility.yul\":17738:18104   */\n      swap2\n      swap1\n      pop\n      jump\t// out\n        /* \"#utility.yul\":18110:18529   */\n    tag_191:\n        /* \"#utility.yul\":18276:18280   */\n      0x00\n        /* \"#utility.yul\":18314:18316   */\n      0x20\n        /* \"#utility.yul\":18303:18312   */\n      dup3\n        /* \"#utility.yul\":18299:18317   */\n      add\n        /* \"#utility.yul\":18291:18317   */\n      swap1\n      pop\n        /* \"#utility.yul\":18363:18372   */\n      dup2\n        /* \"#utility.yul\":18357:18361   */\n      dup2\n        /* \"#utility.yul\":18353:18373   */\n      sub\n        /* \"#utility.yul\":18349:18350   */\n      0x00\n        /* \"#utility.yul\":18338:18347   */\n      dup4\n        /* \"#utility.yul\":18334:18351   */\n      add\n        /* \"#utility.yul\":18327:18374   */\n      mstore\n        /* \"#utility.yul\":18391:18522   */\n      tag_419\n        /* \"#utility.yul\":18517:18521   */\n      dup2\n        /* \"#utility.yul\":18391:18522   */\n      tag_256\n      jump\t// in\n    tag_419:\n        /* \"#utility.yul\":18383:18522   */\n      swap1\n      pop\n        /* \"#utility.yul\":18110:18529   */\n      swap2\n      swap1\n      pop\n      jump\t// out\n        /* \"#utility.yul\":18535:18720   */\n    tag_193:\n        /* \"#utility.yul\":18575:18576   */\n      0x00\n        /* \"#utility.yul\":18592:18612   */\n      tag_421\n        /* \"#utility.yul\":18610:18611   */\n      dup3\n        /* \"#utility.yul\":18592:18612   */\n      tag_220\n      jump\t// in\n    tag_421:\n        /* \"#utility.yul\":18587:18612   */\n      swap2\n      pop\n        /* \"#utility.yul\":18626:18646   */\n      tag_422\n        /* \"#utility.yul\":18644:18645   */\n      dup4\n        /* \"#utility.yul\":18626:18646   */\n      tag_220\n      jump\t// in\n    tag_422:\n        /* \"#utility.yul\":18621:18646   */\n      swap3\n      pop\n        /* \"#utility.yul\":18665:18666   */\n      dup3\n        /* \"#utility.yul\":18655:18690   */\n      tag_423\n      jumpi\n        /* \"#utility.yul\":18670:18688   */\n      tag_424\n      tag_241\n      jump\t// in\n    tag_424:\n        /* \"#utility.yul\":18655:18690   */\n    tag_423:\n        /* \"#utility.yul\":18712:18713   */\n      dup3\n        /* \"#utility.yul\":18709:18710   */\n      dup3\n        /* \"#utility.yul\":18705:18714   */\n      div\n        /* \"#utility.yul\":18700:18714   */\n      swap1\n      pop\n        /* \"#utility.yul\":18535:18720   */\n      swap3\n      swap2\n      pop\n      pop\n      jump\t// out\n        /* \"#utility.yul\":18726:18805   */\n    tag_257:\n        /* \"#utility.yul\":18765:18772   */\n      0x00\n        /* \"#utility.yul\":18794:18799   */\n      dup2\n        /* \"#utility.yul\":18783:18799   */\n      swap1\n      pop\n        /* \"#utility.yul\":18726:18805   */\n      swap2\n      swap1\n      pop\n      jump\t// out\n        /* \"#utility.yul\":18811:18968   */\n    tag_258:\n        /* \"#utility.yul\":18916:18961   */\n      tag_427\n        /* \"#utility.yul\":18936:18960   */\n      tag_428\n        /* \"#utility.yul\":18954:18959   */\n      dup3\n        /* \"#utility.yul\":18936:18960   */\n      tag_220\n      jump\t// in\n    tag_428:\n        /* \"#utility.yul\":18916:18961   */\n      tag_257\n      jump\t// in\n    tag_427:\n        /* \"#utility.yul\":18911:18914   */\n      dup3\n        /* \"#utility.yul\":18904:18962   */\n      mstore\n        /* \"#utility.yul\":18811:18968   */\n      pop\n      pop\n      jump\t// out\n        /* \"#utility.yul\":18974:19068   */\n    tag_259:\n        /* \"#utility.yul\":19007:19015   */\n      0x00\n        /* \"#utility.yul\":19055:19060   */\n      dup2\n        /* \"#utility.yul\":19051:19053   */\n      0x60\n        /* \"#utility.yul\":19047:19061   */\n      shl\n        /* \"#utility.yul\":19026:19061   */\n      swap1\n      pop\n        /* \"#utility.yul\":18974:19068   */\n      swap2\n      swap1\n      pop\n      jump\t// out\n        /* \"#utility.yul\":19074:19168   */\n    tag_260:\n        /* \"#utility.yul\":19113:19120   */\n      0x00\n        /* \"#utility.yul\":19142:19162   */\n      tag_431\n        /* \"#utility.yul\":19156:19161   */\n      dup3\n        /* \"#utility.yul\":19142:19162   */\n      tag_259\n      jump\t// in\n    tag_431:\n        /* \"#utility.yul\":19131:19162   */\n      swap1\n      pop\n        /* \"#utility.yul\":19074:19168   */\n      swap2\n      swap1\n      pop\n      jump\t// out\n        /* \"#utility.yul\":19174:19274   */\n    tag_261:\n        /* \"#utility.yul\":19213:19220   */\n      0x00\n        /* \"#utility.yul\":19242:19268   */\n      tag_433\n        /* \"#utility.yul\":19262:19267   */\n      dup3\n        /* \"#utility.yul\":19242:19268   */\n      tag_260\n      jump\t// in\n    tag_433:\n        /* \"#utility.yul\":19231:19268   */\n      swap1\n      pop\n        /* \"#utility.yul\":19174:19274   */\n      swap2\n      swap1\n      pop\n      jump\t// out\n        /* \"#utility.yul\":19280:19437   */\n    tag_262:\n        /* \"#utility.yul\":19385:19430   */\n      tag_435\n        /* \"#utility.yul\":19405:19429   */\n      tag_436\n        /* \"#utility.yul\":19423:19428   */\n      dup3\n        /* \"#utility.yul\":19405:19429   */\n      tag_217\n      jump\t// in\n    tag_436:\n        /* \"#utility.yul\":19385:19430   */\n      tag_261\n      jump\t// in\n    tag_435:\n        /* \"#utility.yul\":19380:19383   */\n      dup3\n        /* \"#utility.yul\":19373:19431   */\n      mstore\n        /* \"#utility.yul\":19280:19437   */\n      pop\n      pop\n      jump\t// out\n        /* \"#utility.yul\":19443:20263   */\n    tag_204:\n        /* \"#utility.yul\":19667:19670   */\n      0x00\n        /* \"#utility.yul\":19682:19757   */\n      tag_438\n        /* \"#utility.yul\":19753:19756   */\n      dup3\n        /* \"#utility.yul\":19744:19750   */\n      dup9\n        /* \"#utility.yul\":19682:19757   */\n      tag_258\n      jump\t// in\n    tag_438:\n        /* \"#utility.yul\":19782:19784   */\n      0x20\n        /* \"#utility.yul\":19777:19780   */\n      dup3\n        /* \"#utility.yul\":19773:19785   */\n      add\n        /* \"#utility.yul\":19766:19785   */\n      swap2\n      pop\n        /* \"#utility.yul\":19795:19870   */\n      tag_439\n        /* \"#utility.yul\":19866:19869   */\n      dup3\n        /* \"#utility.yul\":19857:19863   */\n      dup8\n        /* \"#utility.yul\":19795:19870   */\n      tag_258\n      jump\t// in\n    tag_439:\n        /* \"#utility.yul\":19895:19897   */\n      0x20\n        /* \"#utility.yul\":19890:19893   */\n      dup3\n        /* \"#utility.yul\":19886:19898   */\n      add\n        /* \"#utility.yul\":19879:19898   */\n      swap2\n      pop\n        /* \"#utility.yul\":19908:19983   */\n      tag_440\n        /* \"#utility.yul\":19979:19982   */\n      dup3\n        /* \"#utility.yul\":19970:19976   */\n      dup7\n        /* \"#utility.yul\":19908:19983   */\n      tag_258\n      jump\t// in\n    tag_440:\n        /* \"#utility.yul\":20008:20010   */\n      0x20\n        /* \"#utility.yul\":20003:20006   */\n      dup3\n        /* \"#utility.yul\":19999:20011   */\n      add\n        /* \"#utility.yul\":19992:20011   */\n      swap2\n      pop\n        /* \"#utility.yul\":20021:20096   */\n      tag_441\n        /* \"#utility.yul\":20092:20095   */\n      dup3\n        /* \"#utility.yul\":20083:20089   */\n      dup6\n        /* \"#utility.yul\":20021:20096   */\n      tag_258\n      jump\t// in\n    tag_441:\n        /* \"#utility.yul\":20121:20123   */\n      0x20\n        /* \"#utility.yul\":20116:20119   */\n      dup3\n        /* \"#utility.yul\":20112:20124   */\n      add\n        /* \"#utility.yul\":20105:20124   */\n      swap2\n      pop\n        /* \"#utility.yul\":20134:20209   */\n      tag_442\n        /* \"#utility.yul\":20205:20208   */\n      dup3\n        /* \"#utility.yul\":20196:20202   */\n      dup5\n        /* \"#utility.yul\":20134:20209   */\n      tag_262\n      jump\t// in\n    tag_442:\n        /* \"#utility.yul\":20234:20236   */\n      0x14\n        /* \"#utility.yul\":20229:20232   */\n      dup3\n        /* \"#utility.yul\":20225:20237   */\n      add\n        /* \"#utility.yul\":20218:20237   */\n      swap2\n      pop\n        /* \"#utility.yul\":20254:20257   */\n      dup2\n        /* \"#utility.yul\":20247:20257   */\n      swap1\n      pop\n        /* \"#utility.yul\":19443:20263   */\n      swap7\n      swap6\n      pop\n      pop\n      pop\n      pop\n      pop\n      pop\n      jump\t// out\n\n    auxdata: 0xa26469706673582212201fb967c0a5e07e22c5b499f1314d76b6ed1ee0a7c629b4208198750064ab9b7964736f6c634300081e0033\n}\n",
				"bytecode": {
					"linkReferences": {},
					"object": "6080604052348015600e575f5ffd5b50335f5f6101000a81548173ffffffffffffffffffffffffffffffffffffffff021916908373ffffffffffffffffffffffffffffffffffffffff1602179055505f60018190555061170d806100625f395ff3fe60806040526004361061010c575f3560e01c80638da5cb5b11610094578063dac6270d11610063578063dac6270d14610397578063e40205d6146103c1578063edca914c146103eb578063f71d96cb146103f5578063fe188184146104315761014c565b80638da5cb5b1461030357806399ea52591461032d578063bd85948c14610357578063c2e522061461036d5761014c565b806345945a45116100db57806345945a45146102315780634e2786fb1461025b5780636641ea0814610285578063884bf67c146102af5780638b5b9ccc146102d95761014c565b80631a89a43b146101875780631a95f15f146101c35780632b6524cd146101ed57806333a99e041461021b5761014c565b3661014c576040517f08c379a000000000000000000000000000000000000000000000000000000000815260040161014390610d74565b60405180910390fd5b6040517f08c379a000000000000000000000000000000000000000000000000000000000815260040161017e90610d74565b60405180910390fd5b348015610192575f5ffd5b506101ad60048036038101906101a89190610df0565b61045b565b6040516101ba9190610e33565b60405180910390f35b3480156101ce575f5ffd5b506101d7610506565b6040516101e49190610e33565b60405180910390f35b3480156101f8575f5ffd5b50610201610511565b604051610212959493929190610e66565b60405180910390f35b348015610226575f5ffd5b5061022f61054a565b005b34801561023c575f5ffd5b506102456107d6565b6040516102529190610eb7565b60405180910390f35b348015610266575f5ffd5b5061026f6107ee565b60405161027c9190610e33565b60405180910390f35b348015610290575f5ffd5b506102996107f4565b6040516102a69190610e33565b60405180910390f35b3480156102ba575f5ffd5b506102c36107fa565b6040516102d09190610e33565b60405180910390f35b3480156102e4575f5ffd5b506102ed610801565b6040516102fa9190610f87565b60405180910390f35b34801561030e575f5ffd5b5061031761088c565b6040516103249190610fb6565b60405180910390f35b348015610338575f5ffd5b506103416108b0565b60405161034e9190610e33565b60405180910390f35b348015610362575f5ffd5b5061036b6108b6565b005b348015610378575f5ffd5b50610381610a0c565b60405161038e9190610e33565b60405180910390f35b3480156103a2575f5ffd5b506103ab610a18565b6040516103b89190610e33565b60405180910390f35b3480156103cc575f5ffd5b506103d5610a41565b6040516103e29190610e33565b60405180910390f35b6103f3610a47565b005b348015610400575f5ffd5b5061041b60048036038101906104169190610ff9565b610c06565b6040516104289190610fb6565b60405180910390f35b34801561043c575f5ffd5b50610445610c41565b6040516104529190610fb6565b60405180910390f35b5f5f5f90505f5f90505b6003805490508110156104fc578373ffffffffffffffffffffffffffffffffffffffff166003828154811061049d5761049c611024565b5b905f5260205f20015f9054906101000a900473ffffffffffffffffffffffffffffffffffffffff1673ffffffffffffffffffffffffffffffffffffffff16036104ef5781806104eb9061107e565b9250505b8080600101915050610465565b5080915050919050565b662386f26fc1000081565b5f5f5f5f5f61051e6107d6565b610526610a18565b61052e610a0c565b6105366107fa565b600154945094509450945094509091929394565b6105526107d6565b15610592576040517f08c379a00000000000000000000000000000000000000000000000000000000081526004016105899061110f565b60405180910390fd5b5f600254116105d6576040517f08c379a00000000000000000000000000000000000000000000000000000000081526004016105cd90611177565b60405180910390fd5b5f6003805490501161061d576040517f08c379a0000000000000000000000000000000000000000000000000000000008152600401610614906111df565b60405180910390fd5b5f60038054905061062c610c66565b610636919061122a565b90505f6003828154811061064d5761064c611024565b5b905f5260205f20015f9054906101000a900473ffffffffffffffffffffffffffffffffffffffff1690505f4790508160045f6101000a81548173ffffffffffffffffffffffffffffffffffffffff021916908373ffffffffffffffffffffffffffffffffffffffff1602179055508060058190555060035f6106cf9190610cbb565b5f6002819055508173ffffffffffffffffffffffffffffffffffffffff167f866efae43947560fe9d0de9013bc323d5718730d5c1543261b48a7bcb0717b938260015460405161072092919061125a565b60405180910390a25f8273ffffffffffffffffffffffffffffffffffffffff168260405161074d906112ae565b5f6040518083038185875af1925050503d805f8114610787576040519150601f19603f3d011682016040523d82523d5f602084013e61078c565b606091505b50509050806107d0576040517f08c379a00000000000000000000000000000000000000000000000000000000081526004016107c79061130c565b60405180910390fd5b50505050565b5f600254421080156107e957505f600254115b905090565b60015481565b61012c81565b5f47905090565b6060600380548060200260200160405190810160405280929190818152602001828054801561088257602002820191905f5260205f20905b815f9054906101000a900473ffffffffffffffffffffffffffffffffffffffff1673ffffffffffffffffffffffffffffffffffffffff1681526020019060010190808311610839575b5050505050905090565b5f5f9054906101000a900473ffffffffffffffffffffffffffffffffffffffff1681565b60055481565b5f5f9054906101000a900473ffffffffffffffffffffffffffffffffffffffff1673ffffffffffffffffffffffffffffffffffffffff163373ffffffffffffffffffffffffffffffffffffffff1614610944576040517f08c379a000000000000000000000000000000000000000000000000000000000815260040161093b9061139a565b60405180910390fd5b5f600254148061095657506002544210155b610995576040517f08c379a000000000000000000000000000000000000000000000000000000000815260040161098c90611402565b60405180910390fd5b60035f6109a29190610cbb565b60015f8154809291906109b49061107e565b919050555061012c426109c79190611420565b6002819055507f278844837bcf8364a705384bf3a2812901f54155bae86dea81dd52aa5b9ec0e3600154600254604051610a0292919061125a565b60405180910390a1565b5f600380549050905090565b5f610a216107d6565b610a2d575f9050610a3e565b42600254610a3b9190611453565b90505b90565b60025481565b610a4f6107d6565b610a8e576040517f08c379a0000000000000000000000000000000000000000000000000000000008152600401610a85906114d0565b60405180910390fd5b5f3411610ad0576040517f08c379a0000000000000000000000000000000000000000000000000000000008152600401610ac790611538565b60405180910390fd5b5f662386f26fc1000034610ae4919061122a565b14610b24576040517f08c379a0000000000000000000000000000000000000000000000000000000008152600401610b1b906115c6565b60405180910390fd5b5f662386f26fc1000034610b3891906115e4565b90505f5f90505b81811015610bb457600333908060018154018082558091505060019003905f5260205f20015f9091909190916101000a81548173ffffffffffffffffffffffffffffffffffffffff021916908373ffffffffffffffffffffffffffffffffffffffff1602179055508080600101915050610b3f565b503373ffffffffffffffffffffffffffffffffffffffff167f0668f5b446eb814fe35b3206f43f14bd8567ba04ddaf7a3ee56516929ab22ccb82604051610bfb9190610e33565b60405180910390a250565b60038181548110610c15575f80fd5b905f5260205f20015f915054906101000a900473ffffffffffffffffffffffffffffffffffffffff1681565b60045f9054906101000a900473ffffffffffffffffffffffffffffffffffffffff1681565b5f60065f815480929190610c799061107e565b9190505550424460038054905060065433604051602001610c9e959493929190611679565b604051602081830303815290604052805190602001205f1c905090565b5080545f8255905f5260205f2090810190610cd69190610cd9565b50565b5b80821115610cf0575f815f905550600101610cda565b5090565b5f82825260208201905092915050565b7f557365206275795469636b6574282920746f20656e74657220746865206c6f745f8201527f7465727900000000000000000000000000000000000000000000000000000000602082015250565b5f610d5e602483610cf4565b9150610d6982610d04565b604082019050919050565b5f6020820190508181035f830152610d8b81610d52565b9050919050565b5f5ffd5b5f73ffffffffffffffffffffffffffffffffffffffff82169050919050565b5f610dbf82610d96565b9050919050565b610dcf81610db5565b8114610dd9575f5ffd5b50565b5f81359050610dea81610dc6565b92915050565b5f60208284031215610e0557610e04610d92565b5b5f610e1284828501610ddc565b91505092915050565b5f819050919050565b610e2d81610e1b565b82525050565b5f602082019050610e465f830184610e24565b92915050565b5f8115159050919050565b610e6081610e4c565b82525050565b5f60a082019050610e795f830188610e57565b610e866020830187610e24565b610e936040830186610e24565b610ea06060830185610e24565b610ead6080830184610e24565b9695505050505050565b5f602082019050610eca5f830184610e57565b92915050565b5f81519050919050565b5f82825260208201905092915050565b5f819050602082019050919050565b610f0281610db5565b82525050565b5f610f138383610ef9565b60208301905092915050565b5f602082019050919050565b5f610f3582610ed0565b610f3f8185610eda565b9350610f4a83610eea565b805f5b83811015610f7a578151610f618882610f08565b9750610f6c83610f1f565b925050600181019050610f4d565b5085935050505092915050565b5f6020820190508181035f830152610f9f8184610f2b565b905092915050565b610fb081610db5565b82525050565b5f602082019050610fc95f830184610fa7565b92915050565b610fd881610e1b565b8114610fe2575f5ffd5b50565b5f81359050610ff381610fcf565b92915050565b5f6020828403121561100e5761100d610d92565b5b5f61101b84828501610fe5565b91505092915050565b7f4e487b71000000000000000000000000000000000000000000000000000000005f52603260045260245ffd5b7f4e487b71000000000000000000000000000000000000000000000000000000005f52601160045260245ffd5b5f61108882610e1b565b91507fffffffffffffffffffffffffffffffffffffffffffffffffffffffffffffffff82036110ba576110b9611051565b5b600182019050919050565b7f526f756e64206973207374696c6c2061637469766500000000000000000000005f82015250565b5f6110f9601583610cf4565b9150611104826110c5565b602082019050919050565b5f6020820190508181035f830152611126816110ed565b9050919050565b7f4e6f20726f756e6420686173206265656e2073746172746564000000000000005f82015250565b5f611161601983610cf4565b915061116c8261112d565b602082019050919050565b5f6020820190508181035f83015261118e81611155565b9050919050565b7f4e6f20706c617965727320696e207468697320726f756e6400000000000000005f82015250565b5f6111c9601883610cf4565b91506111d482611195565b602082019050919050565b5f6020820190508181035f8301526111f6816111bd565b9050919050565b7f4e487b71000000000000000000000000000000000000000000000000000000005f52601260045260245ffd5b5f61123482610e1b565b915061123f83610e1b565b92508261124f5761124e6111fd565b5b828206905092915050565b5f60408201905061126d5f830185610e24565b61127a6020830184610e24565b9392505050565b5f81905092915050565b50565b5f6112995f83611281565b91506112a48261128b565b5f82019050919050565b5f6112b88261128e565b9150819050919050565b7f5072697a65207472616e73666572206661696c656400000000000000000000005f82015250565b5f6112f6601583610cf4565b9150611301826112c2565b602082019050919050565b5f6020820190508181035f830152611323816112ea565b9050919050565b7f4f6e6c79206f776e65722063616e2063616c6c20746869732066756e6374696f5f8201527f6e00000000000000000000000000000000000000000000000000000000000000602082015250565b5f611384602183610cf4565b915061138f8261132a565b604082019050919050565b5f6020820190508181035f8301526113b181611378565b9050919050565b7f43757272656e7420726f756e6420686173206e6f7420656e64656420796574005f82015250565b5f6113ec601f83610cf4565b91506113f7826113b8565b602082019050919050565b5f6020820190508181035f830152611419816113e0565b9050919050565b5f61142a82610e1b565b915061143583610e1b565b925082820190508082111561144d5761144c611051565b5b92915050565b5f61145d82610e1b565b915061146883610e1b565b92508282039050818111156114805761147f611051565b5b92915050565b7f4e6f2061637469766520726f756e6400000000000000000000000000000000005f82015250565b5f6114ba600f83610cf4565b91506114c582611486565b602082019050919050565b5f6020820190508181035f8301526114e7816114ae565b9050919050565b7f4d7573742073656e642045544820746f20627579207469636b657473000000005f82015250565b5f611522601c83610cf4565b915061152d826114ee565b602082019050919050565b5f6020820190508181035f83015261154f81611516565b9050919050565b7f4d7573742073656e64206578616374206d756c7469706c65206f66207469636b5f8201527f6574207072696365000000000000000000000000000000000000000000000000602082015250565b5f6115b0602883610cf4565b91506115bb82611556565b604082019050919050565b5f6020820190508181035f8301526115dd816115a4565b9050919050565b5f6115ee82610e1b565b91506115f983610e1b565b925082611609576116086111fd565b5b828204905092915050565b5f819050919050565b61162e61162982610e1b565b611614565b82525050565b5f8160601b9050919050565b5f61164a82611634565b9050919050565b5f61165b82611640565b9050919050565b61167361166e82610db5565b611651565b82525050565b5f611684828861161d565b602082019150611694828761161d565b6020820191506116a4828661161d565b6020820191506116b4828561161d565b6020820191506116c48284611662565b601482019150819050969550505050505056fea26469706673582212201fb967c0a5e07e22c5b499f1314d76b6ed1ee0a7c629b4208198750064ab9b7964736f6c634300081e0033",
					"opcodes": "PUSH1 0x80 PUSH1 0x40 MSTORE CALLVALUE DUP1 ISZERO PUSH1 0xE JUMPI PUSH0 PUSH0 REVERT JUMPDEST POP CALLER PUSH0 PUSH0 PUSH2 0x100 EXP DUP2 SLOAD DUP2 PUSH20 0xFFFFFFFFFFFFFFFFFFFFFFFFFFFFFFFFFFFFFFFF MUL NOT AND SWAP1 DUP4 PUSH20 0xFFFFFFFFFFFFFFFFFFFFFFFFFFFFFFFFFFFFFFFF AND MUL OR SWAP1 SSTORE POP PUSH0 PUSH1 0x1 DUP2 SWAP1 SSTORE POP PUSH2 0x170D DUP1 PUSH2 0x62 PUSH0 CODECOPY PUSH0 RETURN INVALID PUSH1 0x80 PUSH1 0x40 MSTORE PUSH1 0x4 CALLDATASIZE LT PUSH2 0x10C JUMPI PUSH0 CALLDATALOAD PUSH1 0xE0 SHR DUP1 PUSH4 0x8DA5CB5B GT PUSH2 0x94 JUMPI DUP1 PUSH4 0xDAC6270D GT PUSH2 0x63 JUMPI DUP1 PUSH4 0xDAC6270D EQ PUSH2 0x397 JUMPI DUP1 PUSH4 0xE40205D6 EQ PUSH2 0x3C1 JUMPI DUP1 PUSH4 0xEDCA914C EQ PUSH2 0x3EB JUMPI DUP1 PUSH4 0xF71D96CB EQ PUSH2 0x3F5 JUMPI DUP1 PUSH4 0xFE188184 EQ PUSH2 0x431 JUMPI PUSH2 0x14C JUMP JUMPDEST DUP1 PUSH4 0x8DA5CB5B EQ PUSH2 0x303 JUMPI DUP1 PUSH4 0x99EA5259 EQ PUSH2 0x32D JUMPI DUP1 PUSH4 0xBD85948C EQ PUSH2 0x357 JUMPI DUP1 PUSH4 0xC2E52206 EQ PUSH2 0x36D JUMPI PUSH2 0x14C JUMP JUMPDEST DUP1 PUSH4 0x45945A45 GT PUSH2 0xDB JUMPI DUP1 PUSH4 0x45945A45 EQ PUSH2 0x231 JUMPI DUP1 PUSH4 0x4E2786FB EQ PUSH2 0x25B JUMPI DUP1 PUSH4 0x6641EA08 EQ PUSH2 0x285 JUMPI DUP1 PUSH4 0x884BF67C EQ PUSH2 0x2AF JUMPI DUP1 PUSH4 0x8B5B9CCC EQ PUSH2 0x2D9 JUMPI PUSH2 0x14C JUMP JUMPDEST DUP1 PUSH4 0x1A89A43B EQ PUSH2 0x187 JUMPI DUP1 PUSH4 0x1A95F15F EQ PUSH2 0x1C3 JUMPI DUP1 PUSH4 0x2B6524CD EQ PUSH2 0x1ED JUMPI DUP1 PUSH4 0x33A99E04 EQ PUSH2 0x21B JUMPI PUSH2 0x14C JUMP JUMPDEST CALLDATASIZE PUSH2 0x14C JUMPI PUSH1 0x40 MLOAD PUSH32 0x8C379A000000000000000000000000000000000000000000000000000000000 DUP2 MSTORE PUSH1 0x4 ADD PUSH2 0x143 SWAP1 PUSH2 0xD74 JUMP JUMPDEST PUSH1 0x40 MLOAD DUP1 SWAP2 SUB SWAP1 REVERT JUMPDEST PUSH1 0x40 MLOAD PUSH32 0x8C379A000000000000000000000000000000000000000000000000000000000 DUP2 MSTORE PUSH1 0x4 ADD PUSH2 0x17E SWAP1 PUSH2 0xD74 JUMP JUMPDEST PUSH1 0x40 MLOAD DUP1 SWAP2 SUB SWAP1 REVERT JUMPDEST CALLVALUE DUP1 ISZERO PUSH2 0x192 JUMPI PUSH0 PUSH0 REVERT JUMPDEST POP PUSH2 0x1AD PUSH1 0x4 DUP1 CALLDATASIZE SUB DUP2 ADD SWAP1 PUSH2 0x1A8 SWAP2 SWAP1 PUSH2 0xDF0 JUMP JUMPDEST PUSH2 0x45B JUMP JUMPDEST PUSH1 0x40 MLOAD PUSH2 0x1BA SWAP2 SWAP1 PUSH2 0xE33 JUMP JUMPDEST PUSH1 0x40 MLOAD DUP1 SWAP2 SUB SWAP1 RETURN JUMPDEST CALLVALUE DUP1 ISZERO PUSH2 0x1CE JUMPI PUSH0 PUSH0 REVERT JUMPDEST POP PUSH2 0x1D7 PUSH2 0x506 JUMP JUMPDEST PUSH1 0x40 MLOAD PUSH2 0x1E4 SWAP2 SWAP1 PUSH2 0xE33 JUMP JUMPDEST PUSH1 0x40 MLOAD DUP1 SWAP2 SUB SWAP1 RETURN JUMPDEST CALLVALUE DUP1 ISZERO PUSH2 0x1F8 JUMPI PUSH0 PUSH0 REVERT JUMPDEST POP PUSH2 0x201 PUSH2 0x511 JUMP JUMPDEST PUSH1 0x40 MLOAD PUSH2 0x212 SWAP6 SWAP5 SWAP4 SWAP3 SWAP2 SWAP1 PUSH2 0xE66 JUMP JUMPDEST PUSH1 0x40 MLOAD DUP1 SWAP2 SUB SWAP1 RETURN JUMPDEST CALLVALUE DUP1 ISZERO PUSH2 0x226 JUMPI PUSH0 PUSH0 REVERT JUMPDEST POP PUSH2 0x22F PUSH2 0x54A JUMP JUMPDEST STOP JUMPDEST CALLVALUE DUP1 ISZERO PUSH2 0x23C JUMPI PUSH0 PUSH0 REVERT JUMPDEST POP PUSH2 0x245 PUSH2 0x7D6 JUMP JUMPDEST PUSH1 0x40 MLOAD PUSH2 0x252 SWAP2 SWAP1 PUSH2 0xEB7 JUMP JUMPDEST PUSH1 0x40 MLOAD DUP1 SWAP2 SUB SWAP1 RETURN JUMPDEST CALLVALUE DUP1 ISZERO PUSH2 0x266 JUMPI PUSH0 PUSH0 REVERT JUMPDEST POP PUSH2 0x26F PUSH2 0x7EE JUMP JUMPDEST PUSH1 0x40 MLOAD PUSH2 0x27C SWAP2 SWAP1 PUSH2 0xE33 JUMP JUMPDEST PUSH1 0x40 MLOAD DUP1 SWAP2 SUB SWAP1 RETURN JUMPDEST CALLVALUE DUP1 ISZERO PUSH2 0x290 JUMPI PUSH0 PUSH0 REVERT JUMPDEST POP PUSH2 0x299 PUSH2 0x7F4 JUMP JUMPDEST PUSH1 0x40 MLOAD PUSH2 0x2A6 SWAP2 SWAP1 PUSH2 0xE33 JUMP JUMPDEST PUSH1 0x40 MLOAD DUP1 SWAP2 SUB SWAP1 RETURN JUMPDEST CALLVALUE DUP1 ISZERO PUSH2 0x2BA JUMPI PUSH0 PUSH0 REVERT JUMPDEST POP PUSH2 0x2C3 PUSH2 0x7FA JUMP JUMPDEST PUSH1 0x40 MLOAD PUSH2 0x2D0 SWAP2 SWAP1 PUSH2 0xE33 JUMP JUMPDEST PUSH1 0x40 MLOAD DUP1 SWAP2 SUB SWAP1 RETURN JUMPDEST CALLVALUE DUP1 ISZERO PUSH2 0x2E4 JUMPI PUSH0 PUSH0 REVERT JUMPDEST POP PUSH2 0x2ED PUSH2 0x801 JUMP JUMPDEST PUSH1 0x40 MLOAD PUSH2 0x2FA SWAP2 SWAP1 PUSH2 0xF87 JUMP JUMPDEST PUSH1 0x40 MLOAD DUP1 SWAP2 SUB SWAP1 RETURN JUMPDEST CALLVALUE DUP1 ISZERO PUSH2 0x30E JUMPI PUSH0 PUSH0 REVERT JUMPDEST POP PUSH2 0x317 PUSH2 0x88C JUMP JUMPDEST PUSH1 0x40 MLOAD PUSH2 0x324 SWAP2 SWAP1 PUSH2 0xFB6 JUMP JUMPDEST PUSH1 0x40 MLOAD DUP1 SWAP2 SUB SWAP1 RETURN JUMPDEST CALLVALUE DUP1 ISZERO PUSH2 0x338 JUMPI PUSH0 PUSH0 REVERT JUMPDEST POP PUSH2 0x341 PUSH2 0x8B0 JUMP JUMPDEST PUSH1 0x40 MLOAD PUSH2 0x34E SWAP2 SWAP1 PUSH2 0xE33 JUMP JUMPDEST PUSH1 0x40 MLOAD DUP1 SWAP2 SUB SWAP1 RETURN JUMPDEST CALLVALUE DUP1 ISZERO PUSH2 0x362 JUMPI PUSH0 PUSH0 REVERT JUMPDEST POP PUSH2 0x36B PUSH2 0x8B6 JUMP JUMPDEST STOP JUMPDEST CALLVALUE DUP1 ISZERO PUSH2 0x378 JUMPI PUSH0 PUSH0 REVERT JUMPDEST POP PUSH2 0x381 PUSH2 0xA0C JUMP JUMPDEST PUSH1 0x40 MLOAD PUSH2 0x38E SWAP2 SWAP1 PUSH2 0xE33 JUMP JUMPDEST PUSH1 0x40 MLOAD DUP1 SWAP2 SUB SWAP1 RETURN JUMPDEST CALLVALUE DUP1 ISZERO PUSH2 0x3A2 JUMPI PUSH0 PUSH0 REVERT JUMPDEST POP PUSH2 0x3AB PUSH2 0xA18 JUMP JUMPDEST PUSH1 0x40 MLOAD PUSH2 0x3B8 SWAP2 SWAP1 PUSH2 0xE33 JUMP JUMPDEST PUSH1 0x40 MLOAD DUP1 SWAP2 SUB SWAP1 RETURN JUMPDEST CALLVALUE DUP1 ISZERO PUSH2 0x3CC JUMPI PUSH0 PUSH0 REVERT JUMPDEST POP PUSH2 0x3D5 PUSH2 0xA41 JUMP JUMPDEST PUSH1 0x40 MLOAD PUSH2 0x3E2 SWAP2 SWAP1 PUSH2 0xE33 JUMP JUMPDEST PUSH1 0x40 MLOAD DUP1 SWAP2 SUB SWAP1 RETURN JUMPDEST PUSH2 0x3F3 PUSH2 0xA47 JUMP JUMPDEST STOP JUMPDEST CALLVALUE DUP1 ISZERO PUSH2 0x400 JUMPI PUSH0 PUSH0 REVERT JUMPDEST POP PUSH2 0x41B PUSH1 0x4 DUP1 CALLDATASIZE SUB DUP2 ADD SWAP1 PUSH2 0x416 SWAP2 SWAP1 PUSH2 0xFF9 JUMP JUMPDEST PUSH2 0xC06 JUMP JUMPDEST PUSH1 0x40 MLOAD PUSH2 0x428 SWAP2 SWAP1 PUSH2 0xFB6 JUMP JUMPDEST PUSH1 0x40 MLOAD DUP1 SWAP2 SUB SWAP1 RETURN JUMPDEST CALLVALUE DUP1 ISZERO PUSH2 0x43C JUMPI PUSH0 PUSH0 REVERT JUMPDEST POP PUSH2 0x445 PUSH2 0xC41 JUMP JUMPDEST PUSH1 0x40 MLOAD PUSH2 0x452 SWAP2 SWAP1 PUSH2 0xFB6 JUMP JUMPDEST PUSH1 0x40 MLOAD DUP1 SWAP2 SUB SWAP1 RETURN JUMPDEST PUSH0 PUSH0 PUSH0 SWAP1 POP PUSH0 PUSH0 SWAP1 POP JUMPDEST PUSH1 0x3 DUP1 SLOAD SWAP1 POP DUP2 LT ISZERO PUSH2 0x4FC JUMPI DUP4 PUSH20 0xFFFFFFFFFFFFFFFFFFFFFFFFFFFFFFFFFFFFFFFF AND PUSH1 0x3 DUP3 DUP2 SLOAD DUP2 LT PUSH2 0x49D JUMPI PUSH2 0x49C PUSH2 0x1024 JUMP JUMPDEST JUMPDEST SWAP1 PUSH0 MSTORE PUSH1 0x20 PUSH0 KECCAK256 ADD PUSH0 SWAP1 SLOAD SWAP1 PUSH2 0x100 EXP SWAP1 DIV PUSH20 0xFFFFFFFFFFFFFFFFFFFFFFFFFFFFFFFFFFFFFFFF AND PUSH20 0xFFFFFFFFFFFFFFFFFFFFFFFFFFFFFFFFFFFFFFFF AND SUB PUSH2 0x4EF JUMPI DUP2 DUP1 PUSH2 0x4EB SWAP1 PUSH2 0x107E JUMP JUMPDEST SWAP3 POP POP JUMPDEST DUP1 DUP1 PUSH1 0x1 ADD SWAP2 POP POP PUSH2 0x465 JUMP JUMPDEST POP DUP1 SWAP2 POP POP SWAP2 SWAP1 POP JUMP JUMPDEST PUSH7 0x2386F26FC10000 DUP2 JUMP JUMPDEST PUSH0 PUSH0 PUSH0 PUSH0 PUSH0 PUSH2 0x51E PUSH2 0x7D6 JUMP JUMPDEST PUSH2 0x526 PUSH2 0xA18 JUMP JUMPDEST PUSH2 0x52E PUSH2 0xA0C JUMP JUMPDEST PUSH2 0x536 PUSH2 0x7FA JUMP JUMPDEST PUSH1 0x1 SLOAD SWAP5 POP SWAP5 POP SWAP5 POP SWAP5 POP SWAP5 POP SWAP1 SWAP2 SWAP3 SWAP4 SWAP5 JUMP JUMPDEST PUSH2 0x552 PUSH2 0x7D6 JUMP JUMPDEST ISZERO PUSH2 0x592 JUMPI PUSH1 0x40 MLOAD PUSH32 0x8C379A000000000000000000000000000000000000000000000000000000000 DUP2 MSTORE PUSH1 0x4 ADD PUSH2 0x589 SWAP1 PUSH2 0x110F JUMP JUMPDEST PUSH1 0x40 MLOAD DUP1 SWAP2 SUB SWAP1 REVERT JUMPDEST PUSH0 PUSH1 0x2 SLOAD GT PUSH2 0x5D6 JUMPI PUSH1 0x40 MLOAD PUSH32 0x8C379A000000000000000000000000000000000000000000000000000000000 DUP2 MSTORE PUSH1 0x4 ADD PUSH2 0x5CD SWAP1 PUSH2 0x1177 JUMP JUMPDEST PUSH1 0x40 MLOAD DUP1 SWAP2 SUB SWAP1 REVERT JUMPDEST PUSH0 PUSH1 0x3 DUP1 SLOAD SWAP1 POP GT PUSH2 0x61D JUMPI PUSH1 0x40 MLOAD PUSH32 0x8C379A000000000000000000000000000000000000000000000000000000000 DUP2 MSTORE PUSH1 0x4 ADD PUSH2 0x614 SWAP1 PUSH2 0x11DF JUMP JUMPDEST PUSH1 0x40 MLOAD DUP1 SWAP2 SUB SWAP1 REVERT JUMPDEST PUSH0 PUSH1 0x3 DUP1 SLOAD SWAP1 POP PUSH2 0x62C PUSH2 0xC66 JUMP JUMPDEST PUSH2 0x636 SWAP2 SWAP1 PUSH2 0x122A JUMP JUMPDEST SWAP1 POP PUSH0 PUSH1 0x3 DUP3 DUP2 SLOAD DUP2 LT PUSH2 0x64D JUMPI PUSH2 0x64C PUSH2 0x1024 JUMP JUMPDEST JUMPDEST SWAP1 PUSH0 MSTORE PUSH1 0x20 PUSH0 KECCAK256 ADD PUSH0 SWAP1 SLOAD SWAP1 PUSH2 0x100 EXP SWAP1 DIV PUSH20 0xFFFFFFFFFFFFFFFFFFFFFFFFFFFFFFFFFFFFFFFF AND SWAP1 POP PUSH0 SELFBALANCE SWAP1 POP DUP2 PUSH1 0x4 PUSH0 PUSH2 0x100 EXP DUP2 SLOAD DUP2 PUSH20 0xFFFFFFFFFFFFFFFFFFFFFFFFFFFFFFFFFFFFFFFF MUL NOT AND SWAP1 DUP4 PUSH20 0xFFFFFFFFFFFFFFFFFFFFFFFFFFFFFFFFFFFFFFFF AND MUL OR SWAP1 SSTORE POP DUP1 PUSH1 0x5 DUP2 SWAP1 SSTORE POP PUSH1 0x3 PUSH0 PUSH2 0x6CF SWAP2 SWAP1 PUSH2 0xCBB JUMP JUMPDEST PUSH0 PUSH1 0x2 DUP2 SWAP1 SSTORE POP DUP2 PUSH20 0xFFFFFFFFFFFFFFFFFFFFFFFFFFFFFFFFFFFFFFFF AND PUSH32 0x866EFAE43947560FE9D0DE9013BC323D5718730D5C1543261B48A7BCB0717B93 DUP3 PUSH1 0x1 SLOAD PUSH1 0x40 MLOAD PUSH2 0x720 SWAP3 SWAP2 SWAP1 PUSH2 0x125A JUMP JUMPDEST PUSH1 0x40 MLOAD DUP1 SWAP2 SUB SWAP1 LOG2 PUSH0 DUP3 PUSH20 0xFFFFFFFFFFFFFFFFFFFFFFFFFFFFFFFFFFFFFFFF AND DUP3 PUSH1 0x40 MLOAD PUSH2 0x74D SWAP1 PUSH2 0x12AE JUMP JUMPDEST PUSH0 PUSH1 0x40 MLOAD DUP1 DUP4 SUB DUP2 DUP6 DUP8 GAS CALL SWAP3 POP POP POP RETURNDATASIZE DUP1 PUSH0 DUP2 EQ PUSH2 0x787 JUMPI PUSH1 0x40 MLOAD SWAP2 POP PUSH1 0x1F NOT PUSH1 0x3F RETURNDATASIZE ADD AND DUP3 ADD PUSH1 0x40 MSTORE RETURNDATASIZE DUP3 MSTORE RETURNDATASIZE PUSH0 PUSH1 0x20 DUP5 ADD RETURNDATACOPY PUSH2 0x78C JUMP JUMPDEST PUSH1 0x60 SWAP2 POP JUMPDEST POP POP SWAP1 POP DUP1 PUSH2 0x7D0 JUMPI PUSH1 0x40 MLOAD PUSH32 0x8C379A000000000000000000000000000000000000000000000000000000000 DUP2 MSTORE PUSH1 0x4 ADD PUSH2 0x7C7 SWAP1 PUSH2 0x130C JUMP JUMPDEST PUSH1 0x40 MLOAD DUP1 SWAP2 SUB SWAP1 REVERT JUMPDEST POP POP POP POP JUMP JUMPDEST PUSH0 PUSH1 0x2 SLOAD TIMESTAMP LT DUP1 ISZERO PUSH2 0x7E9 JUMPI POP PUSH0 PUSH1 0x2 SLOAD GT JUMPDEST SWAP1 POP SWAP1 JUMP JUMPDEST PUSH1 0x1 SLOAD DUP2 JUMP JUMPDEST PUSH2 0x12C DUP2 JUMP JUMPDEST PUSH0 SELFBALANCE SWAP1 POP SWAP1 JUMP JUMPDEST PUSH1 0x60 PUSH1 0x3 DUP1 SLOAD DUP1 PUSH1 0x20 MUL PUSH1 0x20 ADD PUSH1 0x40 MLOAD SWAP1 DUP2 ADD PUSH1 0x40 MSTORE DUP1 SWAP3 SWAP2 SWAP1 DUP2 DUP2 MSTORE PUSH1 0x20 ADD DUP3 DUP1 SLOAD DUP1 ISZERO PUSH2 0x882 JUMPI PUSH1 0x20 MUL DUP3 ADD SWAP2 SWAP1 PUSH0 MSTORE PUSH1 0x20 PUSH0 KECCAK256 SWAP1 JUMPDEST DUP2 PUSH0 SWAP1 SLOAD SWAP1 PUSH2 0x100 EXP SWAP1 DIV PUSH20 0xFFFFFFFFFFFFFFFFFFFFFFFFFFFFFFFFFFFFFFFF AND PUSH20 0xFFFFFFFFFFFFFFFFFFFFFFFFFFFFFFFFFFFFFFFF AND DUP2 MSTORE PUSH1 0x20 ADD SWAP1 PUSH1 0x1 ADD SWAP1 DUP1 DUP4 GT PUSH2 0x839 JUMPI JUMPDEST POP POP POP POP POP SWAP1 POP SWAP1 JUMP JUMPDEST PUSH0 PUSH0 SWAP1 SLOAD SWAP1 PUSH2 0x100 EXP SWAP1 DIV PUSH20 0xFFFFFFFFFFFFFFFFFFFFFFFFFFFFFFFFFFFFFFFF AND DUP2 JUMP JUMPDEST PUSH1 0x5 SLOAD DUP2 JUMP JUMPDEST PUSH0 PUSH0 SWAP1 SLOAD SWAP1 PUSH2 0x100 EXP SWAP1 DIV PUSH20 0xFFFFFFFFFFFFFFFFFFFFFFFFFFFFFFFFFFFFFFFF AND PUSH20 0xFFFFFFFFFFFFFFFFFFFFFFFFFFFFFFFFFFFFFFFF AND CALLER PUSH20 0xFFFFFFFFFFFFFFFFFFFFFFFFFFFFFFFFFFFFFFFF AND EQ PUSH2 0x944 JUMPI PUSH1 0x40 MLOAD PUSH32 0x8C379A000000000000000000000000000000000000000000000000000000000 DUP2 MSTORE PUSH1 0x4 ADD PUSH2 0x93B SWAP1 PUSH2 0x139A JUMP JUMPDEST PUSH1 0x40 MLOAD DUP1 SWAP2 SUB SWAP1 REVERT JUMPDEST PUSH0 PUSH1 0x2 SLOAD EQ DUP1 PUSH2 0x956 JUMPI POP PUSH1 0x2 SLOAD TIMESTAMP LT ISZERO JUMPDEST PUSH2 0x995 JUMPI PUSH1 0x40 MLOAD PUSH32 0x8C379A000000000000000000000000000000000000000000000000000000000 DUP2 MSTORE PUSH1 0x4 ADD PUSH2 0x98C SWAP1 PUSH2 0x1402 JUMP JUMPDEST PUSH1 0x40 MLOAD DUP1 SWAP2 SUB SWAP1 REVERT JUMPDEST PUSH1 0x3 PUSH0 PUSH2 0x9A2 SWAP2 SWAP1 PUSH2 0xCBB JUMP JUMPDEST PUSH1 0x1 PUSH0 DUP2 SLOAD DUP1 SWAP3 SWAP2 SWAP1 PUSH2 0x9B4 SWAP1 PUSH2 0x107E JUMP JUMPDEST SWAP2 SWAP1 POP SSTORE POP PUSH2 0x12C TIMESTAMP PUSH2 0x9C7 SWAP2 SWAP1 PUSH2 0x1420 JUMP JUMPDEST PUSH1 0x2 DUP2 SWAP1 SSTORE POP PUSH32 0x278844837BCF8364A705384BF3A2812901F54155BAE86DEA81DD52AA5B9EC0E3 PUSH1 0x1 SLOAD PUSH1 0x2 SLOAD PUSH1 0x40 MLOAD PUSH2 0xA02 SWAP3 SWAP2 SWAP1 PUSH2 0x125A JUMP JUMPDEST PUSH1 0x40 MLOAD DUP1 SWAP2 SUB SWAP1 LOG1 JUMP JUMPDEST PUSH0 PUSH1 0x3 DUP1 SLOAD SWAP1 POP SWAP1 POP SWAP1 JUMP JUMPDEST PUSH0 PUSH2 0xA21 PUSH2 0x7D6 JUMP JUMPDEST PUSH2 0xA2D JUMPI PUSH0 SWAP1 POP PUSH2 0xA3E JUMP JUMPDEST TIMESTAMP PUSH1 0x2 SLOAD PUSH2 0xA3B SWAP2 SWAP1 PUSH2 0x1453 JUMP JUMPDEST SWAP1 POP JUMPDEST SWAP1 JUMP JUMPDEST PUSH1 0x2 SLOAD DUP2 JUMP JUMPDEST PUSH2 0xA4F PUSH2 0x7D6 JUMP JUMPDEST PUSH2 0xA8E JUMPI PUSH1 0x40 MLOAD PUSH32 0x8C379A000000000000000000000000000000000000000000000000000000000 DUP2 MSTORE PUSH1 0x4 ADD PUSH2 0xA85 SWAP1 PUSH2 0x14D0 JUMP JUMPDEST PUSH1 0x40 MLOAD DUP1 SWAP2 SUB SWAP1 REVERT JUMPDEST PUSH0 CALLVALUE GT PUSH2 0xAD0 JUMPI PUSH1 0x40 MLOAD PUSH32 0x8C379A000000000000000000000000000000000000000000000000000000000 DUP2 MSTORE PUSH1 0x4 ADD PUSH2 0xAC7 SWAP1 PUSH2 0x1538 JUMP JUMPDEST PUSH1 0x40 MLOAD DUP1 SWAP2 SUB SWAP1 REVERT JUMPDEST PUSH0 PUSH7 0x2386F26FC10000 CALLVALUE PUSH2 0xAE4 SWAP2 SWAP1 PUSH2 0x122A JUMP JUMPDEST EQ PUSH2 0xB24 JUMPI PUSH1 0x40 MLOAD PUSH32 0x8C379A000000000000000000000000000000000000000000000000000000000 DUP2 MSTORE PUSH1 0x4 ADD PUSH2 0xB1B SWAP1 PUSH2 0x15C6 JUMP JUMPDEST PUSH1 0x40 MLOAD DUP1 SWAP2 SUB SWAP1 REVERT JUMPDEST PUSH0 PUSH7 0x2386F26FC10000 CALLVALUE PUSH2 0xB38 SWAP2 SWAP1 PUSH2 0x15E4 JUMP JUMPDEST SWAP1 POP PUSH0 PUSH0 SWAP1 POP JUMPDEST DUP2 DUP2 LT ISZERO PUSH2 0xBB4 JUMPI PUSH1 0x3 CALLER SWAP1 DUP1 PUSH1 0x1 DUP2 SLOAD ADD DUP1 DUP3 SSTORE DUP1 SWAP2 POP POP PUSH1 0x1 SWAP1 SUB SWAP1 PUSH0 MSTORE PUSH1 0x20 PUSH0 KECCAK256 ADD PUSH0 SWAP1 SWAP2 SWAP1 SWAP2 SWAP1 SWAP2 PUSH2 0x100 EXP DUP2 SLOAD DUP2 PUSH20 0xFFFFFFFFFFFFFFFFFFFFFFFFFFFFFFFFFFFFFFFF MUL NOT AND SWAP1 DUP4 PUSH20 0xFFFFFFFFFFFFFFFFFFFFFFFFFFFFFFFFFFFFFFFF AND MUL OR SWAP1 SSTORE POP DUP1 DUP1 PUSH1 0x1 ADD SWAP2 POP POP PUSH2 0xB3F JUMP JUMPDEST POP CALLER PUSH20 0xFFFFFFFFFFFFFFFFFFFFFFFFFFFFFFFFFFFFFFFF AND PUSH32 0x668F5B446EB814FE35B3206F43F14BD8567BA04DDAF7A3EE56516929AB22CCB DUP3 PUSH1 0x40 MLOAD PUSH2 0xBFB SWAP2 SWAP1 PUSH2 0xE33 JUMP JUMPDEST PUSH1 0x40 MLOAD DUP1 SWAP2 SUB SWAP1 LOG2 POP JUMP JUMPDEST PUSH1 0x3 DUP2 DUP2 SLOAD DUP2 LT PUSH2 0xC15 JUMPI PUSH0 DUP1 REVERT JUMPDEST SWAP1 PUSH0 MSTORE PUSH1 0x20 PUSH0 KECCAK256 ADD PUSH0 SWAP2 POP SLOAD SWAP1 PUSH2 0x100 EXP SWAP1 DIV PUSH20 0xFFFFFFFFFFFFFFFFFFFFFFFFFFFFFFFFFFFFFFFF AND DUP2 JUMP JUMPDEST PUSH1 0x4 PUSH0 SWAP1 SLOAD SWAP1 PUSH2 0x100 EXP SWAP1 DIV PUSH20 0xFFFFFFFFFFFFFFFFFFFFFFFFFFFFFFFFFFFFFFFF AND DUP2 JUMP JUMPDEST PUSH0 PUSH1 0x6 PUSH0 DUP2 SLOAD DUP1 SWAP3 SWAP2 SWAP1 PUSH2 0xC79 SWAP1 PUSH2 0x107E JUMP JUMPDEST SWAP2 SWAP1 POP SSTORE POP TIMESTAMP PREVRANDAO PUSH1 0x3 DUP1 SLOAD SWAP1 POP PUSH1 0x6 SLOAD CALLER PUSH1 0x40 MLOAD PUSH1 0x20 ADD PUSH2 0xC9E SWAP6 SWAP5 SWAP4 SWAP3 SWAP2 SWAP1 PUSH2 0x1679 JUMP JUMPDEST PUSH1 0x40 MLOAD PUSH1 0x20 DUP2 DUP4 SUB SUB DUP2 MSTORE SWAP1 PUSH1 0x40 MSTORE DUP1 MLOAD SWAP1 PUSH1 0x20 ADD KECCAK256 PUSH0 SHR SWAP1 POP SWAP1 JUMP JUMPDEST POP DUP1 SLOAD PUSH0 DUP3 SSTORE SWAP1 PUSH0 MSTORE PUSH1 0x20 PUSH0 KECCAK256 SWAP1 DUP2 ADD SWAP1 PUSH2 0xCD6 SWAP2 SWAP1 PUSH2 0xCD9 JUMP JUMPDEST POP JUMP JUMPDEST JUMPDEST DUP1 DUP3 GT ISZERO PUSH2 0xCF0 JUMPI PUSH0 DUP2 PUSH0 SWAP1 SSTORE POP PUSH1 0x1 ADD PUSH2 0xCDA JUMP JUMPDEST POP SWAP1 JUMP JUMPDEST PUSH0 DUP3 DUP3 MSTORE PUSH1 0x20 DUP3 ADD SWAP1 POP SWAP3 SWAP2 POP POP JUMP JUMPDEST PUSH32 0x557365206275795469636B6574282920746F20656E74657220746865206C6F74 PUSH0 DUP3 ADD MSTORE PUSH32 0x7465727900000000000000000000000000000000000000000000000000000000 PUSH1 0x20 DUP3 ADD MSTORE POP JUMP JUMPDEST PUSH0 PUSH2 0xD5E PUSH1 0x24 DUP4 PUSH2 0xCF4 JUMP JUMPDEST SWAP2 POP PUSH2 0xD69 DUP3 PUSH2 0xD04 JUMP JUMPDEST PUSH1 0x40 DUP3 ADD SWAP1 POP SWAP2 SWAP1 POP JUMP JUMPDEST PUSH0 PUSH1 0x20 DUP3 ADD SWAP1 POP DUP2 DUP2 SUB PUSH0 DUP4 ADD MSTORE PUSH2 0xD8B DUP2 PUSH2 0xD52 JUMP JUMPDEST SWAP1 POP SWAP2 SWAP1 POP JUMP JUMPDEST PUSH0 PUSH0 REVERT JUMPDEST PUSH0 PUSH20 0xFFFFFFFFFFFFFFFFFFFFFFFFFFFFFFFFFFFFFFFF DUP3 AND SWAP1 POP SWAP2 SWAP1 POP JUMP JUMPDEST PUSH0 PUSH2 0xDBF DUP3 PUSH2 0xD96 JUMP JUMPDEST SWAP1 POP SWAP2 SWAP1 POP JUMP JUMPDEST PUSH2 0xDCF DUP2 PUSH2 0xDB5 JUMP JUMPDEST DUP2 EQ PUSH2 0xDD9 JUMPI PUSH0 PUSH0 REVERT JUMPDEST POP JUMP JUMPDEST PUSH0 DUP2 CALLDATALOAD SWAP1 POP PUSH2 0xDEA DUP2 PUSH2 0xDC6 JUMP JUMPDEST SWAP3 SWAP2 POP POP JUMP JUMPDEST PUSH0 PUSH1 0x20 DUP3 DUP5 SUB SLT ISZERO PUSH2 0xE05 JUMPI PUSH2 0xE04 PUSH2 0xD92 JUMP JUMPDEST JUMPDEST PUSH0 PUSH2 0xE12 DUP5 DUP3 DUP6 ADD PUSH2 0xDDC JUMP JUMPDEST SWAP2 POP POP SWAP3 SWAP2 POP POP JUMP JUMPDEST PUSH0 DUP2 SWAP1 POP SWAP2 SWAP1 POP JUMP JUMPDEST PUSH2 0xE2D DUP2 PUSH2 0xE1B JUMP JUMPDEST DUP3 MSTORE POP POP JUMP JUMPDEST PUSH0 PUSH1 0x20 DUP3 ADD SWAP1 POP PUSH2 0xE46 PUSH0 DUP4 ADD DUP5 PUSH2 0xE24 JUMP JUMPDEST SWAP3 SWAP2 POP POP JUMP JUMPDEST PUSH0 DUP2 ISZERO ISZERO SWAP1 POP SWAP2 SWAP1 POP JUMP JUMPDEST PUSH2 0xE60 DUP2 PUSH2 0xE4C JUMP JUMPDEST DUP3 MSTORE POP POP JUMP JUMPDEST PUSH0 PUSH1 0xA0 DUP3 ADD SWAP1 POP PUSH2 0xE79 PUSH0 DUP4 ADD DUP9 PUSH2 0xE57 JUMP JUMPDEST PUSH2 0xE86 PUSH1 0x20 DUP4 ADD DUP8 PUSH2 0xE24 JUMP JUMPDEST PUSH2 0xE93 PUSH1 0x40 DUP4 ADD DUP7 PUSH2 0xE24 JUMP JUMPDEST PUSH2 0xEA0 PUSH1 0x60 DUP4 ADD DUP6 PUSH2 0xE24 JUMP JUMPDEST PUSH2 0xEAD PUSH1 0x80 DUP4 ADD DUP5 PUSH2 0xE24 JUMP JUMPDEST SWAP7 SWAP6 POP POP POP POP POP POP JUMP JUMPDEST PUSH0 PUSH1 0x20 DUP3 ADD SWAP1 POP PUSH2 0xECA PUSH0 DUP4 ADD DUP5 PUSH2 0xE57 JUMP JUMPDEST SWAP3 SWAP2 POP POP JUMP JUMPDEST PUSH0 DUP2 MLOAD SWAP1 POP SWAP2 SWAP1 POP JUMP JUMPDEST PUSH0 DUP3 DUP3 MSTORE PUSH1 0x20 DUP3 ADD SWAP1 POP SWAP3 SWAP2 POP POP JUMP JUMPDEST PUSH0 DUP2 SWAP1 POP PUSH1 0x20 DUP3 ADD SWAP1 POP SWAP2 SWAP1 POP JUMP JUMPDEST PUSH2 0xF02 DUP2 PUSH2 0xDB5 JUMP JUMPDEST DUP3 MSTORE POP POP JUMP JUMPDEST PUSH0 PUSH2 0xF13 DUP4 DUP4 PUSH2 0xEF9 JUMP JUMPDEST PUSH1 0x20 DUP4 ADD SWAP1 POP SWAP3 SWAP2 POP POP JUMP JUMPDEST PUSH0 PUSH1 0x20 DUP3 ADD SWAP1 POP SWAP2 SWAP1 POP JUMP JUMPDEST PUSH0 PUSH2 0xF35 DUP3 PUSH2 0xED0 JUMP JUMPDEST PUSH2 0xF3F DUP2 DUP6 PUSH2 0xEDA JUMP JUMPDEST SWAP4 POP PUSH2 0xF4A DUP4 PUSH2 0xEEA JUMP JUMPDEST DUP1 PUSH0 JUMPDEST DUP4 DUP2 LT ISZERO PUSH2 0xF7A JUMPI DUP2 MLOAD PUSH2 0xF61 DUP9 DUP3 PUSH2 0xF08 JUMP JUMPDEST SWAP8 POP PUSH2 0xF6C DUP4 PUSH2 0xF1F JUMP JUMPDEST SWAP3 POP POP PUSH1 0x1 DUP2 ADD SWAP1 POP PUSH2 0xF4D JUMP JUMPDEST POP DUP6 SWAP4 POP POP POP POP SWAP3 SWAP2 POP POP JUMP JUMPDEST PUSH0 PUSH1 0x20 DUP3 ADD SWAP1 POP DUP2 DUP2 SUB PUSH0 DUP4 ADD MSTORE PUSH2 0xF9F DUP2 DUP5 PUSH2 0xF2B JUMP JUMPDEST SWAP1 POP SWAP3 SWAP2 POP POP JUMP JUMPDEST PUSH2 0xFB0 DUP2 PUSH2 0xDB5 JUMP JUMPDEST DUP3 MSTORE POP POP JUMP JUMPDEST PUSH0 PUSH1 0x20 DUP3 ADD SWAP1 POP PUSH2 0xFC9 PUSH0 DUP4 ADD DUP5 PUSH2 0xFA7 JUMP JUMPDEST SWAP3 SWAP2 POP POP JUMP JUMPDEST PUSH2 0xFD8 DUP2 PUSH2 0xE1B JUMP JUMPDEST DUP2 EQ PUSH2 0xFE2 JUMPI PUSH0 PUSH0 REVERT JUMPDEST POP JUMP JUMPDEST PUSH0 DUP2 CALLDATALOAD SWAP1 POP PUSH2 0xFF3 DUP2 PUSH2 0xFCF JUMP JUMPDEST SWAP3 SWAP2 POP POP JUMP JUMPDEST PUSH0 PUSH1 0x20 DUP3 DUP5 SUB SLT ISZERO PUSH2 0x100E JUMPI PUSH2 0x100D PUSH2 0xD92 JUMP JUMPDEST JUMPDEST PUSH0 PUSH2 0x101B DUP5 DUP3 DUP6 ADD PUSH2 0xFE5 JUMP JUMPDEST SWAP2 POP POP SWAP3 SWAP2 POP POP JUMP JUMPDEST PUSH32 0x4E487B7100000000000000000000000000000000000000000000000000000000 PUSH0 MSTORE PUSH1 0x32 PUSH1 0x4 MSTORE PUSH1 0x24 PUSH0 REVERT JUMPDEST PUSH32 0x4E487B7100000000000000000000000000000000000000000000000000000000 PUSH0 MSTORE PUSH1 0x11 PUSH1 0x4 MSTORE PUSH1 0x24 PUSH0 REVERT JUMPDEST PUSH0 PUSH2 0x1088 DUP3 PUSH2 0xE1B JUMP JUMPDEST SWAP2 POP PUSH32 0xFFFFFFFFFFFFFFFFFFFFFFFFFFFFFFFFFFFFFFFFFFFFFFFFFFFFFFFFFFFFFFFF DUP3 SUB PUSH2 0x10BA JUMPI PUSH2 0x10B9 PUSH2 0x1051 JUMP JUMPDEST JUMPDEST PUSH1 0x1 DUP3 ADD SWAP1 POP SWAP2 SWAP1 POP JUMP JUMPDEST PUSH32 0x526F756E64206973207374696C6C206163746976650000000000000000000000 PUSH0 DUP3 ADD MSTORE POP JUMP JUMPDEST PUSH0 PUSH2 0x10F9 PUSH1 0x15 DUP4 PUSH2 0xCF4 JUMP JUMPDEST SWAP2 POP PUSH2 0x1104 DUP3 PUSH2 0x10C5 JUMP JUMPDEST PUSH1 0x20 DUP3 ADD SWAP1 POP SWAP2 SWAP1 POP JUMP JUMPDEST PUSH0 PUSH1 0x20 DUP3 ADD SWAP1 POP DUP2 DUP2 SUB PUSH0 DUP4 ADD MSTORE PUSH2 0x1126 DUP2 PUSH2 0x10ED JUMP JUMPDEST SWAP1 POP SWAP2 SWAP1 POP JUMP JUMPDEST PUSH32 0x4E6F20726F756E6420686173206265656E207374617274656400000000000000 PUSH0 DUP3 ADD MSTORE POP JUMP JUMPDEST PUSH0 PUSH2 0x1161 PUSH1 0x19 DUP4 PUSH2 0xCF4 JUMP JUMPDEST SWAP2 POP PUSH2 0x116C DUP3 PUSH2 0x112D JUMP JUMPDEST PUSH1 0x20 DUP3 ADD SWAP1 POP SWAP2 SWAP1 POP JUMP JUMPDEST PUSH0 PUSH1 0x20 DUP3 ADD SWAP1 POP DUP2 DUP2 SUB PUSH0 DUP4 ADD MSTORE PUSH2 0x118E DUP2 PUSH2 0x1155 JUMP JUMPDEST SWAP1 POP SWAP2 SWAP1 POP JUMP JUMPDEST PUSH32 0x4E6F20706C617965727320696E207468697320726F756E640000000000000000 PUSH0 DUP3 ADD MSTORE POP JUMP JUMPDEST PUSH0 PUSH2 0x11C9 PUSH1 0x18 DUP4 PUSH2 0xCF4 JUMP JUMPDEST SWAP2 POP PUSH2 0x11D4 DUP3 PUSH2 0x1195 JUMP JUMPDEST PUSH1 0x20 DUP3 ADD SWAP1 POP SWAP2 SWAP1 POP JUMP JUMPDEST PUSH0 PUSH1 0x20 DUP3 ADD SWAP1 POP DUP2 DUP2 SUB PUSH0 DUP4 ADD MSTORE PUSH2 0x11F6 DUP2 PUSH2 0x11BD JUMP JUMPDEST SWAP1 POP SWAP2 SWAP1 POP JUMP JUMPDEST PUSH32 0x4E487B7100000000000000000000000000000000000000000000000000000000 PUSH0 MSTORE PUSH1 0x12 PUSH1 0x4 MSTORE PUSH1 0x24 PUSH0 REVERT JUMPDEST PUSH0 PUSH2 0x1234 DUP3 PUSH2 0xE1B JUMP JUMPDEST SWAP2 POP PUSH2 0x123F DUP4 PUSH2 0xE1B JUMP JUMPDEST SWAP3 POP DUP3 PUSH2 0x124F JUMPI PUSH2 0x124E PUSH2 0x11FD JUMP JUMPDEST JUMPDEST DUP3 DUP3 MOD SWAP1 POP SWAP3 SWAP2 POP POP JUMP JUMPDEST PUSH0 PUSH1 0x40 DUP3 ADD SWAP1 POP PUSH2 0x126D PUSH0 DUP4 ADD DUP6 PUSH2 0xE24 JUMP JUMPDEST PUSH2 0x127A PUSH1 0x20 DUP4 ADD DUP5 PUSH2 0xE24 JUMP JUMPDEST SWAP4 SWAP3 POP POP POP JUMP JUMPDEST PUSH0 DUP2 SWAP1 POP SWAP3 SWAP2 POP POP JUMP JUMPDEST POP JUMP JUMPDEST PUSH0 PUSH2 0x1299 PUSH0 DUP4 PUSH2 0x1281 JUMP JUMPDEST SWAP2 POP PUSH2 0x12A4 DUP3 PUSH2 0x128B JUMP JUMPDEST PUSH0 DUP3 ADD SWAP1 POP SWAP2 SWAP1 POP JUMP JUMPDEST PUSH0 PUSH2 0x12B8 DUP3 PUSH2 0x128E JUMP JUMPDEST SWAP2 POP DUP2 SWAP1 POP SWAP2 SWAP1 POP JUMP JUMPDEST PUSH32 0x5072697A65207472616E73666572206661696C65640000000000000000000000 PUSH0 DUP3 ADD MSTORE POP JUMP JUMPDEST PUSH0 PUSH2 0x12F6 PUSH1 0x15 DUP4 PUSH2 0xCF4 JUMP JUMPDEST SWAP2 POP PUSH2 0x1301 DUP3 PUSH2 0x12C2 JUMP JUMPDEST PUSH1 0x20 DUP3 ADD SWAP1 POP SWAP2 SWAP1 POP JUMP JUMPDEST PUSH0 PUSH1 0x20 DUP3 ADD SWAP1 POP DUP2 DUP2 SUB PUSH0 DUP4 ADD MSTORE PUSH2 0x1323 DUP2 PUSH2 0x12EA JUMP JUMPDEST SWAP1 POP SWAP2 SWAP1 POP JUMP JUMPDEST PUSH32 0x4F6E6C79206F776E65722063616E2063616C6C20746869732066756E6374696F PUSH0 DUP3 ADD MSTORE PUSH32 0x6E00000000000000000000000000000000000000000000000000000000000000 PUSH1 0x20 DUP3 ADD MSTORE POP JUMP JUMPDEST PUSH0 PUSH2 0x1384 PUSH1 0x21 DUP4 PUSH2 0xCF4 JUMP JUMPDEST SWAP2 POP PUSH2 0x138F DUP3 PUSH2 0x132A JUMP JUMPDEST PUSH1 0x40 DUP3 ADD SWAP1 POP SWAP2 SWAP1 POP JUMP JUMPDEST PUSH0 PUSH1 0x20 DUP3 ADD SWAP1 POP DUP2 DUP2 SUB PUSH0 DUP4 ADD MSTORE PUSH2 0x13B1 DUP2 PUSH2 0x1378 JUMP JUMPDEST SWAP1 POP SWAP2 SWAP1 POP JUMP JUMPDEST PUSH32 0x43757272656E7420726F756E6420686173206E6F7420656E6465642079657400 PUSH0 DUP3 ADD MSTORE POP JUMP JUMPDEST PUSH0 PUSH2 0x13EC PUSH1 0x1F DUP4 PUSH2 0xCF4 JUMP JUMPDEST SWAP2 POP PUSH2 0x13F7 DUP3 PUSH2 0x13B8 JUMP JUMPDEST PUSH1 0x20 DUP3 ADD SWAP1 POP SWAP2 SWAP1 POP JUMP JUMPDEST PUSH0 PUSH1 0x20 DUP3 ADD SWAP1 POP DUP2 DUP2 SUB PUSH0 DUP4 ADD MSTORE PUSH2 0x1419 DUP2 PUSH2 0x13E0 JUMP JUMPDEST SWAP1 POP SWAP2 SWAP1 POP JUMP JUMPDEST PUSH0 PUSH2 0x142A DUP3 PUSH2 0xE1B JUMP JUMPDEST SWAP2 POP PUSH2 0x1435 DUP4 PUSH2 0xE1B JUMP JUMPDEST SWAP3 POP DUP3 DUP3 ADD SWAP1 POP DUP1 DUP3 GT ISZERO PUSH2 0x144D JUMPI PUSH2 0x144C PUSH2 0x1051 JUMP JUMPDEST JUMPDEST SWAP3 SWAP2 POP POP JUMP JUMPDEST PUSH0 PUSH2 0x145D DUP3 PUSH2 0xE1B JUMP JUMPDEST SWAP2 POP PUSH2 0x1468 DUP4 PUSH2 0xE1B JUMP JUMPDEST SWAP3 POP DUP3 DUP3 SUB SWAP1 POP DUP2 DUP2 GT ISZERO PUSH2 0x1480 JUMPI PUSH2 0x147F PUSH2 0x1051 JUMP JUMPDEST JUMPDEST SWAP3 SWAP2 POP POP JUMP JUMPDEST PUSH32 0x4E6F2061637469766520726F756E640000000000000000000000000000000000 PUSH0 DUP3 ADD MSTORE POP JUMP JUMPDEST PUSH0 PUSH2 0x14BA PUSH1 0xF DUP4 PUSH2 0xCF4 JUMP JUMPDEST SWAP2 POP PUSH2 0x14C5 DUP3 PUSH2 0x1486 JUMP JUMPDEST PUSH1 0x20 DUP3 ADD SWAP1 POP SWAP2 SWAP1 POP JUMP JUMPDEST PUSH0 PUSH1 0x20 DUP3 ADD SWAP1 POP DUP2 DUP2 SUB PUSH0 DUP4 ADD MSTORE PUSH2 0x14E7 DUP2 PUSH2 0x14AE JUMP JUMPDEST SWAP1 POP SWAP2 SWAP1 POP JUMP JUMPDEST PUSH32 0x4D7573742073656E642045544820746F20627579207469636B65747300000000 PUSH0 DUP3 ADD MSTORE POP JUMP JUMPDEST PUSH0 PUSH2 0x1522 PUSH1 0x1C DUP4 PUSH2 0xCF4 JUMP JUMPDEST SWAP2 POP PUSH2 0x152D DUP3 PUSH2 0x14EE JUMP JUMPDEST PUSH1 0x20 DUP3 ADD SWAP1 POP SWAP2 SWAP1 POP JUMP JUMPDEST PUSH0 PUSH1 0x20 DUP3 ADD SWAP1 POP DUP2 DUP2 SUB PUSH0 DUP4 ADD MSTORE PUSH2 0x154F DUP2 PUSH2 0x1516 JUMP JUMPDEST SWAP1 POP SWAP2 SWAP1 POP JUMP JUMPDEST PUSH32 0x4D7573742073656E64206578616374206D756C7469706C65206F66207469636B PUSH0 DUP3 ADD MSTORE PUSH32 0x6574207072696365000000000000000000000000000000000000000000000000 PUSH1 0x20 DUP3 ADD MSTORE POP JUMP JUMPDEST PUSH0 PUSH2 0x15B0 PUSH1 0x28 DUP4 PUSH2 0xCF4 JUMP JUMPDEST SWAP2 POP PUSH2 0x15BB DUP3 PUSH2 0x1556 JUMP JUMPDEST PUSH1 0x40 DUP3 ADD SWAP1 POP SWAP2 SWAP1 POP JUMP JUMPDEST PUSH0 PUSH1 0x20 DUP3 ADD SWAP1 POP DUP2 DUP2 SUB PUSH0 DUP4 ADD MSTORE PUSH2 0x15DD DUP2 PUSH2 0x15A4 JUMP JUMPDEST SWAP1 POP SWAP2 SWAP1 POP JUMP JUMPDEST PUSH0 PUSH2 0x15EE DUP3 PUSH2 0xE1B JUMP JUMPDEST SWAP2 POP PUSH2 0x15F9 DUP4 PUSH2 0xE1B JUMP JUMPDEST SWAP3 POP DUP3 PUSH2 0x1609 JUMPI PUSH2 0x1608 PUSH2 0x11FD JUMP JUMPDEST JUMPDEST DUP3 DUP3 DIV SWAP1 POP SWAP3 SWAP2 POP POP JUMP JUMPDEST PUSH0 DUP2 SWAP1 POP SWAP2 SWAP1 POP JUMP JUMPDEST PUSH2 0x162E PUSH2 0x1629 DUP3 PUSH2 0xE1B JUMP JUMPDEST PUSH2 0x1614 JUMP JUMPDEST DUP3 MSTORE POP POP JUMP JUMPDEST PUSH0 DUP2 PUSH1 0x60 SHL SWAP1 POP SWAP2 SWAP1 POP JUMP JUMPDEST PUSH0 PUSH2 0x164A DUP3 PUSH2 0x1634 JUMP JUMPDEST SWAP1 POP SWAP2 SWAP1 POP JUMP JUMPDEST PUSH0 PUSH2 0x165B DUP3 PUSH2 0x1640 JUMP JUMPDEST SWAP1 POP SWAP2 SWAP1 POP JUMP JUMPDEST PUSH2 0x1673 PUSH2 0x166E DUP3 PUSH2 0xDB5 JUMP JUMPDEST PUSH2 0x1651 JUMP JUMPDEST DUP3 MSTORE POP POP JUMP JUMPDEST PUSH0 PUSH2 0x1684 DUP3 DUP9 PUSH2 0x161D JUMP JUMPDEST PUSH1 0x20 DUP3 ADD SWAP2 POP PUSH2 0x1694 DUP3 DUP8 PUSH2 0x161D JUMP JUMPDEST PUSH1 0x20 DUP3 ADD SWAP2 POP PUSH2 0x16A4 DUP3 DUP7 PUSH2 0x161D JUMP JUMPDEST PUSH1 0x20 DUP3 ADD SWAP2 POP PUSH2 0x16B4 DUP3 DUP6 PUSH2 0x161D JUMP JUMPDEST PUSH1 0x20 DUP3 ADD SWAP2 POP PUSH2 0x16C4 DUP3 DUP5 PUSH2 0x1662 JUMP JUMPDEST PUSH1 0x14 DUP3 ADD SWAP2 POP DUP2 SWAP1 POP SWAP7 SWAP6 POP POP POP POP POP POP JUMP INVALID LOG2 PUSH5 0x6970667358 0x22 SLT KECCAK256 0x1F 0xB9 PUSH8 0xC0A5E07E22C5B499 CALL BALANCE 0x4D PUSH23 0xB6ED1EE0A7C629B4208198750064AB9B7964736F6C6343 STOP ADDMOD 0x1E STOP CALLER "
				},
				"gasEstimates": {
					"creation": {
						"codeDepositCost": "1180200",
						"executionCost": "30502",
						"totalCost": "1210702"
					},
					"external": {
						"": "508",
						"ROUND_DURATION()": "392",
						"TICKET_PRICE()": "371",
						"buyTicket()": "infinite",
						"getLotteryStatus()": "infinite",
						"getPlayerCount()": "2529",
						"getPlayerTicketCount(address)": "infinite",
						"getPlayers()": "infinite",
						"getPrizePool()": "423",
						"getTimeRemaining()": "infinite",
						"isRoundActive()": "4596",
						"lastPrizeAmount()": "2470",
						"lastWinner()": "2618",
						"owner()": "2530",
						"players(uint256)": "5032",
						"roundEndTime()": "2469",
						"roundNumber()": "2470",
						"selectWinner()": "infinite",
						"startNewRound()": "infinite"
					},
					"internal": {
						"_generateRandomNumber()": "infinite"
					}
				},
				"methodIdentifiers": {
					"ROUND_DURATION()": "6641ea08",
					"TICKET_PRICE()": "1a95f15f",
					"buyTicket()": "edca914c",
					"getLotteryStatus()": "2b6524cd",
					"getPlayerCount()": "c2e52206",
					"getPlayerTicketCount(address)": "1a89a43b",
					"getPlayers()": "8b5b9ccc",
					"getPrizePool()": "884bf67c",
					"getTimeRemaining()": "dac6270d",
					"isRoundActive()": "45945a45",
					"lastPrizeAmount()": "99ea5259",
					"lastWinner()": "fe188184",
					"owner()": "8da5cb5b",
					"players(uint256)": "f71d96cb",
					"roundEndTime()": "e40205d6",
					"roundNumber()": "4e2786fb",
					"selectWinner()": "33a99e04",
					"startNewRound()": "bd85948c"
				}
			},
			"storageLayout": {
				"storage": [
					{
						"astId": 5,
						"contract": "contracts/DecentralizedLottery2.sol:DecentralizedLottery",
						"label": "owner",
						"offset": 0,
						"slot": "0",
						"type": "t_address"
					},
					{
						"astId": 16,
						"contract": "contracts/DecentralizedLottery2.sol:DecentralizedLottery",
						"label": "roundNumber",
						"offset": 0,
						"slot": "1",
						"type": "t_uint256"
					},
					{
						"astId": 19,
						"contract": "contracts/DecentralizedLottery2.sol:DecentralizedLottery",
						"label": "roundEndTime",
						"offset": 0,
						"slot": "2",
						"type": "t_uint256"
					},
					{
						"astId": 23,
						"contract": "contracts/DecentralizedLottery2.sol:DecentralizedLottery",
						"label": "players",
						"offset": 0,
						"slot": "3",
						"type": "t_array(t_address)dyn_storage"
					},
					{
						"astId": 26,
						"contract": "contracts/DecentralizedLottery2.sol:DecentralizedLottery",
						"label": "lastWinner",
						"offset": 0,
						"slot": "4",
						"type": "t_address"
					},
					{
						"astId": 29,
						"contract": "contracts/DecentralizedLottery2.sol:DecentralizedLottery",
						"label": "lastPrizeAmount",
						"offset": 0,
						"slot": "5",
						"type": "t_uint256"
					},
					{
						"astId": 32,
						"contract": "contracts/DecentralizedLottery2.sol:DecentralizedLottery",
						"label": "nonce",
						"offset": 0,
						"slot": "6",
						"type": "t_uint256"
					}
				],
				"types": {
					"t_address": {
						"encoding": "inplace",
						"label": "address",
						"numberOfBytes": "20"
					},
					"t_array(t_address)dyn_storage": {
						"base": "t_address",
						"encoding": "dynamic_array",
						"label": "address[]",
						"numberOfBytes": "32"
					},
					"t_uint256": {
						"encoding": "inplace",
						"label": "uint256",
						"numberOfBytes": "32"
					}
				}
			},
			"userdoc": {
				"events": {
					"RoundStarted(uint256,uint256)": {
						"notice": "Emitted when a new round starts"
					},
					"TicketPurchased(address,uint256)": {
						"notice": "Emitted when a player purchases tickets"
					},
					"WinnerSelected(address,uint256,uint256)": {
						"notice": "Emitted when a winner is selected"
					}
				},
				"kind": "user",
				"methods": {
					"ROUND_DURATION()": {
						"notice": "Duration of each lottery round"
					},
					"TICKET_PRICE()": {
						"notice": "Fixed price per lottery ticket"
					},
					"buyTicket()": {
						"notice": "Allows a player to buy lottery tickets"
					},
					"constructor": {
						"notice": "Initializes the lottery contract"
					},
					"getLotteryStatus()": {
						"notice": "Gets comprehensive lottery status"
					},
					"getPlayerCount()": {
						"notice": "Gets the total number of players (ticket entries) in current round"
					},
					"getPlayerTicketCount(address)": {
						"notice": "Gets the number of tickets a specific address has in the current round"
					},
					"getPlayers()": {
						"notice": "Gets all players in the current round"
					},
					"getPrizePool()": {
						"notice": "Gets the current prize pool"
					},
					"getTimeRemaining()": {
						"notice": "Gets the time remaining in the current round"
					},
					"isRoundActive()": {
						"notice": "Checks if there is an active round"
					},
					"lastPrizeAmount()": {
						"notice": "Prize amount won in the last round"
					},
					"lastWinner()": {
						"notice": "Address of the last round's winner"
					},
					"owner()": {
						"notice": "Contract owner who can start rounds"
					},
					"players(uint256)": {
						"notice": "Array of all players who bought tickets in current round"
					},
					"roundEndTime()": {
						"notice": "Timestamp when the current round ends"
					},
					"roundNumber()": {
						"notice": "Current round number (starts at 0, increments with each new round)"
					},
					"selectWinner()": {
						"notice": "Selects a random winner and distributes the prize"
					},
					"startNewRound()": {
						"notice": "Starts a new lottery round"
					}
				},
				"notice": "A decentralized lottery system where players buy tickets and a random winner is selected",
				"version": 1
			}
		}
	}
}