{
	"contracts/DecentralizedLottery.sol": {
		"DecentralizedLottery": {
			"abi": [
				{
					"inputs": [],
					"stateMutability": "nonpayable",
					"type": "constructor"
				},
				{
					"anonymous": false,
					"inputs": [
						{
							"indexed": true,
							"internalType": "uint256",
							"name": "round",
							"type": "uint256"
						},
						{
							"indexed": false,
							"internalType": "uint256",
							"name": "totalRefunded",
							"type": "uint256"
						}
					],
					"name": "RoundRefunded",
					"type": "event"
				},
				{
					"anonymous": false,
					"inputs": [
						{
							"indexed": true,
							"internalType": "uint256",
							"name": "round",
							"type": "uint256"
						},
						{
							"indexed": false,
							"internalType": "uint256",
							"name": "endTime",
							"type": "uint256"
						}
					],
					"name": "RoundStarted",
					"type": "event"
				},
				{
					"anonymous": false,
					"inputs": [
						{
							"indexed": true,
							"internalType": "address",
							"name": "player",
							"type": "address"
						},
						{
							"indexed": false,
							"internalType": "uint256",
							"name": "ticketCount",
							"type": "uint256"
						},
						{
							"indexed": true,
							"internalType": "uint256",
							"name": "round",
							"type": "uint256"
						}
					],
					"name": "TicketPurchased",
					"type": "event"
				},
				{
					"anonymous": false,
					"inputs": [
						{
							"indexed": true,
							"internalType": "uint256",
							"name": "round",
							"type": "uint256"
						},
						{
							"indexed": false,
							"internalType": "address[]",
							"name": "winners",
							"type": "address[]"
						},
						{
							"indexed": false,
							"internalType": "uint256[]",
							"name": "prizes",
							"type": "uint256[]"
						},
						{
							"indexed": false,
							"internalType": "uint256",
							"name": "poolAfterFee",
							"type": "uint256"
						},
						{
							"indexed": false,
							"internalType": "uint256",
							"name": "feePaid",
							"type": "uint256"
						}
					],
					"name": "WinnersSelected",
					"type": "event"
				},
				{
					"stateMutability": "payable",
					"type": "fallback"
				},
				{
					"inputs": [],
					"name": "HOUSE_FEE_BPS",
					"outputs": [
						{
							"internalType": "uint256",
							"name": "",
							"type": "uint256"
						}
					],
					"stateMutability": "view",
					"type": "function"
				},
				{
					"inputs": [],
					"name": "MAX_TICKETS_PER_ADDR",
					"outputs": [
						{
							"internalType": "uint256",
							"name": "",
							"type": "uint256"
						}
					],
					"stateMutability": "view",
					"type": "function"
				},
				{
					"inputs": [],
					"name": "MIN_UNIQUE_PLAYERS",
					"outputs": [
						{
							"internalType": "uint256",
							"name": "",
							"type": "uint256"
						}
					],
					"stateMutability": "view",
					"type": "function"
				},
				{
					"inputs": [],
					"name": "ROUND_DURATION",
					"outputs": [
						{
							"internalType": "uint256",
							"name": "",
							"type": "uint256"
						}
					],
					"stateMutability": "view",
					"type": "function"
				},
				{
					"inputs": [],
					"name": "TICKET_PRICE",
					"outputs": [
						{
							"internalType": "uint256",
							"name": "",
							"type": "uint256"
						}
					],
					"stateMutability": "view",
					"type": "function"
				},
				{
					"inputs": [
						{
							"internalType": "uint256",
							"name": "ticketCount",
							"type": "uint256"
						}
					],
					"name": "buyTickets",
					"outputs": [],
					"stateMutability": "payable",
					"type": "function"
				},
				{
					"inputs": [],
					"name": "getPlayerCount",
					"outputs": [
						{
							"internalType": "uint256",
							"name": "",
							"type": "uint256"
						}
					],
					"stateMutability": "view",
					"type": "function"
				},
				{
					"inputs": [],
					"name": "getPlayers",
					"outputs": [
						{
							"internalType": "address[]",
							"name": "",
							"type": "address[]"
						}
					],
					"stateMutability": "view",
					"type": "function"
				},
				{
					"inputs": [],
					"name": "getPrizePool",
					"outputs": [
						{
							"internalType": "uint256",
							"name": "",
							"type": "uint256"
						}
					],
					"stateMutability": "view",
					"type": "function"
				},
				{
					"inputs": [],
					"name": "getPrizePoolReadable",
					"outputs": [
						{
							"internalType": "string",
							"name": "",
							"type": "string"
						}
					],
					"stateMutability": "view",
					"type": "function"
				},
				{
					"inputs": [],
					"name": "getRoundSummary",
					"outputs": [
						{
							"internalType": "uint256",
							"name": "_round",
							"type": "uint256"
						},
						{
							"internalType": "bool",
							"name": "_active",
							"type": "bool"
						},
						{
							"internalType": "uint256",
							"name": "_timeLeftSec",
							"type": "uint256"
						},
						{
							"internalType": "uint256",
							"name": "_tickets",
							"type": "uint256"
						},
						{
							"internalType": "uint256",
							"name": "_unique",
							"type": "uint256"
						},
						{
							"internalType": "uint256",
							"name": "_poolWei",
							"type": "uint256"
						}
					],
					"stateMutability": "view",
					"type": "function"
				},
				{
					"inputs": [],
					"name": "getTicketPriceReadable",
					"outputs": [
						{
							"internalType": "string",
							"name": "",
							"type": "string"
						}
					],
					"stateMutability": "pure",
					"type": "function"
				},
				{
					"inputs": [],
					"name": "getTimeRemaining",
					"outputs": [
						{
							"internalType": "uint256",
							"name": "",
							"type": "uint256"
						}
					],
					"stateMutability": "view",
					"type": "function"
				},
				{
					"inputs": [],
					"name": "getTimeRemainingReadable",
					"outputs": [
						{
							"internalType": "string",
							"name": "",
							"type": "string"
						}
					],
					"stateMutability": "view",
					"type": "function"
				},
				{
					"inputs": [],
					"name": "getUniquePlayerCount",
					"outputs": [
						{
							"internalType": "uint256",
							"name": "",
							"type": "uint256"
						}
					],
					"stateMutability": "view",
					"type": "function"
				},
				{
					"inputs": [
						{
							"internalType": "uint256",
							"name": "",
							"type": "uint256"
						}
					],
					"name": "history",
					"outputs": [
						{
							"internalType": "uint256",
							"name": "round",
							"type": "uint256"
						},
						{
							"internalType": "bool",
							"name": "refunded",
							"type": "bool"
						},
						{
							"internalType": "uint256",
							"name": "startTime",
							"type": "uint256"
						},
						{
							"internalType": "uint256",
							"name": "endTime",
							"type": "uint256"
						},
						{
							"internalType": "uint256",
							"name": "prizePoolOrRefundTotal",
							"type": "uint256"
						}
					],
					"stateMutability": "view",
					"type": "function"
				},
				{
					"inputs": [],
					"name": "isRoundActive",
					"outputs": [
						{
							"internalType": "bool",
							"name": "",
							"type": "bool"
						}
					],
					"stateMutability": "view",
					"type": "function"
				},
				{
					"inputs": [],
					"name": "lastPrizePool",
					"outputs": [
						{
							"internalType": "uint256",
							"name": "",
							"type": "uint256"
						}
					],
					"stateMutability": "view",
					"type": "function"
				},
				{
					"inputs": [
						{
							"internalType": "uint256",
							"name": "",
							"type": "uint256"
						}
					],
					"name": "lastPrizes",
					"outputs": [
						{
							"internalType": "uint256",
							"name": "",
							"type": "uint256"
						}
					],
					"stateMutability": "view",
					"type": "function"
				},
				{
					"inputs": [],
					"name": "lastRoundRefunded",
					"outputs": [
						{
							"internalType": "bool",
							"name": "",
							"type": "bool"
						}
					],
					"stateMutability": "view",
					"type": "function"
				},
				{
					"inputs": [
						{
							"internalType": "uint256",
							"name": "",
							"type": "uint256"
						}
					],
					"name": "lastWinners",
					"outputs": [
						{
							"internalType": "address",
							"name": "",
							"type": "address"
						}
					],
					"stateMutability": "view",
					"type": "function"
				},
				{
					"inputs": [],
					"name": "owner",
					"outputs": [
						{
							"internalType": "address",
							"name": "",
							"type": "address"
						}
					],
					"stateMutability": "view",
					"type": "function"
				},
				{
					"inputs": [
						{
							"internalType": "uint256",
							"name": "",
							"type": "uint256"
						}
					],
					"name": "players",
					"outputs": [
						{
							"internalType": "address",
							"name": "",
							"type": "address"
						}
					],
					"stateMutability": "view",
					"type": "function"
				},
				{
					"inputs": [],
					"name": "roundEndTime",
					"outputs": [
						{
							"internalType": "uint256",
							"name": "",
							"type": "uint256"
						}
					],
					"stateMutability": "view",
					"type": "function"
				},
				{
					"inputs": [],
					"name": "roundNumber",
					"outputs": [
						{
							"internalType": "uint256",
							"name": "",
							"type": "uint256"
						}
					],
					"stateMutability": "view",
					"type": "function"
				},
				{
					"inputs": [],
					"name": "selectWinner",
					"outputs": [],
					"stateMutability": "nonpayable",
					"type": "function"
				},
				{
					"inputs": [],
					"name": "startNewRound",
					"outputs": [],
					"stateMutability": "nonpayable",
					"type": "function"
				},
				{
					"stateMutability": "payable",
					"type": "receive"
				}
			],
			"devdoc": {
				"kind": "dev",
				"methods": {},
				"title": "DecentralizedLottery (+ bonus features)",
				"version": 1
			},
			"evm": {
				"assembly": "    /* \"contracts/DecentralizedLottery.sol\":662:13677  contract DecentralizedLottery {... */\n  mstore(0x40, 0x80)\n    /* \"contracts/DecentralizedLottery.sol\":3242:3316  constructor() {... */\n  callvalue\n  dup1\n  iszero\n  tag_1\n  jumpi\n  revert(0x00, 0x00)\ntag_1:\n  pop\n    /* \"contracts/DecentralizedLottery.sol\":3274:3284  msg.sender */\n  caller\n    /* \"contracts/DecentralizedLottery.sol\":3266:3271  owner */\n  0x00\n  0x00\n    /* \"contracts/DecentralizedLottery.sol\":3266:3284  owner = msg.sender */\n  0x0100\n  exp\n  dup2\n  sload\n  dup2\n  0xffffffffffffffffffffffffffffffffffffffff\n  mul\n  not\n  and\n  swap1\n  dup4\n  0xffffffffffffffffffffffffffffffffffffffff\n  and\n  mul\n  or\n  swap1\n  sstore\n  pop\n    /* \"contracts/DecentralizedLottery.sol\":3308:3309  0 */\n  0x00\n    /* \"contracts/DecentralizedLottery.sol\":3294:3305  roundNumber */\n  0x01\n    /* \"contracts/DecentralizedLottery.sol\":3294:3309  roundNumber = 0 */\n  dup2\n  swap1\n  sstore\n  pop\n    /* \"contracts/DecentralizedLottery.sol\":662:13677  contract DecentralizedLottery {... */\n  dataSize(sub_0)\n  dup1\n  dataOffset(sub_0)\n  0x00\n  codecopy\n  0x00\n  return\nstop\n\nsub_0: assembly {\n        /* \"contracts/DecentralizedLottery.sol\":662:13677  contract DecentralizedLottery {... */\n      mstore(0x40, 0x80)\n      jumpi(tag_1, lt(calldatasize, 0x04))\n      shr(0xe0, calldataload(0x00))\n      dup1\n      0x6c48d697\n      gt\n      tag_30\n      jumpi\n      dup1\n      0xbd85948c\n      gt\n      tag_31\n      jumpi\n      dup1\n      0xdac6270d\n      gt\n      tag_32\n      jumpi\n      dup1\n      0xdac6270d\n      eq\n      tag_26\n      jumpi\n      dup1\n      0xe40205d6\n      eq\n      tag_27\n      jumpi\n      dup1\n      0xef80113b\n      eq\n      tag_28\n      jumpi\n      dup1\n      0xf71d96cb\n      eq\n      tag_29\n      jumpi\n      jump(tag_2)\n    tag_32:\n      dup1\n      0xbd85948c\n      eq\n      tag_23\n      jumpi\n      dup1\n      0xbfe75634\n      eq\n      tag_24\n      jumpi\n      dup1\n      0xc2e52206\n      eq\n      tag_25\n      jumpi\n      jump(tag_2)\n    tag_31:\n      dup1\n      0x8da5cb5b\n      gt\n      tag_33\n      jumpi\n      dup1\n      0x8da5cb5b\n      eq\n      tag_19\n      jumpi\n      dup1\n      0x91aae8f8\n      eq\n      tag_20\n      jumpi\n      dup1\n      0xa7a38f0b\n      eq\n      tag_21\n      jumpi\n      dup1\n      0xadda2c2e\n      eq\n      tag_22\n      jumpi\n      jump(tag_2)\n    tag_33:\n      dup1\n      0x6c48d697\n      eq\n      tag_16\n      jumpi\n      dup1\n      0x884bf67c\n      eq\n      tag_17\n      jumpi\n      dup1\n      0x8b5b9ccc\n      eq\n      tag_18\n      jumpi\n      jump(tag_2)\n    tag_30:\n      dup1\n      0x33a99e04\n      gt\n      tag_34\n      jumpi\n      dup1\n      0x5012f335\n      gt\n      tag_35\n      jumpi\n      dup1\n      0x5012f335\n      eq\n      tag_12\n      jumpi\n      dup1\n      0x59499087\n      eq\n      tag_13\n      jumpi\n      dup1\n      0x5dfa872d\n      eq\n      tag_14\n      jumpi\n      dup1\n      0x6641ea08\n      eq\n      tag_15\n      jumpi\n      jump(tag_2)\n    tag_35:\n      dup1\n      0x33a99e04\n      eq\n      tag_9\n      jumpi\n      dup1\n      0x45945a45\n      eq\n      tag_10\n      jumpi\n      dup1\n      0x4e2786fb\n      eq\n      tag_11\n      jumpi\n      jump(tag_2)\n    tag_34:\n      dup1\n      0x06f81b15\n      eq\n      tag_3\n      jumpi\n      dup1\n      0x1594b256\n      eq\n      tag_4\n      jumpi\n      dup1\n      0x1a1b716c\n      eq\n      tag_5\n      jumpi\n      dup1\n      0x1a95f15f\n      eq\n      tag_6\n      jumpi\n      dup1\n      0x2492b5b8\n      eq\n      tag_7\n      jumpi\n      dup1\n      0x2f366637\n      eq\n      tag_8\n      jumpi\n      jump(tag_2)\n    tag_1:\n      jumpi(tag_2, calldatasize)\n        /* \"contracts/DecentralizedLottery.sol\":3387:3419  revert(\"Direct ETH not allowed\") */\n      mload(0x40)\n      0x08c379a000000000000000000000000000000000000000000000000000000000\n      dup2\n      mstore\n      0x04\n      add\n      tag_38\n      swap1\n      tag_39\n      jump\t// in\n    tag_38:\n      mload(0x40)\n      dup1\n      swap2\n      sub\n      swap1\n      revert\n        /* \"contracts/DecentralizedLottery.sol\":662:13677  contract DecentralizedLottery {... */\n    tag_2:\n        /* \"contracts/DecentralizedLottery.sol\":3457:3489  revert(\"Direct ETH not allowed\") */\n      mload(0x40)\n      0x08c379a000000000000000000000000000000000000000000000000000000000\n      dup2\n      mstore\n      0x04\n      add\n      tag_42\n      swap1\n      tag_39\n      jump\t// in\n    tag_42:\n      mload(0x40)\n      dup1\n      swap2\n      sub\n      swap1\n      revert\n        /* \"contracts/DecentralizedLottery.sol\":2074:2102  uint256 public lastPrizePool */\n    tag_3:\n      callvalue\n      dup1\n      iszero\n      tag_43\n      jumpi\n      revert(0x00, 0x00)\n    tag_43:\n      pop\n      tag_44\n      tag_45\n      jump\t// in\n    tag_44:\n      mload(0x40)\n      tag_46\n      swap2\n      swap1\n      tag_47\n      jump\t// in\n    tag_46:\n      mload(0x40)\n      dup1\n      swap2\n      sub\n      swap1\n      return\n        /* \"contracts/DecentralizedLottery.sol\":1030:1073  uint256 public constant HOUSE_FEE_BPS = 500 */\n    tag_4:\n      callvalue\n      dup1\n      iszero\n      tag_48\n      jumpi\n      revert(0x00, 0x00)\n    tag_48:\n      pop\n      tag_49\n      tag_50\n      jump\t// in\n    tag_49:\n      mload(0x40)\n      tag_51\n      swap2\n      swap1\n      tag_47\n      jump\t// in\n    tag_51:\n      mload(0x40)\n      dup1\n      swap2\n      sub\n      swap1\n      return\n        /* \"contracts/DecentralizedLottery.sol\":1121:1170  uint256 public constant MAX_TICKETS_PER_ADDR = 10 */\n    tag_5:\n      callvalue\n      dup1\n      iszero\n      tag_52\n      jumpi\n      revert(0x00, 0x00)\n    tag_52:\n      pop\n      tag_53\n      tag_54\n      jump\t// in\n    tag_53:\n      mload(0x40)\n      tag_55\n      swap2\n      swap1\n      tag_47\n      jump\t// in\n    tag_55:\n      mload(0x40)\n      dup1\n      swap2\n      sub\n      swap1\n      return\n        /* \"contracts/DecentralizedLottery.sol\":826:875  uint256 public constant TICKET_PRICE = 0.01 ether */\n    tag_6:\n      callvalue\n      dup1\n      iszero\n      tag_56\n      jumpi\n      revert(0x00, 0x00)\n    tag_56:\n      pop\n      tag_57\n      tag_58\n      jump\t// in\n    tag_57:\n      mload(0x40)\n      tag_59\n      swap2\n      swap1\n      tag_47\n      jump\t// in\n    tag_59:\n      mload(0x40)\n      dup1\n      swap2\n      sub\n      swap1\n      return\n        /* \"contracts/DecentralizedLottery.sol\":2108:2137  bool public lastRoundRefunded */\n    tag_7:\n      callvalue\n      dup1\n      iszero\n      tag_60\n      jumpi\n      revert(0x00, 0x00)\n    tag_60:\n      pop\n      tag_61\n      tag_62\n      jump\t// in\n    tag_61:\n      mload(0x40)\n      tag_63\n      swap2\n      swap1\n      tag_64\n      jump\t// in\n    tag_63:\n      mload(0x40)\n      dup1\n      swap2\n      sub\n      swap1\n      return\n        /* \"contracts/DecentralizedLottery.sol\":4242:5191  function buyTickets(uint256 ticketCount) external payable {... */\n    tag_8:\n      tag_65\n      0x04\n      dup1\n      calldatasize\n      sub\n      dup2\n      add\n      swap1\n      tag_66\n      swap2\n      swap1\n      tag_67\n      jump\t// in\n    tag_66:\n      tag_68\n      jump\t// in\n    tag_65:\n      stop\n        /* \"contracts/DecentralizedLottery.sol\":5464:7249  function selectWinner() external nonReentrant {... */\n    tag_9:\n      callvalue\n      dup1\n      iszero\n      tag_69\n      jumpi\n      revert(0x00, 0x00)\n    tag_69:\n      pop\n      tag_70\n      tag_71\n      jump\t// in\n    tag_70:\n      stop\n        /* \"contracts/DecentralizedLottery.sol\":10651:10781  function isRoundActive() public view returns (bool) {... */\n    tag_10:\n      callvalue\n      dup1\n      iszero\n      tag_72\n      jumpi\n      revert(0x00, 0x00)\n    tag_72:\n      pop\n      tag_73\n      tag_74\n      jump\t// in\n    tag_73:\n      mload(0x40)\n      tag_75\n      swap2\n      swap1\n      tag_64\n      jump\t// in\n    tag_75:\n      mload(0x40)\n      dup1\n      swap2\n      sub\n      swap1\n      return\n        /* \"contracts/DecentralizedLottery.sol\":1343:1369  uint256 public roundNumber */\n    tag_11:\n      callvalue\n      dup1\n      iszero\n      tag_76\n      jumpi\n      revert(0x00, 0x00)\n    tag_76:\n      pop\n      tag_77\n      tag_78\n      jump\t// in\n    tag_77:\n      mload(0x40)\n      tag_79\n      swap2\n      swap1\n      tag_47\n      jump\t// in\n    tag_79:\n      mload(0x40)\n      dup1\n      swap2\n      sub\n      swap1\n      return\n        /* \"contracts/DecentralizedLottery.sol\":2041:2068  uint256[] public lastPrizes */\n    tag_12:\n      callvalue\n      dup1\n      iszero\n      tag_80\n      jumpi\n      revert(0x00, 0x00)\n    tag_80:\n      pop\n      tag_81\n      0x04\n      dup1\n      calldatasize\n      sub\n      dup2\n      add\n      swap1\n      tag_82\n      swap2\n      swap1\n      tag_67\n      jump\t// in\n    tag_82:\n      tag_83\n      jump\t// in\n    tag_81:\n      mload(0x40)\n      tag_84\n      swap2\n      swap1\n      tag_47\n      jump\t// in\n    tag_84:\n      mload(0x40)\n      dup1\n      swap2\n      sub\n      swap1\n      return\n        /* \"contracts/DecentralizedLottery.sol\":1243:1289  uint256 public constant MIN_UNIQUE_PLAYERS = 2 */\n    tag_13:\n      callvalue\n      dup1\n      iszero\n      tag_85\n      jumpi\n      revert(0x00, 0x00)\n    tag_85:\n      pop\n      tag_86\n      tag_87\n      jump\t// in\n    tag_86:\n      mload(0x40)\n      tag_88\n      swap2\n      swap1\n      tag_47\n      jump\t// in\n    tag_88:\n      mload(0x40)\n      dup1\n      swap2\n      sub\n      swap1\n      return\n        /* \"contracts/DecentralizedLottery.sol\":12134:12666  function getRoundSummary()... */\n    tag_14:\n      callvalue\n      dup1\n      iszero\n      tag_89\n      jumpi\n      revert(0x00, 0x00)\n    tag_89:\n      pop\n      tag_90\n      tag_91\n      jump\t// in\n    tag_90:\n      mload(0x40)\n      tag_92\n      swap7\n      swap6\n      swap5\n      swap4\n      swap3\n      swap2\n      swap1\n      tag_93\n      jump\t// in\n    tag_92:\n      mload(0x40)\n      dup1\n      swap2\n      sub\n      swap1\n      return\n        /* \"contracts/DecentralizedLottery.sol\":912:962  uint256 public constant ROUND_DURATION = 5 minutes */\n    tag_15:\n      callvalue\n      dup1\n      iszero\n      tag_94\n      jumpi\n      revert(0x00, 0x00)\n    tag_94:\n      pop\n      tag_95\n      tag_96\n      jump\t// in\n    tag_95:\n      mload(0x40)\n      tag_97\n      swap2\n      swap1\n      tag_47\n      jump\t// in\n    tag_97:\n      mload(0x40)\n      dup1\n      swap2\n      sub\n      swap1\n      return\n        /* \"contracts/DecentralizedLottery.sol\":11961:12081  function getPrizePoolReadable() external view returns (string memory) {... */\n    tag_16:\n      callvalue\n      dup1\n      iszero\n      tag_98\n      jumpi\n      revert(0x00, 0x00)\n    tag_98:\n      pop\n      tag_99\n      tag_100\n      jump\t// in\n    tag_99:\n      mload(0x40)\n      tag_101\n      swap2\n      swap1\n      tag_102\n      jump\t// in\n    tag_101:\n      mload(0x40)\n      dup1\n      swap2\n      sub\n      swap1\n      return\n        /* \"contracts/DecentralizedLottery.sol\":11686:11785  function getPrizePool() public view returns (uint256) {... */\n    tag_17:\n      callvalue\n      dup1\n      iszero\n      tag_103\n      jumpi\n      revert(0x00, 0x00)\n    tag_103:\n      pop\n      tag_104\n      tag_105\n      jump\t// in\n    tag_104:\n      mload(0x40)\n      tag_106\n      swap2\n      swap1\n      tag_47\n      jump\t// in\n    tag_106:\n      mload(0x40)\n      dup1\n      swap2\n      sub\n      swap1\n      return\n        /* \"contracts/DecentralizedLottery.sol\":11586:11680  function getPlayers() external view returns (address[] memory) {... */\n    tag_18:\n      callvalue\n      dup1\n      iszero\n      tag_107\n      jumpi\n      revert(0x00, 0x00)\n    tag_107:\n      pop\n      tag_108\n      tag_109\n      jump\t// in\n    tag_108:\n      mload(0x40)\n      tag_110\n      swap2\n      swap1\n      tag_111\n      jump\t// in\n    tag_110:\n      mload(0x40)\n      dup1\n      swap2\n      sub\n      swap1\n      return\n        /* \"contracts/DecentralizedLottery.sol\":765:785  address public owner */\n    tag_19:\n      callvalue\n      dup1\n      iszero\n      tag_112\n      jumpi\n      revert(0x00, 0x00)\n    tag_112:\n      pop\n      tag_113\n      tag_114\n      jump\t// in\n    tag_113:\n      mload(0x40)\n      tag_115\n      swap2\n      swap1\n      tag_116\n      jump\t// in\n    tag_115:\n      mload(0x40)\n      dup1\n      swap2\n      sub\n      swap1\n      return\n        /* \"contracts/DecentralizedLottery.sol\":11461:11580  function getUniquePlayerCount() external view returns (uint256) {... */\n    tag_20:\n      callvalue\n      dup1\n      iszero\n      tag_117\n      jumpi\n      revert(0x00, 0x00)\n    tag_117:\n      pop\n      tag_118\n      tag_119\n      jump\t// in\n    tag_118:\n      mload(0x40)\n      tag_120\n      swap2\n      swap1\n      tag_47\n      jump\t// in\n    tag_120:\n      mload(0x40)\n      dup1\n      swap2\n      sub\n      swap1\n      return\n        /* \"contracts/DecentralizedLottery.sol\":2402:2449  mapping(uint256 => RoundHistory) public history */\n    tag_21:\n      callvalue\n      dup1\n      iszero\n      tag_121\n      jumpi\n      revert(0x00, 0x00)\n    tag_121:\n      pop\n      tag_122\n      0x04\n      dup1\n      calldatasize\n      sub\n      dup2\n      add\n      swap1\n      tag_123\n      swap2\n      swap1\n      tag_67\n      jump\t// in\n    tag_123:\n      tag_124\n      jump\t// in\n    tag_122:\n      mload(0x40)\n      tag_125\n      swap6\n      swap5\n      swap4\n      swap3\n      swap2\n      swap1\n      tag_126\n      jump\t// in\n    tag_125:\n      mload(0x40)\n      dup1\n      swap2\n      sub\n      swap1\n      return\n        /* \"contracts/DecentralizedLottery.sol\":2007:2035  address[] public lastWinners */\n    tag_22:\n      callvalue\n      dup1\n      iszero\n      tag_127\n      jumpi\n      revert(0x00, 0x00)\n    tag_127:\n      pop\n      tag_128\n      0x04\n      dup1\n      calldatasize\n      sub\n      dup2\n      add\n      swap1\n      tag_129\n      swap2\n      swap1\n      tag_67\n      jump\t// in\n    tag_129:\n      tag_130\n      jump\t// in\n    tag_128:\n      mload(0x40)\n      tag_131\n      swap2\n      swap1\n      tag_116\n      jump\t// in\n    tag_131:\n      mload(0x40)\n      dup1\n      swap2\n      sub\n      swap1\n      return\n        /* \"contracts/DecentralizedLottery.sol\":3622:4103  function startNewRound() external onlyOwner {... */\n    tag_23:\n      callvalue\n      dup1\n      iszero\n      tag_132\n      jumpi\n      revert(0x00, 0x00)\n    tag_132:\n      pop\n      tag_133\n      tag_134\n      jump\t// in\n    tag_133:\n      stop\n        /* \"contracts/DecentralizedLottery.sol\":10986:11239  function getTimeRemainingReadable() external view returns (string memory) {... */\n    tag_24:\n      callvalue\n      dup1\n      iszero\n      tag_135\n      jumpi\n      revert(0x00, 0x00)\n    tag_135:\n      pop\n      tag_136\n      tag_137\n      jump\t// in\n    tag_136:\n      mload(0x40)\n      tag_138\n      swap2\n      swap1\n      tag_102\n      jump\t// in\n    tag_138:\n      mload(0x40)\n      dup1\n      swap2\n      sub\n      swap1\n      return\n        /* \"contracts/DecentralizedLottery.sol\":11303:11399  function getPlayerCount() external view returns (uint256) {... */\n    tag_25:\n      callvalue\n      dup1\n      iszero\n      tag_139\n      jumpi\n      revert(0x00, 0x00)\n    tag_139:\n      pop\n      tag_140\n      tag_141\n      jump\t// in\n    tag_140:\n      mload(0x40)\n      tag_142\n      swap2\n      swap1\n      tag_47\n      jump\t// in\n    tag_142:\n      mload(0x40)\n      dup1\n      swap2\n      sub\n      swap1\n      return\n        /* \"contracts/DecentralizedLottery.sol\":10787:10950  function getTimeRemaining() public view returns (uint256) {... */\n    tag_26:\n      callvalue\n      dup1\n      iszero\n      tag_143\n      jumpi\n      revert(0x00, 0x00)\n    tag_143:\n      pop\n      tag_144\n      tag_145\n      jump\t// in\n    tag_144:\n      mload(0x40)\n      tag_146\n      swap2\n      swap1\n      tag_47\n      jump\t// in\n    tag_146:\n      mload(0x40)\n      dup1\n      swap2\n      sub\n      swap1\n      return\n        /* \"contracts/DecentralizedLottery.sol\":1404:1431  uint256 public roundEndTime */\n    tag_27:\n      callvalue\n      dup1\n      iszero\n      tag_147\n      jumpi\n      revert(0x00, 0x00)\n    tag_147:\n      pop\n      tag_148\n      tag_149\n      jump\t// in\n    tag_148:\n      mload(0x40)\n      tag_150\n      swap2\n      swap1\n      tag_47\n      jump\t// in\n    tag_150:\n      mload(0x40)\n      dup1\n      swap2\n      sub\n      swap1\n      return\n        /* \"contracts/DecentralizedLottery.sol\":11818:11924  function getTicketPriceReadable() external pure returns (string memory) {... */\n    tag_28:\n      callvalue\n      dup1\n      iszero\n      tag_151\n      jumpi\n      revert(0x00, 0x00)\n    tag_151:\n      pop\n      tag_152\n      tag_153\n      jump\t// in\n    tag_152:\n      mload(0x40)\n      tag_154\n      swap2\n      swap1\n      tag_102\n      jump\t// in\n    tag_154:\n      mload(0x40)\n      dup1\n      swap2\n      sub\n      swap1\n      return\n        /* \"contracts/DecentralizedLottery.sol\":1479:1503  address[] public players */\n    tag_29:\n      callvalue\n      dup1\n      iszero\n      tag_155\n      jumpi\n      revert(0x00, 0x00)\n    tag_155:\n      pop\n      tag_156\n      0x04\n      dup1\n      calldatasize\n      sub\n      dup2\n      add\n      swap1\n      tag_157\n      swap2\n      swap1\n      tag_67\n      jump\t// in\n    tag_157:\n      tag_158\n      jump\t// in\n    tag_156:\n      mload(0x40)\n      tag_159\n      swap2\n      swap1\n      tag_116\n      jump\t// in\n    tag_159:\n      mload(0x40)\n      dup1\n      swap2\n      sub\n      swap1\n      return\n        /* \"contracts/DecentralizedLottery.sol\":2074:2102  uint256 public lastPrizePool */\n    tag_45:\n      sload(0x0a)\n      dup2\n      jump\t// out\n        /* \"contracts/DecentralizedLottery.sol\":1030:1073  uint256 public constant HOUSE_FEE_BPS = 500 */\n    tag_50:\n        /* \"contracts/DecentralizedLottery.sol\":1070:1073  500 */\n      0x01f4\n        /* \"contracts/DecentralizedLottery.sol\":1030:1073  uint256 public constant HOUSE_FEE_BPS = 500 */\n      dup2\n      jump\t// out\n        /* \"contracts/DecentralizedLottery.sol\":1121:1170  uint256 public constant MAX_TICKETS_PER_ADDR = 10 */\n    tag_54:\n        /* \"contracts/DecentralizedLottery.sol\":1168:1170  10 */\n      0x0a\n        /* \"contracts/DecentralizedLottery.sol\":1121:1170  uint256 public constant MAX_TICKETS_PER_ADDR = 10 */\n      dup2\n      jump\t// out\n        /* \"contracts/DecentralizedLottery.sol\":826:875  uint256 public constant TICKET_PRICE = 0.01 ether */\n    tag_58:\n        /* \"contracts/DecentralizedLottery.sol\":865:875  0.01 ether */\n      0x2386f26fc10000\n        /* \"contracts/DecentralizedLottery.sol\":826:875  uint256 public constant TICKET_PRICE = 0.01 ether */\n      dup2\n      jump\t// out\n        /* \"contracts/DecentralizedLottery.sol\":2108:2137  bool public lastRoundRefunded */\n    tag_62:\n      0x0b\n      0x00\n      swap1\n      sload\n      swap1\n      0x0100\n      exp\n      swap1\n      div\n      0xff\n      and\n      dup2\n      jump\t// out\n        /* \"contracts/DecentralizedLottery.sol\":4242:5191  function buyTickets(uint256 ticketCount) external payable {... */\n    tag_68:\n        /* \"contracts/DecentralizedLottery.sol\":4332:4333  0 */\n      0x00\n        /* \"contracts/DecentralizedLottery.sol\":4318:4329  ticketCount */\n      dup2\n        /* \"contracts/DecentralizedLottery.sol\":4318:4333  ticketCount > 0 */\n      gt\n        /* \"contracts/DecentralizedLottery.sol\":4310:4353  require(ticketCount > 0, \"ticketCount > 0\") */\n      tag_161\n      jumpi\n      mload(0x40)\n      0x08c379a000000000000000000000000000000000000000000000000000000000\n      dup2\n      mstore\n      0x04\n      add\n      tag_162\n      swap1\n      tag_163\n      jump\t// in\n    tag_162:\n      mload(0x40)\n      dup1\n      swap2\n      sub\n      swap1\n      revert\n    tag_161:\n        /* \"contracts/DecentralizedLottery.sol\":4371:4386  isRoundActive() */\n      tag_164\n        /* \"contracts/DecentralizedLottery.sol\":4371:4384  isRoundActive */\n      tag_74\n        /* \"contracts/DecentralizedLottery.sol\":4371:4386  isRoundActive() */\n      jump\t// in\n    tag_164:\n        /* \"contracts/DecentralizedLottery.sol\":4363:4406  require(isRoundActive(), \"No active round\") */\n      tag_165\n      jumpi\n      mload(0x40)\n      0x08c379a000000000000000000000000000000000000000000000000000000000\n      dup2\n      mstore\n      0x04\n      add\n      tag_166\n      swap1\n      tag_167\n      jump\t// in\n    tag_166:\n      mload(0x40)\n      dup1\n      swap2\n      sub\n      swap1\n      revert\n    tag_165:\n        /* \"contracts/DecentralizedLottery.sol\":865:875  0.01 ether */\n      0x2386f26fc10000\n        /* \"contracts/DecentralizedLottery.sol\":4437:4448  ticketCount */\n      dup2\n        /* \"contracts/DecentralizedLottery.sol\":4437:4463  ticketCount * TICKET_PRICE */\n      tag_168\n      swap2\n      swap1\n      tag_169\n      jump\t// in\n    tag_168:\n        /* \"contracts/DecentralizedLottery.sol\":4424:4433  msg.value */\n      callvalue\n        /* \"contracts/DecentralizedLottery.sol\":4424:4463  msg.value == ticketCount * TICKET_PRICE */\n      eq\n        /* \"contracts/DecentralizedLottery.sol\":4416:4481  require(msg.value == ticketCount * TICKET_PRICE, \"Incorrect ETH\") */\n      tag_170\n      jumpi\n      mload(0x40)\n      0x08c379a000000000000000000000000000000000000000000000000000000000\n      dup2\n      mstore\n      0x04\n      add\n      tag_171\n      swap1\n      tag_172\n      jump\t// in\n    tag_171:\n      mload(0x40)\n      dup1\n      swap2\n      sub\n      swap1\n      revert\n    tag_170:\n        /* \"contracts/DecentralizedLottery.sol\":4527:4542  uint256 already */\n      0x00\n        /* \"contracts/DecentralizedLottery.sol\":4545:4560  ticketsPerRound */\n      0x04\n        /* \"contracts/DecentralizedLottery.sol\":4545:4573  ticketsPerRound[roundNumber] */\n      0x00\n        /* \"contracts/DecentralizedLottery.sol\":4561:4572  roundNumber */\n      sload(0x01)\n        /* \"contracts/DecentralizedLottery.sol\":4545:4573  ticketsPerRound[roundNumber] */\n      dup2\n      mstore\n      0x20\n      add\n      swap1\n      dup2\n      mstore\n      0x20\n      add\n      0x00\n      keccak256\n        /* \"contracts/DecentralizedLottery.sol\":4545:4585  ticketsPerRound[roundNumber][msg.sender] */\n      0x00\n        /* \"contracts/DecentralizedLottery.sol\":4574:4584  msg.sender */\n      caller\n        /* \"contracts/DecentralizedLottery.sol\":4545:4585  ticketsPerRound[roundNumber][msg.sender] */\n      0xffffffffffffffffffffffffffffffffffffffff\n      and\n      0xffffffffffffffffffffffffffffffffffffffff\n      and\n      dup2\n      mstore\n      0x20\n      add\n      swap1\n      dup2\n      mstore\n      0x20\n      add\n      0x00\n      keccak256\n      sload\n        /* \"contracts/DecentralizedLottery.sol\":4527:4585  uint256 already = ticketsPerRound[roundNumber][msg.sender] */\n      swap1\n      pop\n        /* \"contracts/DecentralizedLottery.sol\":1168:1170  10 */\n      0x0a\n        /* \"contracts/DecentralizedLottery.sol\":4613:4624  ticketCount */\n      dup3\n        /* \"contracts/DecentralizedLottery.sol\":4603:4610  already */\n      dup3\n        /* \"contracts/DecentralizedLottery.sol\":4603:4624  already + ticketCount */\n      tag_173\n      swap2\n      swap1\n      tag_174\n      jump\t// in\n    tag_173:\n        /* \"contracts/DecentralizedLottery.sol\":4603:4648  already + ticketCount <= MAX_TICKETS_PER_ADDR */\n      gt\n      iszero\n        /* \"contracts/DecentralizedLottery.sol\":4595:4678  require(already + ticketCount <= MAX_TICKETS_PER_ADDR, \"Exceeds per-address limit\") */\n      tag_175\n      jumpi\n      mload(0x40)\n      0x08c379a000000000000000000000000000000000000000000000000000000000\n      dup2\n      mstore\n      0x04\n      add\n      tag_176\n      swap1\n      tag_177\n      jump\t// in\n    tag_176:\n      mload(0x40)\n      dup1\n      swap2\n      sub\n      swap1\n      revert\n    tag_175:\n        /* \"contracts/DecentralizedLottery.sol\":4724:4733  hasJoined */\n      0x05\n        /* \"contracts/DecentralizedLottery.sol\":4724:4746  hasJoined[roundNumber] */\n      0x00\n        /* \"contracts/DecentralizedLottery.sol\":4734:4745  roundNumber */\n      sload(0x01)\n        /* \"contracts/DecentralizedLottery.sol\":4724:4746  hasJoined[roundNumber] */\n      dup2\n      mstore\n      0x20\n      add\n      swap1\n      dup2\n      mstore\n      0x20\n      add\n      0x00\n      keccak256\n        /* \"contracts/DecentralizedLottery.sol\":4724:4758  hasJoined[roundNumber][msg.sender] */\n      0x00\n        /* \"contracts/DecentralizedLottery.sol\":4747:4757  msg.sender */\n      caller\n        /* \"contracts/DecentralizedLottery.sol\":4724:4758  hasJoined[roundNumber][msg.sender] */\n      0xffffffffffffffffffffffffffffffffffffffff\n      and\n      0xffffffffffffffffffffffffffffffffffffffff\n      and\n      dup2\n      mstore\n      0x20\n      add\n      swap1\n      dup2\n      mstore\n      0x20\n      add\n      0x00\n      keccak256\n      0x00\n      swap1\n      sload\n      swap1\n      0x0100\n      exp\n      swap1\n      div\n      0xff\n      and\n        /* \"contracts/DecentralizedLottery.sol\":4719:4876  if (!hasJoined[roundNumber][msg.sender]) {... */\n      tag_178\n      jumpi\n        /* \"contracts/DecentralizedLottery.sol\":4811:4815  true */\n      0x01\n        /* \"contracts/DecentralizedLottery.sol\":4774:4783  hasJoined */\n      0x05\n        /* \"contracts/DecentralizedLottery.sol\":4774:4796  hasJoined[roundNumber] */\n      0x00\n        /* \"contracts/DecentralizedLottery.sol\":4784:4795  roundNumber */\n      sload(0x01)\n        /* \"contracts/DecentralizedLottery.sol\":4774:4796  hasJoined[roundNumber] */\n      dup2\n      mstore\n      0x20\n      add\n      swap1\n      dup2\n      mstore\n      0x20\n      add\n      0x00\n      keccak256\n        /* \"contracts/DecentralizedLottery.sol\":4774:4808  hasJoined[roundNumber][msg.sender] */\n      0x00\n        /* \"contracts/DecentralizedLottery.sol\":4797:4807  msg.sender */\n      caller\n        /* \"contracts/DecentralizedLottery.sol\":4774:4808  hasJoined[roundNumber][msg.sender] */\n      0xffffffffffffffffffffffffffffffffffffffff\n      and\n      0xffffffffffffffffffffffffffffffffffffffff\n      and\n      dup2\n      mstore\n      0x20\n      add\n      swap1\n      dup2\n      mstore\n      0x20\n      add\n      0x00\n      keccak256\n      0x00\n        /* \"contracts/DecentralizedLottery.sol\":4774:4815  hasJoined[roundNumber][msg.sender] = true */\n      0x0100\n      exp\n      dup2\n      sload\n      dup2\n      0xff\n      mul\n      not\n      and\n      swap1\n      dup4\n      iszero\n      iszero\n      mul\n      or\n      swap1\n      sstore\n      pop\n        /* \"contracts/DecentralizedLottery.sol\":4864:4865  1 */\n      0x01\n        /* \"contracts/DecentralizedLottery.sol\":4829:4847  uniquePlayersCount */\n      0x06\n        /* \"contracts/DecentralizedLottery.sol\":4829:4860  uniquePlayersCount[roundNumber] */\n      0x00\n        /* \"contracts/DecentralizedLottery.sol\":4848:4859  roundNumber */\n      sload(0x01)\n        /* \"contracts/DecentralizedLottery.sol\":4829:4860  uniquePlayersCount[roundNumber] */\n      dup2\n      mstore\n      0x20\n      add\n      swap1\n      dup2\n      mstore\n      0x20\n      add\n      0x00\n      keccak256\n      0x00\n        /* \"contracts/DecentralizedLottery.sol\":4829:4865  uniquePlayersCount[roundNumber] += 1 */\n      dup3\n      dup3\n      sload\n      tag_179\n      swap2\n      swap1\n      tag_174\n      jump\t// in\n    tag_179:\n      swap3\n      pop\n      pop\n      dup2\n      swap1\n      sstore\n      pop\n        /* \"contracts/DecentralizedLottery.sol\":4719:4876  if (!hasJoined[roundNumber][msg.sender]) {... */\n    tag_178:\n        /* \"contracts/DecentralizedLottery.sol\":4956:4965  uint256 i */\n      0x00\n        /* \"contracts/DecentralizedLottery.sol\":4968:4969  0 */\n      0x00\n        /* \"contracts/DecentralizedLottery.sol\":4956:4969  uint256 i = 0 */\n      swap1\n      pop\n        /* \"contracts/DecentralizedLottery.sol\":4951:5042  for (uint256 i = 0; i < ticketCount; i++) {... */\n    tag_180:\n        /* \"contracts/DecentralizedLottery.sol\":4975:4986  ticketCount */\n      dup3\n        /* \"contracts/DecentralizedLottery.sol\":4971:4972  i */\n      dup2\n        /* \"contracts/DecentralizedLottery.sol\":4971:4986  i < ticketCount */\n      lt\n        /* \"contracts/DecentralizedLottery.sol\":4951:5042  for (uint256 i = 0; i < ticketCount; i++) {... */\n      iszero\n      tag_181\n      jumpi\n        /* \"contracts/DecentralizedLottery.sol\":5007:5014  players */\n      0x03\n        /* \"contracts/DecentralizedLottery.sol\":5020:5030  msg.sender */\n      caller\n        /* \"contracts/DecentralizedLottery.sol\":5007:5031  players.push(msg.sender) */\n      swap1\n      dup1\n      0x01\n      dup2\n      sload\n      add\n      dup1\n      dup3\n      sstore\n      dup1\n      swap2\n      pop\n      pop\n      0x01\n      swap1\n      sub\n      swap1\n      0x00\n      mstore\n      keccak256(0x00, 0x20)\n      add\n      0x00\n      swap1\n      swap2\n      swap1\n      swap2\n      swap1\n      swap2\n      0x0100\n      exp\n      dup2\n      sload\n      dup2\n      0xffffffffffffffffffffffffffffffffffffffff\n      mul\n      not\n      and\n      swap1\n      dup4\n      0xffffffffffffffffffffffffffffffffffffffff\n      and\n      mul\n      or\n      swap1\n      sstore\n      pop\n        /* \"contracts/DecentralizedLottery.sol\":4988:4991  i++ */\n      dup1\n      dup1\n      0x01\n      add\n      swap2\n      pop\n      pop\n        /* \"contracts/DecentralizedLottery.sol\":4951:5042  for (uint256 i = 0; i < ticketCount; i++) {... */\n      jump(tag_180)\n    tag_181:\n      pop\n        /* \"contracts/DecentralizedLottery.sol\":5104:5115  ticketCount */\n      dup2\n        /* \"contracts/DecentralizedLottery.sol\":5094:5101  already */\n      dup2\n        /* \"contracts/DecentralizedLottery.sol\":5094:5115  already + ticketCount */\n      tag_184\n      swap2\n      swap1\n      tag_174\n      jump\t// in\n    tag_184:\n        /* \"contracts/DecentralizedLottery.sol\":5051:5066  ticketsPerRound */\n      0x04\n        /* \"contracts/DecentralizedLottery.sol\":5051:5079  ticketsPerRound[roundNumber] */\n      0x00\n        /* \"contracts/DecentralizedLottery.sol\":5067:5078  roundNumber */\n      sload(0x01)\n        /* \"contracts/DecentralizedLottery.sol\":5051:5079  ticketsPerRound[roundNumber] */\n      dup2\n      mstore\n      0x20\n      add\n      swap1\n      dup2\n      mstore\n      0x20\n      add\n      0x00\n      keccak256\n        /* \"contracts/DecentralizedLottery.sol\":5051:5091  ticketsPerRound[roundNumber][msg.sender] */\n      0x00\n        /* \"contracts/DecentralizedLottery.sol\":5080:5090  msg.sender */\n      caller\n        /* \"contracts/DecentralizedLottery.sol\":5051:5091  ticketsPerRound[roundNumber][msg.sender] */\n      0xffffffffffffffffffffffffffffffffffffffff\n      and\n      0xffffffffffffffffffffffffffffffffffffffff\n      and\n      dup2\n      mstore\n      0x20\n      add\n      swap1\n      dup2\n      mstore\n      0x20\n      add\n      0x00\n      keccak256\n        /* \"contracts/DecentralizedLottery.sol\":5051:5115  ticketsPerRound[roundNumber][msg.sender] = already + ticketCount */\n      dup2\n      swap1\n      sstore\n      pop\n        /* \"contracts/DecentralizedLottery.sol\":5172:5183  roundNumber */\n      sload(0x01)\n        /* \"contracts/DecentralizedLottery.sol\":5147:5157  msg.sender */\n      caller\n        /* \"contracts/DecentralizedLottery.sol\":5131:5184  TicketPurchased(msg.sender, ticketCount, roundNumber) */\n      0xffffffffffffffffffffffffffffffffffffffff\n      and\n      0x2a91574e12ad96234e84923e146b0946ecfb871cd8d5534dc1fdcbe87a7c01b3\n        /* \"contracts/DecentralizedLottery.sol\":5159:5170  ticketCount */\n      dup5\n        /* \"contracts/DecentralizedLottery.sol\":5131:5184  TicketPurchased(msg.sender, ticketCount, roundNumber) */\n      mload(0x40)\n      tag_185\n      swap2\n      swap1\n      tag_47\n      jump\t// in\n    tag_185:\n      mload(0x40)\n      dup1\n      swap2\n      sub\n      swap1\n      log3\n        /* \"contracts/DecentralizedLottery.sol\":4300:5191  {... */\n      pop\n        /* \"contracts/DecentralizedLottery.sol\":4242:5191  function buyTickets(uint256 ticketCount) external payable {... */\n      pop\n      jump\t// out\n        /* \"contracts/DecentralizedLottery.sol\":5464:7249  function selectWinner() external nonReentrant {... */\n    tag_71:\n        /* \"contracts/DecentralizedLottery.sol\":3108:3115  _locked */\n      0x0d\n      0x00\n      swap1\n      sload\n      swap1\n      0x0100\n      exp\n      swap1\n      div\n      0xff\n      and\n        /* \"contracts/DecentralizedLottery.sol\":3107:3115  !_locked */\n      iszero\n        /* \"contracts/DecentralizedLottery.sol\":3099:3130  require(!_locked, \"Reentrancy\") */\n      tag_187\n      jumpi\n      mload(0x40)\n      0x08c379a000000000000000000000000000000000000000000000000000000000\n      dup2\n      mstore\n      0x04\n      add\n      tag_188\n      swap1\n      tag_189\n      jump\t// in\n    tag_188:\n      mload(0x40)\n      dup1\n      swap2\n      sub\n      swap1\n      revert\n    tag_187:\n        /* \"contracts/DecentralizedLottery.sol\":3150:3154  true */\n      0x01\n        /* \"contracts/DecentralizedLottery.sol\":3140:3147  _locked */\n      0x0d\n      0x00\n        /* \"contracts/DecentralizedLottery.sol\":3140:3154  _locked = true */\n      0x0100\n      exp\n      dup2\n      sload\n      dup2\n      0xff\n      mul\n      not\n      and\n      swap1\n      dup4\n      iszero\n      iszero\n      mul\n      or\n      swap1\n      sstore\n      pop\n        /* \"contracts/DecentralizedLottery.sol\":5529:5544  isRoundActive() */\n      tag_191\n        /* \"contracts/DecentralizedLottery.sol\":5529:5542  isRoundActive */\n      tag_74\n        /* \"contracts/DecentralizedLottery.sol\":5529:5544  isRoundActive() */\n      jump\t// in\n    tag_191:\n        /* \"contracts/DecentralizedLottery.sol\":5528:5544  !isRoundActive() */\n      iszero\n        /* \"contracts/DecentralizedLottery.sol\":5528:5564  !isRoundActive() && roundEndTime > 0 */\n      dup1\n      iszero\n      tag_192\n      jumpi\n      pop\n        /* \"contracts/DecentralizedLottery.sol\":5563:5564  0 */\n      0x00\n        /* \"contracts/DecentralizedLottery.sol\":5548:5560  roundEndTime */\n      sload(0x02)\n        /* \"contracts/DecentralizedLottery.sol\":5548:5564  roundEndTime > 0 */\n      gt\n        /* \"contracts/DecentralizedLottery.sol\":5528:5564  !isRoundActive() && roundEndTime > 0 */\n    tag_192:\n        /* \"contracts/DecentralizedLottery.sol\":5520:5584  require(!isRoundActive() && roundEndTime > 0, \"Round not ended\") */\n      tag_193\n      jumpi\n      mload(0x40)\n      0x08c379a000000000000000000000000000000000000000000000000000000000\n      dup2\n      mstore\n      0x04\n      add\n      tag_194\n      swap1\n      tag_195\n      jump\t// in\n    tag_194:\n      mload(0x40)\n      dup1\n      swap2\n      sub\n      swap1\n      revert\n    tag_193:\n        /* \"contracts/DecentralizedLottery.sol\":5594:5608  uint256 ucount */\n      0x00\n        /* \"contracts/DecentralizedLottery.sol\":5611:5629  uniquePlayersCount */\n      0x06\n        /* \"contracts/DecentralizedLottery.sol\":5611:5642  uniquePlayersCount[roundNumber] */\n      0x00\n        /* \"contracts/DecentralizedLottery.sol\":5630:5641  roundNumber */\n      sload(0x01)\n        /* \"contracts/DecentralizedLottery.sol\":5611:5642  uniquePlayersCount[roundNumber] */\n      dup2\n      mstore\n      0x20\n      add\n      swap1\n      dup2\n      mstore\n      0x20\n      add\n      0x00\n      keccak256\n      sload\n        /* \"contracts/DecentralizedLottery.sol\":5594:5642  uint256 ucount = uniquePlayersCount[roundNumber] */\n      swap1\n      pop\n        /* \"contracts/DecentralizedLottery.sol\":1288:1289  2 */\n      0x02\n        /* \"contracts/DecentralizedLottery.sol\":5706:5712  ucount */\n      dup2\n        /* \"contracts/DecentralizedLottery.sol\":5706:5733  ucount < MIN_UNIQUE_PLAYERS */\n      lt\n        /* \"contracts/DecentralizedLottery.sol\":5702:5890  if (ucount < MIN_UNIQUE_PLAYERS) {... */\n      iszero\n      tag_196\n      jumpi\n        /* \"contracts/DecentralizedLottery.sol\":5749:5765  uint256 refunded */\n      0x00\n        /* \"contracts/DecentralizedLottery.sol\":5768:5780  _refundAll() */\n      tag_197\n        /* \"contracts/DecentralizedLottery.sol\":5768:5778  _refundAll */\n      tag_198\n        /* \"contracts/DecentralizedLottery.sol\":5768:5780  _refundAll() */\n      jump\t// in\n    tag_197:\n        /* \"contracts/DecentralizedLottery.sol\":5749:5780  uint256 refunded = _refundAll() */\n      swap1\n      pop\n        /* \"contracts/DecentralizedLottery.sol\":5794:5859  _archiveRound(true, refunded, new address[](0), new uint256[](0)) */\n      tag_199\n        /* \"contracts/DecentralizedLottery.sol\":5808:5812  true */\n      0x01\n        /* \"contracts/DecentralizedLottery.sol\":5814:5822  refunded */\n      dup3\n        /* \"contracts/DecentralizedLottery.sol\":5838:5839  0 */\n      0x00\n        /* \"contracts/DecentralizedLottery.sol\":5824:5840  new address[](0) */\n      0xffffffffffffffff\n      dup2\n      gt\n      iszero\n      tag_200\n      jumpi\n      tag_201\n      tag_202\n      jump\t// in\n    tag_201:\n    tag_200:\n      mload(0x40)\n      swap1\n      dup1\n      dup3\n      mstore\n      dup1\n      0x20\n      mul\n      0x20\n      add\n      dup3\n      add\n      0x40\n      mstore\n      dup1\n      iszero\n      tag_203\n      jumpi\n      dup2\n      0x20\n      add\n      0x20\n      dup3\n      mul\n      dup1\n      calldatasize\n      dup4\n      calldatacopy\n      dup1\n      dup3\n      add\n      swap2\n      pop\n      pop\n      swap1\n      pop\n    tag_203:\n      pop\n        /* \"contracts/DecentralizedLottery.sol\":5856:5857  0 */\n      0x00\n        /* \"contracts/DecentralizedLottery.sol\":5842:5858  new uint256[](0) */\n      0xffffffffffffffff\n      dup2\n      gt\n      iszero\n      tag_204\n      jumpi\n      tag_205\n      tag_202\n      jump\t// in\n    tag_205:\n    tag_204:\n      mload(0x40)\n      swap1\n      dup1\n      dup3\n      mstore\n      dup1\n      0x20\n      mul\n      0x20\n      add\n      dup3\n      add\n      0x40\n      mstore\n      dup1\n      iszero\n      tag_206\n      jumpi\n      dup2\n      0x20\n      add\n      0x20\n      dup3\n      mul\n      dup1\n      calldatasize\n      dup4\n      calldatacopy\n      dup1\n      dup3\n      add\n      swap2\n      pop\n      pop\n      swap1\n      pop\n    tag_206:\n      pop\n        /* \"contracts/DecentralizedLottery.sol\":5794:5807  _archiveRound */\n      tag_207\n        /* \"contracts/DecentralizedLottery.sol\":5794:5859  _archiveRound(true, refunded, new address[](0), new uint256[](0)) */\n      jump\t// in\n    tag_199:\n        /* \"contracts/DecentralizedLottery.sol\":5873:5880  return; */\n      pop\n      pop\n      jump(tag_190)\n        /* \"contracts/DecentralizedLottery.sol\":5702:5890  if (ucount < MIN_UNIQUE_PLAYERS) {... */\n    tag_196:\n        /* \"contracts/DecentralizedLottery.sol\":5962:5963  0 */\n      0x00\n        /* \"contracts/DecentralizedLottery.sol\":5945:5952  players */\n      0x03\n        /* \"contracts/DecentralizedLottery.sol\":5945:5959  players.length */\n      dup1\n      sload\n      swap1\n      pop\n        /* \"contracts/DecentralizedLottery.sol\":5945:5963  players.length > 0 */\n      gt\n        /* \"contracts/DecentralizedLottery.sol\":5937:5978  require(players.length > 0, \"No entries\") */\n      tag_208\n      jumpi\n      mload(0x40)\n      0x08c379a000000000000000000000000000000000000000000000000000000000\n      dup2\n      mstore\n      0x04\n      add\n      tag_209\n      swap1\n      tag_210\n      jump\t// in\n    tag_209:\n      mload(0x40)\n      dup1\n      swap2\n      sub\n      swap1\n      revert\n    tag_208:\n        /* \"contracts/DecentralizedLottery.sol\":5988:6000  uint256 pool */\n      0x00\n        /* \"contracts/DecentralizedLottery.sol\":6003:6024  address(this).balance */\n      selfbalance\n        /* \"contracts/DecentralizedLottery.sol\":5988:6024  uint256 pool = address(this).balance */\n      swap1\n      pop\n        /* \"contracts/DecentralizedLottery.sol\":6050:6054  pool */\n      dup1\n        /* \"contracts/DecentralizedLottery.sol\":6034:6047  lastPrizePool */\n      0x0a\n        /* \"contracts/DecentralizedLottery.sol\":6034:6054  lastPrizePool = pool */\n      dup2\n      swap1\n      sstore\n      pop\n        /* \"contracts/DecentralizedLottery.sol\":6086:6097  uint256 fee */\n      0x00\n        /* \"contracts/DecentralizedLottery.sol\":6125:6130  10000 */\n      0x2710\n        /* \"contracts/DecentralizedLottery.sol\":1070:1073  500 */\n      0x01f4\n        /* \"contracts/DecentralizedLottery.sol\":6101:6105  pool */\n      dup4\n        /* \"contracts/DecentralizedLottery.sol\":6101:6121  pool * HOUSE_FEE_BPS */\n      tag_211\n      swap2\n      swap1\n      tag_169\n      jump\t// in\n    tag_211:\n        /* \"contracts/DecentralizedLottery.sol\":6100:6130  (pool * HOUSE_FEE_BPS) / 10000 */\n      tag_212\n      swap2\n      swap1\n      tag_213\n      jump\t// in\n    tag_212:\n        /* \"contracts/DecentralizedLottery.sol\":6086:6130  uint256 fee = (pool * HOUSE_FEE_BPS) / 10000 */\n      swap1\n      pop\n        /* \"contracts/DecentralizedLottery.sol\":6140:6160  uint256 poolAfterFee */\n      0x00\n        /* \"contracts/DecentralizedLottery.sol\":6170:6173  fee */\n      dup2\n        /* \"contracts/DecentralizedLottery.sol\":6163:6167  pool */\n      dup4\n        /* \"contracts/DecentralizedLottery.sol\":6163:6173  pool - fee */\n      tag_214\n      swap2\n      swap1\n      tag_215\n      jump\t// in\n    tag_214:\n        /* \"contracts/DecentralizedLottery.sol\":6140:6173  uint256 poolAfterFee = pool - fee */\n      swap1\n      pop\n        /* \"contracts/DecentralizedLottery.sol\":6230:6248  uint256 numWinners */\n      0x00\n        /* \"contracts/DecentralizedLottery.sol\":6261:6262  3 */\n      0x03\n        /* \"contracts/DecentralizedLottery.sol\":6251:6257  ucount */\n      dup6\n        /* \"contracts/DecentralizedLottery.sol\":6251:6262  ucount >= 3 */\n      lt\n      iszero\n        /* \"contracts/DecentralizedLottery.sol\":6251:6275  ucount >= 3 ? 3 : ucount */\n      tag_216\n      jumpi\n        /* \"contracts/DecentralizedLottery.sol\":6269:6275  ucount */\n      dup5\n        /* \"contracts/DecentralizedLottery.sol\":6251:6275  ucount >= 3 ? 3 : ucount */\n      jump(tag_217)\n    tag_216:\n        /* \"contracts/DecentralizedLottery.sol\":6265:6266  3 */\n      0x03\n        /* \"contracts/DecentralizedLottery.sol\":6251:6275  ucount >= 3 ? 3 : ucount */\n    tag_217:\n        /* \"contracts/DecentralizedLottery.sol\":6230:6275  uint256 numWinners = ucount >= 3 ? 3 : ucount */\n      swap1\n      pop\n        /* \"contracts/DecentralizedLottery.sol\":6285:6309  address[] memory winners */\n      0x00\n        /* \"contracts/DecentralizedLottery.sol\":6312:6342  _pickUniqueWinners(numWinners) */\n      tag_218\n        /* \"contracts/DecentralizedLottery.sol\":6331:6341  numWinners */\n      dup3\n        /* \"contracts/DecentralizedLottery.sol\":6312:6330  _pickUniqueWinners */\n      tag_219\n        /* \"contracts/DecentralizedLottery.sol\":6312:6342  _pickUniqueWinners(numWinners) */\n      jump\t// in\n    tag_218:\n        /* \"contracts/DecentralizedLottery.sol\":6285:6342  address[] memory winners = _pickUniqueWinners(numWinners) */\n      swap1\n      pop\n        /* \"contracts/DecentralizedLottery.sol\":6352:6375  uint256[] memory prizes */\n      0x00\n        /* \"contracts/DecentralizedLottery.sol\":6378:6418  _computePrizes(numWinners, poolAfterFee) */\n      tag_220\n        /* \"contracts/DecentralizedLottery.sol\":6393:6403  numWinners */\n      dup4\n        /* \"contracts/DecentralizedLottery.sol\":6405:6417  poolAfterFee */\n      dup6\n        /* \"contracts/DecentralizedLottery.sol\":6378:6392  _computePrizes */\n      tag_221\n        /* \"contracts/DecentralizedLottery.sol\":6378:6418  _computePrizes(numWinners, poolAfterFee) */\n      jump\t// in\n    tag_220:\n        /* \"contracts/DecentralizedLottery.sol\":6352:6418  uint256[] memory prizes = _computePrizes(numWinners, poolAfterFee) */\n      swap1\n      pop\n        /* \"contracts/DecentralizedLottery.sol\":6474:6485  lastWinners */\n      0x08\n      0x00\n        /* \"contracts/DecentralizedLottery.sol\":6467:6485  delete lastWinners */\n      tag_222\n      swap2\n      swap1\n      tag_223\n      jump\t// in\n    tag_222:\n        /* \"contracts/DecentralizedLottery.sol\":6494:6504  lastPrizes */\n      0x09\n      0x00\n        /* \"contracts/DecentralizedLottery.sol\":6487:6504  delete lastPrizes */\n      tag_224\n      swap2\n      swap1\n      tag_225\n      jump\t// in\n    tag_224:\n        /* \"contracts/DecentralizedLottery.sol\":6519:6528  uint256 i */\n      0x00\n        /* \"contracts/DecentralizedLottery.sol\":6531:6532  0 */\n      0x00\n        /* \"contracts/DecentralizedLottery.sol\":6519:6532  uint256 i = 0 */\n      swap1\n      pop\n        /* \"contracts/DecentralizedLottery.sol\":6514:6652  for (uint256 i = 0; i < winners.length; i++) {... */\n    tag_226:\n        /* \"contracts/DecentralizedLottery.sol\":6538:6545  winners */\n      dup3\n        /* \"contracts/DecentralizedLottery.sol\":6538:6552  winners.length */\n      mload\n        /* \"contracts/DecentralizedLottery.sol\":6534:6535  i */\n      dup2\n        /* \"contracts/DecentralizedLottery.sol\":6534:6552  i < winners.length */\n      lt\n        /* \"contracts/DecentralizedLottery.sol\":6514:6652  for (uint256 i = 0; i < winners.length; i++) {... */\n      iszero\n      tag_227\n      jumpi\n        /* \"contracts/DecentralizedLottery.sol\":6573:6584  lastWinners */\n      0x08\n        /* \"contracts/DecentralizedLottery.sol\":6590:6597  winners */\n      dup4\n        /* \"contracts/DecentralizedLottery.sol\":6598:6599  i */\n      dup3\n        /* \"contracts/DecentralizedLottery.sol\":6590:6600  winners[i] */\n      dup2\n      mload\n      dup2\n      lt\n      tag_229\n      jumpi\n      tag_230\n      tag_231\n      jump\t// in\n    tag_230:\n    tag_229:\n      0x20\n      mul\n      0x20\n      add\n      add\n      mload\n        /* \"contracts/DecentralizedLottery.sol\":6573:6601  lastWinners.push(winners[i]) */\n      swap1\n      dup1\n      0x01\n      dup2\n      sload\n      add\n      dup1\n      dup3\n      sstore\n      dup1\n      swap2\n      pop\n      pop\n      0x01\n      swap1\n      sub\n      swap1\n      0x00\n      mstore\n      keccak256(0x00, 0x20)\n      add\n      0x00\n      swap1\n      swap2\n      swap1\n      swap2\n      swap1\n      swap2\n      0x0100\n      exp\n      dup2\n      sload\n      dup2\n      0xffffffffffffffffffffffffffffffffffffffff\n      mul\n      not\n      and\n      swap1\n      dup4\n      0xffffffffffffffffffffffffffffffffffffffff\n      and\n      mul\n      or\n      swap1\n      sstore\n      pop\n        /* \"contracts/DecentralizedLottery.sol\":6615:6625  lastPrizes */\n      0x09\n        /* \"contracts/DecentralizedLottery.sol\":6631:6637  prizes */\n      dup3\n        /* \"contracts/DecentralizedLottery.sol\":6638:6639  i */\n      dup3\n        /* \"contracts/DecentralizedLottery.sol\":6631:6640  prizes[i] */\n      dup2\n      mload\n      dup2\n      lt\n      tag_233\n      jumpi\n      tag_234\n      tag_231\n      jump\t// in\n    tag_234:\n    tag_233:\n      0x20\n      mul\n      0x20\n      add\n      add\n      mload\n        /* \"contracts/DecentralizedLottery.sol\":6615:6641  lastPrizes.push(prizes[i]) */\n      swap1\n      dup1\n      0x01\n      dup2\n      sload\n      add\n      dup1\n      dup3\n      sstore\n      dup1\n      swap2\n      pop\n      pop\n      0x01\n      swap1\n      sub\n      swap1\n      0x00\n      mstore\n      keccak256(0x00, 0x20)\n      add\n      0x00\n      swap1\n      swap2\n      swap1\n      swap2\n      swap1\n      swap2\n      pop\n      sstore\n        /* \"contracts/DecentralizedLottery.sol\":6554:6557  i++ */\n      dup1\n      dup1\n      0x01\n      add\n      swap2\n      pop\n      pop\n        /* \"contracts/DecentralizedLottery.sol\":6514:6652  for (uint256 i = 0; i < winners.length; i++) {... */\n      jump(tag_226)\n    tag_227:\n      pop\n        /* \"contracts/DecentralizedLottery.sol\":6681:6686  false */\n      0x00\n        /* \"contracts/DecentralizedLottery.sol\":6661:6678  lastRoundRefunded */\n      0x0b\n      0x00\n        /* \"contracts/DecentralizedLottery.sol\":6661:6686  lastRoundRefunded = false */\n      0x0100\n      exp\n      dup2\n      sload\n      dup2\n      0xff\n      mul\n      not\n      and\n      swap1\n      dup4\n      iszero\n      iszero\n      mul\n      or\n      swap1\n      sstore\n      pop\n        /* \"contracts/DecentralizedLottery.sol\":6754:6755  0 */\n      0x00\n        /* \"contracts/DecentralizedLottery.sol\":6748:6751  fee */\n      dup6\n        /* \"contracts/DecentralizedLottery.sol\":6748:6755  fee > 0 */\n      gt\n        /* \"contracts/DecentralizedLottery.sol\":6744:6885  if (fee > 0) {... */\n      iszero\n      tag_236\n      jumpi\n        /* \"contracts/DecentralizedLottery.sol\":6772:6782  bool okFee */\n      0x00\n        /* \"contracts/DecentralizedLottery.sol\":6796:6801  owner */\n      0x00\n      0x00\n      swap1\n      sload\n      swap1\n      0x0100\n      exp\n      swap1\n      div\n      0xffffffffffffffffffffffffffffffffffffffff\n      and\n        /* \"contracts/DecentralizedLottery.sol\":6788:6807  payable(owner).call */\n      0xffffffffffffffffffffffffffffffffffffffff\n      and\n        /* \"contracts/DecentralizedLottery.sol\":6815:6818  fee */\n      dup7\n        /* \"contracts/DecentralizedLottery.sol\":6788:6823  payable(owner).call{value: fee}(\"\") */\n      mload(0x40)\n      tag_237\n      swap1\n      tag_238\n      jump\t// in\n    tag_237:\n      0x00\n      mload(0x40)\n      dup1\n      dup4\n      sub\n      dup2\n      dup6\n      dup8\n      gas\n      call\n      swap3\n      pop\n      pop\n      pop\n      returndatasize\n      dup1\n      0x00\n      dup2\n      eq\n      tag_241\n      jumpi\n      mload(0x40)\n      swap2\n      pop\n      and(add(returndatasize, 0x3f), not(0x1f))\n      dup3\n      add\n      0x40\n      mstore\n      returndatasize\n      dup3\n      mstore\n      returndatasize\n      0x00\n      0x20\n      dup5\n      add\n      returndatacopy\n      jump(tag_240)\n    tag_241:\n      0x60\n      swap2\n      pop\n    tag_240:\n      pop\n        /* \"contracts/DecentralizedLottery.sol\":6771:6823  (bool okFee, ) = payable(owner).call{value: fee}(\"\") */\n      pop\n      swap1\n      pop\n        /* \"contracts/DecentralizedLottery.sol\":6845:6850  okFee */\n      dup1\n        /* \"contracts/DecentralizedLottery.sol\":6837:6874  require(okFee, \"Fee transfer failed\") */\n      tag_242\n      jumpi\n      mload(0x40)\n      0x08c379a000000000000000000000000000000000000000000000000000000000\n      dup2\n      mstore\n      0x04\n      add\n      tag_243\n      swap1\n      tag_244\n      jump\t// in\n    tag_243:\n      mload(0x40)\n      dup1\n      swap2\n      sub\n      swap1\n      revert\n    tag_242:\n        /* \"contracts/DecentralizedLottery.sol\":6757:6885  {... */\n      pop\n        /* \"contracts/DecentralizedLottery.sol\":6744:6885  if (fee > 0) {... */\n    tag_236:\n        /* \"contracts/DecentralizedLottery.sol\":6899:6908  uint256 j */\n      0x00\n        /* \"contracts/DecentralizedLottery.sol\":6911:6912  0 */\n      0x00\n        /* \"contracts/DecentralizedLottery.sol\":6899:6912  uint256 j = 0 */\n      swap1\n      pop\n        /* \"contracts/DecentralizedLottery.sol\":6894:7074  for (uint256 j = 0; j < winners.length; j++) {... */\n    tag_245:\n        /* \"contracts/DecentralizedLottery.sol\":6918:6925  winners */\n      dup3\n        /* \"contracts/DecentralizedLottery.sol\":6918:6932  winners.length */\n      mload\n        /* \"contracts/DecentralizedLottery.sol\":6914:6915  j */\n      dup2\n        /* \"contracts/DecentralizedLottery.sol\":6914:6932  j < winners.length */\n      lt\n        /* \"contracts/DecentralizedLottery.sol\":6894:7074  for (uint256 j = 0; j < winners.length; j++) {... */\n      iszero\n      tag_246\n      jumpi\n        /* \"contracts/DecentralizedLottery.sol\":6954:6961  bool ok */\n      0x00\n        /* \"contracts/DecentralizedLottery.sol\":6975:6982  winners */\n      dup4\n        /* \"contracts/DecentralizedLottery.sol\":6983:6984  j */\n      dup3\n        /* \"contracts/DecentralizedLottery.sol\":6975:6985  winners[j] */\n      dup2\n      mload\n      dup2\n      lt\n      tag_248\n      jumpi\n      tag_249\n      tag_231\n      jump\t// in\n    tag_249:\n    tag_248:\n      0x20\n      mul\n      0x20\n      add\n      add\n      mload\n        /* \"contracts/DecentralizedLottery.sol\":6967:6991  payable(winners[j]).call */\n      0xffffffffffffffffffffffffffffffffffffffff\n      and\n        /* \"contracts/DecentralizedLottery.sol\":6999:7005  prizes */\n      dup4\n        /* \"contracts/DecentralizedLottery.sol\":7006:7007  j */\n      dup4\n        /* \"contracts/DecentralizedLottery.sol\":6999:7008  prizes[j] */\n      dup2\n      mload\n      dup2\n      lt\n      tag_250\n      jumpi\n      tag_251\n      tag_231\n      jump\t// in\n    tag_251:\n    tag_250:\n      0x20\n      mul\n      0x20\n      add\n      add\n      mload\n        /* \"contracts/DecentralizedLottery.sol\":6967:7013  payable(winners[j]).call{value: prizes[j]}(\"\") */\n      mload(0x40)\n      tag_252\n      swap1\n      tag_238\n      jump\t// in\n    tag_252:\n      0x00\n      mload(0x40)\n      dup1\n      dup4\n      sub\n      dup2\n      dup6\n      dup8\n      gas\n      call\n      swap3\n      pop\n      pop\n      pop\n      returndatasize\n      dup1\n      0x00\n      dup2\n      eq\n      tag_255\n      jumpi\n      mload(0x40)\n      swap2\n      pop\n      and(add(returndatasize, 0x3f), not(0x1f))\n      dup3\n      add\n      0x40\n      mstore\n      returndatasize\n      dup3\n      mstore\n      returndatasize\n      0x00\n      0x20\n      dup5\n      add\n      returndatacopy\n      jump(tag_254)\n    tag_255:\n      0x60\n      swap2\n      pop\n    tag_254:\n      pop\n        /* \"contracts/DecentralizedLottery.sol\":6953:7013  (bool ok, ) = payable(winners[j]).call{value: prizes[j]}(\"\") */\n      pop\n      swap1\n      pop\n        /* \"contracts/DecentralizedLottery.sol\":7035:7037  ok */\n      dup1\n        /* \"contracts/DecentralizedLottery.sol\":7027:7063  require(ok, \"Prize transfer failed\") */\n      tag_256\n      jumpi\n      mload(0x40)\n      0x08c379a000000000000000000000000000000000000000000000000000000000\n      dup2\n      mstore\n      0x04\n      add\n      tag_257\n      swap1\n      tag_258\n      jump\t// in\n    tag_257:\n      mload(0x40)\n      dup1\n      swap2\n      sub\n      swap1\n      revert\n    tag_256:\n        /* \"contracts/DecentralizedLottery.sol\":6939:7074  {... */\n      pop\n        /* \"contracts/DecentralizedLottery.sol\":6934:6937  j++ */\n      dup1\n      dup1\n      0x01\n      add\n      swap2\n      pop\n      pop\n        /* \"contracts/DecentralizedLottery.sol\":6894:7074  for (uint256 j = 0; j < winners.length; j++) {... */\n      jump(tag_245)\n    tag_246:\n      pop\n        /* \"contracts/DecentralizedLottery.sol\":7105:7116  roundNumber */\n      sload(0x01)\n        /* \"contracts/DecentralizedLottery.sol\":7089:7153  WinnersSelected(roundNumber, winners, prizes, poolAfterFee, fee) */\n      0x062802e42aff12cbf661e2b5331f950782ee2168c5df1e9a8012442542713ebe\n        /* \"contracts/DecentralizedLottery.sol\":7118:7125  winners */\n      dup4\n        /* \"contracts/DecentralizedLottery.sol\":7127:7133  prizes */\n      dup4\n        /* \"contracts/DecentralizedLottery.sol\":7135:7147  poolAfterFee */\n      dup8\n        /* \"contracts/DecentralizedLottery.sol\":7149:7152  fee */\n      dup10\n        /* \"contracts/DecentralizedLottery.sol\":7089:7153  WinnersSelected(roundNumber, winners, prizes, poolAfterFee, fee) */\n      mload(0x40)\n      tag_259\n      swap5\n      swap4\n      swap3\n      swap2\n      swap1\n      tag_260\n      jump\t// in\n    tag_259:\n      mload(0x40)\n      dup1\n      swap2\n      sub\n      swap1\n      log2\n        /* \"contracts/DecentralizedLottery.sol\":7191:7242  _archiveRound(false, poolAfterFee, winners, prizes) */\n      tag_261\n        /* \"contracts/DecentralizedLottery.sol\":7205:7210  false */\n      0x00\n        /* \"contracts/DecentralizedLottery.sol\":7212:7224  poolAfterFee */\n      dup6\n        /* \"contracts/DecentralizedLottery.sol\":7226:7233  winners */\n      dup5\n        /* \"contracts/DecentralizedLottery.sol\":7235:7241  prizes */\n      dup5\n        /* \"contracts/DecentralizedLottery.sol\":7191:7204  _archiveRound */\n      tag_207\n        /* \"contracts/DecentralizedLottery.sol\":7191:7242  _archiveRound(false, poolAfterFee, winners, prizes) */\n      jump\t// in\n    tag_261:\n        /* \"contracts/DecentralizedLottery.sol\":5510:7249  {... */\n      pop\n      pop\n      pop\n      pop\n      pop\n      pop\n      pop\n        /* \"contracts/DecentralizedLottery.sol\":3164:3165  _ */\n    tag_190:\n        /* \"contracts/DecentralizedLottery.sol\":3185:3190  false */\n      0x00\n        /* \"contracts/DecentralizedLottery.sol\":3175:3182  _locked */\n      0x0d\n      0x00\n        /* \"contracts/DecentralizedLottery.sol\":3175:3190  _locked = false */\n      0x0100\n      exp\n      dup2\n      sload\n      dup2\n      0xff\n      mul\n      not\n      and\n      swap1\n      dup4\n      iszero\n      iszero\n      mul\n      or\n      swap1\n      sstore\n      pop\n        /* \"contracts/DecentralizedLottery.sol\":5464:7249  function selectWinner() external nonReentrant {... */\n      jump\t// out\n        /* \"contracts/DecentralizedLottery.sol\":10651:10781  function isRoundActive() public view returns (bool) {... */\n    tag_74:\n        /* \"contracts/DecentralizedLottery.sol\":10697:10701  bool */\n      0x00\n        /* \"contracts/DecentralizedLottery.sol\":10736:10737  0 */\n      0x00\n        /* \"contracts/DecentralizedLottery.sol\":10721:10733  roundEndTime */\n      sload(0x02)\n        /* \"contracts/DecentralizedLottery.sol\":10721:10737  roundEndTime > 0 */\n      gt\n        /* \"contracts/DecentralizedLottery.sol\":10720:10774  (roundEndTime > 0) && (block.timestamp < roundEndTime) */\n      dup1\n      iszero\n      tag_263\n      jumpi\n      pop\n        /* \"contracts/DecentralizedLottery.sol\":10761:10773  roundEndTime */\n      sload(0x02)\n        /* \"contracts/DecentralizedLottery.sol\":10743:10758  block.timestamp */\n      timestamp\n        /* \"contracts/DecentralizedLottery.sol\":10743:10773  block.timestamp < roundEndTime */\n      lt\n        /* \"contracts/DecentralizedLottery.sol\":10720:10774  (roundEndTime > 0) && (block.timestamp < roundEndTime) */\n    tag_263:\n        /* \"contracts/DecentralizedLottery.sol\":10713:10774  return (roundEndTime > 0) && (block.timestamp < roundEndTime) */\n      swap1\n      pop\n        /* \"contracts/DecentralizedLottery.sol\":10651:10781  function isRoundActive() public view returns (bool) {... */\n      swap1\n      jump\t// out\n        /* \"contracts/DecentralizedLottery.sol\":1343:1369  uint256 public roundNumber */\n    tag_78:\n      sload(0x01)\n      dup2\n      jump\t// out\n        /* \"contracts/DecentralizedLottery.sol\":2041:2068  uint256[] public lastPrizes */\n    tag_83:\n      0x09\n      dup2\n      dup2\n      sload\n      dup2\n      lt\n      tag_264\n      jumpi\n      0x00\n      dup1\n      revert\n    tag_264:\n      swap1\n      0x00\n      mstore\n      keccak256(0x00, 0x20)\n      add\n      0x00\n      swap2\n      pop\n      swap1\n      pop\n      sload\n      dup2\n      jump\t// out\n        /* \"contracts/DecentralizedLottery.sol\":1243:1289  uint256 public constant MIN_UNIQUE_PLAYERS = 2 */\n    tag_87:\n        /* \"contracts/DecentralizedLottery.sol\":1288:1289  2 */\n      0x02\n        /* \"contracts/DecentralizedLottery.sol\":1243:1289  uint256 public constant MIN_UNIQUE_PLAYERS = 2 */\n      dup2\n      jump\t// out\n        /* \"contracts/DecentralizedLottery.sol\":12134:12666  function getRoundSummary()... */\n    tag_91:\n        /* \"contracts/DecentralizedLottery.sol\":12221:12235  uint256 _round */\n      0x00\n        /* \"contracts/DecentralizedLottery.sol\":12249:12261  bool _active */\n      0x00\n        /* \"contracts/DecentralizedLottery.sol\":12275:12295  uint256 _timeLeftSec */\n      0x00\n        /* \"contracts/DecentralizedLottery.sol\":12309:12325  uint256 _tickets */\n      0x00\n        /* \"contracts/DecentralizedLottery.sol\":12339:12354  uint256 _unique */\n      0x00\n        /* \"contracts/DecentralizedLottery.sol\":12368:12384  uint256 _poolWei */\n      0x00\n        /* \"contracts/DecentralizedLottery.sol\":12424:12435  roundNumber */\n      sload(0x01)\n        /* \"contracts/DecentralizedLottery.sol\":12409:12435  _round       = roundNumber */\n      swap6\n      pop\n        /* \"contracts/DecentralizedLottery.sol\":12460:12475  isRoundActive() */\n      tag_267\n        /* \"contracts/DecentralizedLottery.sol\":12460:12473  isRoundActive */\n      tag_74\n        /* \"contracts/DecentralizedLottery.sol\":12460:12475  isRoundActive() */\n      jump\t// in\n    tag_267:\n        /* \"contracts/DecentralizedLottery.sol\":12445:12475  _active      = isRoundActive() */\n      swap5\n      pop\n        /* \"contracts/DecentralizedLottery.sol\":12500:12518  getTimeRemaining() */\n      tag_268\n        /* \"contracts/DecentralizedLottery.sol\":12500:12516  getTimeRemaining */\n      tag_145\n        /* \"contracts/DecentralizedLottery.sol\":12500:12518  getTimeRemaining() */\n      jump\t// in\n    tag_268:\n        /* \"contracts/DecentralizedLottery.sol\":12485:12518  _timeLeftSec = getTimeRemaining() */\n      swap4\n      pop\n        /* \"contracts/DecentralizedLottery.sol\":12543:12550  players */\n      0x03\n        /* \"contracts/DecentralizedLottery.sol\":12543:12557  players.length */\n      dup1\n      sload\n      swap1\n      pop\n        /* \"contracts/DecentralizedLottery.sol\":12528:12557  _tickets     = players.length */\n      swap3\n      pop\n        /* \"contracts/DecentralizedLottery.sol\":12582:12600  uniquePlayersCount */\n      0x06\n        /* \"contracts/DecentralizedLottery.sol\":12582:12613  uniquePlayersCount[roundNumber] */\n      0x00\n        /* \"contracts/DecentralizedLottery.sol\":12601:12612  roundNumber */\n      sload(0x01)\n        /* \"contracts/DecentralizedLottery.sol\":12582:12613  uniquePlayersCount[roundNumber] */\n      dup2\n      mstore\n      0x20\n      add\n      swap1\n      dup2\n      mstore\n      0x20\n      add\n      0x00\n      keccak256\n      sload\n        /* \"contracts/DecentralizedLottery.sol\":12567:12613  _unique      = uniquePlayersCount[roundNumber] */\n      swap2\n      pop\n        /* \"contracts/DecentralizedLottery.sol\":12638:12659  address(this).balance */\n      selfbalance\n        /* \"contracts/DecentralizedLottery.sol\":12623:12659  _poolWei     = address(this).balance */\n      swap1\n      pop\n        /* \"contracts/DecentralizedLottery.sol\":12134:12666  function getRoundSummary()... */\n      swap1\n      swap2\n      swap3\n      swap4\n      swap5\n      swap6\n      jump\t// out\n        /* \"contracts/DecentralizedLottery.sol\":912:962  uint256 public constant ROUND_DURATION = 5 minutes */\n    tag_96:\n        /* \"contracts/DecentralizedLottery.sol\":953:962  5 minutes */\n      0x012c\n        /* \"contracts/DecentralizedLottery.sol\":912:962  uint256 public constant ROUND_DURATION = 5 minutes */\n      dup2\n      jump\t// out\n        /* \"contracts/DecentralizedLottery.sol\":11961:12081  function getPrizePoolReadable() external view returns (string memory) {... */\n    tag_100:\n        /* \"contracts/DecentralizedLottery.sol\":12016:12029  string memory */\n      0x60\n        /* \"contracts/DecentralizedLottery.sol\":12048:12074  _formatEth(getPrizePool()) */\n      tag_270\n        /* \"contracts/DecentralizedLottery.sol\":12059:12073  getPrizePool() */\n      tag_271\n        /* \"contracts/DecentralizedLottery.sol\":12059:12071  getPrizePool */\n      tag_105\n        /* \"contracts/DecentralizedLottery.sol\":12059:12073  getPrizePool() */\n      jump\t// in\n    tag_271:\n        /* \"contracts/DecentralizedLottery.sol\":12048:12058  _formatEth */\n      tag_272\n        /* \"contracts/DecentralizedLottery.sol\":12048:12074  _formatEth(getPrizePool()) */\n      jump\t// in\n    tag_270:\n        /* \"contracts/DecentralizedLottery.sol\":12041:12074  return _formatEth(getPrizePool()) */\n      swap1\n      pop\n        /* \"contracts/DecentralizedLottery.sol\":11961:12081  function getPrizePoolReadable() external view returns (string memory) {... */\n      swap1\n      jump\t// out\n        /* \"contracts/DecentralizedLottery.sol\":11686:11785  function getPrizePool() public view returns (uint256) {... */\n    tag_105:\n        /* \"contracts/DecentralizedLottery.sol\":11731:11738  uint256 */\n      0x00\n        /* \"contracts/DecentralizedLottery.sol\":11757:11778  address(this).balance */\n      selfbalance\n        /* \"contracts/DecentralizedLottery.sol\":11750:11778  return address(this).balance */\n      swap1\n      pop\n        /* \"contracts/DecentralizedLottery.sol\":11686:11785  function getPrizePool() public view returns (uint256) {... */\n      swap1\n      jump\t// out\n        /* \"contracts/DecentralizedLottery.sol\":11586:11680  function getPlayers() external view returns (address[] memory) {... */\n    tag_109:\n        /* \"contracts/DecentralizedLottery.sol\":11631:11647  address[] memory */\n      0x60\n        /* \"contracts/DecentralizedLottery.sol\":11666:11673  players */\n      0x03\n        /* \"contracts/DecentralizedLottery.sol\":11659:11673  return players */\n      dup1\n      sload\n      dup1\n      0x20\n      mul\n      0x20\n      add\n      mload(0x40)\n      swap1\n      dup2\n      add\n      0x40\n      mstore\n      dup1\n      swap3\n      swap2\n      swap1\n      dup2\n      dup2\n      mstore\n      0x20\n      add\n      dup3\n      dup1\n      sload\n      dup1\n      iszero\n      tag_275\n      jumpi\n      0x20\n      mul\n      dup3\n      add\n      swap2\n      swap1\n      0x00\n      mstore\n      keccak256(0x00, 0x20)\n      swap1\n    tag_276:\n      dup2\n      0x00\n      swap1\n      sload\n      swap1\n      0x0100\n      exp\n      swap1\n      div\n      0xffffffffffffffffffffffffffffffffffffffff\n      and\n      0xffffffffffffffffffffffffffffffffffffffff\n      and\n      dup2\n      mstore\n      0x20\n      add\n      swap1\n      0x01\n      add\n      swap1\n      dup1\n      dup4\n      gt\n      tag_276\n      jumpi\n    tag_275:\n      pop\n      pop\n      pop\n      pop\n      pop\n      swap1\n      pop\n        /* \"contracts/DecentralizedLottery.sol\":11586:11680  function getPlayers() external view returns (address[] memory) {... */\n      swap1\n      jump\t// out\n        /* \"contracts/DecentralizedLottery.sol\":765:785  address public owner */\n    tag_114:\n      0x00\n      0x00\n      swap1\n      sload\n      swap1\n      0x0100\n      exp\n      swap1\n      div\n      0xffffffffffffffffffffffffffffffffffffffff\n      and\n      dup2\n      jump\t// out\n        /* \"contracts/DecentralizedLottery.sol\":11461:11580  function getUniquePlayerCount() external view returns (uint256) {... */\n    tag_119:\n        /* \"contracts/DecentralizedLottery.sol\":11516:11523  uint256 */\n      0x00\n        /* \"contracts/DecentralizedLottery.sol\":11542:11560  uniquePlayersCount */\n      0x06\n        /* \"contracts/DecentralizedLottery.sol\":11542:11573  uniquePlayersCount[roundNumber] */\n      0x00\n        /* \"contracts/DecentralizedLottery.sol\":11561:11572  roundNumber */\n      sload(0x01)\n        /* \"contracts/DecentralizedLottery.sol\":11542:11573  uniquePlayersCount[roundNumber] */\n      dup2\n      mstore\n      0x20\n      add\n      swap1\n      dup2\n      mstore\n      0x20\n      add\n      0x00\n      keccak256\n      sload\n        /* \"contracts/DecentralizedLottery.sol\":11535:11573  return uniquePlayersCount[roundNumber] */\n      swap1\n      pop\n        /* \"contracts/DecentralizedLottery.sol\":11461:11580  function getUniquePlayerCount() external view returns (uint256) {... */\n      swap1\n      jump\t// out\n        /* \"contracts/DecentralizedLottery.sol\":2402:2449  mapping(uint256 => RoundHistory) public history */\n    tag_124:\n      mstore(0x20, 0x0c)\n      dup1\n      0x00\n      mstore\n      keccak256(0x00, 0x40)\n      0x00\n      swap2\n      pop\n      swap1\n      pop\n      dup1\n      0x00\n      add\n      sload\n      swap1\n      dup1\n      0x01\n      add\n      0x00\n      swap1\n      sload\n      swap1\n      0x0100\n      exp\n      swap1\n      div\n      0xff\n      and\n      swap1\n      dup1\n      0x02\n      add\n      sload\n      swap1\n      dup1\n      0x03\n      add\n      sload\n      swap1\n      dup1\n      0x04\n      add\n      sload\n      swap1\n      pop\n      dup6\n      jump\t// out\n        /* \"contracts/DecentralizedLottery.sol\":2007:2035  address[] public lastWinners */\n    tag_130:\n      0x08\n      dup2\n      dup2\n      sload\n      dup2\n      lt\n      tag_278\n      jumpi\n      0x00\n      dup1\n      revert\n    tag_278:\n      swap1\n      0x00\n      mstore\n      keccak256(0x00, 0x20)\n      add\n      0x00\n      swap2\n      pop\n      sload\n      swap1\n      0x0100\n      exp\n      swap1\n      div\n      0xffffffffffffffffffffffffffffffffffffffff\n      and\n      dup2\n      jump\t// out\n        /* \"contracts/DecentralizedLottery.sol\":3622:4103  function startNewRound() external onlyOwner {... */\n    tag_134:\n        /* \"contracts/DecentralizedLottery.sol\":2995:3000  owner */\n      0x00\n      0x00\n      swap1\n      sload\n      swap1\n      0x0100\n      exp\n      swap1\n      div\n      0xffffffffffffffffffffffffffffffffffffffff\n      and\n        /* \"contracts/DecentralizedLottery.sol\":2981:3000  msg.sender == owner */\n      0xffffffffffffffffffffffffffffffffffffffff\n      and\n        /* \"contracts/DecentralizedLottery.sol\":2981:2991  msg.sender */\n      caller\n        /* \"contracts/DecentralizedLottery.sol\":2981:3000  msg.sender == owner */\n      0xffffffffffffffffffffffffffffffffffffffff\n      and\n      eq\n        /* \"contracts/DecentralizedLottery.sol\":2973:3015  require(msg.sender == owner, \"Only owner\") */\n      tag_281\n      jumpi\n      mload(0x40)\n      0x08c379a000000000000000000000000000000000000000000000000000000000\n      dup2\n      mstore\n      0x04\n      add\n      tag_282\n      swap1\n      tag_283\n      jump\t// in\n    tag_282:\n      mload(0x40)\n      dup1\n      swap2\n      sub\n      swap1\n      revert\n    tag_281:\n        /* \"contracts/DecentralizedLottery.sol\":3685:3700  isRoundActive() */\n      tag_285\n        /* \"contracts/DecentralizedLottery.sol\":3685:3698  isRoundActive */\n      tag_74\n        /* \"contracts/DecentralizedLottery.sol\":3685:3700  isRoundActive() */\n      jump\t// in\n    tag_285:\n        /* \"contracts/DecentralizedLottery.sol\":3684:3700  !isRoundActive() */\n      iszero\n        /* \"contracts/DecentralizedLottery.sol\":3676:3725  require(!isRoundActive(), \"Round already active\") */\n      tag_286\n      jumpi\n      mload(0x40)\n      0x08c379a000000000000000000000000000000000000000000000000000000000\n      dup2\n      mstore\n      0x04\n      add\n      tag_287\n      swap1\n      tag_288\n      jump\t// in\n    tag_287:\n      mload(0x40)\n      dup1\n      swap2\n      sub\n      swap1\n      revert\n    tag_286:\n        /* \"contracts/DecentralizedLottery.sol\":3774:3781  players */\n      0x03\n      0x00\n        /* \"contracts/DecentralizedLottery.sol\":3767:3781  delete players */\n      tag_289\n      swap2\n      swap1\n      tag_223\n      jump\t// in\n    tag_289:\n        /* \"contracts/DecentralizedLottery.sol\":3837:3838  1 */\n      0x01\n        /* \"contracts/DecentralizedLottery.sol\":3822:3833  roundNumber */\n      dup1\n      0x00\n        /* \"contracts/DecentralizedLottery.sol\":3822:3838  roundNumber += 1 */\n      dup3\n      dup3\n      sload\n      tag_290\n      swap2\n      swap1\n      tag_174\n      jump\t// in\n    tag_290:\n      swap3\n      pop\n      pop\n      dup2\n      swap1\n      sstore\n      pop\n        /* \"contracts/DecentralizedLottery.sol\":953:962  5 minutes */\n      0x012c\n        /* \"contracts/DecentralizedLottery.sol\":3863:3878  block.timestamp */\n      timestamp\n        /* \"contracts/DecentralizedLottery.sol\":3863:3895  block.timestamp + ROUND_DURATION */\n      tag_291\n      swap2\n      swap1\n      tag_174\n      jump\t// in\n    tag_291:\n        /* \"contracts/DecentralizedLottery.sol\":3848:3860  roundEndTime */\n      0x02\n        /* \"contracts/DecentralizedLottery.sol\":3848:3895  roundEndTime = block.timestamp + ROUND_DURATION */\n      dup2\n      swap1\n      sstore\n      pop\n        /* \"contracts/DecentralizedLottery.sol\":3941:3952  lastWinners */\n      0x08\n      0x00\n        /* \"contracts/DecentralizedLottery.sol\":3934:3952  delete lastWinners */\n      tag_292\n      swap2\n      swap1\n      tag_223\n      jump\t// in\n    tag_292:\n        /* \"contracts/DecentralizedLottery.sol\":3969:3979  lastPrizes */\n      0x09\n      0x00\n        /* \"contracts/DecentralizedLottery.sol\":3962:3979  delete lastPrizes */\n      tag_293\n      swap2\n      swap1\n      tag_225\n      jump\t// in\n    tag_293:\n        /* \"contracts/DecentralizedLottery.sol\":4005:4006  0 */\n      0x00\n        /* \"contracts/DecentralizedLottery.sol\":3989:4002  lastPrizePool */\n      0x0a\n        /* \"contracts/DecentralizedLottery.sol\":3989:4006  lastPrizePool = 0 */\n      dup2\n      swap1\n      sstore\n      pop\n        /* \"contracts/DecentralizedLottery.sol\":4036:4041  false */\n      0x00\n        /* \"contracts/DecentralizedLottery.sol\":4016:4033  lastRoundRefunded */\n      0x0b\n      0x00\n        /* \"contracts/DecentralizedLottery.sol\":4016:4041  lastRoundRefunded = false */\n      0x0100\n      exp\n      dup2\n      sload\n      dup2\n      0xff\n      mul\n      not\n      and\n      swap1\n      dup4\n      iszero\n      iszero\n      mul\n      or\n      swap1\n      sstore\n      pop\n        /* \"contracts/DecentralizedLottery.sol\":4070:4081  roundNumber */\n      sload(0x01)\n        /* \"contracts/DecentralizedLottery.sol\":4057:4096  RoundStarted(roundNumber, roundEndTime) */\n      0x278844837bcf8364a705384bf3a2812901f54155bae86dea81dd52aa5b9ec0e3\n        /* \"contracts/DecentralizedLottery.sol\":4083:4095  roundEndTime */\n      sload(0x02)\n        /* \"contracts/DecentralizedLottery.sol\":4057:4096  RoundStarted(roundNumber, roundEndTime) */\n      mload(0x40)\n      tag_294\n      swap2\n      swap1\n      tag_47\n      jump\t// in\n    tag_294:\n      mload(0x40)\n      dup1\n      swap2\n      sub\n      swap1\n      log2\n        /* \"contracts/DecentralizedLottery.sol\":3622:4103  function startNewRound() external onlyOwner {... */\n      jump\t// out\n        /* \"contracts/DecentralizedLottery.sol\":10986:11239  function getTimeRemainingReadable() external view returns (string memory) {... */\n    tag_137:\n        /* \"contracts/DecentralizedLottery.sol\":11045:11058  string memory */\n      0x60\n        /* \"contracts/DecentralizedLottery.sol\":11070:11079  uint256 s */\n      0x00\n        /* \"contracts/DecentralizedLottery.sol\":11082:11100  getTimeRemaining() */\n      tag_296\n        /* \"contracts/DecentralizedLottery.sol\":11082:11098  getTimeRemaining */\n      tag_145\n        /* \"contracts/DecentralizedLottery.sol\":11082:11100  getTimeRemaining() */\n      jump\t// in\n    tag_296:\n        /* \"contracts/DecentralizedLottery.sol\":11070:11100  uint256 s = getTimeRemaining() */\n      swap1\n      pop\n        /* \"contracts/DecentralizedLottery.sol\":11110:11119  uint256 m */\n      0x00\n        /* \"contracts/DecentralizedLottery.sol\":11126:11128  60 */\n      0x3c\n        /* \"contracts/DecentralizedLottery.sol\":11122:11123  s */\n      dup3\n        /* \"contracts/DecentralizedLottery.sol\":11122:11128  s / 60 */\n      tag_297\n      swap2\n      swap1\n      tag_213\n      jump\t// in\n    tag_297:\n        /* \"contracts/DecentralizedLottery.sol\":11110:11128  uint256 m = s / 60 */\n      swap1\n      pop\n        /* \"contracts/DecentralizedLottery.sol\":11138:11149  uint256 rem */\n      0x00\n        /* \"contracts/DecentralizedLottery.sol\":11156:11158  60 */\n      0x3c\n        /* \"contracts/DecentralizedLottery.sol\":11152:11153  s */\n      dup4\n        /* \"contracts/DecentralizedLottery.sol\":11152:11158  s % 60 */\n      tag_298\n      swap2\n      swap1\n      tag_299\n      jump\t// in\n    tag_298:\n        /* \"contracts/DecentralizedLottery.sol\":11138:11158  uint256 rem = s % 60 */\n      swap1\n      pop\n        /* \"contracts/DecentralizedLottery.sol\":11199:11204  _u(m) */\n      tag_300\n        /* \"contracts/DecentralizedLottery.sol\":11202:11203  m */\n      dup3\n        /* \"contracts/DecentralizedLottery.sol\":11199:11201  _u */\n      tag_301\n        /* \"contracts/DecentralizedLottery.sol\":11199:11204  _u(m) */\n      jump\t// in\n    tag_300:\n        /* \"contracts/DecentralizedLottery.sol\":11215:11222  _u(rem) */\n      tag_302\n        /* \"contracts/DecentralizedLottery.sol\":11218:11221  rem */\n      dup3\n        /* \"contracts/DecentralizedLottery.sol\":11215:11217  _u */\n      tag_301\n        /* \"contracts/DecentralizedLottery.sol\":11215:11222  _u(rem) */\n      jump\t// in\n    tag_302:\n        /* \"contracts/DecentralizedLottery.sol\":11182:11231  abi.encodePacked(_u(m), \" min \", _u(rem), \" sec\") */\n      add(0x20, mload(0x40))\n      tag_303\n      swap3\n      swap2\n      swap1\n      tag_304\n      jump\t// in\n    tag_303:\n      mload(0x40)\n      0x20\n      dup2\n      dup4\n      sub\n      sub\n      dup2\n      mstore\n      swap1\n      0x40\n      mstore\n        /* \"contracts/DecentralizedLottery.sol\":11168:11232  return string(abi.encodePacked(_u(m), \" min \", _u(rem), \" sec\")) */\n      swap4\n      pop\n      pop\n      pop\n      pop\n        /* \"contracts/DecentralizedLottery.sol\":10986:11239  function getTimeRemainingReadable() external view returns (string memory) {... */\n      swap1\n      jump\t// out\n        /* \"contracts/DecentralizedLottery.sol\":11303:11399  function getPlayerCount() external view returns (uint256) {... */\n    tag_141:\n        /* \"contracts/DecentralizedLottery.sol\":11352:11359  uint256 */\n      0x00\n        /* \"contracts/DecentralizedLottery.sol\":11378:11385  players */\n      0x03\n        /* \"contracts/DecentralizedLottery.sol\":11378:11392  players.length */\n      dup1\n      sload\n      swap1\n      pop\n        /* \"contracts/DecentralizedLottery.sol\":11371:11392  return players.length */\n      swap1\n      pop\n        /* \"contracts/DecentralizedLottery.sol\":11303:11399  function getPlayerCount() external view returns (uint256) {... */\n      swap1\n      jump\t// out\n        /* \"contracts/DecentralizedLottery.sol\":10787:10950  function getTimeRemaining() public view returns (uint256) {... */\n    tag_145:\n        /* \"contracts/DecentralizedLottery.sol\":10836:10843  uint256 */\n      0x00\n        /* \"contracts/DecentralizedLottery.sol\":10860:10875  isRoundActive() */\n      tag_307\n        /* \"contracts/DecentralizedLottery.sol\":10860:10873  isRoundActive */\n      tag_74\n        /* \"contracts/DecentralizedLottery.sol\":10860:10875  isRoundActive() */\n      jump\t// in\n    tag_307:\n        /* \"contracts/DecentralizedLottery.sol\":10855:10885  if (!isRoundActive()) return 0 */\n      tag_308\n      jumpi\n        /* \"contracts/DecentralizedLottery.sol\":10884:10885  0 */\n      0x00\n        /* \"contracts/DecentralizedLottery.sol\":10877:10885  return 0 */\n      swap1\n      pop\n      jump(tag_306)\n        /* \"contracts/DecentralizedLottery.sol\":10855:10885  if (!isRoundActive()) return 0 */\n    tag_308:\n        /* \"contracts/DecentralizedLottery.sol\":10917:10932  block.timestamp */\n      timestamp\n        /* \"contracts/DecentralizedLottery.sol\":10902:10914  roundEndTime */\n      sload(0x02)\n        /* \"contracts/DecentralizedLottery.sol\":10902:10932  roundEndTime - block.timestamp */\n      tag_309\n      swap2\n      swap1\n      tag_215\n      jump\t// in\n    tag_309:\n        /* \"contracts/DecentralizedLottery.sol\":10895:10932  return roundEndTime - block.timestamp */\n      swap1\n      pop\n        /* \"contracts/DecentralizedLottery.sol\":10787:10950  function getTimeRemaining() public view returns (uint256) {... */\n    tag_306:\n      swap1\n      jump\t// out\n        /* \"contracts/DecentralizedLottery.sol\":1404:1431  uint256 public roundEndTime */\n    tag_149:\n      sload(0x02)\n      dup2\n      jump\t// out\n        /* \"contracts/DecentralizedLottery.sol\":11818:11924  function getTicketPriceReadable() external pure returns (string memory) {... */\n    tag_153:\n        /* \"contracts/DecentralizedLottery.sol\":11875:11888  string memory */\n      0x60\n        /* \"contracts/DecentralizedLottery.sol\":11900:11917  return \"0.01 ETH\" */\n      mload(0x40)\n      dup1\n      0x40\n      add\n      0x40\n      mstore\n      dup1\n      0x08\n      dup2\n      mstore\n      0x20\n      add\n      0x302e303120455448000000000000000000000000000000000000000000000000\n      dup2\n      mstore\n      pop\n      swap1\n      pop\n        /* \"contracts/DecentralizedLottery.sol\":11818:11924  function getTicketPriceReadable() external pure returns (string memory) {... */\n      swap1\n      jump\t// out\n        /* \"contracts/DecentralizedLottery.sol\":1479:1503  address[] public players */\n    tag_158:\n      0x03\n      dup2\n      dup2\n      sload\n      dup2\n      lt\n      tag_311\n      jumpi\n      0x00\n      dup1\n      revert\n    tag_311:\n      swap1\n      0x00\n      mstore\n      keccak256(0x00, 0x20)\n      add\n      0x00\n      swap2\n      pop\n      sload\n      swap1\n      0x0100\n      exp\n      swap1\n      div\n      0xffffffffffffffffffffffffffffffffffffffff\n      and\n      dup2\n      jump\t// out\n        /* \"contracts/DecentralizedLottery.sol\":7349:7738  function _refundAll() internal returns (uint256 totalRefunded) {... */\n    tag_198:\n        /* \"contracts/DecentralizedLottery.sol\":7389:7410  uint256 totalRefunded */\n      0x00\n        /* \"contracts/DecentralizedLottery.sol\":7422:7433  uint256 len */\n      0x00\n        /* \"contracts/DecentralizedLottery.sol\":7436:7443  players */\n      0x03\n        /* \"contracts/DecentralizedLottery.sol\":7436:7450  players.length */\n      dup1\n      sload\n      swap1\n      pop\n        /* \"contracts/DecentralizedLottery.sol\":7422:7450  uint256 len = players.length */\n      swap1\n      pop\n        /* \"contracts/DecentralizedLottery.sol\":7465:7474  uint256 i */\n      0x00\n        /* \"contracts/DecentralizedLottery.sol\":7477:7478  0 */\n      0x00\n        /* \"contracts/DecentralizedLottery.sol\":7465:7478  uint256 i = 0 */\n      swap1\n      pop\n        /* \"contracts/DecentralizedLottery.sol\":7460:7676  for (uint256 i = 0; i < len; i++) {... */\n    tag_314:\n        /* \"contracts/DecentralizedLottery.sol\":7484:7487  len */\n      dup2\n        /* \"contracts/DecentralizedLottery.sol\":7480:7481  i */\n      dup2\n        /* \"contracts/DecentralizedLottery.sol\":7480:7487  i < len */\n      lt\n        /* \"contracts/DecentralizedLottery.sol\":7460:7676  for (uint256 i = 0; i < len; i++) {... */\n      iszero\n      tag_315\n      jumpi\n        /* \"contracts/DecentralizedLottery.sol\":7509:7516  bool ok */\n      0x00\n        /* \"contracts/DecentralizedLottery.sol\":7530:7537  players */\n      0x03\n        /* \"contracts/DecentralizedLottery.sol\":7538:7539  i */\n      dup3\n        /* \"contracts/DecentralizedLottery.sol\":7530:7540  players[i] */\n      dup2\n      sload\n      dup2\n      lt\n      tag_317\n      jumpi\n      tag_318\n      tag_231\n      jump\t// in\n    tag_318:\n    tag_317:\n      swap1\n      0x00\n      mstore\n      keccak256(0x00, 0x20)\n      add\n      0x00\n      swap1\n      sload\n      swap1\n      0x0100\n      exp\n      swap1\n      div\n      0xffffffffffffffffffffffffffffffffffffffff\n      and\n        /* \"contracts/DecentralizedLottery.sol\":7522:7546  payable(players[i]).call */\n      0xffffffffffffffffffffffffffffffffffffffff\n      and\n        /* \"contracts/DecentralizedLottery.sol\":865:875  0.01 ether */\n      0x2386f26fc10000\n        /* \"contracts/DecentralizedLottery.sol\":7522:7571  payable(players[i]).call{value: TICKET_PRICE}(\"\") */\n      mload(0x40)\n      tag_320\n      swap1\n      tag_238\n      jump\t// in\n    tag_320:\n      0x00\n      mload(0x40)\n      dup1\n      dup4\n      sub\n      dup2\n      dup6\n      dup8\n      gas\n      call\n      swap3\n      pop\n      pop\n      pop\n      returndatasize\n      dup1\n      0x00\n      dup2\n      eq\n      tag_323\n      jumpi\n      mload(0x40)\n      swap2\n      pop\n      and(add(returndatasize, 0x3f), not(0x1f))\n      dup3\n      add\n      0x40\n      mstore\n      returndatasize\n      dup3\n      mstore\n      returndatasize\n      0x00\n      0x20\n      dup5\n      add\n      returndatacopy\n      jump(tag_322)\n    tag_323:\n      0x60\n      swap2\n      pop\n    tag_322:\n      pop\n        /* \"contracts/DecentralizedLottery.sol\":7508:7571  (bool ok, ) = payable(players[i]).call{value: TICKET_PRICE}(\"\") */\n      pop\n      swap1\n      pop\n        /* \"contracts/DecentralizedLottery.sol\":7593:7595  ok */\n      dup1\n        /* \"contracts/DecentralizedLottery.sol\":7585:7622  require(ok, \"Refund transfer failed\") */\n      tag_324\n      jumpi\n      mload(0x40)\n      0x08c379a000000000000000000000000000000000000000000000000000000000\n      dup2\n      mstore\n      0x04\n      add\n      tag_325\n      swap1\n      tag_326\n      jump\t// in\n    tag_325:\n      mload(0x40)\n      dup1\n      swap2\n      sub\n      swap1\n      revert\n    tag_324:\n        /* \"contracts/DecentralizedLottery.sol\":865:875  0.01 ether */\n      0x2386f26fc10000\n        /* \"contracts/DecentralizedLottery.sol\":7636:7665  totalRefunded += TICKET_PRICE */\n      dup5\n      tag_327\n      swap2\n      swap1\n      tag_174\n      jump\t// in\n    tag_327:\n      swap4\n      pop\n        /* \"contracts/DecentralizedLottery.sol\":7494:7676  {... */\n      pop\n        /* \"contracts/DecentralizedLottery.sol\":7489:7492  i++ */\n      dup1\n      dup1\n      0x01\n      add\n      swap2\n      pop\n      pop\n        /* \"contracts/DecentralizedLottery.sol\":7460:7676  for (uint256 i = 0; i < len; i++) {... */\n      jump(tag_314)\n    tag_315:\n      pop\n        /* \"contracts/DecentralizedLottery.sol\":7704:7715  roundNumber */\n      sload(0x01)\n        /* \"contracts/DecentralizedLottery.sol\":7690:7731  RoundRefunded(roundNumber, totalRefunded) */\n      0x799819fa5a51b1d91e60bb39c0fa0c5f3859104dbe9d25b95498ad5a27f1e2db\n        /* \"contracts/DecentralizedLottery.sol\":7717:7730  totalRefunded */\n      dup4\n        /* \"contracts/DecentralizedLottery.sol\":7690:7731  RoundRefunded(roundNumber, totalRefunded) */\n      mload(0x40)\n      tag_328\n      swap2\n      swap1\n      tag_47\n      jump\t// in\n    tag_328:\n      mload(0x40)\n      dup1\n      swap2\n      sub\n      swap1\n      log2\n        /* \"contracts/DecentralizedLottery.sol\":7412:7738  {... */\n      pop\n        /* \"contracts/DecentralizedLottery.sol\":7349:7738  function _refundAll() internal returns (uint256 totalRefunded) {... */\n      swap1\n      jump\t// out\n        /* \"contracts/DecentralizedLottery.sol\":7809:8628  function _archiveRound(... */\n    tag_207:\n        /* \"contracts/DecentralizedLottery.sol\":7979:8002  RoundHistory storage rh */\n      0x00\n        /* \"contracts/DecentralizedLottery.sol\":8005:8012  history */\n      0x0c\n        /* \"contracts/DecentralizedLottery.sol\":8005:8025  history[roundNumber] */\n      0x00\n        /* \"contracts/DecentralizedLottery.sol\":8013:8024  roundNumber */\n      sload(0x01)\n        /* \"contracts/DecentralizedLottery.sol\":8005:8025  history[roundNumber] */\n      dup2\n      mstore\n      0x20\n      add\n      swap1\n      dup2\n      mstore\n      0x20\n      add\n      0x00\n      keccak256\n        /* \"contracts/DecentralizedLottery.sol\":7979:8025  RoundHistory storage rh = history[roundNumber] */\n      swap1\n      pop\n        /* \"contracts/DecentralizedLottery.sol\":8046:8057  roundNumber */\n      sload(0x01)\n        /* \"contracts/DecentralizedLottery.sol\":8035:8037  rh */\n      dup2\n        /* \"contracts/DecentralizedLottery.sol\":8035:8043  rh.round */\n      0x00\n      add\n        /* \"contracts/DecentralizedLottery.sol\":8035:8057  rh.round = roundNumber */\n      dup2\n      swap1\n      sstore\n      pop\n        /* \"contracts/DecentralizedLottery.sol\":8081:8089  refunded */\n      dup5\n        /* \"contracts/DecentralizedLottery.sol\":8067:8069  rh */\n      dup2\n        /* \"contracts/DecentralizedLottery.sol\":8067:8078  rh.refunded */\n      0x01\n      add\n      0x00\n        /* \"contracts/DecentralizedLottery.sol\":8067:8089  rh.refunded = refunded */\n      0x0100\n      exp\n      dup2\n      sload\n      dup2\n      0xff\n      mul\n      not\n      and\n      swap1\n      dup4\n      iszero\n      iszero\n      mul\n      or\n      swap1\n      sstore\n      pop\n        /* \"contracts/DecentralizedLottery.sol\":953:962  5 minutes */\n      0x012c\n        /* \"contracts/DecentralizedLottery.sol\":8114:8126  roundEndTime */\n      sload(0x02)\n        /* \"contracts/DecentralizedLottery.sol\":8114:8143  roundEndTime - ROUND_DURATION */\n      tag_330\n      swap2\n      swap1\n      tag_215\n      jump\t// in\n    tag_330:\n        /* \"contracts/DecentralizedLottery.sol\":8099:8101  rh */\n      dup2\n        /* \"contracts/DecentralizedLottery.sol\":8099:8111  rh.startTime */\n      0x02\n      add\n        /* \"contracts/DecentralizedLottery.sol\":8099:8143  rh.startTime = roundEndTime - ROUND_DURATION */\n      dup2\n      swap1\n      sstore\n      pop\n        /* \"contracts/DecentralizedLottery.sol\":8166:8178  roundEndTime */\n      sload(0x02)\n        /* \"contracts/DecentralizedLottery.sol\":8153:8155  rh */\n      dup2\n        /* \"contracts/DecentralizedLottery.sol\":8153:8163  rh.endTime */\n      0x03\n      add\n        /* \"contracts/DecentralizedLottery.sol\":8153:8178  rh.endTime = roundEndTime */\n      dup2\n      swap1\n      sstore\n      pop\n        /* \"contracts/DecentralizedLottery.sol\":8216:8230  poolOrRefunded */\n      dup4\n        /* \"contracts/DecentralizedLottery.sol\":8188:8190  rh */\n      dup2\n        /* \"contracts/DecentralizedLottery.sol\":8188:8213  rh.prizePoolOrRefundTotal */\n      0x04\n      add\n        /* \"contracts/DecentralizedLottery.sol\":8188:8230  rh.prizePoolOrRefundTotal = poolOrRefunded */\n      dup2\n      swap1\n      sstore\n      pop\n        /* \"contracts/DecentralizedLottery.sol\":8272:8274  rh */\n      dup1\n        /* \"contracts/DecentralizedLottery.sol\":8272:8282  rh.winners */\n      0x05\n      add\n      0x00\n        /* \"contracts/DecentralizedLottery.sol\":8265:8282  delete rh.winners */\n      tag_331\n      swap2\n      swap1\n      tag_223\n      jump\t// in\n    tag_331:\n        /* \"contracts/DecentralizedLottery.sol\":8299:8301  rh */\n      dup1\n        /* \"contracts/DecentralizedLottery.sol\":8299:8308  rh.prizes */\n      0x06\n      add\n      0x00\n        /* \"contracts/DecentralizedLottery.sol\":8292:8308  delete rh.prizes */\n      tag_332\n      swap2\n      swap1\n      tag_225\n      jump\t// in\n    tag_332:\n        /* \"contracts/DecentralizedLottery.sol\":8323:8332  uint256 i */\n      0x00\n        /* \"contracts/DecentralizedLottery.sol\":8335:8336  0 */\n      0x00\n        /* \"contracts/DecentralizedLottery.sol\":8323:8336  uint256 i = 0 */\n      swap1\n      pop\n        /* \"contracts/DecentralizedLottery.sol\":8318:8454  for (uint256 i = 0; i < winners.length; i++) {... */\n    tag_333:\n        /* \"contracts/DecentralizedLottery.sol\":8342:8349  winners */\n      dup4\n        /* \"contracts/DecentralizedLottery.sol\":8342:8356  winners.length */\n      mload\n        /* \"contracts/DecentralizedLottery.sol\":8338:8339  i */\n      dup2\n        /* \"contracts/DecentralizedLottery.sol\":8338:8356  i < winners.length */\n      lt\n        /* \"contracts/DecentralizedLottery.sol\":8318:8454  for (uint256 i = 0; i < winners.length; i++) {... */\n      iszero\n      tag_334\n      jumpi\n        /* \"contracts/DecentralizedLottery.sol\":8377:8379  rh */\n      dup2\n        /* \"contracts/DecentralizedLottery.sol\":8377:8387  rh.winners */\n      0x05\n      add\n        /* \"contracts/DecentralizedLottery.sol\":8393:8400  winners */\n      dup5\n        /* \"contracts/DecentralizedLottery.sol\":8401:8402  i */\n      dup3\n        /* \"contracts/DecentralizedLottery.sol\":8393:8403  winners[i] */\n      dup2\n      mload\n      dup2\n      lt\n      tag_336\n      jumpi\n      tag_337\n      tag_231\n      jump\t// in\n    tag_337:\n    tag_336:\n      0x20\n      mul\n      0x20\n      add\n      add\n      mload\n        /* \"contracts/DecentralizedLottery.sol\":8377:8404  rh.winners.push(winners[i]) */\n      swap1\n      dup1\n      0x01\n      dup2\n      sload\n      add\n      dup1\n      dup3\n      sstore\n      dup1\n      swap2\n      pop\n      pop\n      0x01\n      swap1\n      sub\n      swap1\n      0x00\n      mstore\n      keccak256(0x00, 0x20)\n      add\n      0x00\n      swap1\n      swap2\n      swap1\n      swap2\n      swap1\n      swap2\n      0x0100\n      exp\n      dup2\n      sload\n      dup2\n      0xffffffffffffffffffffffffffffffffffffffff\n      mul\n      not\n      and\n      swap1\n      dup4\n      0xffffffffffffffffffffffffffffffffffffffff\n      and\n      mul\n      or\n      swap1\n      sstore\n      pop\n        /* \"contracts/DecentralizedLottery.sol\":8418:8420  rh */\n      dup2\n        /* \"contracts/DecentralizedLottery.sol\":8418:8427  rh.prizes */\n      0x06\n      add\n        /* \"contracts/DecentralizedLottery.sol\":8433:8439  prizes */\n      dup4\n        /* \"contracts/DecentralizedLottery.sol\":8440:8441  i */\n      dup3\n        /* \"contracts/DecentralizedLottery.sol\":8433:8442  prizes[i] */\n      dup2\n      mload\n      dup2\n      lt\n      tag_339\n      jumpi\n      tag_340\n      tag_231\n      jump\t// in\n    tag_340:\n    tag_339:\n      0x20\n      mul\n      0x20\n      add\n      add\n      mload\n        /* \"contracts/DecentralizedLottery.sol\":8418:8443  rh.prizes.push(prizes[i]) */\n      swap1\n      dup1\n      0x01\n      dup2\n      sload\n      add\n      dup1\n      dup3\n      sstore\n      dup1\n      swap2\n      pop\n      pop\n      0x01\n      swap1\n      sub\n      swap1\n      0x00\n      mstore\n      keccak256(0x00, 0x20)\n      add\n      0x00\n      swap1\n      swap2\n      swap1\n      swap2\n      swap1\n      swap2\n      pop\n      sstore\n        /* \"contracts/DecentralizedLottery.sol\":8358:8361  i++ */\n      dup1\n      dup1\n      0x01\n      add\n      swap2\n      pop\n      pop\n        /* \"contracts/DecentralizedLottery.sol\":8318:8454  for (uint256 i = 0; i < winners.length; i++) {... */\n      jump(tag_333)\n    tag_334:\n      pop\n        /* \"contracts/DecentralizedLottery.sol\":8531:8532  0 */\n      0x00\n        /* \"contracts/DecentralizedLottery.sol\":8516:8528  roundEndTime */\n      0x02\n        /* \"contracts/DecentralizedLottery.sol\":8516:8532  roundEndTime = 0 */\n      dup2\n      swap1\n      sstore\n      pop\n        /* \"contracts/DecentralizedLottery.sol\":8549:8556  players */\n      0x03\n      0x00\n        /* \"contracts/DecentralizedLottery.sol\":8542:8556  delete players */\n      tag_342\n      swap2\n      swap1\n      tag_223\n      jump\t// in\n    tag_342:\n        /* \"contracts/DecentralizedLottery.sol\":7969:8628  {... */\n      pop\n        /* \"contracts/DecentralizedLottery.sol\":7809:8628  function _archiveRound(... */\n      pop\n      pop\n      pop\n      pop\n      jump\t// out\n        /* \"contracts/DecentralizedLottery.sol\":8723:9465  function _pickUniqueWinners(uint256 n) internal returns (address[] memory) {... */\n    tag_219:\n        /* \"contracts/DecentralizedLottery.sol\":8780:8796  address[] memory */\n      0x60\n        /* \"contracts/DecentralizedLottery.sol\":8808:8831  address[] memory result */\n      0x00\n        /* \"contracts/DecentralizedLottery.sol\":8848:8849  n */\n      dup3\n        /* \"contracts/DecentralizedLottery.sol\":8834:8850  new address[](n) */\n      0xffffffffffffffff\n      dup2\n      gt\n      iszero\n      tag_344\n      jumpi\n      tag_345\n      tag_202\n      jump\t// in\n    tag_345:\n    tag_344:\n      mload(0x40)\n      swap1\n      dup1\n      dup3\n      mstore\n      dup1\n      0x20\n      mul\n      0x20\n      add\n      dup3\n      add\n      0x40\n      mstore\n      dup1\n      iszero\n      tag_346\n      jumpi\n      dup2\n      0x20\n      add\n      0x20\n      dup3\n      mul\n      dup1\n      calldatasize\n      dup4\n      calldatacopy\n      dup1\n      dup3\n      add\n      swap2\n      pop\n      pop\n      swap1\n      pop\n    tag_346:\n      pop\n        /* \"contracts/DecentralizedLottery.sol\":8808:8850  address[] memory result = new address[](n) */\n      swap1\n      pop\n        /* \"contracts/DecentralizedLottery.sol\":8860:8876  uint256 selected */\n      0x00\n        /* \"contracts/DecentralizedLottery.sol\":8879:8880  0 */\n      0x00\n        /* \"contracts/DecentralizedLottery.sol\":8860:8880  uint256 selected = 0 */\n      swap1\n      pop\n        /* \"contracts/DecentralizedLottery.sol\":8949:9436  while (selected < n) {... */\n    tag_347:\n        /* \"contracts/DecentralizedLottery.sol\":8967:8968  n */\n      dup4\n        /* \"contracts/DecentralizedLottery.sol\":8956:8964  selected */\n      dup2\n        /* \"contracts/DecentralizedLottery.sol\":8956:8968  selected < n */\n      lt\n        /* \"contracts/DecentralizedLottery.sol\":8949:9436  while (selected < n) {... */\n      iszero\n      tag_348\n      jumpi\n        /* \"contracts/DecentralizedLottery.sol\":8984:8995  uint256 idx */\n      0x00\n        /* \"contracts/DecentralizedLottery.sol\":8998:9021  _random(players.length) */\n      tag_349\n        /* \"contracts/DecentralizedLottery.sol\":9006:9013  players */\n      0x03\n        /* \"contracts/DecentralizedLottery.sol\":9006:9020  players.length */\n      dup1\n      sload\n      swap1\n      pop\n        /* \"contracts/DecentralizedLottery.sol\":8998:9005  _random */\n      tag_350\n        /* \"contracts/DecentralizedLottery.sol\":8998:9021  _random(players.length) */\n      jump\t// in\n    tag_349:\n        /* \"contracts/DecentralizedLottery.sol\":8984:9021  uint256 idx = _random(players.length) */\n      swap1\n      pop\n        /* \"contracts/DecentralizedLottery.sol\":9057:9074  address candidate */\n      0x00\n        /* \"contracts/DecentralizedLottery.sol\":9077:9084  players */\n      0x03\n        /* \"contracts/DecentralizedLottery.sol\":9085:9088  idx */\n      dup3\n        /* \"contracts/DecentralizedLottery.sol\":9077:9089  players[idx] */\n      dup2\n      sload\n      dup2\n      lt\n      tag_351\n      jumpi\n      tag_352\n      tag_231\n      jump\t// in\n    tag_352:\n    tag_351:\n      swap1\n      0x00\n      mstore\n      keccak256(0x00, 0x20)\n      add\n      0x00\n      swap1\n      sload\n      swap1\n      0x0100\n      exp\n      swap1\n      div\n      0xffffffffffffffffffffffffffffffffffffffff\n      and\n        /* \"contracts/DecentralizedLottery.sol\":9057:9089  address candidate = players[idx] */\n      swap1\n      pop\n        /* \"contracts/DecentralizedLottery.sol\":9104:9113  bool seen */\n      0x00\n        /* \"contracts/DecentralizedLottery.sol\":9116:9121  false */\n      0x00\n        /* \"contracts/DecentralizedLottery.sol\":9104:9121  bool seen = false */\n      swap1\n      pop\n        /* \"contracts/DecentralizedLottery.sol\":9140:9149  uint256 k */\n      0x00\n        /* \"contracts/DecentralizedLottery.sol\":9152:9153  0 */\n      0x00\n        /* \"contracts/DecentralizedLottery.sol\":9140:9153  uint256 k = 0 */\n      swap1\n      pop\n        /* \"contracts/DecentralizedLottery.sol\":9135:9313  for (uint256 k = 0; k < selected; k++) {... */\n    tag_354:\n        /* \"contracts/DecentralizedLottery.sol\":9159:9167  selected */\n      dup5\n        /* \"contracts/DecentralizedLottery.sol\":9155:9156  k */\n      dup2\n        /* \"contracts/DecentralizedLottery.sol\":9155:9167  k < selected */\n      lt\n        /* \"contracts/DecentralizedLottery.sol\":9135:9313  for (uint256 k = 0; k < selected; k++) {... */\n      iszero\n      tag_355\n      jumpi\n        /* \"contracts/DecentralizedLottery.sol\":9209:9218  candidate */\n      dup3\n        /* \"contracts/DecentralizedLottery.sol\":9196:9218  result[k] == candidate */\n      0xffffffffffffffffffffffffffffffffffffffff\n      and\n        /* \"contracts/DecentralizedLottery.sol\":9196:9202  result */\n      dup7\n        /* \"contracts/DecentralizedLottery.sol\":9203:9204  k */\n      dup3\n        /* \"contracts/DecentralizedLottery.sol\":9196:9205  result[k] */\n      dup2\n      mload\n      dup2\n      lt\n      tag_357\n      jumpi\n      tag_358\n      tag_231\n      jump\t// in\n    tag_358:\n    tag_357:\n      0x20\n      mul\n      0x20\n      add\n      add\n      mload\n        /* \"contracts/DecentralizedLottery.sol\":9196:9218  result[k] == candidate */\n      0xffffffffffffffffffffffffffffffffffffffff\n      and\n      sub\n        /* \"contracts/DecentralizedLottery.sol\":9192:9299  if (result[k] == candidate) {... */\n      tag_359\n      jumpi\n        /* \"contracts/DecentralizedLottery.sol\":9249:9253  true */\n      0x01\n        /* \"contracts/DecentralizedLottery.sol\":9242:9253  seen = true */\n      swap2\n      pop\n        /* \"contracts/DecentralizedLottery.sol\":9275:9280  break */\n      jump(tag_355)\n        /* \"contracts/DecentralizedLottery.sol\":9192:9299  if (result[k] == candidate) {... */\n    tag_359:\n        /* \"contracts/DecentralizedLottery.sol\":9169:9172  k++ */\n      dup1\n      dup1\n      0x01\n      add\n      swap2\n      pop\n      pop\n        /* \"contracts/DecentralizedLottery.sol\":9135:9313  for (uint256 k = 0; k < selected; k++) {... */\n      jump(tag_354)\n    tag_355:\n      pop\n        /* \"contracts/DecentralizedLottery.sol\":9331:9335  seen */\n      dup1\n        /* \"contracts/DecentralizedLottery.sol\":9326:9426  if (!seen) {... */\n      tag_360\n      jumpi\n        /* \"contracts/DecentralizedLottery.sol\":9374:9383  candidate */\n      dup2\n        /* \"contracts/DecentralizedLottery.sol\":9355:9361  result */\n      dup6\n        /* \"contracts/DecentralizedLottery.sol\":9362:9370  selected */\n      dup6\n        /* \"contracts/DecentralizedLottery.sol\":9355:9371  result[selected] */\n      dup2\n      mload\n      dup2\n      lt\n      tag_361\n      jumpi\n      tag_362\n      tag_231\n      jump\t// in\n    tag_362:\n    tag_361:\n      0x20\n      mul\n      0x20\n      add\n      add\n        /* \"contracts/DecentralizedLottery.sol\":9355:9383  result[selected] = candidate */\n      swap1\n      0xffffffffffffffffffffffffffffffffffffffff\n      and\n      swap1\n      dup2\n      0xffffffffffffffffffffffffffffffffffffffff\n      and\n      dup2\n      mstore\n      pop\n      pop\n        /* \"contracts/DecentralizedLottery.sol\":9401:9411  selected++ */\n      dup4\n      dup1\n      tag_363\n      swap1\n      tag_364\n      jump\t// in\n    tag_363:\n      swap5\n      pop\n      pop\n        /* \"contracts/DecentralizedLottery.sol\":9326:9426  if (!seen) {... */\n    tag_360:\n        /* \"contracts/DecentralizedLottery.sol\":8970:9436  {... */\n      pop\n      pop\n      pop\n        /* \"contracts/DecentralizedLottery.sol\":8949:9436  while (selected < n) {... */\n      jump(tag_347)\n    tag_348:\n        /* \"contracts/DecentralizedLottery.sol\":9452:9458  result */\n      dup2\n        /* \"contracts/DecentralizedLottery.sol\":9445:9458  return result */\n      swap3\n      pop\n      pop\n      pop\n        /* \"contracts/DecentralizedLottery.sol\":8723:9465  function _pickUniqueWinners(uint256 n) internal returns (address[] memory) {... */\n      swap2\n      swap1\n      pop\n      jump\t// out\n        /* \"contracts/DecentralizedLottery.sol\":9533:10162  function _computePrizes(uint256 numWinners, uint256 poolAfterFee)... */\n    tag_221:\n        /* \"contracts/DecentralizedLottery.sol\":9646:9662  uint256[] memory */\n      0x60\n        /* \"contracts/DecentralizedLottery.sol\":9678:9696  uint256[] memory p */\n      0x00\n        /* \"contracts/DecentralizedLottery.sol\":9713:9723  numWinners */\n      dup4\n        /* \"contracts/DecentralizedLottery.sol\":9699:9724  new uint256[](numWinners) */\n      0xffffffffffffffff\n      dup2\n      gt\n      iszero\n      tag_366\n      jumpi\n      tag_367\n      tag_202\n      jump\t// in\n    tag_367:\n    tag_366:\n      mload(0x40)\n      swap1\n      dup1\n      dup3\n      mstore\n      dup1\n      0x20\n      mul\n      0x20\n      add\n      dup3\n      add\n      0x40\n      mstore\n      dup1\n      iszero\n      tag_368\n      jumpi\n      dup2\n      0x20\n      add\n      0x20\n      dup3\n      mul\n      dup1\n      calldatasize\n      dup4\n      calldatacopy\n      dup1\n      dup3\n      add\n      swap2\n      pop\n      pop\n      swap1\n      pop\n    tag_368:\n      pop\n        /* \"contracts/DecentralizedLottery.sol\":9678:9724  uint256[] memory p = new uint256[](numWinners) */\n      swap1\n      pop\n        /* \"contracts/DecentralizedLottery.sol\":9752:9753  1 */\n      0x01\n        /* \"contracts/DecentralizedLottery.sol\":9738:9748  numWinners */\n      dup5\n        /* \"contracts/DecentralizedLottery.sol\":9738:9753  numWinners == 1 */\n      sub\n        /* \"contracts/DecentralizedLottery.sol\":9734:10138  if (numWinners == 1) {... */\n      tag_369\n      jumpi\n        /* \"contracts/DecentralizedLottery.sol\":9776:9788  poolAfterFee */\n      dup3\n        /* \"contracts/DecentralizedLottery.sol\":9769:9770  p */\n      dup2\n        /* \"contracts/DecentralizedLottery.sol\":9771:9772  0 */\n      0x00\n        /* \"contracts/DecentralizedLottery.sol\":9769:9773  p[0] */\n      dup2\n      mload\n      dup2\n      lt\n      tag_370\n      jumpi\n      tag_371\n      tag_231\n      jump\t// in\n    tag_371:\n    tag_370:\n      0x20\n      mul\n      0x20\n      add\n      add\n        /* \"contracts/DecentralizedLottery.sol\":9769:9788  p[0] = poolAfterFee */\n      dup2\n      dup2\n      mstore\n      pop\n      pop\n        /* \"contracts/DecentralizedLottery.sol\":9734:10138  if (numWinners == 1) {... */\n      jump(tag_372)\n    tag_369:\n        /* \"contracts/DecentralizedLottery.sol\":9823:9824  2 */\n      0x02\n        /* \"contracts/DecentralizedLottery.sol\":9809:9819  numWinners */\n      dup5\n        /* \"contracts/DecentralizedLottery.sol\":9809:9824  numWinners == 2 */\n      sub\n        /* \"contracts/DecentralizedLottery.sol\":9805:10138  if (numWinners == 2) {... */\n      tag_373\n      jumpi\n        /* \"contracts/DecentralizedLottery.sol\":9869:9872  100 */\n      0x64\n        /* \"contracts/DecentralizedLottery.sol\":9863:9865  60 */\n      0x3c\n        /* \"contracts/DecentralizedLottery.sol\":9848:9860  poolAfterFee */\n      dup5\n        /* \"contracts/DecentralizedLottery.sol\":9848:9865  poolAfterFee * 60 */\n      tag_374\n      swap2\n      swap1\n      tag_169\n      jump\t// in\n    tag_374:\n        /* \"contracts/DecentralizedLottery.sol\":9847:9872  (poolAfterFee * 60) / 100 */\n      tag_375\n      swap2\n      swap1\n      tag_213\n      jump\t// in\n    tag_375:\n        /* \"contracts/DecentralizedLottery.sol\":9840:9841  p */\n      dup2\n        /* \"contracts/DecentralizedLottery.sol\":9842:9843  0 */\n      0x00\n        /* \"contracts/DecentralizedLottery.sol\":9840:9844  p[0] */\n      dup2\n      mload\n      dup2\n      lt\n      tag_376\n      jumpi\n      tag_377\n      tag_231\n      jump\t// in\n    tag_377:\n    tag_376:\n      0x20\n      mul\n      0x20\n      add\n      add\n        /* \"contracts/DecentralizedLottery.sol\":9840:9872  p[0] = (poolAfterFee * 60) / 100 */\n      dup2\n      dup2\n      mstore\n      pop\n      pop\n        /* \"contracts/DecentralizedLottery.sol\":9908:9909  p */\n      dup1\n        /* \"contracts/DecentralizedLottery.sol\":9910:9911  0 */\n      0x00\n        /* \"contracts/DecentralizedLottery.sol\":9908:9912  p[0] */\n      dup2\n      mload\n      dup2\n      lt\n      tag_378\n      jumpi\n      tag_379\n      tag_231\n      jump\t// in\n    tag_379:\n    tag_378:\n      0x20\n      mul\n      0x20\n      add\n      add\n      mload\n        /* \"contracts/DecentralizedLottery.sol\":9893:9905  poolAfterFee */\n      dup4\n        /* \"contracts/DecentralizedLottery.sol\":9893:9912  poolAfterFee - p[0] */\n      tag_380\n      swap2\n      swap1\n      tag_215\n      jump\t// in\n    tag_380:\n        /* \"contracts/DecentralizedLottery.sol\":9886:9887  p */\n      dup2\n        /* \"contracts/DecentralizedLottery.sol\":9888:9889  1 */\n      0x01\n        /* \"contracts/DecentralizedLottery.sol\":9886:9890  p[1] */\n      dup2\n      mload\n      dup2\n      lt\n      tag_381\n      jumpi\n      tag_382\n      tag_231\n      jump\t// in\n    tag_382:\n    tag_381:\n      0x20\n      mul\n      0x20\n      add\n      add\n        /* \"contracts/DecentralizedLottery.sol\":9886:9912  p[1] = poolAfterFee - p[0] */\n      dup2\n      dup2\n      mstore\n      pop\n      pop\n        /* \"contracts/DecentralizedLottery.sol\":9805:10138  if (numWinners == 2) {... */\n      jump(tag_383)\n    tag_373:\n        /* \"contracts/DecentralizedLottery.sol\":9943:9953  uint256 w0 */\n      0x00\n        /* \"contracts/DecentralizedLottery.sol\":9978:9981  100 */\n      0x64\n        /* \"contracts/DecentralizedLottery.sol\":9972:9974  50 */\n      0x32\n        /* \"contracts/DecentralizedLottery.sol\":9957:9969  poolAfterFee */\n      dup6\n        /* \"contracts/DecentralizedLottery.sol\":9957:9974  poolAfterFee * 50 */\n      tag_384\n      swap2\n      swap1\n      tag_169\n      jump\t// in\n    tag_384:\n        /* \"contracts/DecentralizedLottery.sol\":9956:9981  (poolAfterFee * 50) / 100 */\n      tag_385\n      swap2\n      swap1\n      tag_213\n      jump\t// in\n    tag_385:\n        /* \"contracts/DecentralizedLottery.sol\":9943:9981  uint256 w0 = (poolAfterFee * 50) / 100 */\n      swap1\n      pop\n        /* \"contracts/DecentralizedLottery.sol\":9995:10005  uint256 w1 */\n      0x00\n        /* \"contracts/DecentralizedLottery.sol\":10030:10033  100 */\n      0x64\n        /* \"contracts/DecentralizedLottery.sol\":10024:10026  30 */\n      0x1e\n        /* \"contracts/DecentralizedLottery.sol\":10009:10021  poolAfterFee */\n      dup7\n        /* \"contracts/DecentralizedLottery.sol\":10009:10026  poolAfterFee * 30 */\n      tag_386\n      swap2\n      swap1\n      tag_169\n      jump\t// in\n    tag_386:\n        /* \"contracts/DecentralizedLottery.sol\":10008:10033  (poolAfterFee * 30) / 100 */\n      tag_387\n      swap2\n      swap1\n      tag_213\n      jump\t// in\n    tag_387:\n        /* \"contracts/DecentralizedLottery.sol\":9995:10033  uint256 w1 = (poolAfterFee * 30) / 100 */\n      swap1\n      pop\n        /* \"contracts/DecentralizedLottery.sol\":10047:10057  uint256 w2 */\n      0x00\n        /* \"contracts/DecentralizedLottery.sol\":10080:10082  w1 */\n      dup2\n        /* \"contracts/DecentralizedLottery.sol\":10075:10077  w0 */\n      dup4\n        /* \"contracts/DecentralizedLottery.sol\":10060:10072  poolAfterFee */\n      dup8\n        /* \"contracts/DecentralizedLottery.sol\":10060:10077  poolAfterFee - w0 */\n      tag_388\n      swap2\n      swap1\n      tag_215\n      jump\t// in\n    tag_388:\n        /* \"contracts/DecentralizedLottery.sol\":10060:10082  poolAfterFee - w0 - w1 */\n      tag_389\n      swap2\n      swap1\n      tag_215\n      jump\t// in\n    tag_389:\n        /* \"contracts/DecentralizedLottery.sol\":10047:10082  uint256 w2 = poolAfterFee - w0 - w1 */\n      swap1\n      pop\n        /* \"contracts/DecentralizedLottery.sol\":10103:10105  w0 */\n      dup3\n        /* \"contracts/DecentralizedLottery.sol\":10096:10097  p */\n      dup5\n        /* \"contracts/DecentralizedLottery.sol\":10098:10099  0 */\n      0x00\n        /* \"contracts/DecentralizedLottery.sol\":10096:10100  p[0] */\n      dup2\n      mload\n      dup2\n      lt\n      tag_390\n      jumpi\n      tag_391\n      tag_231\n      jump\t// in\n    tag_391:\n    tag_390:\n      0x20\n      mul\n      0x20\n      add\n      add\n        /* \"contracts/DecentralizedLottery.sol\":10096:10105  p[0] = w0 */\n      dup2\n      dup2\n      mstore\n      pop\n      pop\n        /* \"contracts/DecentralizedLottery.sol\":10114:10116  w1 */\n      dup2\n        /* \"contracts/DecentralizedLottery.sol\":10107:10108  p */\n      dup5\n        /* \"contracts/DecentralizedLottery.sol\":10109:10110  1 */\n      0x01\n        /* \"contracts/DecentralizedLottery.sol\":10107:10111  p[1] */\n      dup2\n      mload\n      dup2\n      lt\n      tag_392\n      jumpi\n      tag_393\n      tag_231\n      jump\t// in\n    tag_393:\n    tag_392:\n      0x20\n      mul\n      0x20\n      add\n      add\n        /* \"contracts/DecentralizedLottery.sol\":10107:10116  p[1] = w1 */\n      dup2\n      dup2\n      mstore\n      pop\n      pop\n        /* \"contracts/DecentralizedLottery.sol\":10125:10127  w2 */\n      dup1\n        /* \"contracts/DecentralizedLottery.sol\":10118:10119  p */\n      dup5\n        /* \"contracts/DecentralizedLottery.sol\":10120:10121  2 */\n      0x02\n        /* \"contracts/DecentralizedLottery.sol\":10118:10122  p[2] */\n      dup2\n      mload\n      dup2\n      lt\n      tag_394\n      jumpi\n      tag_395\n      tag_231\n      jump\t// in\n    tag_395:\n    tag_394:\n      0x20\n      mul\n      0x20\n      add\n      add\n        /* \"contracts/DecentralizedLottery.sol\":10118:10127  p[2] = w2 */\n      dup2\n      dup2\n      mstore\n      pop\n      pop\n        /* \"contracts/DecentralizedLottery.sol\":9929:10138  {... */\n      pop\n      pop\n      pop\n        /* \"contracts/DecentralizedLottery.sol\":9805:10138  if (numWinners == 2) {... */\n    tag_383:\n        /* \"contracts/DecentralizedLottery.sol\":9734:10138  if (numWinners == 1) {... */\n    tag_372:\n        /* \"contracts/DecentralizedLottery.sol\":10154:10155  p */\n      dup1\n        /* \"contracts/DecentralizedLottery.sol\":10147:10155  return p */\n      swap2\n      pop\n      pop\n        /* \"contracts/DecentralizedLottery.sol\":9533:10162  function _computePrizes(uint256 numWinners, uint256 poolAfterFee)... */\n      swap3\n      swap2\n      pop\n      pop\n      jump\t// out\n        /* \"contracts/DecentralizedLottery.sol\":13129:13675  function _formatEth(uint256 weiAmt) internal pure returns (string memory) {... */\n    tag_272:\n        /* \"contracts/DecentralizedLottery.sol\":13188:13201  string memory */\n      0x60\n        /* \"contracts/DecentralizedLottery.sol\":13213:13226  uint256 whole */\n      0x00\n        /* \"contracts/DecentralizedLottery.sol\":13238:13242  1e18 */\n      0x0de0b6b3a7640000\n        /* \"contracts/DecentralizedLottery.sol\":13229:13235  weiAmt */\n      dup4\n        /* \"contracts/DecentralizedLottery.sol\":13229:13242  weiAmt / 1e18 */\n      tag_397\n      swap2\n      swap1\n      tag_213\n      jump\t// in\n    tag_397:\n        /* \"contracts/DecentralizedLottery.sol\":13213:13242  uint256 whole = weiAmt / 1e18 */\n      swap1\n      pop\n        /* \"contracts/DecentralizedLottery.sol\":13252:13264  uint256 frac */\n      0x00\n        /* \"contracts/DecentralizedLottery.sol\":13285:13289  1e14 */\n      0x5af3107a4000\n        /* \"contracts/DecentralizedLottery.sol\":13277:13281  1e18 */\n      0x0de0b6b3a7640000\n        /* \"contracts/DecentralizedLottery.sol\":13268:13274  weiAmt */\n      dup6\n        /* \"contracts/DecentralizedLottery.sol\":13268:13281  weiAmt % 1e18 */\n      tag_398\n      swap2\n      swap1\n      tag_299\n      jump\t// in\n    tag_398:\n        /* \"contracts/DecentralizedLottery.sol\":13267:13289  (weiAmt % 1e18) / 1e14 */\n      tag_399\n      swap2\n      swap1\n      tag_213\n      jump\t// in\n    tag_399:\n        /* \"contracts/DecentralizedLottery.sol\":13252:13289  uint256 frac = (weiAmt % 1e18) / 1e14 */\n      swap1\n      pop\n        /* \"contracts/DecentralizedLottery.sol\":13313:13328  string memory f */\n      0x00\n        /* \"contracts/DecentralizedLottery.sol\":13331:13339  _u(frac) */\n      tag_400\n        /* \"contracts/DecentralizedLottery.sol\":13334:13338  frac */\n      dup3\n        /* \"contracts/DecentralizedLottery.sol\":13331:13333  _u */\n      tag_301\n        /* \"contracts/DecentralizedLottery.sol\":13331:13339  _u(frac) */\n      jump\t// in\n    tag_400:\n        /* \"contracts/DecentralizedLottery.sol\":13313:13339  string memory f = _u(frac) */\n      swap1\n      pop\n        /* \"contracts/DecentralizedLottery.sol\":13404:13405  1 */\n      0x01\n        /* \"contracts/DecentralizedLottery.sol\":13391:13392  f */\n      dup2\n        /* \"contracts/DecentralizedLottery.sol\":13385:13400  bytes(f).length */\n      mload\n        /* \"contracts/DecentralizedLottery.sol\":13385:13405  bytes(f).length == 1 */\n      sub\n        /* \"contracts/DecentralizedLottery.sol\":13381:13600  if (bytes(f).length == 1) f = string(abi.encodePacked(\"000\", f));... */\n      tag_401\n      jumpi\n        /* \"contracts/DecentralizedLottery.sol\":13442:13443  f */\n      dup1\n        /* \"contracts/DecentralizedLottery.sol\":13418:13444  abi.encodePacked(\"000\", f) */\n      add(0x20, mload(0x40))\n      tag_402\n      swap2\n      swap1\n      tag_403\n      jump\t// in\n    tag_402:\n      mload(0x40)\n      0x20\n      dup2\n      dup4\n      sub\n      sub\n      dup2\n      mstore\n      swap1\n      0x40\n      mstore\n        /* \"contracts/DecentralizedLottery.sol\":13407:13445  f = string(abi.encodePacked(\"000\", f)) */\n      swap1\n      pop\n        /* \"contracts/DecentralizedLottery.sol\":13381:13600  if (bytes(f).length == 1) f = string(abi.encodePacked(\"000\", f));... */\n      jump(tag_404)\n    tag_401:\n        /* \"contracts/DecentralizedLottery.sol\":13483:13484  2 */\n      0x02\n        /* \"contracts/DecentralizedLottery.sol\":13470:13471  f */\n      dup2\n        /* \"contracts/DecentralizedLottery.sol\":13464:13479  bytes(f).length */\n      mload\n        /* \"contracts/DecentralizedLottery.sol\":13464:13484  bytes(f).length == 2 */\n      sub\n        /* \"contracts/DecentralizedLottery.sol\":13460:13600  if (bytes(f).length == 2) f = string(abi.encodePacked(\"00\", f));... */\n      tag_405\n      jumpi\n        /* \"contracts/DecentralizedLottery.sol\":13520:13521  f */\n      dup1\n        /* \"contracts/DecentralizedLottery.sol\":13497:13522  abi.encodePacked(\"00\", f) */\n      add(0x20, mload(0x40))\n      tag_406\n      swap2\n      swap1\n      tag_407\n      jump\t// in\n    tag_406:\n      mload(0x40)\n      0x20\n      dup2\n      dup4\n      sub\n      sub\n      dup2\n      mstore\n      swap1\n      0x40\n      mstore\n        /* \"contracts/DecentralizedLottery.sol\":13486:13523  f = string(abi.encodePacked(\"00\", f)) */\n      swap1\n      pop\n        /* \"contracts/DecentralizedLottery.sol\":13460:13600  if (bytes(f).length == 2) f = string(abi.encodePacked(\"00\", f));... */\n      jump(tag_408)\n    tag_405:\n        /* \"contracts/DecentralizedLottery.sol\":13561:13562  3 */\n      0x03\n        /* \"contracts/DecentralizedLottery.sol\":13548:13549  f */\n      dup2\n        /* \"contracts/DecentralizedLottery.sol\":13542:13557  bytes(f).length */\n      mload\n        /* \"contracts/DecentralizedLottery.sol\":13542:13562  bytes(f).length == 3 */\n      sub\n        /* \"contracts/DecentralizedLottery.sol\":13538:13600  if (bytes(f).length == 3) f = string(abi.encodePacked(\"0\", f)) */\n      tag_409\n      jumpi\n        /* \"contracts/DecentralizedLottery.sol\":13597:13598  f */\n      dup1\n        /* \"contracts/DecentralizedLottery.sol\":13575:13599  abi.encodePacked(\"0\", f) */\n      add(0x20, mload(0x40))\n      tag_410\n      swap2\n      swap1\n      tag_411\n      jump\t// in\n    tag_410:\n      mload(0x40)\n      0x20\n      dup2\n      dup4\n      sub\n      sub\n      dup2\n      mstore\n      swap1\n      0x40\n      mstore\n        /* \"contracts/DecentralizedLottery.sol\":13564:13600  f = string(abi.encodePacked(\"0\", f)) */\n      swap1\n      pop\n        /* \"contracts/DecentralizedLottery.sol\":13538:13600  if (bytes(f).length == 3) f = string(abi.encodePacked(\"0\", f)) */\n    tag_409:\n        /* \"contracts/DecentralizedLottery.sol\":13460:13600  if (bytes(f).length == 2) f = string(abi.encodePacked(\"00\", f));... */\n    tag_408:\n        /* \"contracts/DecentralizedLottery.sol\":13381:13600  if (bytes(f).length == 1) f = string(abi.encodePacked(\"000\", f));... */\n    tag_404:\n        /* \"contracts/DecentralizedLottery.sol\":13641:13650  _u(whole) */\n      tag_412\n        /* \"contracts/DecentralizedLottery.sol\":13644:13649  whole */\n      dup4\n        /* \"contracts/DecentralizedLottery.sol\":13641:13643  _u */\n      tag_301\n        /* \"contracts/DecentralizedLottery.sol\":13641:13650  _u(whole) */\n      jump\t// in\n    tag_412:\n        /* \"contracts/DecentralizedLottery.sol\":13657:13658  f */\n      dup2\n        /* \"contracts/DecentralizedLottery.sol\":13624:13667  abi.encodePacked(_u(whole), \".\", f, \" ETH\") */\n      add(0x20, mload(0x40))\n      tag_413\n      swap3\n      swap2\n      swap1\n      tag_414\n      jump\t// in\n    tag_413:\n      mload(0x40)\n      0x20\n      dup2\n      dup4\n      sub\n      sub\n      dup2\n      mstore\n      swap1\n      0x40\n      mstore\n        /* \"contracts/DecentralizedLottery.sol\":13610:13668  return string(abi.encodePacked(_u(whole), \".\", f, \" ETH\")) */\n      swap4\n      pop\n      pop\n      pop\n      pop\n        /* \"contracts/DecentralizedLottery.sol\":13129:13675  function _formatEth(uint256 weiAmt) internal pure returns (string memory) {... */\n      swap2\n      swap1\n      pop\n      jump\t// out\n        /* \"contracts/DecentralizedLottery.sol\":12722:13084  function _u(uint256 v) internal pure returns (string memory) {... */\n    tag_301:\n        /* \"contracts/DecentralizedLottery.sol\":12768:12781  string memory */\n      0x60\n        /* \"contracts/DecentralizedLottery.sol\":12802:12803  0 */\n      0x00\n        /* \"contracts/DecentralizedLottery.sol\":12797:12798  v */\n      dup3\n        /* \"contracts/DecentralizedLottery.sol\":12797:12803  v == 0 */\n      sub\n        /* \"contracts/DecentralizedLottery.sol\":12793:12815  if (v == 0) return \"0\" */\n      tag_416\n      jumpi\n        /* \"contracts/DecentralizedLottery.sol\":12805:12815  return \"0\" */\n      mload(0x40)\n      dup1\n      0x40\n      add\n      0x40\n      mstore\n      dup1\n      0x01\n      dup2\n      mstore\n      0x20\n      add\n      0x3000000000000000000000000000000000000000000000000000000000000000\n      dup2\n      mstore\n      pop\n      swap1\n      pop\n      jump(tag_415)\n        /* \"contracts/DecentralizedLottery.sol\":12793:12815  if (v == 0) return \"0\" */\n    tag_416:\n        /* \"contracts/DecentralizedLottery.sol\":12825:12834  uint256 j */\n      0x00\n        /* \"contracts/DecentralizedLottery.sol\":12837:12838  v */\n      dup3\n        /* \"contracts/DecentralizedLottery.sol\":12825:12838  uint256 j = v */\n      swap1\n      pop\n        /* \"contracts/DecentralizedLottery.sol\":12840:12849  uint256 l */\n      0x00\n        /* \"contracts/DecentralizedLottery.sol\":12859:12891  while (j != 0) { l++; j /= 10; } */\n    tag_417:\n        /* \"contracts/DecentralizedLottery.sol\":12871:12872  0 */\n      0x00\n        /* \"contracts/DecentralizedLottery.sol\":12866:12867  j */\n      dup3\n        /* \"contracts/DecentralizedLottery.sol\":12866:12872  j != 0 */\n      eq\n        /* \"contracts/DecentralizedLottery.sol\":12859:12891  while (j != 0) { l++; j /= 10; } */\n      tag_418\n      jumpi\n        /* \"contracts/DecentralizedLottery.sol\":12876:12879  l++ */\n      dup1\n      dup1\n      tag_419\n      swap1\n      tag_364\n      jump\t// in\n    tag_419:\n      swap2\n      pop\n      pop\n        /* \"contracts/DecentralizedLottery.sol\":12886:12888  10 */\n      0x0a\n        /* \"contracts/DecentralizedLottery.sol\":12881:12888  j /= 10 */\n      dup3\n      tag_420\n      swap2\n      swap1\n      tag_213\n      jump\t// in\n    tag_420:\n      swap2\n      pop\n        /* \"contracts/DecentralizedLottery.sol\":12859:12891  while (j != 0) { l++; j /= 10; } */\n      jump(tag_417)\n    tag_418:\n        /* \"contracts/DecentralizedLottery.sol\":12900:12914  bytes memory b */\n      0x00\n        /* \"contracts/DecentralizedLottery.sol\":12927:12928  l */\n      dup2\n        /* \"contracts/DecentralizedLottery.sol\":12917:12929  new bytes(l) */\n      0xffffffffffffffff\n      dup2\n      gt\n      iszero\n      tag_421\n      jumpi\n      tag_422\n      tag_202\n      jump\t// in\n    tag_422:\n    tag_421:\n      mload(0x40)\n      swap1\n      dup1\n      dup3\n      mstore\n      dup1\n      0x1f\n      add\n      not(0x1f)\n      and\n      0x20\n      add\n      dup3\n      add\n      0x40\n      mstore\n      dup1\n      iszero\n      tag_423\n      jumpi\n      dup2\n      0x20\n      add\n      0x01\n      dup3\n      mul\n      dup1\n      calldatasize\n      dup4\n      calldatacopy\n      dup1\n      dup3\n      add\n      swap2\n      pop\n      pop\n      swap1\n      pop\n    tag_423:\n      pop\n        /* \"contracts/DecentralizedLottery.sol\":12900:12929  bytes memory b = new bytes(l) */\n      swap1\n      pop\n        /* \"contracts/DecentralizedLottery.sol\":12943:12944  v */\n      dup5\n        /* \"contracts/DecentralizedLottery.sol\":12939:12944  j = v */\n      swap3\n      pop\n        /* \"contracts/DecentralizedLottery.sol\":12954:13052  while (j != 0) {... */\n    tag_424:\n        /* \"contracts/DecentralizedLottery.sol\":12966:12967  0 */\n      0x00\n        /* \"contracts/DecentralizedLottery.sol\":12961:12962  j */\n      dup4\n        /* \"contracts/DecentralizedLottery.sol\":12961:12967  j != 0 */\n      eq\n        /* \"contracts/DecentralizedLottery.sol\":12954:13052  while (j != 0) {... */\n      tag_425\n      jumpi\n        /* \"contracts/DecentralizedLottery.sol\":13015:13017  10 */\n      0x0a\n        /* \"contracts/DecentralizedLottery.sol\":13011:13012  j */\n      dup4\n        /* \"contracts/DecentralizedLottery.sol\":13011:13017  j % 10 */\n      tag_426\n      swap2\n      swap1\n      tag_299\n      jump\t// in\n    tag_426:\n        /* \"contracts/DecentralizedLottery.sol\":13005:13007  48 */\n      0x30\n        /* \"contracts/DecentralizedLottery.sol\":13005:13018  48 + (j % 10) */\n      tag_427\n      swap2\n      swap1\n      tag_174\n      jump\t// in\n    tag_427:\n        /* \"contracts/DecentralizedLottery.sol\":12992:13020  bytes1(uint8(48 + (j % 10))) */\n      0xf8\n      shl\n        /* \"contracts/DecentralizedLottery.sol\":12983:12984  b */\n      dup2\n        /* \"contracts/DecentralizedLottery.sol\":12985:12988  --l */\n      dup4\n      tag_428\n      swap1\n      tag_429\n      jump\t// in\n    tag_428:\n      swap4\n      pop\n      dup4\n        /* \"contracts/DecentralizedLottery.sol\":12983:12989  b[--l] */\n      dup2\n      mload\n      dup2\n      lt\n      tag_430\n      jumpi\n      tag_431\n      tag_231\n      jump\t// in\n    tag_431:\n    tag_430:\n      0x20\n      add\n      add\n        /* \"contracts/DecentralizedLottery.sol\":12983:13020  b[--l] = bytes1(uint8(48 + (j % 10))) */\n      swap1\n      not(0xffffffffffffffffffffffffffffffffffffffffffffffffffffffffffffff)\n      and\n      swap1\n      dup2\n      0x00\n      byte\n      swap1\n      mstore8\n      pop\n        /* \"contracts/DecentralizedLottery.sol\":13039:13041  10 */\n      0x0a\n        /* \"contracts/DecentralizedLottery.sol\":13034:13041  j /= 10 */\n      dup4\n      tag_432\n      swap2\n      swap1\n      tag_213\n      jump\t// in\n    tag_432:\n      swap3\n      pop\n        /* \"contracts/DecentralizedLottery.sol\":12954:13052  while (j != 0) {... */\n      jump(tag_424)\n    tag_425:\n        /* \"contracts/DecentralizedLottery.sol\":13075:13076  b */\n      dup1\n        /* \"contracts/DecentralizedLottery.sol\":13061:13077  return string(b) */\n      swap4\n      pop\n      pop\n      pop\n      pop\n        /* \"contracts/DecentralizedLottery.sol\":12722:13084  function _u(uint256 v) internal pure returns (string memory) {... */\n    tag_415:\n      swap2\n      swap1\n      pop\n      jump\t// out\n        /* \"contracts/DecentralizedLottery.sol\":10213:10587  function _random(uint256 maxExclusive) internal returns (uint256) {... */\n    tag_350:\n        /* \"contracts/DecentralizedLottery.sol\":10270:10277  uint256 */\n      0x00\n        /* \"contracts/DecentralizedLottery.sol\":10312:10313  0 */\n      0x00\n        /* \"contracts/DecentralizedLottery.sol\":10297:10309  maxExclusive */\n      dup3\n        /* \"contracts/DecentralizedLottery.sol\":10297:10313  maxExclusive > 0 */\n      gt\n        /* \"contracts/DecentralizedLottery.sol\":10289:10332  require(maxExclusive > 0, \"maxExclusive=0\") */\n      tag_434\n      jumpi\n      mload(0x40)\n      0x08c379a000000000000000000000000000000000000000000000000000000000\n      dup2\n      mstore\n      0x04\n      add\n      tag_435\n      swap1\n      tag_436\n      jump\t// in\n    tag_435:\n      mload(0x40)\n      dup1\n      swap2\n      sub\n      swap1\n      revert\n    tag_434:\n        /* \"contracts/DecentralizedLottery.sol\":10342:10351  uint256 r */\n      0x00\n        /* \"contracts/DecentralizedLottery.sol\":10402:10417  block.timestamp */\n      timestamp\n        /* \"contracts/DecentralizedLottery.sol\":10431:10447  block.prevrandao */\n      prevrandao\n        /* \"contracts/DecentralizedLottery.sol\":10461:10471  msg.sender */\n      caller\n        /* \"contracts/DecentralizedLottery.sol\":10485:10492  players */\n      0x03\n        /* \"contracts/DecentralizedLottery.sol\":10485:10499  players.length */\n      dup1\n      sload\n      swap1\n      pop\n        /* \"contracts/DecentralizedLottery.sol\":10513:10518  nonce */\n      sload(0x07)\n        /* \"contracts/DecentralizedLottery.sol\":10372:10528  abi.encodePacked(... */\n      add(0x20, mload(0x40))\n      tag_437\n      swap6\n      swap5\n      swap4\n      swap3\n      swap2\n      swap1\n      tag_438\n      jump\t// in\n    tag_437:\n      mload(0x40)\n      0x20\n      dup2\n      dup4\n      sub\n      sub\n      dup2\n      mstore\n      swap1\n      0x40\n      mstore\n        /* \"contracts/DecentralizedLottery.sol\":10362:10529  keccak256(abi.encodePacked(... */\n      dup1\n      mload\n      swap1\n      0x20\n      add\n      keccak256\n        /* \"contracts/DecentralizedLottery.sol\":10354:10530  uint256(keccak256(abi.encodePacked(... */\n      0x00\n      shr\n        /* \"contracts/DecentralizedLottery.sol\":10342:10530  uint256 r = uint256(keccak256(abi.encodePacked(... */\n      swap1\n      pop\n        /* \"contracts/DecentralizedLottery.sol\":10540:10545  nonce */\n      0x07\n      0x00\n        /* \"contracts/DecentralizedLottery.sol\":10540:10547  nonce++ */\n      dup2\n      sload\n      dup1\n      swap3\n      swap2\n      swap1\n      tag_439\n      swap1\n      tag_364\n      jump\t// in\n    tag_439:\n      swap2\n      swap1\n      pop\n      sstore\n      pop\n        /* \"contracts/DecentralizedLottery.sol\":10568:10580  maxExclusive */\n      dup3\n        /* \"contracts/DecentralizedLottery.sol\":10564:10565  r */\n      dup2\n        /* \"contracts/DecentralizedLottery.sol\":10564:10580  r % maxExclusive */\n      tag_440\n      swap2\n      swap1\n      tag_299\n      jump\t// in\n    tag_440:\n        /* \"contracts/DecentralizedLottery.sol\":10557:10580  return r % maxExclusive */\n      swap2\n      pop\n      pop\n        /* \"contracts/DecentralizedLottery.sol\":10213:10587  function _random(uint256 maxExclusive) internal returns (uint256) {... */\n      swap2\n      swap1\n      pop\n      jump\t// out\n    tag_223:\n      pop\n      dup1\n      sload\n      0x00\n      dup3\n      sstore\n      swap1\n      0x00\n      mstore\n      keccak256(0x00, 0x20)\n      swap1\n      dup2\n      add\n      swap1\n      tag_442\n      swap2\n      swap1\n      tag_443\n      jump\t// in\n    tag_442:\n      pop\n      jump\t// out\n    tag_225:\n      pop\n      dup1\n      sload\n      0x00\n      dup3\n      sstore\n      swap1\n      0x00\n      mstore\n      keccak256(0x00, 0x20)\n      swap1\n      dup2\n      add\n      swap1\n      tag_445\n      swap2\n      swap1\n      tag_443\n      jump\t// in\n    tag_445:\n      pop\n      jump\t// out\n    tag_443:\n    tag_446:\n      dup1\n      dup3\n      gt\n      iszero\n      tag_447\n      jumpi\n      0x00\n      dup2\n      0x00\n      swap1\n      sstore\n      pop\n      0x01\n      add\n      jump(tag_446)\n    tag_447:\n      pop\n      swap1\n      jump\t// out\n        /* \"#utility.yul\":7:176   */\n    tag_448:\n        /* \"#utility.yul\":91:102   */\n      0x00\n        /* \"#utility.yul\":125:131   */\n      dup3\n        /* \"#utility.yul\":120:123   */\n      dup3\n        /* \"#utility.yul\":113:132   */\n      mstore\n        /* \"#utility.yul\":165:169   */\n      0x20\n        /* \"#utility.yul\":160:163   */\n      dup3\n        /* \"#utility.yul\":156:170   */\n      add\n        /* \"#utility.yul\":141:170   */\n      swap1\n      pop\n        /* \"#utility.yul\":7:176   */\n      swap3\n      swap2\n      pop\n      pop\n      jump\t// out\n        /* \"#utility.yul\":182:354   */\n    tag_449:\n        /* \"#utility.yul\":322:346   */\n      0x44697265637420455448206e6f7420616c6c6f77656400000000000000000000\n        /* \"#utility.yul\":318:319   */\n      0x00\n        /* \"#utility.yul\":310:316   */\n      dup3\n        /* \"#utility.yul\":306:320   */\n      add\n        /* \"#utility.yul\":299:347   */\n      mstore\n        /* \"#utility.yul\":182:354   */\n      pop\n      jump\t// out\n        /* \"#utility.yul\":360:726   */\n    tag_450:\n        /* \"#utility.yul\":502:505   */\n      0x00\n        /* \"#utility.yul\":523:590   */\n      tag_538\n        /* \"#utility.yul\":587:589   */\n      0x16\n        /* \"#utility.yul\":582:585   */\n      dup4\n        /* \"#utility.yul\":523:590   */\n      tag_448\n      jump\t// in\n    tag_538:\n        /* \"#utility.yul\":516:590   */\n      swap2\n      pop\n        /* \"#utility.yul\":599:692   */\n      tag_539\n        /* \"#utility.yul\":688:691   */\n      dup3\n        /* \"#utility.yul\":599:692   */\n      tag_449\n      jump\t// in\n    tag_539:\n        /* \"#utility.yul\":717:719   */\n      0x20\n        /* \"#utility.yul\":712:715   */\n      dup3\n        /* \"#utility.yul\":708:720   */\n      add\n        /* \"#utility.yul\":701:720   */\n      swap1\n      pop\n        /* \"#utility.yul\":360:726   */\n      swap2\n      swap1\n      pop\n      jump\t// out\n        /* \"#utility.yul\":732:1151   */\n    tag_39:\n        /* \"#utility.yul\":898:902   */\n      0x00\n        /* \"#utility.yul\":936:938   */\n      0x20\n        /* \"#utility.yul\":925:934   */\n      dup3\n        /* \"#utility.yul\":921:939   */\n      add\n        /* \"#utility.yul\":913:939   */\n      swap1\n      pop\n        /* \"#utility.yul\":985:994   */\n      dup2\n        /* \"#utility.yul\":979:983   */\n      dup2\n        /* \"#utility.yul\":975:995   */\n      sub\n        /* \"#utility.yul\":971:972   */\n      0x00\n        /* \"#utility.yul\":960:969   */\n      dup4\n        /* \"#utility.yul\":956:973   */\n      add\n        /* \"#utility.yul\":949:996   */\n      mstore\n        /* \"#utility.yul\":1013:1144   */\n      tag_541\n        /* \"#utility.yul\":1139:1143   */\n      dup2\n        /* \"#utility.yul\":1013:1144   */\n      tag_450\n      jump\t// in\n    tag_541:\n        /* \"#utility.yul\":1005:1144   */\n      swap1\n      pop\n        /* \"#utility.yul\":732:1151   */\n      swap2\n      swap1\n      pop\n      jump\t// out\n        /* \"#utility.yul\":1157:1234   */\n    tag_451:\n        /* \"#utility.yul\":1194:1201   */\n      0x00\n        /* \"#utility.yul\":1223:1228   */\n      dup2\n        /* \"#utility.yul\":1212:1228   */\n      swap1\n      pop\n        /* \"#utility.yul\":1157:1234   */\n      swap2\n      swap1\n      pop\n      jump\t// out\n        /* \"#utility.yul\":1240:1358   */\n    tag_452:\n        /* \"#utility.yul\":1327:1351   */\n      tag_544\n        /* \"#utility.yul\":1345:1350   */\n      dup2\n        /* \"#utility.yul\":1327:1351   */\n      tag_451\n      jump\t// in\n    tag_544:\n        /* \"#utility.yul\":1322:1325   */\n      dup3\n        /* \"#utility.yul\":1315:1352   */\n      mstore\n        /* \"#utility.yul\":1240:1358   */\n      pop\n      pop\n      jump\t// out\n        /* \"#utility.yul\":1364:1586   */\n    tag_47:\n        /* \"#utility.yul\":1457:1461   */\n      0x00\n        /* \"#utility.yul\":1495:1497   */\n      0x20\n        /* \"#utility.yul\":1484:1493   */\n      dup3\n        /* \"#utility.yul\":1480:1498   */\n      add\n        /* \"#utility.yul\":1472:1498   */\n      swap1\n      pop\n        /* \"#utility.yul\":1508:1579   */\n      tag_546\n        /* \"#utility.yul\":1576:1577   */\n      0x00\n        /* \"#utility.yul\":1565:1574   */\n      dup4\n        /* \"#utility.yul\":1561:1578   */\n      add\n        /* \"#utility.yul\":1552:1558   */\n      dup5\n        /* \"#utility.yul\":1508:1579   */\n      tag_452\n      jump\t// in\n    tag_546:\n        /* \"#utility.yul\":1364:1586   */\n      swap3\n      swap2\n      pop\n      pop\n      jump\t// out\n        /* \"#utility.yul\":1592:1682   */\n    tag_453:\n        /* \"#utility.yul\":1626:1633   */\n      0x00\n        /* \"#utility.yul\":1669:1674   */\n      dup2\n        /* \"#utility.yul\":1662:1675   */\n      iszero\n        /* \"#utility.yul\":1655:1676   */\n      iszero\n        /* \"#utility.yul\":1644:1676   */\n      swap1\n      pop\n        /* \"#utility.yul\":1592:1682   */\n      swap2\n      swap1\n      pop\n      jump\t// out\n        /* \"#utility.yul\":1688:1797   */\n    tag_454:\n        /* \"#utility.yul\":1769:1790   */\n      tag_549\n        /* \"#utility.yul\":1784:1789   */\n      dup2\n        /* \"#utility.yul\":1769:1790   */\n      tag_453\n      jump\t// in\n    tag_549:\n        /* \"#utility.yul\":1764:1767   */\n      dup3\n        /* \"#utility.yul\":1757:1791   */\n      mstore\n        /* \"#utility.yul\":1688:1797   */\n      pop\n      pop\n      jump\t// out\n        /* \"#utility.yul\":1803:2013   */\n    tag_64:\n        /* \"#utility.yul\":1890:1894   */\n      0x00\n        /* \"#utility.yul\":1928:1930   */\n      0x20\n        /* \"#utility.yul\":1917:1926   */\n      dup3\n        /* \"#utility.yul\":1913:1931   */\n      add\n        /* \"#utility.yul\":1905:1931   */\n      swap1\n      pop\n        /* \"#utility.yul\":1941:2006   */\n      tag_551\n        /* \"#utility.yul\":2003:2004   */\n      0x00\n        /* \"#utility.yul\":1992:2001   */\n      dup4\n        /* \"#utility.yul\":1988:2005   */\n      add\n        /* \"#utility.yul\":1979:1985   */\n      dup5\n        /* \"#utility.yul\":1941:2006   */\n      tag_454\n      jump\t// in\n    tag_551:\n        /* \"#utility.yul\":1803:2013   */\n      swap3\n      swap2\n      pop\n      pop\n      jump\t// out\n        /* \"#utility.yul\":2100:2217   */\n    tag_456:\n        /* \"#utility.yul\":2209:2210   */\n      0x00\n        /* \"#utility.yul\":2206:2207   */\n      0x00\n        /* \"#utility.yul\":2199:2211   */\n      revert\n        /* \"#utility.yul\":2346:2468   */\n    tag_458:\n        /* \"#utility.yul\":2419:2443   */\n      tag_556\n        /* \"#utility.yul\":2437:2442   */\n      dup2\n        /* \"#utility.yul\":2419:2443   */\n      tag_451\n      jump\t// in\n    tag_556:\n        /* \"#utility.yul\":2412:2417   */\n      dup2\n        /* \"#utility.yul\":2409:2444   */\n      eq\n        /* \"#utility.yul\":2399:2462   */\n      tag_557\n      jumpi\n        /* \"#utility.yul\":2458:2459   */\n      0x00\n        /* \"#utility.yul\":2455:2456   */\n      0x00\n        /* \"#utility.yul\":2448:2460   */\n      revert\n        /* \"#utility.yul\":2399:2462   */\n    tag_557:\n        /* \"#utility.yul\":2346:2468   */\n      pop\n      jump\t// out\n        /* \"#utility.yul\":2474:2613   */\n    tag_459:\n        /* \"#utility.yul\":2520:2525   */\n      0x00\n        /* \"#utility.yul\":2558:2564   */\n      dup2\n        /* \"#utility.yul\":2545:2565   */\n      calldataload\n        /* \"#utility.yul\":2536:2565   */\n      swap1\n      pop\n        /* \"#utility.yul\":2574:2607   */\n      tag_559\n        /* \"#utility.yul\":2601:2606   */\n      dup2\n        /* \"#utility.yul\":2574:2607   */\n      tag_458\n      jump\t// in\n    tag_559:\n        /* \"#utility.yul\":2474:2613   */\n      swap3\n      swap2\n      pop\n      pop\n      jump\t// out\n        /* \"#utility.yul\":2619:2948   */\n    tag_67:\n        /* \"#utility.yul\":2678:2684   */\n      0x00\n        /* \"#utility.yul\":2727:2729   */\n      0x20\n        /* \"#utility.yul\":2715:2724   */\n      dup3\n        /* \"#utility.yul\":2706:2713   */\n      dup5\n        /* \"#utility.yul\":2702:2725   */\n      sub\n        /* \"#utility.yul\":2698:2730   */\n      slt\n        /* \"#utility.yul\":2695:2814   */\n      iszero\n      tag_561\n      jumpi\n        /* \"#utility.yul\":2733:2812   */\n      tag_562\n      tag_456\n      jump\t// in\n    tag_562:\n        /* \"#utility.yul\":2695:2814   */\n    tag_561:\n        /* \"#utility.yul\":2853:2854   */\n      0x00\n        /* \"#utility.yul\":2878:2931   */\n      tag_563\n        /* \"#utility.yul\":2923:2930   */\n      dup5\n        /* \"#utility.yul\":2914:2920   */\n      dup3\n        /* \"#utility.yul\":2903:2912   */\n      dup6\n        /* \"#utility.yul\":2899:2921   */\n      add\n        /* \"#utility.yul\":2878:2931   */\n      tag_459\n      jump\t// in\n    tag_563:\n        /* \"#utility.yul\":2868:2931   */\n      swap2\n      pop\n        /* \"#utility.yul\":2824:2941   */\n      pop\n        /* \"#utility.yul\":2619:2948   */\n      swap3\n      swap2\n      pop\n      pop\n      jump\t// out\n        /* \"#utility.yul\":2954:3717   */\n    tag_93:\n        /* \"#utility.yul\":3181:3185   */\n      0x00\n        /* \"#utility.yul\":3219:3222   */\n      0xc0\n        /* \"#utility.yul\":3208:3217   */\n      dup3\n        /* \"#utility.yul\":3204:3223   */\n      add\n        /* \"#utility.yul\":3196:3223   */\n      swap1\n      pop\n        /* \"#utility.yul\":3233:3304   */\n      tag_565\n        /* \"#utility.yul\":3301:3302   */\n      0x00\n        /* \"#utility.yul\":3290:3299   */\n      dup4\n        /* \"#utility.yul\":3286:3303   */\n      add\n        /* \"#utility.yul\":3277:3283   */\n      dup10\n        /* \"#utility.yul\":3233:3304   */\n      tag_452\n      jump\t// in\n    tag_565:\n        /* \"#utility.yul\":3314:3380   */\n      tag_566\n        /* \"#utility.yul\":3376:3378   */\n      0x20\n        /* \"#utility.yul\":3365:3374   */\n      dup4\n        /* \"#utility.yul\":3361:3379   */\n      add\n        /* \"#utility.yul\":3352:3358   */\n      dup9\n        /* \"#utility.yul\":3314:3380   */\n      tag_454\n      jump\t// in\n    tag_566:\n        /* \"#utility.yul\":3390:3462   */\n      tag_567\n        /* \"#utility.yul\":3458:3460   */\n      0x40\n        /* \"#utility.yul\":3447:3456   */\n      dup4\n        /* \"#utility.yul\":3443:3461   */\n      add\n        /* \"#utility.yul\":3434:3440   */\n      dup8\n        /* \"#utility.yul\":3390:3462   */\n      tag_452\n      jump\t// in\n    tag_567:\n        /* \"#utility.yul\":3472:3544   */\n      tag_568\n        /* \"#utility.yul\":3540:3542   */\n      0x60\n        /* \"#utility.yul\":3529:3538   */\n      dup4\n        /* \"#utility.yul\":3525:3543   */\n      add\n        /* \"#utility.yul\":3516:3522   */\n      dup7\n        /* \"#utility.yul\":3472:3544   */\n      tag_452\n      jump\t// in\n    tag_568:\n        /* \"#utility.yul\":3554:3627   */\n      tag_569\n        /* \"#utility.yul\":3622:3625   */\n      0x80\n        /* \"#utility.yul\":3611:3620   */\n      dup4\n        /* \"#utility.yul\":3607:3626   */\n      add\n        /* \"#utility.yul\":3598:3604   */\n      dup6\n        /* \"#utility.yul\":3554:3627   */\n      tag_452\n      jump\t// in\n    tag_569:\n        /* \"#utility.yul\":3637:3710   */\n      tag_570\n        /* \"#utility.yul\":3705:3708   */\n      0xa0\n        /* \"#utility.yul\":3694:3703   */\n      dup4\n        /* \"#utility.yul\":3690:3709   */\n      add\n        /* \"#utility.yul\":3681:3687   */\n      dup5\n        /* \"#utility.yul\":3637:3710   */\n      tag_452\n      jump\t// in\n    tag_570:\n        /* \"#utility.yul\":2954:3717   */\n      swap8\n      swap7\n      pop\n      pop\n      pop\n      pop\n      pop\n      pop\n      pop\n      jump\t// out\n        /* \"#utility.yul\":3723:3822   */\n    tag_460:\n        /* \"#utility.yul\":3775:3781   */\n      0x00\n        /* \"#utility.yul\":3809:3814   */\n      dup2\n        /* \"#utility.yul\":3803:3815   */\n      mload\n        /* \"#utility.yul\":3793:3815   */\n      swap1\n      pop\n        /* \"#utility.yul\":3723:3822   */\n      swap2\n      swap1\n      pop\n      jump\t// out\n        /* \"#utility.yul\":3828:3967   */\n    tag_461:\n        /* \"#utility.yul\":3917:3923   */\n      dup3\n        /* \"#utility.yul\":3912:3915   */\n      dup2\n        /* \"#utility.yul\":3907:3910   */\n      dup4\n        /* \"#utility.yul\":3901:3924   */\n      mcopy\n        /* \"#utility.yul\":3958:3959   */\n      0x00\n        /* \"#utility.yul\":3949:3955   */\n      dup4\n        /* \"#utility.yul\":3944:3947   */\n      dup4\n        /* \"#utility.yul\":3940:3956   */\n      add\n        /* \"#utility.yul\":3933:3960   */\n      mstore\n        /* \"#utility.yul\":3828:3967   */\n      pop\n      pop\n      pop\n      jump\t// out\n        /* \"#utility.yul\":3973:4075   */\n    tag_462:\n        /* \"#utility.yul\":4014:4020   */\n      0x00\n        /* \"#utility.yul\":4065:4067   */\n      0x1f\n        /* \"#utility.yul\":4061:4068   */\n      not\n        /* \"#utility.yul\":4056:4058   */\n      0x1f\n        /* \"#utility.yul\":4049:4054   */\n      dup4\n        /* \"#utility.yul\":4045:4059   */\n      add\n        /* \"#utility.yul\":4041:4069   */\n      and\n        /* \"#utility.yul\":4031:4069   */\n      swap1\n      pop\n        /* \"#utility.yul\":3973:4075   */\n      swap2\n      swap1\n      pop\n      jump\t// out\n        /* \"#utility.yul\":4081:4458   */\n    tag_463:\n        /* \"#utility.yul\":4169:4172   */\n      0x00\n        /* \"#utility.yul\":4197:4236   */\n      tag_575\n        /* \"#utility.yul\":4230:4235   */\n      dup3\n        /* \"#utility.yul\":4197:4236   */\n      tag_460\n      jump\t// in\n    tag_575:\n        /* \"#utility.yul\":4252:4323   */\n      tag_576\n        /* \"#utility.yul\":4316:4322   */\n      dup2\n        /* \"#utility.yul\":4311:4314   */\n      dup6\n        /* \"#utility.yul\":4252:4323   */\n      tag_448\n      jump\t// in\n    tag_576:\n        /* \"#utility.yul\":4245:4323   */\n      swap4\n      pop\n        /* \"#utility.yul\":4332:4397   */\n      tag_577\n        /* \"#utility.yul\":4390:4396   */\n      dup2\n        /* \"#utility.yul\":4385:4388   */\n      dup6\n        /* \"#utility.yul\":4378:4382   */\n      0x20\n        /* \"#utility.yul\":4371:4376   */\n      dup7\n        /* \"#utility.yul\":4367:4383   */\n      add\n        /* \"#utility.yul\":4332:4397   */\n      tag_461\n      jump\t// in\n    tag_577:\n        /* \"#utility.yul\":4422:4451   */\n      tag_578\n        /* \"#utility.yul\":4444:4450   */\n      dup2\n        /* \"#utility.yul\":4422:4451   */\n      tag_462\n      jump\t// in\n    tag_578:\n        /* \"#utility.yul\":4417:4420   */\n      dup5\n        /* \"#utility.yul\":4413:4452   */\n      add\n        /* \"#utility.yul\":4406:4452   */\n      swap2\n      pop\n        /* \"#utility.yul\":4173:4458   */\n      pop\n        /* \"#utility.yul\":4081:4458   */\n      swap3\n      swap2\n      pop\n      pop\n      jump\t// out\n        /* \"#utility.yul\":4464:4777   */\n    tag_102:\n        /* \"#utility.yul\":4577:4581   */\n      0x00\n        /* \"#utility.yul\":4615:4617   */\n      0x20\n        /* \"#utility.yul\":4604:4613   */\n      dup3\n        /* \"#utility.yul\":4600:4618   */\n      add\n        /* \"#utility.yul\":4592:4618   */\n      swap1\n      pop\n        /* \"#utility.yul\":4664:4673   */\n      dup2\n        /* \"#utility.yul\":4658:4662   */\n      dup2\n        /* \"#utility.yul\":4654:4674   */\n      sub\n        /* \"#utility.yul\":4650:4651   */\n      0x00\n        /* \"#utility.yul\":4639:4648   */\n      dup4\n        /* \"#utility.yul\":4635:4652   */\n      add\n        /* \"#utility.yul\":4628:4675   */\n      mstore\n        /* \"#utility.yul\":4692:4770   */\n      tag_580\n        /* \"#utility.yul\":4765:4769   */\n      dup2\n        /* \"#utility.yul\":4756:4762   */\n      dup5\n        /* \"#utility.yul\":4692:4770   */\n      tag_463\n      jump\t// in\n    tag_580:\n        /* \"#utility.yul\":4684:4770   */\n      swap1\n      pop\n        /* \"#utility.yul\":4464:4777   */\n      swap3\n      swap2\n      pop\n      pop\n      jump\t// out\n        /* \"#utility.yul\":4783:4897   */\n    tag_464:\n        /* \"#utility.yul\":4850:4856   */\n      0x00\n        /* \"#utility.yul\":4884:4889   */\n      dup2\n        /* \"#utility.yul\":4878:4890   */\n      mload\n        /* \"#utility.yul\":4868:4890   */\n      swap1\n      pop\n        /* \"#utility.yul\":4783:4897   */\n      swap2\n      swap1\n      pop\n      jump\t// out\n        /* \"#utility.yul\":4903:5087   */\n    tag_465:\n        /* \"#utility.yul\":5002:5013   */\n      0x00\n        /* \"#utility.yul\":5036:5042   */\n      dup3\n        /* \"#utility.yul\":5031:5034   */\n      dup3\n        /* \"#utility.yul\":5024:5043   */\n      mstore\n        /* \"#utility.yul\":5076:5080   */\n      0x20\n        /* \"#utility.yul\":5071:5074   */\n      dup3\n        /* \"#utility.yul\":5067:5081   */\n      add\n        /* \"#utility.yul\":5052:5081   */\n      swap1\n      pop\n        /* \"#utility.yul\":4903:5087   */\n      swap3\n      swap2\n      pop\n      pop\n      jump\t// out\n        /* \"#utility.yul\":5093:5225   */\n    tag_466:\n        /* \"#utility.yul\":5160:5164   */\n      0x00\n        /* \"#utility.yul\":5183:5186   */\n      dup2\n        /* \"#utility.yul\":5175:5186   */\n      swap1\n      pop\n        /* \"#utility.yul\":5213:5217   */\n      0x20\n        /* \"#utility.yul\":5208:5211   */\n      dup3\n        /* \"#utility.yul\":5204:5218   */\n      add\n        /* \"#utility.yul\":5196:5218   */\n      swap1\n      pop\n        /* \"#utility.yul\":5093:5225   */\n      swap2\n      swap1\n      pop\n      jump\t// out\n        /* \"#utility.yul\":5231:5357   */\n    tag_467:\n        /* \"#utility.yul\":5268:5275   */\n      0x00\n        /* \"#utility.yul\":5308:5350   */\n      0xffffffffffffffffffffffffffffffffffffffff\n        /* \"#utility.yul\":5301:5306   */\n      dup3\n        /* \"#utility.yul\":5297:5351   */\n      and\n        /* \"#utility.yul\":5286:5351   */\n      swap1\n      pop\n        /* \"#utility.yul\":5231:5357   */\n      swap2\n      swap1\n      pop\n      jump\t// out\n        /* \"#utility.yul\":5363:5459   */\n    tag_468:\n        /* \"#utility.yul\":5400:5407   */\n      0x00\n        /* \"#utility.yul\":5429:5453   */\n      tag_586\n        /* \"#utility.yul\":5447:5452   */\n      dup3\n        /* \"#utility.yul\":5429:5453   */\n      tag_467\n      jump\t// in\n    tag_586:\n        /* \"#utility.yul\":5418:5453   */\n      swap1\n      pop\n        /* \"#utility.yul\":5363:5459   */\n      swap2\n      swap1\n      pop\n      jump\t// out\n        /* \"#utility.yul\":5465:5573   */\n    tag_469:\n        /* \"#utility.yul\":5542:5566   */\n      tag_588\n        /* \"#utility.yul\":5560:5565   */\n      dup2\n        /* \"#utility.yul\":5542:5566   */\n      tag_468\n      jump\t// in\n    tag_588:\n        /* \"#utility.yul\":5537:5540   */\n      dup3\n        /* \"#utility.yul\":5530:5567   */\n      mstore\n        /* \"#utility.yul\":5465:5573   */\n      pop\n      pop\n      jump\t// out\n        /* \"#utility.yul\":5579:5758   */\n    tag_470:\n        /* \"#utility.yul\":5648:5658   */\n      0x00\n        /* \"#utility.yul\":5669:5715   */\n      tag_590\n        /* \"#utility.yul\":5711:5714   */\n      dup4\n        /* \"#utility.yul\":5703:5709   */\n      dup4\n        /* \"#utility.yul\":5669:5715   */\n      tag_469\n      jump\t// in\n    tag_590:\n        /* \"#utility.yul\":5747:5751   */\n      0x20\n        /* \"#utility.yul\":5742:5745   */\n      dup4\n        /* \"#utility.yul\":5738:5752   */\n      add\n        /* \"#utility.yul\":5724:5752   */\n      swap1\n      pop\n        /* \"#utility.yul\":5579:5758   */\n      swap3\n      swap2\n      pop\n      pop\n      jump\t// out\n        /* \"#utility.yul\":5764:5877   */\n    tag_471:\n        /* \"#utility.yul\":5834:5838   */\n      0x00\n        /* \"#utility.yul\":5866:5870   */\n      0x20\n        /* \"#utility.yul\":5861:5864   */\n      dup3\n        /* \"#utility.yul\":5857:5871   */\n      add\n        /* \"#utility.yul\":5849:5871   */\n      swap1\n      pop\n        /* \"#utility.yul\":5764:5877   */\n      swap2\n      swap1\n      pop\n      jump\t// out\n        /* \"#utility.yul\":5913:6645   */\n    tag_472:\n        /* \"#utility.yul\":6032:6035   */\n      0x00\n        /* \"#utility.yul\":6061:6115   */\n      tag_593\n        /* \"#utility.yul\":6109:6114   */\n      dup3\n        /* \"#utility.yul\":6061:6115   */\n      tag_464\n      jump\t// in\n    tag_593:\n        /* \"#utility.yul\":6131:6217   */\n      tag_594\n        /* \"#utility.yul\":6210:6216   */\n      dup2\n        /* \"#utility.yul\":6205:6208   */\n      dup6\n        /* \"#utility.yul\":6131:6217   */\n      tag_465\n      jump\t// in\n    tag_594:\n        /* \"#utility.yul\":6124:6217   */\n      swap4\n      pop\n        /* \"#utility.yul\":6241:6297   */\n      tag_595\n        /* \"#utility.yul\":6291:6296   */\n      dup4\n        /* \"#utility.yul\":6241:6297   */\n      tag_466\n      jump\t// in\n    tag_595:\n        /* \"#utility.yul\":6320:6327   */\n      dup1\n        /* \"#utility.yul\":6351:6352   */\n      0x00\n        /* \"#utility.yul\":6336:6620   */\n    tag_596:\n        /* \"#utility.yul\":6361:6367   */\n      dup4\n        /* \"#utility.yul\":6358:6359   */\n      dup2\n        /* \"#utility.yul\":6355:6368   */\n      lt\n        /* \"#utility.yul\":6336:6620   */\n      iszero\n      tag_598\n      jumpi\n        /* \"#utility.yul\":6437:6443   */\n      dup2\n        /* \"#utility.yul\":6431:6444   */\n      mload\n        /* \"#utility.yul\":6464:6527   */\n      tag_599\n        /* \"#utility.yul\":6523:6526   */\n      dup9\n        /* \"#utility.yul\":6508:6521   */\n      dup3\n        /* \"#utility.yul\":6464:6527   */\n      tag_470\n      jump\t// in\n    tag_599:\n        /* \"#utility.yul\":6457:6527   */\n      swap8\n      pop\n        /* \"#utility.yul\":6550:6610   */\n      tag_600\n        /* \"#utility.yul\":6603:6609   */\n      dup4\n        /* \"#utility.yul\":6550:6610   */\n      tag_471\n      jump\t// in\n    tag_600:\n        /* \"#utility.yul\":6540:6610   */\n      swap3\n      pop\n        /* \"#utility.yul\":6396:6620   */\n      pop\n        /* \"#utility.yul\":6383:6384   */\n      0x01\n        /* \"#utility.yul\":6380:6381   */\n      dup2\n        /* \"#utility.yul\":6376:6385   */\n      add\n        /* \"#utility.yul\":6371:6385   */\n      swap1\n      pop\n        /* \"#utility.yul\":6336:6620   */\n      jump(tag_596)\n    tag_598:\n        /* \"#utility.yul\":6340:6354   */\n      pop\n        /* \"#utility.yul\":6636:6639   */\n      dup6\n        /* \"#utility.yul\":6629:6639   */\n      swap4\n      pop\n        /* \"#utility.yul\":6037:6645   */\n      pop\n      pop\n      pop\n        /* \"#utility.yul\":5913:6645   */\n      swap3\n      swap2\n      pop\n      pop\n      jump\t// out\n        /* \"#utility.yul\":6651:7024   */\n    tag_111:\n        /* \"#utility.yul\":6794:6798   */\n      0x00\n        /* \"#utility.yul\":6832:6834   */\n      0x20\n        /* \"#utility.yul\":6821:6830   */\n      dup3\n        /* \"#utility.yul\":6817:6835   */\n      add\n        /* \"#utility.yul\":6809:6835   */\n      swap1\n      pop\n        /* \"#utility.yul\":6881:6890   */\n      dup2\n        /* \"#utility.yul\":6875:6879   */\n      dup2\n        /* \"#utility.yul\":6871:6891   */\n      sub\n        /* \"#utility.yul\":6867:6868   */\n      0x00\n        /* \"#utility.yul\":6856:6865   */\n      dup4\n        /* \"#utility.yul\":6852:6869   */\n      add\n        /* \"#utility.yul\":6845:6892   */\n      mstore\n        /* \"#utility.yul\":6909:7017   */\n      tag_602\n        /* \"#utility.yul\":7012:7016   */\n      dup2\n        /* \"#utility.yul\":7003:7009   */\n      dup5\n        /* \"#utility.yul\":6909:7017   */\n      tag_472\n      jump\t// in\n    tag_602:\n        /* \"#utility.yul\":6901:7017   */\n      swap1\n      pop\n        /* \"#utility.yul\":6651:7024   */\n      swap3\n      swap2\n      pop\n      pop\n      jump\t// out\n        /* \"#utility.yul\":7030:7148   */\n    tag_473:\n        /* \"#utility.yul\":7117:7141   */\n      tag_604\n        /* \"#utility.yul\":7135:7140   */\n      dup2\n        /* \"#utility.yul\":7117:7141   */\n      tag_468\n      jump\t// in\n    tag_604:\n        /* \"#utility.yul\":7112:7115   */\n      dup3\n        /* \"#utility.yul\":7105:7142   */\n      mstore\n        /* \"#utility.yul\":7030:7148   */\n      pop\n      pop\n      jump\t// out\n        /* \"#utility.yul\":7154:7376   */\n    tag_116:\n        /* \"#utility.yul\":7247:7251   */\n      0x00\n        /* \"#utility.yul\":7285:7287   */\n      0x20\n        /* \"#utility.yul\":7274:7283   */\n      dup3\n        /* \"#utility.yul\":7270:7288   */\n      add\n        /* \"#utility.yul\":7262:7288   */\n      swap1\n      pop\n        /* \"#utility.yul\":7298:7369   */\n      tag_606\n        /* \"#utility.yul\":7366:7367   */\n      0x00\n        /* \"#utility.yul\":7355:7364   */\n      dup4\n        /* \"#utility.yul\":7351:7368   */\n      add\n        /* \"#utility.yul\":7342:7348   */\n      dup5\n        /* \"#utility.yul\":7298:7369   */\n      tag_473\n      jump\t// in\n    tag_606:\n        /* \"#utility.yul\":7154:7376   */\n      swap3\n      swap2\n      pop\n      pop\n      jump\t// out\n        /* \"#utility.yul\":7382:8034   */\n    tag_126:\n        /* \"#utility.yul\":7581:7585   */\n      0x00\n        /* \"#utility.yul\":7619:7622   */\n      0xa0\n        /* \"#utility.yul\":7608:7617   */\n      dup3\n        /* \"#utility.yul\":7604:7623   */\n      add\n        /* \"#utility.yul\":7596:7623   */\n      swap1\n      pop\n        /* \"#utility.yul\":7633:7704   */\n      tag_608\n        /* \"#utility.yul\":7701:7702   */\n      0x00\n        /* \"#utility.yul\":7690:7699   */\n      dup4\n        /* \"#utility.yul\":7686:7703   */\n      add\n        /* \"#utility.yul\":7677:7683   */\n      dup9\n        /* \"#utility.yul\":7633:7704   */\n      tag_452\n      jump\t// in\n    tag_608:\n        /* \"#utility.yul\":7714:7780   */\n      tag_609\n        /* \"#utility.yul\":7776:7778   */\n      0x20\n        /* \"#utility.yul\":7765:7774   */\n      dup4\n        /* \"#utility.yul\":7761:7779   */\n      add\n        /* \"#utility.yul\":7752:7758   */\n      dup8\n        /* \"#utility.yul\":7714:7780   */\n      tag_454\n      jump\t// in\n    tag_609:\n        /* \"#utility.yul\":7790:7862   */\n      tag_610\n        /* \"#utility.yul\":7858:7860   */\n      0x40\n        /* \"#utility.yul\":7847:7856   */\n      dup4\n        /* \"#utility.yul\":7843:7861   */\n      add\n        /* \"#utility.yul\":7834:7840   */\n      dup7\n        /* \"#utility.yul\":7790:7862   */\n      tag_452\n      jump\t// in\n    tag_610:\n        /* \"#utility.yul\":7872:7944   */\n      tag_611\n        /* \"#utility.yul\":7940:7942   */\n      0x60\n        /* \"#utility.yul\":7929:7938   */\n      dup4\n        /* \"#utility.yul\":7925:7943   */\n      add\n        /* \"#utility.yul\":7916:7922   */\n      dup6\n        /* \"#utility.yul\":7872:7944   */\n      tag_452\n      jump\t// in\n    tag_611:\n        /* \"#utility.yul\":7954:8027   */\n      tag_612\n        /* \"#utility.yul\":8022:8025   */\n      0x80\n        /* \"#utility.yul\":8011:8020   */\n      dup4\n        /* \"#utility.yul\":8007:8026   */\n      add\n        /* \"#utility.yul\":7998:8004   */\n      dup5\n        /* \"#utility.yul\":7954:8027   */\n      tag_452\n      jump\t// in\n    tag_612:\n        /* \"#utility.yul\":7382:8034   */\n      swap7\n      swap6\n      pop\n      pop\n      pop\n      pop\n      pop\n      pop\n      jump\t// out\n        /* \"#utility.yul\":8040:8205   */\n    tag_474:\n        /* \"#utility.yul\":8180:8197   */\n      0x7469636b6574436f756e74203e20300000000000000000000000000000000000\n        /* \"#utility.yul\":8176:8177   */\n      0x00\n        /* \"#utility.yul\":8168:8174   */\n      dup3\n        /* \"#utility.yul\":8164:8178   */\n      add\n        /* \"#utility.yul\":8157:8198   */\n      mstore\n        /* \"#utility.yul\":8040:8205   */\n      pop\n      jump\t// out\n        /* \"#utility.yul\":8211:8577   */\n    tag_475:\n        /* \"#utility.yul\":8353:8356   */\n      0x00\n        /* \"#utility.yul\":8374:8441   */\n      tag_615\n        /* \"#utility.yul\":8438:8440   */\n      0x0f\n        /* \"#utility.yul\":8433:8436   */\n      dup4\n        /* \"#utility.yul\":8374:8441   */\n      tag_448\n      jump\t// in\n    tag_615:\n        /* \"#utility.yul\":8367:8441   */\n      swap2\n      pop\n        /* \"#utility.yul\":8450:8543   */\n      tag_616\n        /* \"#utility.yul\":8539:8542   */\n      dup3\n        /* \"#utility.yul\":8450:8543   */\n      tag_474\n      jump\t// in\n    tag_616:\n        /* \"#utility.yul\":8568:8570   */\n      0x20\n        /* \"#utility.yul\":8563:8566   */\n      dup3\n        /* \"#utility.yul\":8559:8571   */\n      add\n        /* \"#utility.yul\":8552:8571   */\n      swap1\n      pop\n        /* \"#utility.yul\":8211:8577   */\n      swap2\n      swap1\n      pop\n      jump\t// out\n        /* \"#utility.yul\":8583:9002   */\n    tag_163:\n        /* \"#utility.yul\":8749:8753   */\n      0x00\n        /* \"#utility.yul\":8787:8789   */\n      0x20\n        /* \"#utility.yul\":8776:8785   */\n      dup3\n        /* \"#utility.yul\":8772:8790   */\n      add\n        /* \"#utility.yul\":8764:8790   */\n      swap1\n      pop\n        /* \"#utility.yul\":8836:8845   */\n      dup2\n        /* \"#utility.yul\":8830:8834   */\n      dup2\n        /* \"#utility.yul\":8826:8846   */\n      sub\n        /* \"#utility.yul\":8822:8823   */\n      0x00\n        /* \"#utility.yul\":8811:8820   */\n      dup4\n        /* \"#utility.yul\":8807:8824   */\n      add\n        /* \"#utility.yul\":8800:8847   */\n      mstore\n        /* \"#utility.yul\":8864:8995   */\n      tag_618\n        /* \"#utility.yul\":8990:8994   */\n      dup2\n        /* \"#utility.yul\":8864:8995   */\n      tag_475\n      jump\t// in\n    tag_618:\n        /* \"#utility.yul\":8856:8995   */\n      swap1\n      pop\n        /* \"#utility.yul\":8583:9002   */\n      swap2\n      swap1\n      pop\n      jump\t// out\n        /* \"#utility.yul\":9008:9173   */\n    tag_476:\n        /* \"#utility.yul\":9148:9165   */\n      0x4e6f2061637469766520726f756e640000000000000000000000000000000000\n        /* \"#utility.yul\":9144:9145   */\n      0x00\n        /* \"#utility.yul\":9136:9142   */\n      dup3\n        /* \"#utility.yul\":9132:9146   */\n      add\n        /* \"#utility.yul\":9125:9166   */\n      mstore\n        /* \"#utility.yul\":9008:9173   */\n      pop\n      jump\t// out\n        /* \"#utility.yul\":9179:9545   */\n    tag_477:\n        /* \"#utility.yul\":9321:9324   */\n      0x00\n        /* \"#utility.yul\":9342:9409   */\n      tag_621\n        /* \"#utility.yul\":9406:9408   */\n      0x0f\n        /* \"#utility.yul\":9401:9404   */\n      dup4\n        /* \"#utility.yul\":9342:9409   */\n      tag_448\n      jump\t// in\n    tag_621:\n        /* \"#utility.yul\":9335:9409   */\n      swap2\n      pop\n        /* \"#utility.yul\":9418:9511   */\n      tag_622\n        /* \"#utility.yul\":9507:9510   */\n      dup3\n        /* \"#utility.yul\":9418:9511   */\n      tag_476\n      jump\t// in\n    tag_622:\n        /* \"#utility.yul\":9536:9538   */\n      0x20\n        /* \"#utility.yul\":9531:9534   */\n      dup3\n        /* \"#utility.yul\":9527:9539   */\n      add\n        /* \"#utility.yul\":9520:9539   */\n      swap1\n      pop\n        /* \"#utility.yul\":9179:9545   */\n      swap2\n      swap1\n      pop\n      jump\t// out\n        /* \"#utility.yul\":9551:9970   */\n    tag_167:\n        /* \"#utility.yul\":9717:9721   */\n      0x00\n        /* \"#utility.yul\":9755:9757   */\n      0x20\n        /* \"#utility.yul\":9744:9753   */\n      dup3\n        /* \"#utility.yul\":9740:9758   */\n      add\n        /* \"#utility.yul\":9732:9758   */\n      swap1\n      pop\n        /* \"#utility.yul\":9804:9813   */\n      dup2\n        /* \"#utility.yul\":9798:9802   */\n      dup2\n        /* \"#utility.yul\":9794:9814   */\n      sub\n        /* \"#utility.yul\":9790:9791   */\n      0x00\n        /* \"#utility.yul\":9779:9788   */\n      dup4\n        /* \"#utility.yul\":9775:9792   */\n      add\n        /* \"#utility.yul\":9768:9815   */\n      mstore\n        /* \"#utility.yul\":9832:9963   */\n      tag_624\n        /* \"#utility.yul\":9958:9962   */\n      dup2\n        /* \"#utility.yul\":9832:9963   */\n      tag_477\n      jump\t// in\n    tag_624:\n        /* \"#utility.yul\":9824:9963   */\n      swap1\n      pop\n        /* \"#utility.yul\":9551:9970   */\n      swap2\n      swap1\n      pop\n      jump\t// out\n        /* \"#utility.yul\":9976:10156   */\n    tag_478:\n        /* \"#utility.yul\":10024:10101   */\n      0x4e487b7100000000000000000000000000000000000000000000000000000000\n        /* \"#utility.yul\":10021:10022   */\n      0x00\n        /* \"#utility.yul\":10014:10102   */\n      mstore\n        /* \"#utility.yul\":10121:10125   */\n      0x11\n        /* \"#utility.yul\":10118:10119   */\n      0x04\n        /* \"#utility.yul\":10111:10126   */\n      mstore\n        /* \"#utility.yul\":10145:10149   */\n      0x24\n        /* \"#utility.yul\":10142:10143   */\n      0x00\n        /* \"#utility.yul\":10135:10150   */\n      revert\n        /* \"#utility.yul\":10162:10572   */\n    tag_169:\n        /* \"#utility.yul\":10202:10209   */\n      0x00\n        /* \"#utility.yul\":10225:10245   */\n      tag_627\n        /* \"#utility.yul\":10243:10244   */\n      dup3\n        /* \"#utility.yul\":10225:10245   */\n      tag_451\n      jump\t// in\n    tag_627:\n        /* \"#utility.yul\":10220:10245   */\n      swap2\n      pop\n        /* \"#utility.yul\":10259:10279   */\n      tag_628\n        /* \"#utility.yul\":10277:10278   */\n      dup4\n        /* \"#utility.yul\":10259:10279   */\n      tag_451\n      jump\t// in\n    tag_628:\n        /* \"#utility.yul\":10254:10279   */\n      swap3\n      pop\n        /* \"#utility.yul\":10314:10315   */\n      dup3\n        /* \"#utility.yul\":10311:10312   */\n      dup3\n        /* \"#utility.yul\":10307:10316   */\n      mul\n        /* \"#utility.yul\":10336:10366   */\n      tag_629\n        /* \"#utility.yul\":10354:10365   */\n      dup2\n        /* \"#utility.yul\":10336:10366   */\n      tag_451\n      jump\t// in\n    tag_629:\n        /* \"#utility.yul\":10325:10366   */\n      swap2\n      pop\n        /* \"#utility.yul\":10515:10516   */\n      dup3\n        /* \"#utility.yul\":10506:10513   */\n      dup3\n        /* \"#utility.yul\":10502:10517   */\n      div\n        /* \"#utility.yul\":10499:10500   */\n      dup5\n        /* \"#utility.yul\":10496:10518   */\n      eq\n        /* \"#utility.yul\":10476:10477   */\n      dup4\n        /* \"#utility.yul\":10469:10478   */\n      iszero\n        /* \"#utility.yul\":10449:10532   */\n      or\n        /* \"#utility.yul\":10426:10565   */\n      tag_630\n      jumpi\n        /* \"#utility.yul\":10545:10563   */\n      tag_631\n      tag_478\n      jump\t// in\n    tag_631:\n        /* \"#utility.yul\":10426:10565   */\n    tag_630:\n        /* \"#utility.yul\":10210:10572   */\n      pop\n        /* \"#utility.yul\":10162:10572   */\n      swap3\n      swap2\n      pop\n      pop\n      jump\t// out\n        /* \"#utility.yul\":10578:10741   */\n    tag_479:\n        /* \"#utility.yul\":10718:10733   */\n      0x496e636f72726563742045544800000000000000000000000000000000000000\n        /* \"#utility.yul\":10714:10715   */\n      0x00\n        /* \"#utility.yul\":10706:10712   */\n      dup3\n        /* \"#utility.yul\":10702:10716   */\n      add\n        /* \"#utility.yul\":10695:10734   */\n      mstore\n        /* \"#utility.yul\":10578:10741   */\n      pop\n      jump\t// out\n        /* \"#utility.yul\":10747:11113   */\n    tag_480:\n        /* \"#utility.yul\":10889:10892   */\n      0x00\n        /* \"#utility.yul\":10910:10977   */\n      tag_634\n        /* \"#utility.yul\":10974:10976   */\n      0x0d\n        /* \"#utility.yul\":10969:10972   */\n      dup4\n        /* \"#utility.yul\":10910:10977   */\n      tag_448\n      jump\t// in\n    tag_634:\n        /* \"#utility.yul\":10903:10977   */\n      swap2\n      pop\n        /* \"#utility.yul\":10986:11079   */\n      tag_635\n        /* \"#utility.yul\":11075:11078   */\n      dup3\n        /* \"#utility.yul\":10986:11079   */\n      tag_479\n      jump\t// in\n    tag_635:\n        /* \"#utility.yul\":11104:11106   */\n      0x20\n        /* \"#utility.yul\":11099:11102   */\n      dup3\n        /* \"#utility.yul\":11095:11107   */\n      add\n        /* \"#utility.yul\":11088:11107   */\n      swap1\n      pop\n        /* \"#utility.yul\":10747:11113   */\n      swap2\n      swap1\n      pop\n      jump\t// out\n        /* \"#utility.yul\":11119:11538   */\n    tag_172:\n        /* \"#utility.yul\":11285:11289   */\n      0x00\n        /* \"#utility.yul\":11323:11325   */\n      0x20\n        /* \"#utility.yul\":11312:11321   */\n      dup3\n        /* \"#utility.yul\":11308:11326   */\n      add\n        /* \"#utility.yul\":11300:11326   */\n      swap1\n      pop\n        /* \"#utility.yul\":11372:11381   */\n      dup2\n        /* \"#utility.yul\":11366:11370   */\n      dup2\n        /* \"#utility.yul\":11362:11382   */\n      sub\n        /* \"#utility.yul\":11358:11359   */\n      0x00\n        /* \"#utility.yul\":11347:11356   */\n      dup4\n        /* \"#utility.yul\":11343:11360   */\n      add\n        /* \"#utility.yul\":11336:11383   */\n      mstore\n        /* \"#utility.yul\":11400:11531   */\n      tag_637\n        /* \"#utility.yul\":11526:11530   */\n      dup2\n        /* \"#utility.yul\":11400:11531   */\n      tag_480\n      jump\t// in\n    tag_637:\n        /* \"#utility.yul\":11392:11531   */\n      swap1\n      pop\n        /* \"#utility.yul\":11119:11538   */\n      swap2\n      swap1\n      pop\n      jump\t// out\n        /* \"#utility.yul\":11544:11735   */\n    tag_174:\n        /* \"#utility.yul\":11584:11587   */\n      0x00\n        /* \"#utility.yul\":11603:11623   */\n      tag_639\n        /* \"#utility.yul\":11621:11622   */\n      dup3\n        /* \"#utility.yul\":11603:11623   */\n      tag_451\n      jump\t// in\n    tag_639:\n        /* \"#utility.yul\":11598:11623   */\n      swap2\n      pop\n        /* \"#utility.yul\":11637:11657   */\n      tag_640\n        /* \"#utility.yul\":11655:11656   */\n      dup4\n        /* \"#utility.yul\":11637:11657   */\n      tag_451\n      jump\t// in\n    tag_640:\n        /* \"#utility.yul\":11632:11657   */\n      swap3\n      pop\n        /* \"#utility.yul\":11680:11681   */\n      dup3\n        /* \"#utility.yul\":11677:11678   */\n      dup3\n        /* \"#utility.yul\":11673:11682   */\n      add\n        /* \"#utility.yul\":11666:11682   */\n      swap1\n      pop\n        /* \"#utility.yul\":11701:11704   */\n      dup1\n        /* \"#utility.yul\":11698:11699   */\n      dup3\n        /* \"#utility.yul\":11695:11705   */\n      gt\n        /* \"#utility.yul\":11692:11728   */\n      iszero\n      tag_641\n      jumpi\n        /* \"#utility.yul\":11708:11726   */\n      tag_642\n      tag_478\n      jump\t// in\n    tag_642:\n        /* \"#utility.yul\":11692:11728   */\n    tag_641:\n        /* \"#utility.yul\":11544:11735   */\n      swap3\n      swap2\n      pop\n      pop\n      jump\t// out\n        /* \"#utility.yul\":11741:11916   */\n    tag_481:\n        /* \"#utility.yul\":11881:11908   */\n      0x45786365656473207065722d61646472657373206c696d697400000000000000\n        /* \"#utility.yul\":11877:11878   */\n      0x00\n        /* \"#utility.yul\":11869:11875   */\n      dup3\n        /* \"#utility.yul\":11865:11879   */\n      add\n        /* \"#utility.yul\":11858:11909   */\n      mstore\n        /* \"#utility.yul\":11741:11916   */\n      pop\n      jump\t// out\n        /* \"#utility.yul\":11922:12288   */\n    tag_482:\n        /* \"#utility.yul\":12064:12067   */\n      0x00\n        /* \"#utility.yul\":12085:12152   */\n      tag_645\n        /* \"#utility.yul\":12149:12151   */\n      0x19\n        /* \"#utility.yul\":12144:12147   */\n      dup4\n        /* \"#utility.yul\":12085:12152   */\n      tag_448\n      jump\t// in\n    tag_645:\n        /* \"#utility.yul\":12078:12152   */\n      swap2\n      pop\n        /* \"#utility.yul\":12161:12254   */\n      tag_646\n        /* \"#utility.yul\":12250:12253   */\n      dup3\n        /* \"#utility.yul\":12161:12254   */\n      tag_481\n      jump\t// in\n    tag_646:\n        /* \"#utility.yul\":12279:12281   */\n      0x20\n        /* \"#utility.yul\":12274:12277   */\n      dup3\n        /* \"#utility.yul\":12270:12282   */\n      add\n        /* \"#utility.yul\":12263:12282   */\n      swap1\n      pop\n        /* \"#utility.yul\":11922:12288   */\n      swap2\n      swap1\n      pop\n      jump\t// out\n        /* \"#utility.yul\":12294:12713   */\n    tag_177:\n        /* \"#utility.yul\":12460:12464   */\n      0x00\n        /* \"#utility.yul\":12498:12500   */\n      0x20\n        /* \"#utility.yul\":12487:12496   */\n      dup3\n        /* \"#utility.yul\":12483:12501   */\n      add\n        /* \"#utility.yul\":12475:12501   */\n      swap1\n      pop\n        /* \"#utility.yul\":12547:12556   */\n      dup2\n        /* \"#utility.yul\":12541:12545   */\n      dup2\n        /* \"#utility.yul\":12537:12557   */\n      sub\n        /* \"#utility.yul\":12533:12534   */\n      0x00\n        /* \"#utility.yul\":12522:12531   */\n      dup4\n        /* \"#utility.yul\":12518:12535   */\n      add\n        /* \"#utility.yul\":12511:12558   */\n      mstore\n        /* \"#utility.yul\":12575:12706   */\n      tag_648\n        /* \"#utility.yul\":12701:12705   */\n      dup2\n        /* \"#utility.yul\":12575:12706   */\n      tag_482\n      jump\t// in\n    tag_648:\n        /* \"#utility.yul\":12567:12706   */\n      swap1\n      pop\n        /* \"#utility.yul\":12294:12713   */\n      swap2\n      swap1\n      pop\n      jump\t// out\n        /* \"#utility.yul\":12719:12879   */\n    tag_483:\n        /* \"#utility.yul\":12859:12871   */\n      0x5265656e7472616e637900000000000000000000000000000000000000000000\n        /* \"#utility.yul\":12855:12856   */\n      0x00\n        /* \"#utility.yul\":12847:12853   */\n      dup3\n        /* \"#utility.yul\":12843:12857   */\n      add\n        /* \"#utility.yul\":12836:12872   */\n      mstore\n        /* \"#utility.yul\":12719:12879   */\n      pop\n      jump\t// out\n        /* \"#utility.yul\":12885:13251   */\n    tag_484:\n        /* \"#utility.yul\":13027:13030   */\n      0x00\n        /* \"#utility.yul\":13048:13115   */\n      tag_651\n        /* \"#utility.yul\":13112:13114   */\n      0x0a\n        /* \"#utility.yul\":13107:13110   */\n      dup4\n        /* \"#utility.yul\":13048:13115   */\n      tag_448\n      jump\t// in\n    tag_651:\n        /* \"#utility.yul\":13041:13115   */\n      swap2\n      pop\n        /* \"#utility.yul\":13124:13217   */\n      tag_652\n        /* \"#utility.yul\":13213:13216   */\n      dup3\n        /* \"#utility.yul\":13124:13217   */\n      tag_483\n      jump\t// in\n    tag_652:\n        /* \"#utility.yul\":13242:13244   */\n      0x20\n        /* \"#utility.yul\":13237:13240   */\n      dup3\n        /* \"#utility.yul\":13233:13245   */\n      add\n        /* \"#utility.yul\":13226:13245   */\n      swap1\n      pop\n        /* \"#utility.yul\":12885:13251   */\n      swap2\n      swap1\n      pop\n      jump\t// out\n        /* \"#utility.yul\":13257:13676   */\n    tag_189:\n        /* \"#utility.yul\":13423:13427   */\n      0x00\n        /* \"#utility.yul\":13461:13463   */\n      0x20\n        /* \"#utility.yul\":13450:13459   */\n      dup3\n        /* \"#utility.yul\":13446:13464   */\n      add\n        /* \"#utility.yul\":13438:13464   */\n      swap1\n      pop\n        /* \"#utility.yul\":13510:13519   */\n      dup2\n        /* \"#utility.yul\":13504:13508   */\n      dup2\n        /* \"#utility.yul\":13500:13520   */\n      sub\n        /* \"#utility.yul\":13496:13497   */\n      0x00\n        /* \"#utility.yul\":13485:13494   */\n      dup4\n        /* \"#utility.yul\":13481:13498   */\n      add\n        /* \"#utility.yul\":13474:13521   */\n      mstore\n        /* \"#utility.yul\":13538:13669   */\n      tag_654\n        /* \"#utility.yul\":13664:13668   */\n      dup2\n        /* \"#utility.yul\":13538:13669   */\n      tag_484\n      jump\t// in\n    tag_654:\n        /* \"#utility.yul\":13530:13669   */\n      swap1\n      pop\n        /* \"#utility.yul\":13257:13676   */\n      swap2\n      swap1\n      pop\n      jump\t// out\n        /* \"#utility.yul\":13682:13847   */\n    tag_485:\n        /* \"#utility.yul\":13822:13839   */\n      0x526f756e64206e6f7420656e6465640000000000000000000000000000000000\n        /* \"#utility.yul\":13818:13819   */\n      0x00\n        /* \"#utility.yul\":13810:13816   */\n      dup3\n        /* \"#utility.yul\":13806:13820   */\n      add\n        /* \"#utility.yul\":13799:13840   */\n      mstore\n        /* \"#utility.yul\":13682:13847   */\n      pop\n      jump\t// out\n        /* \"#utility.yul\":13853:14219   */\n    tag_486:\n        /* \"#utility.yul\":13995:13998   */\n      0x00\n        /* \"#utility.yul\":14016:14083   */\n      tag_657\n        /* \"#utility.yul\":14080:14082   */\n      0x0f\n        /* \"#utility.yul\":14075:14078   */\n      dup4\n        /* \"#utility.yul\":14016:14083   */\n      tag_448\n      jump\t// in\n    tag_657:\n        /* \"#utility.yul\":14009:14083   */\n      swap2\n      pop\n        /* \"#utility.yul\":14092:14185   */\n      tag_658\n        /* \"#utility.yul\":14181:14184   */\n      dup3\n        /* \"#utility.yul\":14092:14185   */\n      tag_485\n      jump\t// in\n    tag_658:\n        /* \"#utility.yul\":14210:14212   */\n      0x20\n        /* \"#utility.yul\":14205:14208   */\n      dup3\n        /* \"#utility.yul\":14201:14213   */\n      add\n        /* \"#utility.yul\":14194:14213   */\n      swap1\n      pop\n        /* \"#utility.yul\":13853:14219   */\n      swap2\n      swap1\n      pop\n      jump\t// out\n        /* \"#utility.yul\":14225:14644   */\n    tag_195:\n        /* \"#utility.yul\":14391:14395   */\n      0x00\n        /* \"#utility.yul\":14429:14431   */\n      0x20\n        /* \"#utility.yul\":14418:14427   */\n      dup3\n        /* \"#utility.yul\":14414:14432   */\n      add\n        /* \"#utility.yul\":14406:14432   */\n      swap1\n      pop\n        /* \"#utility.yul\":14478:14487   */\n      dup2\n        /* \"#utility.yul\":14472:14476   */\n      dup2\n        /* \"#utility.yul\":14468:14488   */\n      sub\n        /* \"#utility.yul\":14464:14465   */\n      0x00\n        /* \"#utility.yul\":14453:14462   */\n      dup4\n        /* \"#utility.yul\":14449:14466   */\n      add\n        /* \"#utility.yul\":14442:14489   */\n      mstore\n        /* \"#utility.yul\":14506:14637   */\n      tag_660\n        /* \"#utility.yul\":14632:14636   */\n      dup2\n        /* \"#utility.yul\":14506:14637   */\n      tag_486\n      jump\t// in\n    tag_660:\n        /* \"#utility.yul\":14498:14637   */\n      swap1\n      pop\n        /* \"#utility.yul\":14225:14644   */\n      swap2\n      swap1\n      pop\n      jump\t// out\n        /* \"#utility.yul\":14650:14830   */\n    tag_202:\n        /* \"#utility.yul\":14698:14775   */\n      0x4e487b7100000000000000000000000000000000000000000000000000000000\n        /* \"#utility.yul\":14695:14696   */\n      0x00\n        /* \"#utility.yul\":14688:14776   */\n      mstore\n        /* \"#utility.yul\":14795:14799   */\n      0x41\n        /* \"#utility.yul\":14792:14793   */\n      0x04\n        /* \"#utility.yul\":14785:14800   */\n      mstore\n        /* \"#utility.yul\":14819:14823   */\n      0x24\n        /* \"#utility.yul\":14816:14817   */\n      0x00\n        /* \"#utility.yul\":14809:14824   */\n      revert\n        /* \"#utility.yul\":14836:14996   */\n    tag_487:\n        /* \"#utility.yul\":14976:14988   */\n      0x4e6f20656e747269657300000000000000000000000000000000000000000000\n        /* \"#utility.yul\":14972:14973   */\n      0x00\n        /* \"#utility.yul\":14964:14970   */\n      dup3\n        /* \"#utility.yul\":14960:14974   */\n      add\n        /* \"#utility.yul\":14953:14989   */\n      mstore\n        /* \"#utility.yul\":14836:14996   */\n      pop\n      jump\t// out\n        /* \"#utility.yul\":15002:15368   */\n    tag_488:\n        /* \"#utility.yul\":15144:15147   */\n      0x00\n        /* \"#utility.yul\":15165:15232   */\n      tag_664\n        /* \"#utility.yul\":15229:15231   */\n      0x0a\n        /* \"#utility.yul\":15224:15227   */\n      dup4\n        /* \"#utility.yul\":15165:15232   */\n      tag_448\n      jump\t// in\n    tag_664:\n        /* \"#utility.yul\":15158:15232   */\n      swap2\n      pop\n        /* \"#utility.yul\":15241:15334   */\n      tag_665\n        /* \"#utility.yul\":15330:15333   */\n      dup3\n        /* \"#utility.yul\":15241:15334   */\n      tag_487\n      jump\t// in\n    tag_665:\n        /* \"#utility.yul\":15359:15361   */\n      0x20\n        /* \"#utility.yul\":15354:15357   */\n      dup3\n        /* \"#utility.yul\":15350:15362   */\n      add\n        /* \"#utility.yul\":15343:15362   */\n      swap1\n      pop\n        /* \"#utility.yul\":15002:15368   */\n      swap2\n      swap1\n      pop\n      jump\t// out\n        /* \"#utility.yul\":15374:15793   */\n    tag_210:\n        /* \"#utility.yul\":15540:15544   */\n      0x00\n        /* \"#utility.yul\":15578:15580   */\n      0x20\n        /* \"#utility.yul\":15567:15576   */\n      dup3\n        /* \"#utility.yul\":15563:15581   */\n      add\n        /* \"#utility.yul\":15555:15581   */\n      swap1\n      pop\n        /* \"#utility.yul\":15627:15636   */\n      dup2\n        /* \"#utility.yul\":15621:15625   */\n      dup2\n        /* \"#utility.yul\":15617:15637   */\n      sub\n        /* \"#utility.yul\":15613:15614   */\n      0x00\n        /* \"#utility.yul\":15602:15611   */\n      dup4\n        /* \"#utility.yul\":15598:15615   */\n      add\n        /* \"#utility.yul\":15591:15638   */\n      mstore\n        /* \"#utility.yul\":15655:15786   */\n      tag_667\n        /* \"#utility.yul\":15781:15785   */\n      dup2\n        /* \"#utility.yul\":15655:15786   */\n      tag_488\n      jump\t// in\n    tag_667:\n        /* \"#utility.yul\":15647:15786   */\n      swap1\n      pop\n        /* \"#utility.yul\":15374:15793   */\n      swap2\n      swap1\n      pop\n      jump\t// out\n        /* \"#utility.yul\":15799:15979   */\n    tag_489:\n        /* \"#utility.yul\":15847:15924   */\n      0x4e487b7100000000000000000000000000000000000000000000000000000000\n        /* \"#utility.yul\":15844:15845   */\n      0x00\n        /* \"#utility.yul\":15837:15925   */\n      mstore\n        /* \"#utility.yul\":15944:15948   */\n      0x12\n        /* \"#utility.yul\":15941:15942   */\n      0x04\n        /* \"#utility.yul\":15934:15949   */\n      mstore\n        /* \"#utility.yul\":15968:15972   */\n      0x24\n        /* \"#utility.yul\":15965:15966   */\n      0x00\n        /* \"#utility.yul\":15958:15973   */\n      revert\n        /* \"#utility.yul\":15985:16170   */\n    tag_213:\n        /* \"#utility.yul\":16025:16026   */\n      0x00\n        /* \"#utility.yul\":16042:16062   */\n      tag_670\n        /* \"#utility.yul\":16060:16061   */\n      dup3\n        /* \"#utility.yul\":16042:16062   */\n      tag_451\n      jump\t// in\n    tag_670:\n        /* \"#utility.yul\":16037:16062   */\n      swap2\n      pop\n        /* \"#utility.yul\":16076:16096   */\n      tag_671\n        /* \"#utility.yul\":16094:16095   */\n      dup4\n        /* \"#utility.yul\":16076:16096   */\n      tag_451\n      jump\t// in\n    tag_671:\n        /* \"#utility.yul\":16071:16096   */\n      swap3\n      pop\n        /* \"#utility.yul\":16115:16116   */\n      dup3\n        /* \"#utility.yul\":16105:16140   */\n      tag_672\n      jumpi\n        /* \"#utility.yul\":16120:16138   */\n      tag_673\n      tag_489\n      jump\t// in\n    tag_673:\n        /* \"#utility.yul\":16105:16140   */\n    tag_672:\n        /* \"#utility.yul\":16162:16163   */\n      dup3\n        /* \"#utility.yul\":16159:16160   */\n      dup3\n        /* \"#utility.yul\":16155:16164   */\n      div\n        /* \"#utility.yul\":16150:16164   */\n      swap1\n      pop\n        /* \"#utility.yul\":15985:16170   */\n      swap3\n      swap2\n      pop\n      pop\n      jump\t// out\n        /* \"#utility.yul\":16176:16370   */\n    tag_215:\n        /* \"#utility.yul\":16216:16220   */\n      0x00\n        /* \"#utility.yul\":16236:16256   */\n      tag_675\n        /* \"#utility.yul\":16254:16255   */\n      dup3\n        /* \"#utility.yul\":16236:16256   */\n      tag_451\n      jump\t// in\n    tag_675:\n        /* \"#utility.yul\":16231:16256   */\n      swap2\n      pop\n        /* \"#utility.yul\":16270:16290   */\n      tag_676\n        /* \"#utility.yul\":16288:16289   */\n      dup4\n        /* \"#utility.yul\":16270:16290   */\n      tag_451\n      jump\t// in\n    tag_676:\n        /* \"#utility.yul\":16265:16290   */\n      swap3\n      pop\n        /* \"#utility.yul\":16314:16315   */\n      dup3\n        /* \"#utility.yul\":16311:16312   */\n      dup3\n        /* \"#utility.yul\":16307:16316   */\n      sub\n        /* \"#utility.yul\":16299:16316   */\n      swap1\n      pop\n        /* \"#utility.yul\":16338:16339   */\n      dup2\n        /* \"#utility.yul\":16332:16336   */\n      dup2\n        /* \"#utility.yul\":16329:16340   */\n      gt\n        /* \"#utility.yul\":16326:16363   */\n      iszero\n      tag_677\n      jumpi\n        /* \"#utility.yul\":16343:16361   */\n      tag_678\n      tag_478\n      jump\t// in\n    tag_678:\n        /* \"#utility.yul\":16326:16363   */\n    tag_677:\n        /* \"#utility.yul\":16176:16370   */\n      swap3\n      swap2\n      pop\n      pop\n      jump\t// out\n        /* \"#utility.yul\":16376:16556   */\n    tag_231:\n        /* \"#utility.yul\":16424:16501   */\n      0x4e487b7100000000000000000000000000000000000000000000000000000000\n        /* \"#utility.yul\":16421:16422   */\n      0x00\n        /* \"#utility.yul\":16414:16502   */\n      mstore\n        /* \"#utility.yul\":16521:16525   */\n      0x32\n        /* \"#utility.yul\":16518:16519   */\n      0x04\n        /* \"#utility.yul\":16511:16526   */\n      mstore\n        /* \"#utility.yul\":16545:16549   */\n      0x24\n        /* \"#utility.yul\":16542:16543   */\n      0x00\n        /* \"#utility.yul\":16535:16550   */\n      revert\n        /* \"#utility.yul\":16562:16709   */\n    tag_490:\n        /* \"#utility.yul\":16663:16674   */\n      0x00\n        /* \"#utility.yul\":16700:16703   */\n      dup2\n        /* \"#utility.yul\":16685:16703   */\n      swap1\n      pop\n        /* \"#utility.yul\":16562:16709   */\n      swap3\n      swap2\n      pop\n      pop\n      jump\t// out\n        /* \"#utility.yul\":16715:16829   */\n    tag_491:\n      pop\n      jump\t// out\n        /* \"#utility.yul\":16835:17233   */\n    tag_492:\n        /* \"#utility.yul\":16994:16997   */\n      0x00\n        /* \"#utility.yul\":17015:17098   */\n      tag_683\n        /* \"#utility.yul\":17096:17097   */\n      0x00\n        /* \"#utility.yul\":17091:17094   */\n      dup4\n        /* \"#utility.yul\":17015:17098   */\n      tag_490\n      jump\t// in\n    tag_683:\n        /* \"#utility.yul\":17008:17098   */\n      swap2\n      pop\n        /* \"#utility.yul\":17107:17200   */\n      tag_684\n        /* \"#utility.yul\":17196:17199   */\n      dup3\n        /* \"#utility.yul\":17107:17200   */\n      tag_491\n      jump\t// in\n    tag_684:\n        /* \"#utility.yul\":17225:17226   */\n      0x00\n        /* \"#utility.yul\":17220:17223   */\n      dup3\n        /* \"#utility.yul\":17216:17227   */\n      add\n        /* \"#utility.yul\":17209:17227   */\n      swap1\n      pop\n        /* \"#utility.yul\":16835:17233   */\n      swap2\n      swap1\n      pop\n      jump\t// out\n        /* \"#utility.yul\":17239:17618   */\n    tag_238:\n        /* \"#utility.yul\":17423:17426   */\n      0x00\n        /* \"#utility.yul\":17445:17592   */\n      tag_686\n        /* \"#utility.yul\":17588:17591   */\n      dup3\n        /* \"#utility.yul\":17445:17592   */\n      tag_492\n      jump\t// in\n    tag_686:\n        /* \"#utility.yul\":17438:17592   */\n      swap2\n      pop\n        /* \"#utility.yul\":17609:17612   */\n      dup2\n        /* \"#utility.yul\":17602:17612   */\n      swap1\n      pop\n        /* \"#utility.yul\":17239:17618   */\n      swap2\n      swap1\n      pop\n      jump\t// out\n        /* \"#utility.yul\":17624:17793   */\n    tag_493:\n        /* \"#utility.yul\":17764:17785   */\n      0x466565207472616e73666572206661696c656400000000000000000000000000\n        /* \"#utility.yul\":17760:17761   */\n      0x00\n        /* \"#utility.yul\":17752:17758   */\n      dup3\n        /* \"#utility.yul\":17748:17762   */\n      add\n        /* \"#utility.yul\":17741:17786   */\n      mstore\n        /* \"#utility.yul\":17624:17793   */\n      pop\n      jump\t// out\n        /* \"#utility.yul\":17799:18165   */\n    tag_494:\n        /* \"#utility.yul\":17941:17944   */\n      0x00\n        /* \"#utility.yul\":17962:18029   */\n      tag_689\n        /* \"#utility.yul\":18026:18028   */\n      0x13\n        /* \"#utility.yul\":18021:18024   */\n      dup4\n        /* \"#utility.yul\":17962:18029   */\n      tag_448\n      jump\t// in\n    tag_689:\n        /* \"#utility.yul\":17955:18029   */\n      swap2\n      pop\n        /* \"#utility.yul\":18038:18131   */\n      tag_690\n        /* \"#utility.yul\":18127:18130   */\n      dup3\n        /* \"#utility.yul\":18038:18131   */\n      tag_493\n      jump\t// in\n    tag_690:\n        /* \"#utility.yul\":18156:18158   */\n      0x20\n        /* \"#utility.yul\":18151:18154   */\n      dup3\n        /* \"#utility.yul\":18147:18159   */\n      add\n        /* \"#utility.yul\":18140:18159   */\n      swap1\n      pop\n        /* \"#utility.yul\":17799:18165   */\n      swap2\n      swap1\n      pop\n      jump\t// out\n        /* \"#utility.yul\":18171:18590   */\n    tag_244:\n        /* \"#utility.yul\":18337:18341   */\n      0x00\n        /* \"#utility.yul\":18375:18377   */\n      0x20\n        /* \"#utility.yul\":18364:18373   */\n      dup3\n        /* \"#utility.yul\":18360:18378   */\n      add\n        /* \"#utility.yul\":18352:18378   */\n      swap1\n      pop\n        /* \"#utility.yul\":18424:18433   */\n      dup2\n        /* \"#utility.yul\":18418:18422   */\n      dup2\n        /* \"#utility.yul\":18414:18434   */\n      sub\n        /* \"#utility.yul\":18410:18411   */\n      0x00\n        /* \"#utility.yul\":18399:18408   */\n      dup4\n        /* \"#utility.yul\":18395:18412   */\n      add\n        /* \"#utility.yul\":18388:18435   */\n      mstore\n        /* \"#utility.yul\":18452:18583   */\n      tag_692\n        /* \"#utility.yul\":18578:18582   */\n      dup2\n        /* \"#utility.yul\":18452:18583   */\n      tag_494\n      jump\t// in\n    tag_692:\n        /* \"#utility.yul\":18444:18583   */\n      swap1\n      pop\n        /* \"#utility.yul\":18171:18590   */\n      swap2\n      swap1\n      pop\n      jump\t// out\n        /* \"#utility.yul\":18596:18767   */\n    tag_495:\n        /* \"#utility.yul\":18736:18759   */\n      0x5072697a65207472616e73666572206661696c65640000000000000000000000\n        /* \"#utility.yul\":18732:18733   */\n      0x00\n        /* \"#utility.yul\":18724:18730   */\n      dup3\n        /* \"#utility.yul\":18720:18734   */\n      add\n        /* \"#utility.yul\":18713:18760   */\n      mstore\n        /* \"#utility.yul\":18596:18767   */\n      pop\n      jump\t// out\n        /* \"#utility.yul\":18773:19139   */\n    tag_496:\n        /* \"#utility.yul\":18915:18918   */\n      0x00\n        /* \"#utility.yul\":18936:19003   */\n      tag_695\n        /* \"#utility.yul\":19000:19002   */\n      0x15\n        /* \"#utility.yul\":18995:18998   */\n      dup4\n        /* \"#utility.yul\":18936:19003   */\n      tag_448\n      jump\t// in\n    tag_695:\n        /* \"#utility.yul\":18929:19003   */\n      swap2\n      pop\n        /* \"#utility.yul\":19012:19105   */\n      tag_696\n        /* \"#utility.yul\":19101:19104   */\n      dup3\n        /* \"#utility.yul\":19012:19105   */\n      tag_495\n      jump\t// in\n    tag_696:\n        /* \"#utility.yul\":19130:19132   */\n      0x20\n        /* \"#utility.yul\":19125:19128   */\n      dup3\n        /* \"#utility.yul\":19121:19133   */\n      add\n        /* \"#utility.yul\":19114:19133   */\n      swap1\n      pop\n        /* \"#utility.yul\":18773:19139   */\n      swap2\n      swap1\n      pop\n      jump\t// out\n        /* \"#utility.yul\":19145:19564   */\n    tag_258:\n        /* \"#utility.yul\":19311:19315   */\n      0x00\n        /* \"#utility.yul\":19349:19351   */\n      0x20\n        /* \"#utility.yul\":19338:19347   */\n      dup3\n        /* \"#utility.yul\":19334:19352   */\n      add\n        /* \"#utility.yul\":19326:19352   */\n      swap1\n      pop\n        /* \"#utility.yul\":19398:19407   */\n      dup2\n        /* \"#utility.yul\":19392:19396   */\n      dup2\n        /* \"#utility.yul\":19388:19408   */\n      sub\n        /* \"#utility.yul\":19384:19385   */\n      0x00\n        /* \"#utility.yul\":19373:19382   */\n      dup4\n        /* \"#utility.yul\":19369:19386   */\n      add\n        /* \"#utility.yul\":19362:19409   */\n      mstore\n        /* \"#utility.yul\":19426:19557   */\n      tag_698\n        /* \"#utility.yul\":19552:19556   */\n      dup2\n        /* \"#utility.yul\":19426:19557   */\n      tag_496\n      jump\t// in\n    tag_698:\n        /* \"#utility.yul\":19418:19557   */\n      swap1\n      pop\n        /* \"#utility.yul\":19145:19564   */\n      swap2\n      swap1\n      pop\n      jump\t// out\n        /* \"#utility.yul\":19570:19684   */\n    tag_497:\n        /* \"#utility.yul\":19637:19643   */\n      0x00\n        /* \"#utility.yul\":19671:19676   */\n      dup2\n        /* \"#utility.yul\":19665:19677   */\n      mload\n        /* \"#utility.yul\":19655:19677   */\n      swap1\n      pop\n        /* \"#utility.yul\":19570:19684   */\n      swap2\n      swap1\n      pop\n      jump\t// out\n        /* \"#utility.yul\":19690:19874   */\n    tag_498:\n        /* \"#utility.yul\":19789:19800   */\n      0x00\n        /* \"#utility.yul\":19823:19829   */\n      dup3\n        /* \"#utility.yul\":19818:19821   */\n      dup3\n        /* \"#utility.yul\":19811:19830   */\n      mstore\n        /* \"#utility.yul\":19863:19867   */\n      0x20\n        /* \"#utility.yul\":19858:19861   */\n      dup3\n        /* \"#utility.yul\":19854:19868   */\n      add\n        /* \"#utility.yul\":19839:19868   */\n      swap1\n      pop\n        /* \"#utility.yul\":19690:19874   */\n      swap3\n      swap2\n      pop\n      pop\n      jump\t// out\n        /* \"#utility.yul\":19880:20012   */\n    tag_499:\n        /* \"#utility.yul\":19947:19951   */\n      0x00\n        /* \"#utility.yul\":19970:19973   */\n      dup2\n        /* \"#utility.yul\":19962:19973   */\n      swap1\n      pop\n        /* \"#utility.yul\":20000:20004   */\n      0x20\n        /* \"#utility.yul\":19995:19998   */\n      dup3\n        /* \"#utility.yul\":19991:20005   */\n      add\n        /* \"#utility.yul\":19983:20005   */\n      swap1\n      pop\n        /* \"#utility.yul\":19880:20012   */\n      swap2\n      swap1\n      pop\n      jump\t// out\n        /* \"#utility.yul\":20018:20126   */\n    tag_500:\n        /* \"#utility.yul\":20095:20119   */\n      tag_703\n        /* \"#utility.yul\":20113:20118   */\n      dup2\n        /* \"#utility.yul\":20095:20119   */\n      tag_451\n      jump\t// in\n    tag_703:\n        /* \"#utility.yul\":20090:20093   */\n      dup3\n        /* \"#utility.yul\":20083:20120   */\n      mstore\n        /* \"#utility.yul\":20018:20126   */\n      pop\n      pop\n      jump\t// out\n        /* \"#utility.yul\":20132:20311   */\n    tag_501:\n        /* \"#utility.yul\":20201:20211   */\n      0x00\n        /* \"#utility.yul\":20222:20268   */\n      tag_705\n        /* \"#utility.yul\":20264:20267   */\n      dup4\n        /* \"#utility.yul\":20256:20262   */\n      dup4\n        /* \"#utility.yul\":20222:20268   */\n      tag_500\n      jump\t// in\n    tag_705:\n        /* \"#utility.yul\":20300:20304   */\n      0x20\n        /* \"#utility.yul\":20295:20298   */\n      dup4\n        /* \"#utility.yul\":20291:20305   */\n      add\n        /* \"#utility.yul\":20277:20305   */\n      swap1\n      pop\n        /* \"#utility.yul\":20132:20311   */\n      swap3\n      swap2\n      pop\n      pop\n      jump\t// out\n        /* \"#utility.yul\":20317:20430   */\n    tag_502:\n        /* \"#utility.yul\":20387:20391   */\n      0x00\n        /* \"#utility.yul\":20419:20423   */\n      0x20\n        /* \"#utility.yul\":20414:20417   */\n      dup3\n        /* \"#utility.yul\":20410:20424   */\n      add\n        /* \"#utility.yul\":20402:20424   */\n      swap1\n      pop\n        /* \"#utility.yul\":20317:20430   */\n      swap2\n      swap1\n      pop\n      jump\t// out\n        /* \"#utility.yul\":20466:21198   */\n    tag_503:\n        /* \"#utility.yul\":20585:20588   */\n      0x00\n        /* \"#utility.yul\":20614:20668   */\n      tag_708\n        /* \"#utility.yul\":20662:20667   */\n      dup3\n        /* \"#utility.yul\":20614:20668   */\n      tag_497\n      jump\t// in\n    tag_708:\n        /* \"#utility.yul\":20684:20770   */\n      tag_709\n        /* \"#utility.yul\":20763:20769   */\n      dup2\n        /* \"#utility.yul\":20758:20761   */\n      dup6\n        /* \"#utility.yul\":20684:20770   */\n      tag_498\n      jump\t// in\n    tag_709:\n        /* \"#utility.yul\":20677:20770   */\n      swap4\n      pop\n        /* \"#utility.yul\":20794:20850   */\n      tag_710\n        /* \"#utility.yul\":20844:20849   */\n      dup4\n        /* \"#utility.yul\":20794:20850   */\n      tag_499\n      jump\t// in\n    tag_710:\n        /* \"#utility.yul\":20873:20880   */\n      dup1\n        /* \"#utility.yul\":20904:20905   */\n      0x00\n        /* \"#utility.yul\":20889:21173   */\n    tag_711:\n        /* \"#utility.yul\":20914:20920   */\n      dup4\n        /* \"#utility.yul\":20911:20912   */\n      dup2\n        /* \"#utility.yul\":20908:20921   */\n      lt\n        /* \"#utility.yul\":20889:21173   */\n      iszero\n      tag_713\n      jumpi\n        /* \"#utility.yul\":20990:20996   */\n      dup2\n        /* \"#utility.yul\":20984:20997   */\n      mload\n        /* \"#utility.yul\":21017:21080   */\n      tag_714\n        /* \"#utility.yul\":21076:21079   */\n      dup9\n        /* \"#utility.yul\":21061:21074   */\n      dup3\n        /* \"#utility.yul\":21017:21080   */\n      tag_501\n      jump\t// in\n    tag_714:\n        /* \"#utility.yul\":21010:21080   */\n      swap8\n      pop\n        /* \"#utility.yul\":21103:21163   */\n      tag_715\n        /* \"#utility.yul\":21156:21162   */\n      dup4\n        /* \"#utility.yul\":21103:21163   */\n      tag_502\n      jump\t// in\n    tag_715:\n        /* \"#utility.yul\":21093:21163   */\n      swap3\n      pop\n        /* \"#utility.yul\":20949:21173   */\n      pop\n        /* \"#utility.yul\":20936:20937   */\n      0x01\n        /* \"#utility.yul\":20933:20934   */\n      dup2\n        /* \"#utility.yul\":20929:20938   */\n      add\n        /* \"#utility.yul\":20924:20938   */\n      swap1\n      pop\n        /* \"#utility.yul\":20889:21173   */\n      jump(tag_711)\n    tag_713:\n        /* \"#utility.yul\":20893:20907   */\n      pop\n        /* \"#utility.yul\":21189:21192   */\n      dup6\n        /* \"#utility.yul\":21182:21192   */\n      swap4\n      pop\n        /* \"#utility.yul\":20590:21198   */\n      pop\n      pop\n      pop\n        /* \"#utility.yul\":20466:21198   */\n      swap3\n      swap2\n      pop\n      pop\n      jump\t// out\n        /* \"#utility.yul\":21204:22059   */\n    tag_260:\n        /* \"#utility.yul\":21481:21485   */\n      0x00\n        /* \"#utility.yul\":21519:21522   */\n      0x80\n        /* \"#utility.yul\":21508:21517   */\n      dup3\n        /* \"#utility.yul\":21504:21523   */\n      add\n        /* \"#utility.yul\":21496:21523   */\n      swap1\n      pop\n        /* \"#utility.yul\":21569:21578   */\n      dup2\n        /* \"#utility.yul\":21563:21567   */\n      dup2\n        /* \"#utility.yul\":21559:21579   */\n      sub\n        /* \"#utility.yul\":21555:21556   */\n      0x00\n        /* \"#utility.yul\":21544:21553   */\n      dup4\n        /* \"#utility.yul\":21540:21557   */\n      add\n        /* \"#utility.yul\":21533:21580   */\n      mstore\n        /* \"#utility.yul\":21597:21705   */\n      tag_717\n        /* \"#utility.yul\":21700:21704   */\n      dup2\n        /* \"#utility.yul\":21691:21697   */\n      dup8\n        /* \"#utility.yul\":21597:21705   */\n      tag_472\n      jump\t// in\n    tag_717:\n        /* \"#utility.yul\":21589:21705   */\n      swap1\n      pop\n        /* \"#utility.yul\":21752:21761   */\n      dup2\n        /* \"#utility.yul\":21746:21750   */\n      dup2\n        /* \"#utility.yul\":21742:21762   */\n      sub\n        /* \"#utility.yul\":21737:21739   */\n      0x20\n        /* \"#utility.yul\":21726:21735   */\n      dup4\n        /* \"#utility.yul\":21722:21740   */\n      add\n        /* \"#utility.yul\":21715:21763   */\n      mstore\n        /* \"#utility.yul\":21780:21888   */\n      tag_718\n        /* \"#utility.yul\":21883:21887   */\n      dup2\n        /* \"#utility.yul\":21874:21880   */\n      dup7\n        /* \"#utility.yul\":21780:21888   */\n      tag_503\n      jump\t// in\n    tag_718:\n        /* \"#utility.yul\":21772:21888   */\n      swap1\n      pop\n        /* \"#utility.yul\":21898:21970   */\n      tag_719\n        /* \"#utility.yul\":21966:21968   */\n      0x40\n        /* \"#utility.yul\":21955:21964   */\n      dup4\n        /* \"#utility.yul\":21951:21969   */\n      add\n        /* \"#utility.yul\":21942:21948   */\n      dup6\n        /* \"#utility.yul\":21898:21970   */\n      tag_452\n      jump\t// in\n    tag_719:\n        /* \"#utility.yul\":21980:22052   */\n      tag_720\n        /* \"#utility.yul\":22048:22050   */\n      0x60\n        /* \"#utility.yul\":22037:22046   */\n      dup4\n        /* \"#utility.yul\":22033:22051   */\n      add\n        /* \"#utility.yul\":22024:22030   */\n      dup5\n        /* \"#utility.yul\":21980:22052   */\n      tag_452\n      jump\t// in\n    tag_720:\n        /* \"#utility.yul\":21204:22059   */\n      swap6\n      swap5\n      pop\n      pop\n      pop\n      pop\n      pop\n      jump\t// out\n        /* \"#utility.yul\":22065:22225   */\n    tag_504:\n        /* \"#utility.yul\":22205:22217   */\n      0x4f6e6c79206f776e657200000000000000000000000000000000000000000000\n        /* \"#utility.yul\":22201:22202   */\n      0x00\n        /* \"#utility.yul\":22193:22199   */\n      dup3\n        /* \"#utility.yul\":22189:22203   */\n      add\n        /* \"#utility.yul\":22182:22218   */\n      mstore\n        /* \"#utility.yul\":22065:22225   */\n      pop\n      jump\t// out\n        /* \"#utility.yul\":22231:22597   */\n    tag_505:\n        /* \"#utility.yul\":22373:22376   */\n      0x00\n        /* \"#utility.yul\":22394:22461   */\n      tag_723\n        /* \"#utility.yul\":22458:22460   */\n      0x0a\n        /* \"#utility.yul\":22453:22456   */\n      dup4\n        /* \"#utility.yul\":22394:22461   */\n      tag_448\n      jump\t// in\n    tag_723:\n        /* \"#utility.yul\":22387:22461   */\n      swap2\n      pop\n        /* \"#utility.yul\":22470:22563   */\n      tag_724\n        /* \"#utility.yul\":22559:22562   */\n      dup3\n        /* \"#utility.yul\":22470:22563   */\n      tag_504\n      jump\t// in\n    tag_724:\n        /* \"#utility.yul\":22588:22590   */\n      0x20\n        /* \"#utility.yul\":22583:22586   */\n      dup3\n        /* \"#utility.yul\":22579:22591   */\n      add\n        /* \"#utility.yul\":22572:22591   */\n      swap1\n      pop\n        /* \"#utility.yul\":22231:22597   */\n      swap2\n      swap1\n      pop\n      jump\t// out\n        /* \"#utility.yul\":22603:23022   */\n    tag_283:\n        /* \"#utility.yul\":22769:22773   */\n      0x00\n        /* \"#utility.yul\":22807:22809   */\n      0x20\n        /* \"#utility.yul\":22796:22805   */\n      dup3\n        /* \"#utility.yul\":22792:22810   */\n      add\n        /* \"#utility.yul\":22784:22810   */\n      swap1\n      pop\n        /* \"#utility.yul\":22856:22865   */\n      dup2\n        /* \"#utility.yul\":22850:22854   */\n      dup2\n        /* \"#utility.yul\":22846:22866   */\n      sub\n        /* \"#utility.yul\":22842:22843   */\n      0x00\n        /* \"#utility.yul\":22831:22840   */\n      dup4\n        /* \"#utility.yul\":22827:22844   */\n      add\n        /* \"#utility.yul\":22820:22867   */\n      mstore\n        /* \"#utility.yul\":22884:23015   */\n      tag_726\n        /* \"#utility.yul\":23010:23014   */\n      dup2\n        /* \"#utility.yul\":22884:23015   */\n      tag_505\n      jump\t// in\n    tag_726:\n        /* \"#utility.yul\":22876:23015   */\n      swap1\n      pop\n        /* \"#utility.yul\":22603:23022   */\n      swap2\n      swap1\n      pop\n      jump\t// out\n        /* \"#utility.yul\":23028:23198   */\n    tag_506:\n        /* \"#utility.yul\":23168:23190   */\n      0x526f756e6420616c726561647920616374697665000000000000000000000000\n        /* \"#utility.yul\":23164:23165   */\n      0x00\n        /* \"#utility.yul\":23156:23162   */\n      dup3\n        /* \"#utility.yul\":23152:23166   */\n      add\n        /* \"#utility.yul\":23145:23191   */\n      mstore\n        /* \"#utility.yul\":23028:23198   */\n      pop\n      jump\t// out\n        /* \"#utility.yul\":23204:23570   */\n    tag_507:\n        /* \"#utility.yul\":23346:23349   */\n      0x00\n        /* \"#utility.yul\":23367:23434   */\n      tag_729\n        /* \"#utility.yul\":23431:23433   */\n      0x14\n        /* \"#utility.yul\":23426:23429   */\n      dup4\n        /* \"#utility.yul\":23367:23434   */\n      tag_448\n      jump\t// in\n    tag_729:\n        /* \"#utility.yul\":23360:23434   */\n      swap2\n      pop\n        /* \"#utility.yul\":23443:23536   */\n      tag_730\n        /* \"#utility.yul\":23532:23535   */\n      dup3\n        /* \"#utility.yul\":23443:23536   */\n      tag_506\n      jump\t// in\n    tag_730:\n        /* \"#utility.yul\":23561:23563   */\n      0x20\n        /* \"#utility.yul\":23556:23559   */\n      dup3\n        /* \"#utility.yul\":23552:23564   */\n      add\n        /* \"#utility.yul\":23545:23564   */\n      swap1\n      pop\n        /* \"#utility.yul\":23204:23570   */\n      swap2\n      swap1\n      pop\n      jump\t// out\n        /* \"#utility.yul\":23576:23995   */\n    tag_288:\n        /* \"#utility.yul\":23742:23746   */\n      0x00\n        /* \"#utility.yul\":23780:23782   */\n      0x20\n        /* \"#utility.yul\":23769:23778   */\n      dup3\n        /* \"#utility.yul\":23765:23783   */\n      add\n        /* \"#utility.yul\":23757:23783   */\n      swap1\n      pop\n        /* \"#utility.yul\":23829:23838   */\n      dup2\n        /* \"#utility.yul\":23823:23827   */\n      dup2\n        /* \"#utility.yul\":23819:23839   */\n      sub\n        /* \"#utility.yul\":23815:23816   */\n      0x00\n        /* \"#utility.yul\":23804:23813   */\n      dup4\n        /* \"#utility.yul\":23800:23817   */\n      add\n        /* \"#utility.yul\":23793:23840   */\n      mstore\n        /* \"#utility.yul\":23857:23988   */\n      tag_732\n        /* \"#utility.yul\":23983:23987   */\n      dup2\n        /* \"#utility.yul\":23857:23988   */\n      tag_507\n      jump\t// in\n    tag_732:\n        /* \"#utility.yul\":23849:23988   */\n      swap1\n      pop\n        /* \"#utility.yul\":23576:23995   */\n      swap2\n      swap1\n      pop\n      jump\t// out\n        /* \"#utility.yul\":24001:24177   */\n    tag_299:\n        /* \"#utility.yul\":24033:24034   */\n      0x00\n        /* \"#utility.yul\":24050:24070   */\n      tag_734\n        /* \"#utility.yul\":24068:24069   */\n      dup3\n        /* \"#utility.yul\":24050:24070   */\n      tag_451\n      jump\t// in\n    tag_734:\n        /* \"#utility.yul\":24045:24070   */\n      swap2\n      pop\n        /* \"#utility.yul\":24084:24104   */\n      tag_735\n        /* \"#utility.yul\":24102:24103   */\n      dup4\n        /* \"#utility.yul\":24084:24104   */\n      tag_451\n      jump\t// in\n    tag_735:\n        /* \"#utility.yul\":24079:24104   */\n      swap3\n      pop\n        /* \"#utility.yul\":24123:24124   */\n      dup3\n        /* \"#utility.yul\":24113:24148   */\n      tag_736\n      jumpi\n        /* \"#utility.yul\":24128:24146   */\n      tag_737\n      tag_489\n      jump\t// in\n    tag_737:\n        /* \"#utility.yul\":24113:24148   */\n    tag_736:\n        /* \"#utility.yul\":24169:24170   */\n      dup3\n        /* \"#utility.yul\":24166:24167   */\n      dup3\n        /* \"#utility.yul\":24162:24171   */\n      mod\n        /* \"#utility.yul\":24157:24171   */\n      swap1\n      pop\n        /* \"#utility.yul\":24001:24177   */\n      swap3\n      swap2\n      pop\n      pop\n      jump\t// out\n        /* \"#utility.yul\":24183:24331   */\n    tag_508:\n        /* \"#utility.yul\":24285:24296   */\n      0x00\n        /* \"#utility.yul\":24322:24325   */\n      dup2\n        /* \"#utility.yul\":24307:24325   */\n      swap1\n      pop\n        /* \"#utility.yul\":24183:24331   */\n      swap3\n      swap2\n      pop\n      pop\n      jump\t// out\n        /* \"#utility.yul\":24337:24727   */\n    tag_509:\n        /* \"#utility.yul\":24443:24446   */\n      0x00\n        /* \"#utility.yul\":24471:24510   */\n      tag_740\n        /* \"#utility.yul\":24504:24509   */\n      dup3\n        /* \"#utility.yul\":24471:24510   */\n      tag_460\n      jump\t// in\n    tag_740:\n        /* \"#utility.yul\":24526:24615   */\n      tag_741\n        /* \"#utility.yul\":24608:24614   */\n      dup2\n        /* \"#utility.yul\":24603:24606   */\n      dup6\n        /* \"#utility.yul\":24526:24615   */\n      tag_508\n      jump\t// in\n    tag_741:\n        /* \"#utility.yul\":24519:24615   */\n      swap4\n      pop\n        /* \"#utility.yul\":24624:24689   */\n      tag_742\n        /* \"#utility.yul\":24682:24688   */\n      dup2\n        /* \"#utility.yul\":24677:24680   */\n      dup6\n        /* \"#utility.yul\":24670:24674   */\n      0x20\n        /* \"#utility.yul\":24663:24668   */\n      dup7\n        /* \"#utility.yul\":24659:24675   */\n      add\n        /* \"#utility.yul\":24624:24689   */\n      tag_461\n      jump\t// in\n    tag_742:\n        /* \"#utility.yul\":24714:24720   */\n      dup1\n        /* \"#utility.yul\":24709:24712   */\n      dup5\n        /* \"#utility.yul\":24705:24721   */\n      add\n        /* \"#utility.yul\":24698:24721   */\n      swap2\n      pop\n        /* \"#utility.yul\":24447:24727   */\n      pop\n        /* \"#utility.yul\":24337:24727   */\n      swap3\n      swap2\n      pop\n      pop\n      jump\t// out\n        /* \"#utility.yul\":24733:24888   */\n    tag_510:\n        /* \"#utility.yul\":24873:24880   */\n      0x206d696e20000000000000000000000000000000000000000000000000000000\n        /* \"#utility.yul\":24869:24870   */\n      0x00\n        /* \"#utility.yul\":24861:24867   */\n      dup3\n        /* \"#utility.yul\":24857:24871   */\n      add\n        /* \"#utility.yul\":24850:24881   */\n      mstore\n        /* \"#utility.yul\":24733:24888   */\n      pop\n      jump\t// out\n        /* \"#utility.yul\":24894:25294   */\n    tag_511:\n        /* \"#utility.yul\":25054:25057   */\n      0x00\n        /* \"#utility.yul\":25075:25159   */\n      tag_745\n        /* \"#utility.yul\":25157:25158   */\n      0x05\n        /* \"#utility.yul\":25152:25155   */\n      dup4\n        /* \"#utility.yul\":25075:25159   */\n      tag_508\n      jump\t// in\n    tag_745:\n        /* \"#utility.yul\":25068:25159   */\n      swap2\n      pop\n        /* \"#utility.yul\":25168:25261   */\n      tag_746\n        /* \"#utility.yul\":25257:25260   */\n      dup3\n        /* \"#utility.yul\":25168:25261   */\n      tag_510\n      jump\t// in\n    tag_746:\n        /* \"#utility.yul\":25286:25287   */\n      0x05\n        /* \"#utility.yul\":25281:25284   */\n      dup3\n        /* \"#utility.yul\":25277:25288   */\n      add\n        /* \"#utility.yul\":25270:25288   */\n      swap1\n      pop\n        /* \"#utility.yul\":24894:25294   */\n      swap2\n      swap1\n      pop\n      jump\t// out\n        /* \"#utility.yul\":25300:25454   */\n    tag_512:\n        /* \"#utility.yul\":25440:25446   */\n      0x2073656300000000000000000000000000000000000000000000000000000000\n        /* \"#utility.yul\":25436:25437   */\n      0x00\n        /* \"#utility.yul\":25428:25434   */\n      dup3\n        /* \"#utility.yul\":25424:25438   */\n      add\n        /* \"#utility.yul\":25417:25447   */\n      mstore\n        /* \"#utility.yul\":25300:25454   */\n      pop\n      jump\t// out\n        /* \"#utility.yul\":25460:25860   */\n    tag_513:\n        /* \"#utility.yul\":25620:25623   */\n      0x00\n        /* \"#utility.yul\":25641:25725   */\n      tag_749\n        /* \"#utility.yul\":25723:25724   */\n      0x04\n        /* \"#utility.yul\":25718:25721   */\n      dup4\n        /* \"#utility.yul\":25641:25725   */\n      tag_508\n      jump\t// in\n    tag_749:\n        /* \"#utility.yul\":25634:25725   */\n      swap2\n      pop\n        /* \"#utility.yul\":25734:25827   */\n      tag_750\n        /* \"#utility.yul\":25823:25826   */\n      dup3\n        /* \"#utility.yul\":25734:25827   */\n      tag_512\n      jump\t// in\n    tag_750:\n        /* \"#utility.yul\":25852:25853   */\n      0x04\n        /* \"#utility.yul\":25847:25850   */\n      dup3\n        /* \"#utility.yul\":25843:25854   */\n      add\n        /* \"#utility.yul\":25836:25854   */\n      swap1\n      pop\n        /* \"#utility.yul\":25460:25860   */\n      swap2\n      swap1\n      pop\n      jump\t// out\n        /* \"#utility.yul\":25866:26833   */\n    tag_304:\n        /* \"#utility.yul\":26248:26251   */\n      0x00\n        /* \"#utility.yul\":26270:26365   */\n      tag_752\n        /* \"#utility.yul\":26361:26364   */\n      dup3\n        /* \"#utility.yul\":26352:26358   */\n      dup6\n        /* \"#utility.yul\":26270:26365   */\n      tag_509\n      jump\t// in\n    tag_752:\n        /* \"#utility.yul\":26263:26365   */\n      swap2\n      pop\n        /* \"#utility.yul\":26382:26530   */\n      tag_753\n        /* \"#utility.yul\":26526:26529   */\n      dup3\n        /* \"#utility.yul\":26382:26530   */\n      tag_511\n      jump\t// in\n    tag_753:\n        /* \"#utility.yul\":26375:26530   */\n      swap2\n      pop\n        /* \"#utility.yul\":26547:26642   */\n      tag_754\n        /* \"#utility.yul\":26638:26641   */\n      dup3\n        /* \"#utility.yul\":26629:26635   */\n      dup5\n        /* \"#utility.yul\":26547:26642   */\n      tag_509\n      jump\t// in\n    tag_754:\n        /* \"#utility.yul\":26540:26642   */\n      swap2\n      pop\n        /* \"#utility.yul\":26659:26807   */\n      tag_755\n        /* \"#utility.yul\":26803:26806   */\n      dup3\n        /* \"#utility.yul\":26659:26807   */\n      tag_513\n      jump\t// in\n    tag_755:\n        /* \"#utility.yul\":26652:26807   */\n      swap2\n      pop\n        /* \"#utility.yul\":26824:26827   */\n      dup2\n        /* \"#utility.yul\":26817:26827   */\n      swap1\n      pop\n        /* \"#utility.yul\":25866:26833   */\n      swap4\n      swap3\n      pop\n      pop\n      pop\n      jump\t// out\n        /* \"#utility.yul\":26839:27011   */\n    tag_514:\n        /* \"#utility.yul\":26979:27003   */\n      0x526566756e64207472616e73666572206661696c656400000000000000000000\n        /* \"#utility.yul\":26975:26976   */\n      0x00\n        /* \"#utility.yul\":26967:26973   */\n      dup3\n        /* \"#utility.yul\":26963:26977   */\n      add\n        /* \"#utility.yul\":26956:27004   */\n      mstore\n        /* \"#utility.yul\":26839:27011   */\n      pop\n      jump\t// out\n        /* \"#utility.yul\":27017:27383   */\n    tag_515:\n        /* \"#utility.yul\":27159:27162   */\n      0x00\n        /* \"#utility.yul\":27180:27247   */\n      tag_758\n        /* \"#utility.yul\":27244:27246   */\n      0x16\n        /* \"#utility.yul\":27239:27242   */\n      dup4\n        /* \"#utility.yul\":27180:27247   */\n      tag_448\n      jump\t// in\n    tag_758:\n        /* \"#utility.yul\":27173:27247   */\n      swap2\n      pop\n        /* \"#utility.yul\":27256:27349   */\n      tag_759\n        /* \"#utility.yul\":27345:27348   */\n      dup3\n        /* \"#utility.yul\":27256:27349   */\n      tag_514\n      jump\t// in\n    tag_759:\n        /* \"#utility.yul\":27374:27376   */\n      0x20\n        /* \"#utility.yul\":27369:27372   */\n      dup3\n        /* \"#utility.yul\":27365:27377   */\n      add\n        /* \"#utility.yul\":27358:27377   */\n      swap1\n      pop\n        /* \"#utility.yul\":27017:27383   */\n      swap2\n      swap1\n      pop\n      jump\t// out\n        /* \"#utility.yul\":27389:27808   */\n    tag_326:\n        /* \"#utility.yul\":27555:27559   */\n      0x00\n        /* \"#utility.yul\":27593:27595   */\n      0x20\n        /* \"#utility.yul\":27582:27591   */\n      dup3\n        /* \"#utility.yul\":27578:27596   */\n      add\n        /* \"#utility.yul\":27570:27596   */\n      swap1\n      pop\n        /* \"#utility.yul\":27642:27651   */\n      dup2\n        /* \"#utility.yul\":27636:27640   */\n      dup2\n        /* \"#utility.yul\":27632:27652   */\n      sub\n        /* \"#utility.yul\":27628:27629   */\n      0x00\n        /* \"#utility.yul\":27617:27626   */\n      dup4\n        /* \"#utility.yul\":27613:27630   */\n      add\n        /* \"#utility.yul\":27606:27653   */\n      mstore\n        /* \"#utility.yul\":27670:27801   */\n      tag_761\n        /* \"#utility.yul\":27796:27800   */\n      dup2\n        /* \"#utility.yul\":27670:27801   */\n      tag_515\n      jump\t// in\n    tag_761:\n        /* \"#utility.yul\":27662:27801   */\n      swap1\n      pop\n        /* \"#utility.yul\":27389:27808   */\n      swap2\n      swap1\n      pop\n      jump\t// out\n        /* \"#utility.yul\":27814:28047   */\n    tag_364:\n        /* \"#utility.yul\":27853:27856   */\n      0x00\n        /* \"#utility.yul\":27876:27900   */\n      tag_763\n        /* \"#utility.yul\":27894:27899   */\n      dup3\n        /* \"#utility.yul\":27876:27900   */\n      tag_451\n      jump\t// in\n    tag_763:\n        /* \"#utility.yul\":27867:27900   */\n      swap2\n      pop\n        /* \"#utility.yul\":27922:27988   */\n      0xffffffffffffffffffffffffffffffffffffffffffffffffffffffffffffffff\n        /* \"#utility.yul\":27915:27920   */\n      dup3\n        /* \"#utility.yul\":27912:27989   */\n      sub\n        /* \"#utility.yul\":27909:28012   */\n      tag_764\n      jumpi\n        /* \"#utility.yul\":27992:28010   */\n      tag_765\n      tag_478\n      jump\t// in\n    tag_765:\n        /* \"#utility.yul\":27909:28012   */\n    tag_764:\n        /* \"#utility.yul\":28039:28040   */\n      0x01\n        /* \"#utility.yul\":28032:28037   */\n      dup3\n        /* \"#utility.yul\":28028:28041   */\n      add\n        /* \"#utility.yul\":28021:28041   */\n      swap1\n      pop\n        /* \"#utility.yul\":27814:28047   */\n      swap2\n      swap1\n      pop\n      jump\t// out\n        /* \"#utility.yul\":28053:28206   */\n    tag_516:\n        /* \"#utility.yul\":28193:28198   */\n      0x3030300000000000000000000000000000000000000000000000000000000000\n        /* \"#utility.yul\":28189:28190   */\n      0x00\n        /* \"#utility.yul\":28181:28187   */\n      dup3\n        /* \"#utility.yul\":28177:28191   */\n      add\n        /* \"#utility.yul\":28170:28199   */\n      mstore\n        /* \"#utility.yul\":28053:28206   */\n      pop\n      jump\t// out\n        /* \"#utility.yul\":28212:28612   */\n    tag_517:\n        /* \"#utility.yul\":28372:28375   */\n      0x00\n        /* \"#utility.yul\":28393:28477   */\n      tag_768\n        /* \"#utility.yul\":28475:28476   */\n      0x03\n        /* \"#utility.yul\":28470:28473   */\n      dup4\n        /* \"#utility.yul\":28393:28477   */\n      tag_508\n      jump\t// in\n    tag_768:\n        /* \"#utility.yul\":28386:28477   */\n      swap2\n      pop\n        /* \"#utility.yul\":28486:28579   */\n      tag_769\n        /* \"#utility.yul\":28575:28578   */\n      dup3\n        /* \"#utility.yul\":28486:28579   */\n      tag_516\n      jump\t// in\n    tag_769:\n        /* \"#utility.yul\":28604:28605   */\n      0x03\n        /* \"#utility.yul\":28599:28602   */\n      dup3\n        /* \"#utility.yul\":28595:28606   */\n      add\n        /* \"#utility.yul\":28588:28606   */\n      swap1\n      pop\n        /* \"#utility.yul\":28212:28612   */\n      swap2\n      swap1\n      pop\n      jump\t// out\n        /* \"#utility.yul\":28618:29159   */\n    tag_403:\n        /* \"#utility.yul\":28851:28854   */\n      0x00\n        /* \"#utility.yul\":28873:29021   */\n      tag_771\n        /* \"#utility.yul\":29017:29020   */\n      dup3\n        /* \"#utility.yul\":28873:29021   */\n      tag_517\n      jump\t// in\n    tag_771:\n        /* \"#utility.yul\":28866:29021   */\n      swap2\n      pop\n        /* \"#utility.yul\":29038:29133   */\n      tag_772\n        /* \"#utility.yul\":29129:29132   */\n      dup3\n        /* \"#utility.yul\":29120:29126   */\n      dup5\n        /* \"#utility.yul\":29038:29133   */\n      tag_509\n      jump\t// in\n    tag_772:\n        /* \"#utility.yul\":29031:29133   */\n      swap2\n      pop\n        /* \"#utility.yul\":29150:29153   */\n      dup2\n        /* \"#utility.yul\":29143:29153   */\n      swap1\n      pop\n        /* \"#utility.yul\":28618:29159   */\n      swap3\n      swap2\n      pop\n      pop\n      jump\t// out\n        /* \"#utility.yul\":29165:29317   */\n    tag_518:\n        /* \"#utility.yul\":29305:29309   */\n      0x3030000000000000000000000000000000000000000000000000000000000000\n        /* \"#utility.yul\":29301:29302   */\n      0x00\n        /* \"#utility.yul\":29293:29299   */\n      dup3\n        /* \"#utility.yul\":29289:29303   */\n      add\n        /* \"#utility.yul\":29282:29310   */\n      mstore\n        /* \"#utility.yul\":29165:29317   */\n      pop\n      jump\t// out\n        /* \"#utility.yul\":29323:29723   */\n    tag_519:\n        /* \"#utility.yul\":29483:29486   */\n      0x00\n        /* \"#utility.yul\":29504:29588   */\n      tag_775\n        /* \"#utility.yul\":29586:29587   */\n      0x02\n        /* \"#utility.yul\":29581:29584   */\n      dup4\n        /* \"#utility.yul\":29504:29588   */\n      tag_508\n      jump\t// in\n    tag_775:\n        /* \"#utility.yul\":29497:29588   */\n      swap2\n      pop\n        /* \"#utility.yul\":29597:29690   */\n      tag_776\n        /* \"#utility.yul\":29686:29689   */\n      dup3\n        /* \"#utility.yul\":29597:29690   */\n      tag_518\n      jump\t// in\n    tag_776:\n        /* \"#utility.yul\":29715:29716   */\n      0x02\n        /* \"#utility.yul\":29710:29713   */\n      dup3\n        /* \"#utility.yul\":29706:29717   */\n      add\n        /* \"#utility.yul\":29699:29717   */\n      swap1\n      pop\n        /* \"#utility.yul\":29323:29723   */\n      swap2\n      swap1\n      pop\n      jump\t// out\n        /* \"#utility.yul\":29729:30270   */\n    tag_407:\n        /* \"#utility.yul\":29962:29965   */\n      0x00\n        /* \"#utility.yul\":29984:30132   */\n      tag_778\n        /* \"#utility.yul\":30128:30131   */\n      dup3\n        /* \"#utility.yul\":29984:30132   */\n      tag_519\n      jump\t// in\n    tag_778:\n        /* \"#utility.yul\":29977:30132   */\n      swap2\n      pop\n        /* \"#utility.yul\":30149:30244   */\n      tag_779\n        /* \"#utility.yul\":30240:30243   */\n      dup3\n        /* \"#utility.yul\":30231:30237   */\n      dup5\n        /* \"#utility.yul\":30149:30244   */\n      tag_509\n      jump\t// in\n    tag_779:\n        /* \"#utility.yul\":30142:30244   */\n      swap2\n      pop\n        /* \"#utility.yul\":30261:30264   */\n      dup2\n        /* \"#utility.yul\":30254:30264   */\n      swap1\n      pop\n        /* \"#utility.yul\":29729:30270   */\n      swap3\n      swap2\n      pop\n      pop\n      jump\t// out\n        /* \"#utility.yul\":30276:30427   */\n    tag_520:\n        /* \"#utility.yul\":30416:30419   */\n      0x3000000000000000000000000000000000000000000000000000000000000000\n        /* \"#utility.yul\":30412:30413   */\n      0x00\n        /* \"#utility.yul\":30404:30410   */\n      dup3\n        /* \"#utility.yul\":30400:30414   */\n      add\n        /* \"#utility.yul\":30393:30420   */\n      mstore\n        /* \"#utility.yul\":30276:30427   */\n      pop\n      jump\t// out\n        /* \"#utility.yul\":30433:30833   */\n    tag_521:\n        /* \"#utility.yul\":30593:30596   */\n      0x00\n        /* \"#utility.yul\":30614:30698   */\n      tag_782\n        /* \"#utility.yul\":30696:30697   */\n      0x01\n        /* \"#utility.yul\":30691:30694   */\n      dup4\n        /* \"#utility.yul\":30614:30698   */\n      tag_508\n      jump\t// in\n    tag_782:\n        /* \"#utility.yul\":30607:30698   */\n      swap2\n      pop\n        /* \"#utility.yul\":30707:30800   */\n      tag_783\n        /* \"#utility.yul\":30796:30799   */\n      dup3\n        /* \"#utility.yul\":30707:30800   */\n      tag_520\n      jump\t// in\n    tag_783:\n        /* \"#utility.yul\":30825:30826   */\n      0x01\n        /* \"#utility.yul\":30820:30823   */\n      dup3\n        /* \"#utility.yul\":30816:30827   */\n      add\n        /* \"#utility.yul\":30809:30827   */\n      swap1\n      pop\n        /* \"#utility.yul\":30433:30833   */\n      swap2\n      swap1\n      pop\n      jump\t// out\n        /* \"#utility.yul\":30839:31380   */\n    tag_411:\n        /* \"#utility.yul\":31072:31075   */\n      0x00\n        /* \"#utility.yul\":31094:31242   */\n      tag_785\n        /* \"#utility.yul\":31238:31241   */\n      dup3\n        /* \"#utility.yul\":31094:31242   */\n      tag_521\n      jump\t// in\n    tag_785:\n        /* \"#utility.yul\":31087:31242   */\n      swap2\n      pop\n        /* \"#utility.yul\":31259:31354   */\n      tag_786\n        /* \"#utility.yul\":31350:31353   */\n      dup3\n        /* \"#utility.yul\":31341:31347   */\n      dup5\n        /* \"#utility.yul\":31259:31354   */\n      tag_509\n      jump\t// in\n    tag_786:\n        /* \"#utility.yul\":31252:31354   */\n      swap2\n      pop\n        /* \"#utility.yul\":31371:31374   */\n      dup2\n        /* \"#utility.yul\":31364:31374   */\n      swap1\n      pop\n        /* \"#utility.yul\":30839:31380   */\n      swap3\n      swap2\n      pop\n      pop\n      jump\t// out\n        /* \"#utility.yul\":31386:31537   */\n    tag_522:\n        /* \"#utility.yul\":31526:31529   */\n      0x2e00000000000000000000000000000000000000000000000000000000000000\n        /* \"#utility.yul\":31522:31523   */\n      0x00\n        /* \"#utility.yul\":31514:31520   */\n      dup3\n        /* \"#utility.yul\":31510:31524   */\n      add\n        /* \"#utility.yul\":31503:31530   */\n      mstore\n        /* \"#utility.yul\":31386:31537   */\n      pop\n      jump\t// out\n        /* \"#utility.yul\":31543:31943   */\n    tag_523:\n        /* \"#utility.yul\":31703:31706   */\n      0x00\n        /* \"#utility.yul\":31724:31808   */\n      tag_789\n        /* \"#utility.yul\":31806:31807   */\n      0x01\n        /* \"#utility.yul\":31801:31804   */\n      dup4\n        /* \"#utility.yul\":31724:31808   */\n      tag_508\n      jump\t// in\n    tag_789:\n        /* \"#utility.yul\":31717:31808   */\n      swap2\n      pop\n        /* \"#utility.yul\":31817:31910   */\n      tag_790\n        /* \"#utility.yul\":31906:31909   */\n      dup3\n        /* \"#utility.yul\":31817:31910   */\n      tag_522\n      jump\t// in\n    tag_790:\n        /* \"#utility.yul\":31935:31936   */\n      0x01\n        /* \"#utility.yul\":31930:31933   */\n      dup3\n        /* \"#utility.yul\":31926:31937   */\n      add\n        /* \"#utility.yul\":31919:31937   */\n      swap1\n      pop\n        /* \"#utility.yul\":31543:31943   */\n      swap2\n      swap1\n      pop\n      jump\t// out\n        /* \"#utility.yul\":31949:32103   */\n    tag_524:\n        /* \"#utility.yul\":32089:32095   */\n      0x2045544800000000000000000000000000000000000000000000000000000000\n        /* \"#utility.yul\":32085:32086   */\n      0x00\n        /* \"#utility.yul\":32077:32083   */\n      dup3\n        /* \"#utility.yul\":32073:32087   */\n      add\n        /* \"#utility.yul\":32066:32096   */\n      mstore\n        /* \"#utility.yul\":31949:32103   */\n      pop\n      jump\t// out\n        /* \"#utility.yul\":32109:32509   */\n    tag_525:\n        /* \"#utility.yul\":32269:32272   */\n      0x00\n        /* \"#utility.yul\":32290:32374   */\n      tag_793\n        /* \"#utility.yul\":32372:32373   */\n      0x04\n        /* \"#utility.yul\":32367:32370   */\n      dup4\n        /* \"#utility.yul\":32290:32374   */\n      tag_508\n      jump\t// in\n    tag_793:\n        /* \"#utility.yul\":32283:32374   */\n      swap2\n      pop\n        /* \"#utility.yul\":32383:32476   */\n      tag_794\n        /* \"#utility.yul\":32472:32475   */\n      dup3\n        /* \"#utility.yul\":32383:32476   */\n      tag_524\n      jump\t// in\n    tag_794:\n        /* \"#utility.yul\":32501:32502   */\n      0x04\n        /* \"#utility.yul\":32496:32499   */\n      dup3\n        /* \"#utility.yul\":32492:32503   */\n      add\n        /* \"#utility.yul\":32485:32503   */\n      swap1\n      pop\n        /* \"#utility.yul\":32109:32509   */\n      swap2\n      swap1\n      pop\n      jump\t// out\n        /* \"#utility.yul\":32515:33482   */\n    tag_414:\n        /* \"#utility.yul\":32897:32900   */\n      0x00\n        /* \"#utility.yul\":32919:33014   */\n      tag_796\n        /* \"#utility.yul\":33010:33013   */\n      dup3\n        /* \"#utility.yul\":33001:33007   */\n      dup6\n        /* \"#utility.yul\":32919:33014   */\n      tag_509\n      jump\t// in\n    tag_796:\n        /* \"#utility.yul\":32912:33014   */\n      swap2\n      pop\n        /* \"#utility.yul\":33031:33179   */\n      tag_797\n        /* \"#utility.yul\":33175:33178   */\n      dup3\n        /* \"#utility.yul\":33031:33179   */\n      tag_523\n      jump\t// in\n    tag_797:\n        /* \"#utility.yul\":33024:33179   */\n      swap2\n      pop\n        /* \"#utility.yul\":33196:33291   */\n      tag_798\n        /* \"#utility.yul\":33287:33290   */\n      dup3\n        /* \"#utility.yul\":33278:33284   */\n      dup5\n        /* \"#utility.yul\":33196:33291   */\n      tag_509\n      jump\t// in\n    tag_798:\n        /* \"#utility.yul\":33189:33291   */\n      swap2\n      pop\n        /* \"#utility.yul\":33308:33456   */\n      tag_799\n        /* \"#utility.yul\":33452:33455   */\n      dup3\n        /* \"#utility.yul\":33308:33456   */\n      tag_525\n      jump\t// in\n    tag_799:\n        /* \"#utility.yul\":33301:33456   */\n      swap2\n      pop\n        /* \"#utility.yul\":33473:33476   */\n      dup2\n        /* \"#utility.yul\":33466:33476   */\n      swap1\n      pop\n        /* \"#utility.yul\":32515:33482   */\n      swap4\n      swap3\n      pop\n      pop\n      pop\n      jump\t// out\n        /* \"#utility.yul\":33488:33659   */\n    tag_429:\n        /* \"#utility.yul\":33527:33530   */\n      0x00\n        /* \"#utility.yul\":33550:33574   */\n      tag_801\n        /* \"#utility.yul\":33568:33573   */\n      dup3\n        /* \"#utility.yul\":33550:33574   */\n      tag_451\n      jump\t// in\n    tag_801:\n        /* \"#utility.yul\":33541:33574   */\n      swap2\n      pop\n        /* \"#utility.yul\":33596:33600   */\n      0x00\n        /* \"#utility.yul\":33589:33594   */\n      dup3\n        /* \"#utility.yul\":33586:33601   */\n      sub\n        /* \"#utility.yul\":33583:33624   */\n      tag_802\n      jumpi\n        /* \"#utility.yul\":33604:33622   */\n      tag_803\n      tag_478\n      jump\t// in\n    tag_803:\n        /* \"#utility.yul\":33583:33624   */\n    tag_802:\n        /* \"#utility.yul\":33651:33652   */\n      0x01\n        /* \"#utility.yul\":33644:33649   */\n      dup3\n        /* \"#utility.yul\":33640:33653   */\n      sub\n        /* \"#utility.yul\":33633:33653   */\n      swap1\n      pop\n        /* \"#utility.yul\":33488:33659   */\n      swap2\n      swap1\n      pop\n      jump\t// out\n        /* \"#utility.yul\":33665:33829   */\n    tag_526:\n        /* \"#utility.yul\":33805:33821   */\n      0x6d61784578636c75736976653d30000000000000000000000000000000000000\n        /* \"#utility.yul\":33801:33802   */\n      0x00\n        /* \"#utility.yul\":33793:33799   */\n      dup3\n        /* \"#utility.yul\":33789:33803   */\n      add\n        /* \"#utility.yul\":33782:33822   */\n      mstore\n        /* \"#utility.yul\":33665:33829   */\n      pop\n      jump\t// out\n        /* \"#utility.yul\":33835:34201   */\n    tag_527:\n        /* \"#utility.yul\":33977:33980   */\n      0x00\n        /* \"#utility.yul\":33998:34065   */\n      tag_806\n        /* \"#utility.yul\":34062:34064   */\n      0x0e\n        /* \"#utility.yul\":34057:34060   */\n      dup4\n        /* \"#utility.yul\":33998:34065   */\n      tag_448\n      jump\t// in\n    tag_806:\n        /* \"#utility.yul\":33991:34065   */\n      swap2\n      pop\n        /* \"#utility.yul\":34074:34167   */\n      tag_807\n        /* \"#utility.yul\":34163:34166   */\n      dup3\n        /* \"#utility.yul\":34074:34167   */\n      tag_526\n      jump\t// in\n    tag_807:\n        /* \"#utility.yul\":34192:34194   */\n      0x20\n        /* \"#utility.yul\":34187:34190   */\n      dup3\n        /* \"#utility.yul\":34183:34195   */\n      add\n        /* \"#utility.yul\":34176:34195   */\n      swap1\n      pop\n        /* \"#utility.yul\":33835:34201   */\n      swap2\n      swap1\n      pop\n      jump\t// out\n        /* \"#utility.yul\":34207:34626   */\n    tag_436:\n        /* \"#utility.yul\":34373:34377   */\n      0x00\n        /* \"#utility.yul\":34411:34413   */\n      0x20\n        /* \"#utility.yul\":34400:34409   */\n      dup3\n        /* \"#utility.yul\":34396:34414   */\n      add\n        /* \"#utility.yul\":34388:34414   */\n      swap1\n      pop\n        /* \"#utility.yul\":34460:34469   */\n      dup2\n        /* \"#utility.yul\":34454:34458   */\n      dup2\n        /* \"#utility.yul\":34450:34470   */\n      sub\n        /* \"#utility.yul\":34446:34447   */\n      0x00\n        /* \"#utility.yul\":34435:34444   */\n      dup4\n        /* \"#utility.yul\":34431:34448   */\n      add\n        /* \"#utility.yul\":34424:34471   */\n      mstore\n        /* \"#utility.yul\":34488:34619   */\n      tag_809\n        /* \"#utility.yul\":34614:34618   */\n      dup2\n        /* \"#utility.yul\":34488:34619   */\n      tag_527\n      jump\t// in\n    tag_809:\n        /* \"#utility.yul\":34480:34619   */\n      swap1\n      pop\n        /* \"#utility.yul\":34207:34626   */\n      swap2\n      swap1\n      pop\n      jump\t// out\n        /* \"#utility.yul\":34632:34711   */\n    tag_528:\n        /* \"#utility.yul\":34671:34678   */\n      0x00\n        /* \"#utility.yul\":34700:34705   */\n      dup2\n        /* \"#utility.yul\":34689:34705   */\n      swap1\n      pop\n        /* \"#utility.yul\":34632:34711   */\n      swap2\n      swap1\n      pop\n      jump\t// out\n        /* \"#utility.yul\":34717:34874   */\n    tag_529:\n        /* \"#utility.yul\":34822:34867   */\n      tag_812\n        /* \"#utility.yul\":34842:34866   */\n      tag_813\n        /* \"#utility.yul\":34860:34865   */\n      dup3\n        /* \"#utility.yul\":34842:34866   */\n      tag_451\n      jump\t// in\n    tag_813:\n        /* \"#utility.yul\":34822:34867   */\n      tag_528\n      jump\t// in\n    tag_812:\n        /* \"#utility.yul\":34817:34820   */\n      dup3\n        /* \"#utility.yul\":34810:34868   */\n      mstore\n        /* \"#utility.yul\":34717:34874   */\n      pop\n      pop\n      jump\t// out\n        /* \"#utility.yul\":34880:34974   */\n    tag_530:\n        /* \"#utility.yul\":34913:34921   */\n      0x00\n        /* \"#utility.yul\":34961:34966   */\n      dup2\n        /* \"#utility.yul\":34957:34959   */\n      0x60\n        /* \"#utility.yul\":34953:34967   */\n      shl\n        /* \"#utility.yul\":34932:34967   */\n      swap1\n      pop\n        /* \"#utility.yul\":34880:34974   */\n      swap2\n      swap1\n      pop\n      jump\t// out\n        /* \"#utility.yul\":34980:35074   */\n    tag_531:\n        /* \"#utility.yul\":35019:35026   */\n      0x00\n        /* \"#utility.yul\":35048:35068   */\n      tag_816\n        /* \"#utility.yul\":35062:35067   */\n      dup3\n        /* \"#utility.yul\":35048:35068   */\n      tag_530\n      jump\t// in\n    tag_816:\n        /* \"#utility.yul\":35037:35068   */\n      swap1\n      pop\n        /* \"#utility.yul\":34980:35074   */\n      swap2\n      swap1\n      pop\n      jump\t// out\n        /* \"#utility.yul\":35080:35180   */\n    tag_532:\n        /* \"#utility.yul\":35119:35126   */\n      0x00\n        /* \"#utility.yul\":35148:35174   */\n      tag_818\n        /* \"#utility.yul\":35168:35173   */\n      dup3\n        /* \"#utility.yul\":35148:35174   */\n      tag_531\n      jump\t// in\n    tag_818:\n        /* \"#utility.yul\":35137:35174   */\n      swap1\n      pop\n        /* \"#utility.yul\":35080:35180   */\n      swap2\n      swap1\n      pop\n      jump\t// out\n        /* \"#utility.yul\":35186:35343   */\n    tag_533:\n        /* \"#utility.yul\":35291:35336   */\n      tag_820\n        /* \"#utility.yul\":35311:35335   */\n      tag_821\n        /* \"#utility.yul\":35329:35334   */\n      dup3\n        /* \"#utility.yul\":35311:35335   */\n      tag_468\n      jump\t// in\n    tag_821:\n        /* \"#utility.yul\":35291:35336   */\n      tag_532\n      jump\t// in\n    tag_820:\n        /* \"#utility.yul\":35286:35289   */\n      dup3\n        /* \"#utility.yul\":35279:35337   */\n      mstore\n        /* \"#utility.yul\":35186:35343   */\n      pop\n      pop\n      jump\t// out\n        /* \"#utility.yul\":35349:36169   */\n    tag_438:\n        /* \"#utility.yul\":35573:35576   */\n      0x00\n        /* \"#utility.yul\":35588:35663   */\n      tag_823\n        /* \"#utility.yul\":35659:35662   */\n      dup3\n        /* \"#utility.yul\":35650:35656   */\n      dup9\n        /* \"#utility.yul\":35588:35663   */\n      tag_529\n      jump\t// in\n    tag_823:\n        /* \"#utility.yul\":35688:35690   */\n      0x20\n        /* \"#utility.yul\":35683:35686   */\n      dup3\n        /* \"#utility.yul\":35679:35691   */\n      add\n        /* \"#utility.yul\":35672:35691   */\n      swap2\n      pop\n        /* \"#utility.yul\":35701:35776   */\n      tag_824\n        /* \"#utility.yul\":35772:35775   */\n      dup3\n        /* \"#utility.yul\":35763:35769   */\n      dup8\n        /* \"#utility.yul\":35701:35776   */\n      tag_529\n      jump\t// in\n    tag_824:\n        /* \"#utility.yul\":35801:35803   */\n      0x20\n        /* \"#utility.yul\":35796:35799   */\n      dup3\n        /* \"#utility.yul\":35792:35804   */\n      add\n        /* \"#utility.yul\":35785:35804   */\n      swap2\n      pop\n        /* \"#utility.yul\":35814:35889   */\n      tag_825\n        /* \"#utility.yul\":35885:35888   */\n      dup3\n        /* \"#utility.yul\":35876:35882   */\n      dup7\n        /* \"#utility.yul\":35814:35889   */\n      tag_533\n      jump\t// in\n    tag_825:\n        /* \"#utility.yul\":35914:35916   */\n      0x14\n        /* \"#utility.yul\":35909:35912   */\n      dup3\n        /* \"#utility.yul\":35905:35917   */\n      add\n        /* \"#utility.yul\":35898:35917   */\n      swap2\n      pop\n        /* \"#utility.yul\":35927:36002   */\n      tag_826\n        /* \"#utility.yul\":35998:36001   */\n      dup3\n        /* \"#utility.yul\":35989:35995   */\n      dup6\n        /* \"#utility.yul\":35927:36002   */\n      tag_529\n      jump\t// in\n    tag_826:\n        /* \"#utility.yul\":36027:36029   */\n      0x20\n        /* \"#utility.yul\":36022:36025   */\n      dup3\n        /* \"#utility.yul\":36018:36030   */\n      add\n        /* \"#utility.yul\":36011:36030   */\n      swap2\n      pop\n        /* \"#utility.yul\":36040:36115   */\n      tag_827\n        /* \"#utility.yul\":36111:36114   */\n      dup3\n        /* \"#utility.yul\":36102:36108   */\n      dup5\n        /* \"#utility.yul\":36040:36115   */\n      tag_529\n      jump\t// in\n    tag_827:\n        /* \"#utility.yul\":36140:36142   */\n      0x20\n        /* \"#utility.yul\":36135:36138   */\n      dup3\n        /* \"#utility.yul\":36131:36143   */\n      add\n        /* \"#utility.yul\":36124:36143   */\n      swap2\n      pop\n        /* \"#utility.yul\":36160:36163   */\n      dup2\n        /* \"#utility.yul\":36153:36163   */\n      swap1\n      pop\n        /* \"#utility.yul\":35349:36169   */\n      swap7\n      swap6\n      pop\n      pop\n      pop\n      pop\n      pop\n      pop\n      jump\t// out\n\n    auxdata: 0xa264697066735822122065ab39121867affbedec3f43daa15eacf5d4780a4d8f9a236a6eec600d1839c164736f6c634300081e0033\n}\n",
				"bytecode": {
					"linkReferences": {},
					"object": "6080604052348015600e575f5ffd5b50335f5f6101000a81548173ffffffffffffffffffffffffffffffffffffffff021916908373ffffffffffffffffffffffffffffffffffffffff1602179055505f600181905550612e7a806100625f395ff3fe60806040526004361061019f575f3560e01c80636c48d697116100eb578063bd85948c11610089578063dac6270d11610063578063dac6270d146105e9578063e40205d614610613578063ef80113b1461063d578063f71d96cb14610667576101df565b8063bd85948c1461057f578063bfe7563414610595578063c2e52206146105bf576101df565b80638da5cb5b116100c55780638da5cb5b146104af57806391aae8f8146104d9578063a7a38f0b14610503578063adda2c2e14610543576101df565b80636c48d69714610431578063884bf67c1461045b5780638b5b9ccc14610485576101df565b806333a99e04116101585780635012f335116101325780635012f3351461037257806359499087146103ae5780635dfa872d146103d85780636641ea0814610407576101df565b806333a99e041461030857806345945a451461031e5780634e2786fb14610348576101df565b806306f81b151461021a5780631594b256146102445780631a1b716c1461026e5780631a95f15f146102985780632492b5b8146102c25780632f366637146102ec576101df565b366101df576040517f08c379a00000000000000000000000000000000000000000000000000000000081526004016101d690611e78565b60405180910390fd5b6040517f08c379a000000000000000000000000000000000000000000000000000000000815260040161021190611e78565b60405180910390fd5b348015610225575f5ffd5b5061022e6106a3565b60405161023b9190611eae565b60405180910390f35b34801561024f575f5ffd5b506102586106a9565b6040516102659190611eae565b60405180910390f35b348015610279575f5ffd5b506102826106af565b60405161028f9190611eae565b60405180910390f35b3480156102a3575f5ffd5b506102ac6106b4565b6040516102b99190611eae565b60405180910390f35b3480156102cd575f5ffd5b506102d66106bf565b6040516102e39190611ee1565b60405180910390f35b61030660048036038101906103019190611f28565b6106d1565b005b348015610313575f5ffd5b5061031c610a6d565b005b348015610329575f5ffd5b50610332610fea565b60405161033f9190611ee1565b60405180910390f35b348015610353575f5ffd5b5061035c611002565b6040516103699190611eae565b60405180910390f35b34801561037d575f5ffd5b5061039860048036038101906103939190611f28565b611008565b6040516103a59190611eae565b60405180910390f35b3480156103b9575f5ffd5b506103c2611028565b6040516103cf9190611eae565b60405180910390f35b3480156103e3575f5ffd5b506103ec61102d565b6040516103fe96959493929190611f53565b60405180910390f35b348015610412575f5ffd5b5061041b611075565b6040516104289190611eae565b60405180910390f35b34801561043c575f5ffd5b5061044561107b565b6040516104529190612012565b60405180910390f35b348015610466575f5ffd5b5061046f611092565b60405161047c9190611eae565b60405180910390f35b348015610490575f5ffd5b50610499611099565b6040516104a69190612119565b60405180910390f35b3480156104ba575f5ffd5b506104c3611124565b6040516104d09190612148565b60405180910390f35b3480156104e4575f5ffd5b506104ed611148565b6040516104fa9190611eae565b60405180910390f35b34801561050e575f5ffd5b5061052960048036038101906105249190611f28565b611162565b60405161053a959493929190612161565b60405180910390f35b34801561054e575f5ffd5b5061056960048036038101906105649190611f28565b6111a0565b6040516105769190612148565b60405180910390f35b34801561058a575f5ffd5b506105936111db565b005b3480156105a0575f5ffd5b506105a9611362565b6040516105b69190612012565b60405180910390f35b3480156105ca575f5ffd5b506105d36113c9565b6040516105e09190611eae565b60405180910390f35b3480156105f4575f5ffd5b506105fd6113d5565b60405161060a9190611eae565b60405180910390f35b34801561061e575f5ffd5b506106276113fe565b6040516106349190611eae565b60405180910390f35b348015610648575f5ffd5b50610651611404565b60405161065e9190612012565b60405180910390f35b348015610672575f5ffd5b5061068d60048036038101906106889190611f28565b611441565b60405161069a9190612148565b60405180910390f35b600a5481565b6101f481565b600a81565b662386f26fc1000081565b600b5f9054906101000a900460ff1681565b5f8111610713576040517f08c379a000000000000000000000000000000000000000000000000000000000815260040161070a906121fc565b60405180910390fd5b61071b610fea565b61075a576040517f08c379a000000000000000000000000000000000000000000000000000000000815260040161075190612264565b60405180910390fd5b662386f26fc100008161076d91906122af565b34146107ae576040517f08c379a00000000000000000000000000000000000000000000000000000000081526004016107a59061233a565b60405180910390fd5b5f60045f60015481526020019081526020015f205f3373ffffffffffffffffffffffffffffffffffffffff1673ffffffffffffffffffffffffffffffffffffffff1681526020019081526020015f20549050600a828261080e9190612358565b111561084f576040517f08c379a0000000000000000000000000000000000000000000000000000000008152600401610846906123d5565b60405180910390fd5b60055f60015481526020019081526020015f205f3373ffffffffffffffffffffffffffffffffffffffff1673ffffffffffffffffffffffffffffffffffffffff1681526020019081526020015f205f9054906101000a900460ff1661093f57600160055f60015481526020019081526020015f205f3373ffffffffffffffffffffffffffffffffffffffff1673ffffffffffffffffffffffffffffffffffffffff1681526020019081526020015f205f6101000a81548160ff021916908315150217905550600160065f60015481526020019081526020015f205f8282546109379190612358565b925050819055505b5f5f90505b828110156109b957600333908060018154018082558091505060019003905f5260205f20015f9091909190916101000a81548173ffffffffffffffffffffffffffffffffffffffff021916908373ffffffffffffffffffffffffffffffffffffffff1602179055508080600101915050610944565b5081816109c69190612358565b60045f60015481526020019081526020015f205f3373ffffffffffffffffffffffffffffffffffffffff1673ffffffffffffffffffffffffffffffffffffffff1681526020019081526020015f20819055506001543373ffffffffffffffffffffffffffffffffffffffff167f2a91574e12ad96234e84923e146b0946ecfb871cd8d5534dc1fdcbe87a7c01b384604051610a619190611eae565b60405180910390a35050565b600d5f9054906101000a900460ff1615610abc576040517f08c379a0000000000000000000000000000000000000000000000000000000008152600401610ab39061243d565b60405180910390fd5b6001600d5f6101000a81548160ff021916908315150217905550610ade610fea565b158015610aec57505f600254115b610b2b576040517f08c379a0000000000000000000000000000000000000000000000000000000008152600401610b22906124a5565b60405180910390fd5b5f60065f60015481526020019081526020015f205490506002811015610bfa575f610b5461147c565b9050610bf36001825f67ffffffffffffffff811115610b7657610b756124c3565b5b604051908082528060200260200182016040528015610ba45781602001602082028036833780820191505090505b505f67ffffffffffffffff811115610bbf57610bbe6124c3565b5b604051908082528060200260200182016040528015610bed5781602001602082028036833780820191505090505b506115df565b5050610fcf565b5f60038054905011610c41576040517f08c379a0000000000000000000000000000000000000000000000000000000008152600401610c389061253a565b60405180910390fd5b5f47905080600a819055505f6127106101f483610c5e91906122af565b610c689190612585565b90505f8183610c7791906125b5565b90505f6003851015610c895784610c8c565b60035b90505f610c9882611759565b90505f610ca583856118ed565b905060085f610cb49190611dc7565b60095f610cc19190611de5565b5f5f90505b8251811015610d96576008838281518110610ce457610ce36125e8565b5b6020026020010151908060018154018082558091505060019003905f5260205f20015f9091909190916101000a81548173ffffffffffffffffffffffffffffffffffffffff021916908373ffffffffffffffffffffffffffffffffffffffff1602179055506009828281518110610d5e57610d5d6125e8565b5b6020026020010151908060018154018082558091505060019003905f5260205f20015f90919091909150558080600101915050610cc6565b505f600b5f6101000a81548160ff0219169083151502179055505f851115610e82575f5f5f9054906101000a900473ffffffffffffffffffffffffffffffffffffffff1673ffffffffffffffffffffffffffffffffffffffff1686604051610dfd90612642565b5f6040518083038185875af1925050503d805f8114610e37576040519150601f19603f3d011682016040523d82523d5f602084013e610e3c565b606091505b5050905080610e80576040517f08c379a0000000000000000000000000000000000000000000000000000000008152600401610e77906126a0565b60405180910390fd5b505b5f5f90505b8251811015610f7a575f838281518110610ea457610ea36125e8565b5b602002602001015173ffffffffffffffffffffffffffffffffffffffff16838381518110610ed557610ed46125e8565b5b6020026020010151604051610ee990612642565b5f6040518083038185875af1925050503d805f8114610f23576040519150601f19603f3d011682016040523d82523d5f602084013e610f28565b606091505b5050905080610f6c576040517f08c379a0000000000000000000000000000000000000000000000000000000008152600401610f6390612708565b60405180910390fd5b508080600101915050610e87565b506001547f062802e42aff12cbf661e2b5331f950782ee2168c5df1e9a8012442542713ebe83838789604051610fb394939291906127dd565b60405180910390a2610fc75f8584846115df565b505050505050505b5f600d5f6101000a81548160ff021916908315150217905550565b5f5f600254118015610ffd575060025442105b905090565b60015481565b60098181548110611017575f80fd5b905f5260205f20015f915090505481565b600281565b5f5f5f5f5f5f6001549550611040610fea565b945061104a6113d5565b9350600380549050925060065f60015481526020019081526020015f20549150479050909192939495565b61012c81565b606061108d611088611092565b611ab6565b905090565b5f47905090565b6060600380548060200260200160405190810160405280929190818152602001828054801561111a57602002820191905f5260205f20905b815f9054906101000a900473ffffffffffffffffffffffffffffffffffffffff1673ffffffffffffffffffffffffffffffffffffffff16815260200190600101908083116110d1575b5050505050905090565b5f5f9054906101000a900473ffffffffffffffffffffffffffffffffffffffff1681565b5f60065f60015481526020019081526020015f2054905090565b600c602052805f5260405f205f91509050805f015490806001015f9054906101000a900460ff16908060020154908060030154908060040154905085565b600881815481106111af575f80fd5b905f5260205f20015f915054906101000a900473ffffffffffffffffffffffffffffffffffffffff1681565b5f5f9054906101000a900473ffffffffffffffffffffffffffffffffffffffff1673ffffffffffffffffffffffffffffffffffffffff163373ffffffffffffffffffffffffffffffffffffffff1614611269576040517f08c379a000000000000000000000000000000000000000000000000000000000815260040161126090612878565b60405180910390fd5b611271610fea565b156112b1576040517f08c379a00000000000000000000000000000000000000000000000000000000081526004016112a8906128e0565b60405180910390fd5b60035f6112be9190611dc7565b6001805f8282546112cf9190612358565b9250508190555061012c426112e49190612358565b60028190555060085f6112f79190611dc7565b60095f6113049190611de5565b5f600a819055505f600b5f6101000a81548160ff0219169083151502179055506001547f278844837bcf8364a705384bf3a2812901f54155bae86dea81dd52aa5b9ec0e36002546040516113589190611eae565b60405180910390a2565b60605f61136d6113d5565b90505f603c8261137d9190612585565b90505f603c8361138d91906128fe565b905061139882611bc5565b6113a182611bc5565b6040516020016113b29291906129fc565b604051602081830303815290604052935050505090565b5f600380549050905090565b5f6113de610fea565b6113ea575f90506113fb565b426002546113f891906125b5565b90505b90565b60025481565b60606040518060400160405280600881526020017f302e303120455448000000000000000000000000000000000000000000000000815250905090565b60038181548110611450575f80fd5b905f5260205f20015f915054906101000a900473ffffffffffffffffffffffffffffffffffffffff1681565b5f5f60038054905090505f5f90505b818110156115a0575f600382815481106114a8576114a76125e8565b5b905f5260205f20015f9054906101000a900473ffffffffffffffffffffffffffffffffffffffff1673ffffffffffffffffffffffffffffffffffffffff16662386f26fc100006040516114fa90612642565b5f6040518083038185875af1925050503d805f8114611534576040519150601f19603f3d011682016040523d82523d5f602084013e611539565b606091505b505090508061157d576040517f08c379a000000000000000000000000000000000000000000000000000000000815260040161157490612a7f565b60405180910390fd5b662386f26fc10000846115909190612358565b935050808060010191505061148b565b506001547f799819fa5a51b1d91e60bb39c0fa0c5f3859104dbe9d25b95498ad5a27f1e2db836040516115d39190611eae565b60405180910390a25090565b5f600c5f60015481526020019081526020015f209050600154815f018190555084816001015f6101000a81548160ff02191690831515021790555061012c60025461162a91906125b5565b81600201819055506002548160030181905550838160040181905550806005015f6116559190611dc7565b806006015f6116649190611de5565b5f5f90505b835181101561173d5781600501848281518110611689576116886125e8565b5b6020026020010151908060018154018082558091505060019003905f5260205f20015f9091909190916101000a81548173ffffffffffffffffffffffffffffffffffffffff021916908373ffffffffffffffffffffffffffffffffffffffff16021790555081600601838281518110611705576117046125e8565b5b6020026020010151908060018154018082558091505060019003905f5260205f20015f90919091909150558080600101915050611669565b505f60028190555060035f6117529190611dc7565b5050505050565b60605f8267ffffffffffffffff811115611776576117756124c3565b5b6040519080825280602002602001820160405280156117a45781602001602082028036833780820191505090505b5090505f5f90505b838110156118e3575f6117c3600380549050611d1e565b90505f600382815481106117da576117d96125e8565b5b905f5260205f20015f9054906101000a900473ffffffffffffffffffffffffffffffffffffffff1690505f5f90505f5f90505b84811015611878578273ffffffffffffffffffffffffffffffffffffffff1686828151811061183f5761183e6125e8565b5b602002602001015173ffffffffffffffffffffffffffffffffffffffff160361186b5760019150611878565b808060010191505061180d565b50806118db5781858581518110611892576118916125e8565b5b602002602001019073ffffffffffffffffffffffffffffffffffffffff16908173ffffffffffffffffffffffffffffffffffffffff168152505083806118d790612a9d565b9450505b5050506117ac565b8192505050919050565b60605f8367ffffffffffffffff81111561190a576119096124c3565b5b6040519080825280602002602001820160405280156119385781602001602082028036833780820191505090505b509050600184036119685782815f81518110611957576119566125e8565b5b602002602001018181525050611aac565b600284036119f3576064603c8461197f91906122af565b6119899190612585565b815f8151811061199c5761199b6125e8565b5b602002602001018181525050805f815181106119bb576119ba6125e8565b5b6020026020010151836119ce91906125b5565b816001815181106119e2576119e16125e8565b5b602002602001018181525050611aab565b5f6064603285611a0391906122af565b611a0d9190612585565b90505f6064601e86611a1f91906122af565b611a299190612585565b90505f818387611a3991906125b5565b611a4391906125b5565b905082845f81518110611a5957611a586125e8565b5b6020026020010181815250508184600181518110611a7a57611a796125e8565b5b6020026020010181815250508084600281518110611a9b57611a9a6125e8565b5b6020026020010181815250505050505b5b8091505092915050565b60605f670de0b6b3a764000083611acd9190612585565b90505f655af3107a4000670de0b6b3a764000085611aeb91906128fe565b611af59190612585565b90505f611b0182611bc5565b90506001815103611b335780604051602001611b1d9190612b2e565b6040516020818303038152906040529050611b91565b6002815103611b635780604051602001611b4d9190612b99565b6040516020818303038152906040529050611b90565b6003815103611b8f5780604051602001611b7d9190612c04565b60405160208183030381529060405290505b5b5b611b9a83611bc5565b81604051602001611bac929190612cb9565b6040516020818303038152906040529350505050919050565b60605f8203611c0b576040518060400160405280600181526020017f30000000000000000000000000000000000000000000000000000000000000008152509050611d19565b5f8290505f5b5f8214611c3a578080611c2390612a9d565b915050600a82611c339190612585565b9150611c11565b5f8167ffffffffffffffff811115611c5557611c546124c3565b5b6040519080825280601f01601f191660200182016040528015611c875781602001600182028036833780820191505090505b5090508492505b5f8314611d1257600a83611ca291906128fe565b6030611cae9190612358565b60f81b8183611cbc90612cf2565b93508381518110611cd057611ccf6125e8565b5b60200101907effffffffffffffffffffffffffffffffffffffffffffffffffffffffffffff191690815f1a905350600a83611d0b9190612585565b9250611c8e565b8093505050505b919050565b5f5f8211611d61576040517f08c379a0000000000000000000000000000000000000000000000000000000008152600401611d5890612d63565b60405180910390fd5b5f424433600380549050600754604051602001611d82959493929190612de6565b604051602081830303815290604052805190602001205f1c905060075f815480929190611dae90612a9d565b91905055508281611dbf91906128fe565b915050919050565b5080545f8255905f5260205f2090810190611de29190611e03565b50565b5080545f8255905f5260205f2090810190611e009190611e03565b50565b5b80821115611e1a575f815f905550600101611e04565b5090565b5f82825260208201905092915050565b7f44697265637420455448206e6f7420616c6c6f776564000000000000000000005f82015250565b5f611e62601683611e1e565b9150611e6d82611e2e565b602082019050919050565b5f6020820190508181035f830152611e8f81611e56565b9050919050565b5f819050919050565b611ea881611e96565b82525050565b5f602082019050611ec15f830184611e9f565b92915050565b5f8115159050919050565b611edb81611ec7565b82525050565b5f602082019050611ef45f830184611ed2565b92915050565b5f5ffd5b611f0781611e96565b8114611f11575f5ffd5b50565b5f81359050611f2281611efe565b92915050565b5f60208284031215611f3d57611f3c611efa565b5b5f611f4a84828501611f14565b91505092915050565b5f60c082019050611f665f830189611e9f565b611f736020830188611ed2565b611f806040830187611e9f565b611f8d6060830186611e9f565b611f9a6080830185611e9f565b611fa760a0830184611e9f565b979650505050505050565b5f81519050919050565b8281835e5f83830152505050565b5f601f19601f8301169050919050565b5f611fe482611fb2565b611fee8185611e1e565b9350611ffe818560208601611fbc565b61200781611fca565b840191505092915050565b5f6020820190508181035f83015261202a8184611fda565b905092915050565b5f81519050919050565b5f82825260208201905092915050565b5f819050602082019050919050565b5f73ffffffffffffffffffffffffffffffffffffffff82169050919050565b5f6120848261205b565b9050919050565b6120948161207a565b82525050565b5f6120a5838361208b565b60208301905092915050565b5f602082019050919050565b5f6120c782612032565b6120d1818561203c565b93506120dc8361204c565b805f5b8381101561210c5781516120f3888261209a565b97506120fe836120b1565b9250506001810190506120df565b5085935050505092915050565b5f6020820190508181035f83015261213181846120bd565b905092915050565b6121428161207a565b82525050565b5f60208201905061215b5f830184612139565b92915050565b5f60a0820190506121745f830188611e9f565b6121816020830187611ed2565b61218e6040830186611e9f565b61219b6060830185611e9f565b6121a86080830184611e9f565b9695505050505050565b7f7469636b6574436f756e74203e203000000000000000000000000000000000005f82015250565b5f6121e6600f83611e1e565b91506121f1826121b2565b602082019050919050565b5f6020820190508181035f830152612213816121da565b9050919050565b7f4e6f2061637469766520726f756e6400000000000000000000000000000000005f82015250565b5f61224e600f83611e1e565b91506122598261221a565b602082019050919050565b5f6020820190508181035f83015261227b81612242565b9050919050565b7f4e487b71000000000000000000000000000000000000000000000000000000005f52601160045260245ffd5b5f6122b982611e96565b91506122c483611e96565b92508282026122d281611e96565b915082820484148315176122e9576122e8612282565b5b5092915050565b7f496e636f727265637420455448000000000000000000000000000000000000005f82015250565b5f612324600d83611e1e565b915061232f826122f0565b602082019050919050565b5f6020820190508181035f83015261235181612318565b9050919050565b5f61236282611e96565b915061236d83611e96565b925082820190508082111561238557612384612282565b5b92915050565b7f45786365656473207065722d61646472657373206c696d6974000000000000005f82015250565b5f6123bf601983611e1e565b91506123ca8261238b565b602082019050919050565b5f6020820190508181035f8301526123ec816123b3565b9050919050565b7f5265656e7472616e6379000000000000000000000000000000000000000000005f82015250565b5f612427600a83611e1e565b9150612432826123f3565b602082019050919050565b5f6020820190508181035f8301526124548161241b565b9050919050565b7f526f756e64206e6f7420656e64656400000000000000000000000000000000005f82015250565b5f61248f600f83611e1e565b915061249a8261245b565b602082019050919050565b5f6020820190508181035f8301526124bc81612483565b9050919050565b7f4e487b71000000000000000000000000000000000000000000000000000000005f52604160045260245ffd5b7f4e6f20656e7472696573000000000000000000000000000000000000000000005f82015250565b5f612524600a83611e1e565b915061252f826124f0565b602082019050919050565b5f6020820190508181035f83015261255181612518565b9050919050565b7f4e487b71000000000000000000000000000000000000000000000000000000005f52601260045260245ffd5b5f61258f82611e96565b915061259a83611e96565b9250826125aa576125a9612558565b5b828204905092915050565b5f6125bf82611e96565b91506125ca83611e96565b92508282039050818111156125e2576125e1612282565b5b92915050565b7f4e487b71000000000000000000000000000000000000000000000000000000005f52603260045260245ffd5b5f81905092915050565b50565b5f61262d5f83612615565b91506126388261261f565b5f82019050919050565b5f61264c82612622565b9150819050919050565b7f466565207472616e73666572206661696c6564000000000000000000000000005f82015250565b5f61268a601383611e1e565b915061269582612656565b602082019050919050565b5f6020820190508181035f8301526126b78161267e565b9050919050565b7f5072697a65207472616e73666572206661696c656400000000000000000000005f82015250565b5f6126f2601583611e1e565b91506126fd826126be565b602082019050919050565b5f6020820190508181035f83015261271f816126e6565b9050919050565b5f81519050919050565b5f82825260208201905092915050565b5f819050602082019050919050565b61275881611e96565b82525050565b5f612769838361274f565b60208301905092915050565b5f602082019050919050565b5f61278b82612726565b6127958185612730565b93506127a083612740565b805f5b838110156127d05781516127b7888261275e565b97506127c283612775565b9250506001810190506127a3565b5085935050505092915050565b5f6080820190508181035f8301526127f581876120bd565b905081810360208301526128098186612781565b90506128186040830185611e9f565b6128256060830184611e9f565b95945050505050565b7f4f6e6c79206f776e6572000000000000000000000000000000000000000000005f82015250565b5f612862600a83611e1e565b915061286d8261282e565b602082019050919050565b5f6020820190508181035f83015261288f81612856565b9050919050565b7f526f756e6420616c7265616479206163746976650000000000000000000000005f82015250565b5f6128ca601483611e1e565b91506128d582612896565b602082019050919050565b5f6020820190508181035f8301526128f7816128be565b9050919050565b5f61290882611e96565b915061291383611e96565b92508261292357612922612558565b5b828206905092915050565b5f81905092915050565b5f61294282611fb2565b61294c818561292e565b935061295c818560208601611fbc565b80840191505092915050565b7f206d696e200000000000000000000000000000000000000000000000000000005f82015250565b5f61299c60058361292e565b91506129a782612968565b600582019050919050565b7f20736563000000000000000000000000000000000000000000000000000000005f82015250565b5f6129e660048361292e565b91506129f1826129b2565b600482019050919050565b5f612a078285612938565b9150612a1282612990565b9150612a1e8284612938565b9150612a29826129da565b91508190509392505050565b7f526566756e64207472616e73666572206661696c6564000000000000000000005f82015250565b5f612a69601683611e1e565b9150612a7482612a35565b602082019050919050565b5f6020820190508181035f830152612a9681612a5d565b9050919050565b5f612aa782611e96565b91507fffffffffffffffffffffffffffffffffffffffffffffffffffffffffffffffff8203612ad957612ad8612282565b5b600182019050919050565b7f30303000000000000000000000000000000000000000000000000000000000005f82015250565b5f612b1860038361292e565b9150612b2382612ae4565b600382019050919050565b5f612b3882612b0c565b9150612b448284612938565b915081905092915050565b7f30300000000000000000000000000000000000000000000000000000000000005f82015250565b5f612b8360028361292e565b9150612b8e82612b4f565b600282019050919050565b5f612ba382612b77565b9150612baf8284612938565b915081905092915050565b7f30000000000000000000000000000000000000000000000000000000000000005f82015250565b5f612bee60018361292e565b9150612bf982612bba565b600182019050919050565b5f612c0e82612be2565b9150612c1a8284612938565b915081905092915050565b7f2e000000000000000000000000000000000000000000000000000000000000005f82015250565b5f612c5960018361292e565b9150612c6482612c25565b600182019050919050565b7f20455448000000000000000000000000000000000000000000000000000000005f82015250565b5f612ca360048361292e565b9150612cae82612c6f565b600482019050919050565b5f612cc48285612938565b9150612ccf82612c4d565b9150612cdb8284612938565b9150612ce682612c97565b91508190509392505050565b5f612cfc82611e96565b91505f8203612d0e57612d0d612282565b5b600182039050919050565b7f6d61784578636c75736976653d300000000000000000000000000000000000005f82015250565b5f612d4d600e83611e1e565b9150612d5882612d19565b602082019050919050565b5f6020820190508181035f830152612d7a81612d41565b9050919050565b5f819050919050565b612d9b612d9682611e96565b612d81565b82525050565b5f8160601b9050919050565b5f612db782612da1565b9050919050565b5f612dc882612dad565b9050919050565b612de0612ddb8261207a565b612dbe565b82525050565b5f612df18288612d8a565b602082019150612e018287612d8a565b602082019150612e118286612dcf565b601482019150612e218285612d8a565b602082019150612e318284612d8a565b602082019150819050969550505050505056fea264697066735822122065ab39121867affbedec3f43daa15eacf5d4780a4d8f9a236a6eec600d1839c164736f6c634300081e0033",
					"opcodes": "PUSH1 0x80 PUSH1 0x40 MSTORE CALLVALUE DUP1 ISZERO PUSH1 0xE JUMPI PUSH0 PUSH0 REVERT JUMPDEST POP CALLER PUSH0 PUSH0 PUSH2 0x100 EXP DUP2 SLOAD DUP2 PUSH20 0xFFFFFFFFFFFFFFFFFFFFFFFFFFFFFFFFFFFFFFFF MUL NOT AND SWAP1 DUP4 PUSH20 0xFFFFFFFFFFFFFFFFFFFFFFFFFFFFFFFFFFFFFFFF AND MUL OR SWAP1 SSTORE POP PUSH0 PUSH1 0x1 DUP2 SWAP1 SSTORE POP PUSH2 0x2E7A DUP1 PUSH2 0x62 PUSH0 CODECOPY PUSH0 RETURN INVALID PUSH1 0x80 PUSH1 0x40 MSTORE PUSH1 0x4 CALLDATASIZE LT PUSH2 0x19F JUMPI PUSH0 CALLDATALOAD PUSH1 0xE0 SHR DUP1 PUSH4 0x6C48D697 GT PUSH2 0xEB JUMPI DUP1 PUSH4 0xBD85948C GT PUSH2 0x89 JUMPI DUP1 PUSH4 0xDAC6270D GT PUSH2 0x63 JUMPI DUP1 PUSH4 0xDAC6270D EQ PUSH2 0x5E9 JUMPI DUP1 PUSH4 0xE40205D6 EQ PUSH2 0x613 JUMPI DUP1 PUSH4 0xEF80113B EQ PUSH2 0x63D JUMPI DUP1 PUSH4 0xF71D96CB EQ PUSH2 0x667 JUMPI PUSH2 0x1DF JUMP JUMPDEST DUP1 PUSH4 0xBD85948C EQ PUSH2 0x57F JUMPI DUP1 PUSH4 0xBFE75634 EQ PUSH2 0x595 JUMPI DUP1 PUSH4 0xC2E52206 EQ PUSH2 0x5BF JUMPI PUSH2 0x1DF JUMP JUMPDEST DUP1 PUSH4 0x8DA5CB5B GT PUSH2 0xC5 JUMPI DUP1 PUSH4 0x8DA5CB5B EQ PUSH2 0x4AF JUMPI DUP1 PUSH4 0x91AAE8F8 EQ PUSH2 0x4D9 JUMPI DUP1 PUSH4 0xA7A38F0B EQ PUSH2 0x503 JUMPI DUP1 PUSH4 0xADDA2C2E EQ PUSH2 0x543 JUMPI PUSH2 0x1DF JUMP JUMPDEST DUP1 PUSH4 0x6C48D697 EQ PUSH2 0x431 JUMPI DUP1 PUSH4 0x884BF67C EQ PUSH2 0x45B JUMPI DUP1 PUSH4 0x8B5B9CCC EQ PUSH2 0x485 JUMPI PUSH2 0x1DF JUMP JUMPDEST DUP1 PUSH4 0x33A99E04 GT PUSH2 0x158 JUMPI DUP1 PUSH4 0x5012F335 GT PUSH2 0x132 JUMPI DUP1 PUSH4 0x5012F335 EQ PUSH2 0x372 JUMPI DUP1 PUSH4 0x59499087 EQ PUSH2 0x3AE JUMPI DUP1 PUSH4 0x5DFA872D EQ PUSH2 0x3D8 JUMPI DUP1 PUSH4 0x6641EA08 EQ PUSH2 0x407 JUMPI PUSH2 0x1DF JUMP JUMPDEST DUP1 PUSH4 0x33A99E04 EQ PUSH2 0x308 JUMPI DUP1 PUSH4 0x45945A45 EQ PUSH2 0x31E JUMPI DUP1 PUSH4 0x4E2786FB EQ PUSH2 0x348 JUMPI PUSH2 0x1DF JUMP JUMPDEST DUP1 PUSH4 0x6F81B15 EQ PUSH2 0x21A JUMPI DUP1 PUSH4 0x1594B256 EQ PUSH2 0x244 JUMPI DUP1 PUSH4 0x1A1B716C EQ PUSH2 0x26E JUMPI DUP1 PUSH4 0x1A95F15F EQ PUSH2 0x298 JUMPI DUP1 PUSH4 0x2492B5B8 EQ PUSH2 0x2C2 JUMPI DUP1 PUSH4 0x2F366637 EQ PUSH2 0x2EC JUMPI PUSH2 0x1DF JUMP JUMPDEST CALLDATASIZE PUSH2 0x1DF JUMPI PUSH1 0x40 MLOAD PUSH32 0x8C379A000000000000000000000000000000000000000000000000000000000 DUP2 MSTORE PUSH1 0x4 ADD PUSH2 0x1D6 SWAP1 PUSH2 0x1E78 JUMP JUMPDEST PUSH1 0x40 MLOAD DUP1 SWAP2 SUB SWAP1 REVERT JUMPDEST PUSH1 0x40 MLOAD PUSH32 0x8C379A000000000000000000000000000000000000000000000000000000000 DUP2 MSTORE PUSH1 0x4 ADD PUSH2 0x211 SWAP1 PUSH2 0x1E78 JUMP JUMPDEST PUSH1 0x40 MLOAD DUP1 SWAP2 SUB SWAP1 REVERT JUMPDEST CALLVALUE DUP1 ISZERO PUSH2 0x225 JUMPI PUSH0 PUSH0 REVERT JUMPDEST POP PUSH2 0x22E PUSH2 0x6A3 JUMP JUMPDEST PUSH1 0x40 MLOAD PUSH2 0x23B SWAP2 SWAP1 PUSH2 0x1EAE JUMP JUMPDEST PUSH1 0x40 MLOAD DUP1 SWAP2 SUB SWAP1 RETURN JUMPDEST CALLVALUE DUP1 ISZERO PUSH2 0x24F JUMPI PUSH0 PUSH0 REVERT JUMPDEST POP PUSH2 0x258 PUSH2 0x6A9 JUMP JUMPDEST PUSH1 0x40 MLOAD PUSH2 0x265 SWAP2 SWAP1 PUSH2 0x1EAE JUMP JUMPDEST PUSH1 0x40 MLOAD DUP1 SWAP2 SUB SWAP1 RETURN JUMPDEST CALLVALUE DUP1 ISZERO PUSH2 0x279 JUMPI PUSH0 PUSH0 REVERT JUMPDEST POP PUSH2 0x282 PUSH2 0x6AF JUMP JUMPDEST PUSH1 0x40 MLOAD PUSH2 0x28F SWAP2 SWAP1 PUSH2 0x1EAE JUMP JUMPDEST PUSH1 0x40 MLOAD DUP1 SWAP2 SUB SWAP1 RETURN JUMPDEST CALLVALUE DUP1 ISZERO PUSH2 0x2A3 JUMPI PUSH0 PUSH0 REVERT JUMPDEST POP PUSH2 0x2AC PUSH2 0x6B4 JUMP JUMPDEST PUSH1 0x40 MLOAD PUSH2 0x2B9 SWAP2 SWAP1 PUSH2 0x1EAE JUMP JUMPDEST PUSH1 0x40 MLOAD DUP1 SWAP2 SUB SWAP1 RETURN JUMPDEST CALLVALUE DUP1 ISZERO PUSH2 0x2CD JUMPI PUSH0 PUSH0 REVERT JUMPDEST POP PUSH2 0x2D6 PUSH2 0x6BF JUMP JUMPDEST PUSH1 0x40 MLOAD PUSH2 0x2E3 SWAP2 SWAP1 PUSH2 0x1EE1 JUMP JUMPDEST PUSH1 0x40 MLOAD DUP1 SWAP2 SUB SWAP1 RETURN JUMPDEST PUSH2 0x306 PUSH1 0x4 DUP1 CALLDATASIZE SUB DUP2 ADD SWAP1 PUSH2 0x301 SWAP2 SWAP1 PUSH2 0x1F28 JUMP JUMPDEST PUSH2 0x6D1 JUMP JUMPDEST STOP JUMPDEST CALLVALUE DUP1 ISZERO PUSH2 0x313 JUMPI PUSH0 PUSH0 REVERT JUMPDEST POP PUSH2 0x31C PUSH2 0xA6D JUMP JUMPDEST STOP JUMPDEST CALLVALUE DUP1 ISZERO PUSH2 0x329 JUMPI PUSH0 PUSH0 REVERT JUMPDEST POP PUSH2 0x332 PUSH2 0xFEA JUMP JUMPDEST PUSH1 0x40 MLOAD PUSH2 0x33F SWAP2 SWAP1 PUSH2 0x1EE1 JUMP JUMPDEST PUSH1 0x40 MLOAD DUP1 SWAP2 SUB SWAP1 RETURN JUMPDEST CALLVALUE DUP1 ISZERO PUSH2 0x353 JUMPI PUSH0 PUSH0 REVERT JUMPDEST POP PUSH2 0x35C PUSH2 0x1002 JUMP JUMPDEST PUSH1 0x40 MLOAD PUSH2 0x369 SWAP2 SWAP1 PUSH2 0x1EAE JUMP JUMPDEST PUSH1 0x40 MLOAD DUP1 SWAP2 SUB SWAP1 RETURN JUMPDEST CALLVALUE DUP1 ISZERO PUSH2 0x37D JUMPI PUSH0 PUSH0 REVERT JUMPDEST POP PUSH2 0x398 PUSH1 0x4 DUP1 CALLDATASIZE SUB DUP2 ADD SWAP1 PUSH2 0x393 SWAP2 SWAP1 PUSH2 0x1F28 JUMP JUMPDEST PUSH2 0x1008 JUMP JUMPDEST PUSH1 0x40 MLOAD PUSH2 0x3A5 SWAP2 SWAP1 PUSH2 0x1EAE JUMP JUMPDEST PUSH1 0x40 MLOAD DUP1 SWAP2 SUB SWAP1 RETURN JUMPDEST CALLVALUE DUP1 ISZERO PUSH2 0x3B9 JUMPI PUSH0 PUSH0 REVERT JUMPDEST POP PUSH2 0x3C2 PUSH2 0x1028 JUMP JUMPDEST PUSH1 0x40 MLOAD PUSH2 0x3CF SWAP2 SWAP1 PUSH2 0x1EAE JUMP JUMPDEST PUSH1 0x40 MLOAD DUP1 SWAP2 SUB SWAP1 RETURN JUMPDEST CALLVALUE DUP1 ISZERO PUSH2 0x3E3 JUMPI PUSH0 PUSH0 REVERT JUMPDEST POP PUSH2 0x3EC PUSH2 0x102D JUMP JUMPDEST PUSH1 0x40 MLOAD PUSH2 0x3FE SWAP7 SWAP6 SWAP5 SWAP4 SWAP3 SWAP2 SWAP1 PUSH2 0x1F53 JUMP JUMPDEST PUSH1 0x40 MLOAD DUP1 SWAP2 SUB SWAP1 RETURN JUMPDEST CALLVALUE DUP1 ISZERO PUSH2 0x412 JUMPI PUSH0 PUSH0 REVERT JUMPDEST POP PUSH2 0x41B PUSH2 0x1075 JUMP JUMPDEST PUSH1 0x40 MLOAD PUSH2 0x428 SWAP2 SWAP1 PUSH2 0x1EAE JUMP JUMPDEST PUSH1 0x40 MLOAD DUP1 SWAP2 SUB SWAP1 RETURN JUMPDEST CALLVALUE DUP1 ISZERO PUSH2 0x43C JUMPI PUSH0 PUSH0 REVERT JUMPDEST POP PUSH2 0x445 PUSH2 0x107B JUMP JUMPDEST PUSH1 0x40 MLOAD PUSH2 0x452 SWAP2 SWAP1 PUSH2 0x2012 JUMP JUMPDEST PUSH1 0x40 MLOAD DUP1 SWAP2 SUB SWAP1 RETURN JUMPDEST CALLVALUE DUP1 ISZERO PUSH2 0x466 JUMPI PUSH0 PUSH0 REVERT JUMPDEST POP PUSH2 0x46F PUSH2 0x1092 JUMP JUMPDEST PUSH1 0x40 MLOAD PUSH2 0x47C SWAP2 SWAP1 PUSH2 0x1EAE JUMP JUMPDEST PUSH1 0x40 MLOAD DUP1 SWAP2 SUB SWAP1 RETURN JUMPDEST CALLVALUE DUP1 ISZERO PUSH2 0x490 JUMPI PUSH0 PUSH0 REVERT JUMPDEST POP PUSH2 0x499 PUSH2 0x1099 JUMP JUMPDEST PUSH1 0x40 MLOAD PUSH2 0x4A6 SWAP2 SWAP1 PUSH2 0x2119 JUMP JUMPDEST PUSH1 0x40 MLOAD DUP1 SWAP2 SUB SWAP1 RETURN JUMPDEST CALLVALUE DUP1 ISZERO PUSH2 0x4BA JUMPI PUSH0 PUSH0 REVERT JUMPDEST POP PUSH2 0x4C3 PUSH2 0x1124 JUMP JUMPDEST PUSH1 0x40 MLOAD PUSH2 0x4D0 SWAP2 SWAP1 PUSH2 0x2148 JUMP JUMPDEST PUSH1 0x40 MLOAD DUP1 SWAP2 SUB SWAP1 RETURN JUMPDEST CALLVALUE DUP1 ISZERO PUSH2 0x4E4 JUMPI PUSH0 PUSH0 REVERT JUMPDEST POP PUSH2 0x4ED PUSH2 0x1148 JUMP JUMPDEST PUSH1 0x40 MLOAD PUSH2 0x4FA SWAP2 SWAP1 PUSH2 0x1EAE JUMP JUMPDEST PUSH1 0x40 MLOAD DUP1 SWAP2 SUB SWAP1 RETURN JUMPDEST CALLVALUE DUP1 ISZERO PUSH2 0x50E JUMPI PUSH0 PUSH0 REVERT JUMPDEST POP PUSH2 0x529 PUSH1 0x4 DUP1 CALLDATASIZE SUB DUP2 ADD SWAP1 PUSH2 0x524 SWAP2 SWAP1 PUSH2 0x1F28 JUMP JUMPDEST PUSH2 0x1162 JUMP JUMPDEST PUSH1 0x40 MLOAD PUSH2 0x53A SWAP6 SWAP5 SWAP4 SWAP3 SWAP2 SWAP1 PUSH2 0x2161 JUMP JUMPDEST PUSH1 0x40 MLOAD DUP1 SWAP2 SUB SWAP1 RETURN JUMPDEST CALLVALUE DUP1 ISZERO PUSH2 0x54E JUMPI PUSH0 PUSH0 REVERT JUMPDEST POP PUSH2 0x569 PUSH1 0x4 DUP1 CALLDATASIZE SUB DUP2 ADD SWAP1 PUSH2 0x564 SWAP2 SWAP1 PUSH2 0x1F28 JUMP JUMPDEST PUSH2 0x11A0 JUMP JUMPDEST PUSH1 0x40 MLOAD PUSH2 0x576 SWAP2 SWAP1 PUSH2 0x2148 JUMP JUMPDEST PUSH1 0x40 MLOAD DUP1 SWAP2 SUB SWAP1 RETURN JUMPDEST CALLVALUE DUP1 ISZERO PUSH2 0x58A JUMPI PUSH0 PUSH0 REVERT JUMPDEST POP PUSH2 0x593 PUSH2 0x11DB JUMP JUMPDEST STOP JUMPDEST CALLVALUE DUP1 ISZERO PUSH2 0x5A0 JUMPI PUSH0 PUSH0 REVERT JUMPDEST POP PUSH2 0x5A9 PUSH2 0x1362 JUMP JUMPDEST PUSH1 0x40 MLOAD PUSH2 0x5B6 SWAP2 SWAP1 PUSH2 0x2012 JUMP JUMPDEST PUSH1 0x40 MLOAD DUP1 SWAP2 SUB SWAP1 RETURN JUMPDEST CALLVALUE DUP1 ISZERO PUSH2 0x5CA JUMPI PUSH0 PUSH0 REVERT JUMPDEST POP PUSH2 0x5D3 PUSH2 0x13C9 JUMP JUMPDEST PUSH1 0x40 MLOAD PUSH2 0x5E0 SWAP2 SWAP1 PUSH2 0x1EAE JUMP JUMPDEST PUSH1 0x40 MLOAD DUP1 SWAP2 SUB SWAP1 RETURN JUMPDEST CALLVALUE DUP1 ISZERO PUSH2 0x5F4 JUMPI PUSH0 PUSH0 REVERT JUMPDEST POP PUSH2 0x5FD PUSH2 0x13D5 JUMP JUMPDEST PUSH1 0x40 MLOAD PUSH2 0x60A SWAP2 SWAP1 PUSH2 0x1EAE JUMP JUMPDEST PUSH1 0x40 MLOAD DUP1 SWAP2 SUB SWAP1 RETURN JUMPDEST CALLVALUE DUP1 ISZERO PUSH2 0x61E JUMPI PUSH0 PUSH0 REVERT JUMPDEST POP PUSH2 0x627 PUSH2 0x13FE JUMP JUMPDEST PUSH1 0x40 MLOAD PUSH2 0x634 SWAP2 SWAP1 PUSH2 0x1EAE JUMP JUMPDEST PUSH1 0x40 MLOAD DUP1 SWAP2 SUB SWAP1 RETURN JUMPDEST CALLVALUE DUP1 ISZERO PUSH2 0x648 JUMPI PUSH0 PUSH0 REVERT JUMPDEST POP PUSH2 0x651 PUSH2 0x1404 JUMP JUMPDEST PUSH1 0x40 MLOAD PUSH2 0x65E SWAP2 SWAP1 PUSH2 0x2012 JUMP JUMPDEST PUSH1 0x40 MLOAD DUP1 SWAP2 SUB SWAP1 RETURN JUMPDEST CALLVALUE DUP1 ISZERO PUSH2 0x672 JUMPI PUSH0 PUSH0 REVERT JUMPDEST POP PUSH2 0x68D PUSH1 0x4 DUP1 CALLDATASIZE SUB DUP2 ADD SWAP1 PUSH2 0x688 SWAP2 SWAP1 PUSH2 0x1F28 JUMP JUMPDEST PUSH2 0x1441 JUMP JUMPDEST PUSH1 0x40 MLOAD PUSH2 0x69A SWAP2 SWAP1 PUSH2 0x2148 JUMP JUMPDEST PUSH1 0x40 MLOAD DUP1 SWAP2 SUB SWAP1 RETURN JUMPDEST PUSH1 0xA SLOAD DUP2 JUMP JUMPDEST PUSH2 0x1F4 DUP2 JUMP JUMPDEST PUSH1 0xA DUP2 JUMP JUMPDEST PUSH7 0x2386F26FC10000 DUP2 JUMP JUMPDEST PUSH1 0xB PUSH0 SWAP1 SLOAD SWAP1 PUSH2 0x100 EXP SWAP1 DIV PUSH1 0xFF AND DUP2 JUMP JUMPDEST PUSH0 DUP2 GT PUSH2 0x713 JUMPI PUSH1 0x40 MLOAD PUSH32 0x8C379A000000000000000000000000000000000000000000000000000000000 DUP2 MSTORE PUSH1 0x4 ADD PUSH2 0x70A SWAP1 PUSH2 0x21FC JUMP JUMPDEST PUSH1 0x40 MLOAD DUP1 SWAP2 SUB SWAP1 REVERT JUMPDEST PUSH2 0x71B PUSH2 0xFEA JUMP JUMPDEST PUSH2 0x75A JUMPI PUSH1 0x40 MLOAD PUSH32 0x8C379A000000000000000000000000000000000000000000000000000000000 DUP2 MSTORE PUSH1 0x4 ADD PUSH2 0x751 SWAP1 PUSH2 0x2264 JUMP JUMPDEST PUSH1 0x40 MLOAD DUP1 SWAP2 SUB SWAP1 REVERT JUMPDEST PUSH7 0x2386F26FC10000 DUP2 PUSH2 0x76D SWAP2 SWAP1 PUSH2 0x22AF JUMP JUMPDEST CALLVALUE EQ PUSH2 0x7AE JUMPI PUSH1 0x40 MLOAD PUSH32 0x8C379A000000000000000000000000000000000000000000000000000000000 DUP2 MSTORE PUSH1 0x4 ADD PUSH2 0x7A5 SWAP1 PUSH2 0x233A JUMP JUMPDEST PUSH1 0x40 MLOAD DUP1 SWAP2 SUB SWAP1 REVERT JUMPDEST PUSH0 PUSH1 0x4 PUSH0 PUSH1 0x1 SLOAD DUP2 MSTORE PUSH1 0x20 ADD SWAP1 DUP2 MSTORE PUSH1 0x20 ADD PUSH0 KECCAK256 PUSH0 CALLER PUSH20 0xFFFFFFFFFFFFFFFFFFFFFFFFFFFFFFFFFFFFFFFF AND PUSH20 0xFFFFFFFFFFFFFFFFFFFFFFFFFFFFFFFFFFFFFFFF AND DUP2 MSTORE PUSH1 0x20 ADD SWAP1 DUP2 MSTORE PUSH1 0x20 ADD PUSH0 KECCAK256 SLOAD SWAP1 POP PUSH1 0xA DUP3 DUP3 PUSH2 0x80E SWAP2 SWAP1 PUSH2 0x2358 JUMP JUMPDEST GT ISZERO PUSH2 0x84F JUMPI PUSH1 0x40 MLOAD PUSH32 0x8C379A000000000000000000000000000000000000000000000000000000000 DUP2 MSTORE PUSH1 0x4 ADD PUSH2 0x846 SWAP1 PUSH2 0x23D5 JUMP JUMPDEST PUSH1 0x40 MLOAD DUP1 SWAP2 SUB SWAP1 REVERT JUMPDEST PUSH1 0x5 PUSH0 PUSH1 0x1 SLOAD DUP2 MSTORE PUSH1 0x20 ADD SWAP1 DUP2 MSTORE PUSH1 0x20 ADD PUSH0 KECCAK256 PUSH0 CALLER PUSH20 0xFFFFFFFFFFFFFFFFFFFFFFFFFFFFFFFFFFFFFFFF AND PUSH20 0xFFFFFFFFFFFFFFFFFFFFFFFFFFFFFFFFFFFFFFFF AND DUP2 MSTORE PUSH1 0x20 ADD SWAP1 DUP2 MSTORE PUSH1 0x20 ADD PUSH0 KECCAK256 PUSH0 SWAP1 SLOAD SWAP1 PUSH2 0x100 EXP SWAP1 DIV PUSH1 0xFF AND PUSH2 0x93F JUMPI PUSH1 0x1 PUSH1 0x5 PUSH0 PUSH1 0x1 SLOAD DUP2 MSTORE PUSH1 0x20 ADD SWAP1 DUP2 MSTORE PUSH1 0x20 ADD PUSH0 KECCAK256 PUSH0 CALLER PUSH20 0xFFFFFFFFFFFFFFFFFFFFFFFFFFFFFFFFFFFFFFFF AND PUSH20 0xFFFFFFFFFFFFFFFFFFFFFFFFFFFFFFFFFFFFFFFF AND DUP2 MSTORE PUSH1 0x20 ADD SWAP1 DUP2 MSTORE PUSH1 0x20 ADD PUSH0 KECCAK256 PUSH0 PUSH2 0x100 EXP DUP2 SLOAD DUP2 PUSH1 0xFF MUL NOT AND SWAP1 DUP4 ISZERO ISZERO MUL OR SWAP1 SSTORE POP PUSH1 0x1 PUSH1 0x6 PUSH0 PUSH1 0x1 SLOAD DUP2 MSTORE PUSH1 0x20 ADD SWAP1 DUP2 MSTORE PUSH1 0x20 ADD PUSH0 KECCAK256 PUSH0 DUP3 DUP3 SLOAD PUSH2 0x937 SWAP2 SWAP1 PUSH2 0x2358 JUMP JUMPDEST SWAP3 POP POP DUP2 SWAP1 SSTORE POP JUMPDEST PUSH0 PUSH0 SWAP1 POP JUMPDEST DUP3 DUP2 LT ISZERO PUSH2 0x9B9 JUMPI PUSH1 0x3 CALLER SWAP1 DUP1 PUSH1 0x1 DUP2 SLOAD ADD DUP1 DUP3 SSTORE DUP1 SWAP2 POP POP PUSH1 0x1 SWAP1 SUB SWAP1 PUSH0 MSTORE PUSH1 0x20 PUSH0 KECCAK256 ADD PUSH0 SWAP1 SWAP2 SWAP1 SWAP2 SWAP1 SWAP2 PUSH2 0x100 EXP DUP2 SLOAD DUP2 PUSH20 0xFFFFFFFFFFFFFFFFFFFFFFFFFFFFFFFFFFFFFFFF MUL NOT AND SWAP1 DUP4 PUSH20 0xFFFFFFFFFFFFFFFFFFFFFFFFFFFFFFFFFFFFFFFF AND MUL OR SWAP1 SSTORE POP DUP1 DUP1 PUSH1 0x1 ADD SWAP2 POP POP PUSH2 0x944 JUMP JUMPDEST POP DUP2 DUP2 PUSH2 0x9C6 SWAP2 SWAP1 PUSH2 0x2358 JUMP JUMPDEST PUSH1 0x4 PUSH0 PUSH1 0x1 SLOAD DUP2 MSTORE PUSH1 0x20 ADD SWAP1 DUP2 MSTORE PUSH1 0x20 ADD PUSH0 KECCAK256 PUSH0 CALLER PUSH20 0xFFFFFFFFFFFFFFFFFFFFFFFFFFFFFFFFFFFFFFFF AND PUSH20 0xFFFFFFFFFFFFFFFFFFFFFFFFFFFFFFFFFFFFFFFF AND DUP2 MSTORE PUSH1 0x20 ADD SWAP1 DUP2 MSTORE PUSH1 0x20 ADD PUSH0 KECCAK256 DUP2 SWAP1 SSTORE POP PUSH1 0x1 SLOAD CALLER PUSH20 0xFFFFFFFFFFFFFFFFFFFFFFFFFFFFFFFFFFFFFFFF AND PUSH32 0x2A91574E12AD96234E84923E146B0946ECFB871CD8D5534DC1FDCBE87A7C01B3 DUP5 PUSH1 0x40 MLOAD PUSH2 0xA61 SWAP2 SWAP1 PUSH2 0x1EAE JUMP JUMPDEST PUSH1 0x40 MLOAD DUP1 SWAP2 SUB SWAP1 LOG3 POP POP JUMP JUMPDEST PUSH1 0xD PUSH0 SWAP1 SLOAD SWAP1 PUSH2 0x100 EXP SWAP1 DIV PUSH1 0xFF AND ISZERO PUSH2 0xABC JUMPI PUSH1 0x40 MLOAD PUSH32 0x8C379A000000000000000000000000000000000000000000000000000000000 DUP2 MSTORE PUSH1 0x4 ADD PUSH2 0xAB3 SWAP1 PUSH2 0x243D JUMP JUMPDEST PUSH1 0x40 MLOAD DUP1 SWAP2 SUB SWAP1 REVERT JUMPDEST PUSH1 0x1 PUSH1 0xD PUSH0 PUSH2 0x100 EXP DUP2 SLOAD DUP2 PUSH1 0xFF MUL NOT AND SWAP1 DUP4 ISZERO ISZERO MUL OR SWAP1 SSTORE POP PUSH2 0xADE PUSH2 0xFEA JUMP JUMPDEST ISZERO DUP1 ISZERO PUSH2 0xAEC JUMPI POP PUSH0 PUSH1 0x2 SLOAD GT JUMPDEST PUSH2 0xB2B JUMPI PUSH1 0x40 MLOAD PUSH32 0x8C379A000000000000000000000000000000000000000000000000000000000 DUP2 MSTORE PUSH1 0x4 ADD PUSH2 0xB22 SWAP1 PUSH2 0x24A5 JUMP JUMPDEST PUSH1 0x40 MLOAD DUP1 SWAP2 SUB SWAP1 REVERT JUMPDEST PUSH0 PUSH1 0x6 PUSH0 PUSH1 0x1 SLOAD DUP2 MSTORE PUSH1 0x20 ADD SWAP1 DUP2 MSTORE PUSH1 0x20 ADD PUSH0 KECCAK256 SLOAD SWAP1 POP PUSH1 0x2 DUP2 LT ISZERO PUSH2 0xBFA JUMPI PUSH0 PUSH2 0xB54 PUSH2 0x147C JUMP JUMPDEST SWAP1 POP PUSH2 0xBF3 PUSH1 0x1 DUP3 PUSH0 PUSH8 0xFFFFFFFFFFFFFFFF DUP2 GT ISZERO PUSH2 0xB76 JUMPI PUSH2 0xB75 PUSH2 0x24C3 JUMP JUMPDEST JUMPDEST PUSH1 0x40 MLOAD SWAP1 DUP1 DUP3 MSTORE DUP1 PUSH1 0x20 MUL PUSH1 0x20 ADD DUP3 ADD PUSH1 0x40 MSTORE DUP1 ISZERO PUSH2 0xBA4 JUMPI DUP2 PUSH1 0x20 ADD PUSH1 0x20 DUP3 MUL DUP1 CALLDATASIZE DUP4 CALLDATACOPY DUP1 DUP3 ADD SWAP2 POP POP SWAP1 POP JUMPDEST POP PUSH0 PUSH8 0xFFFFFFFFFFFFFFFF DUP2 GT ISZERO PUSH2 0xBBF JUMPI PUSH2 0xBBE PUSH2 0x24C3 JUMP JUMPDEST JUMPDEST PUSH1 0x40 MLOAD SWAP1 DUP1 DUP3 MSTORE DUP1 PUSH1 0x20 MUL PUSH1 0x20 ADD DUP3 ADD PUSH1 0x40 MSTORE DUP1 ISZERO PUSH2 0xBED JUMPI DUP2 PUSH1 0x20 ADD PUSH1 0x20 DUP3 MUL DUP1 CALLDATASIZE DUP4 CALLDATACOPY DUP1 DUP3 ADD SWAP2 POP POP SWAP1 POP JUMPDEST POP PUSH2 0x15DF JUMP JUMPDEST POP POP PUSH2 0xFCF JUMP JUMPDEST PUSH0 PUSH1 0x3 DUP1 SLOAD SWAP1 POP GT PUSH2 0xC41 JUMPI PUSH1 0x40 MLOAD PUSH32 0x8C379A000000000000000000000000000000000000000000000000000000000 DUP2 MSTORE PUSH1 0x4 ADD PUSH2 0xC38 SWAP1 PUSH2 0x253A JUMP JUMPDEST PUSH1 0x40 MLOAD DUP1 SWAP2 SUB SWAP1 REVERT JUMPDEST PUSH0 SELFBALANCE SWAP1 POP DUP1 PUSH1 0xA DUP2 SWAP1 SSTORE POP PUSH0 PUSH2 0x2710 PUSH2 0x1F4 DUP4 PUSH2 0xC5E SWAP2 SWAP1 PUSH2 0x22AF JUMP JUMPDEST PUSH2 0xC68 SWAP2 SWAP1 PUSH2 0x2585 JUMP JUMPDEST SWAP1 POP PUSH0 DUP2 DUP4 PUSH2 0xC77 SWAP2 SWAP1 PUSH2 0x25B5 JUMP JUMPDEST SWAP1 POP PUSH0 PUSH1 0x3 DUP6 LT ISZERO PUSH2 0xC89 JUMPI DUP5 PUSH2 0xC8C JUMP JUMPDEST PUSH1 0x3 JUMPDEST SWAP1 POP PUSH0 PUSH2 0xC98 DUP3 PUSH2 0x1759 JUMP JUMPDEST SWAP1 POP PUSH0 PUSH2 0xCA5 DUP4 DUP6 PUSH2 0x18ED JUMP JUMPDEST SWAP1 POP PUSH1 0x8 PUSH0 PUSH2 0xCB4 SWAP2 SWAP1 PUSH2 0x1DC7 JUMP JUMPDEST PUSH1 0x9 PUSH0 PUSH2 0xCC1 SWAP2 SWAP1 PUSH2 0x1DE5 JUMP JUMPDEST PUSH0 PUSH0 SWAP1 POP JUMPDEST DUP3 MLOAD DUP2 LT ISZERO PUSH2 0xD96 JUMPI PUSH1 0x8 DUP4 DUP3 DUP2 MLOAD DUP2 LT PUSH2 0xCE4 JUMPI PUSH2 0xCE3 PUSH2 0x25E8 JUMP JUMPDEST JUMPDEST PUSH1 0x20 MUL PUSH1 0x20 ADD ADD MLOAD SWAP1 DUP1 PUSH1 0x1 DUP2 SLOAD ADD DUP1 DUP3 SSTORE DUP1 SWAP2 POP POP PUSH1 0x1 SWAP1 SUB SWAP1 PUSH0 MSTORE PUSH1 0x20 PUSH0 KECCAK256 ADD PUSH0 SWAP1 SWAP2 SWAP1 SWAP2 SWAP1 SWAP2 PUSH2 0x100 EXP DUP2 SLOAD DUP2 PUSH20 0xFFFFFFFFFFFFFFFFFFFFFFFFFFFFFFFFFFFFFFFF MUL NOT AND SWAP1 DUP4 PUSH20 0xFFFFFFFFFFFFFFFFFFFFFFFFFFFFFFFFFFFFFFFF AND MUL OR SWAP1 SSTORE POP PUSH1 0x9 DUP3 DUP3 DUP2 MLOAD DUP2 LT PUSH2 0xD5E JUMPI PUSH2 0xD5D PUSH2 0x25E8 JUMP JUMPDEST JUMPDEST PUSH1 0x20 MUL PUSH1 0x20 ADD ADD MLOAD SWAP1 DUP1 PUSH1 0x1 DUP2 SLOAD ADD DUP1 DUP3 SSTORE DUP1 SWAP2 POP POP PUSH1 0x1 SWAP1 SUB SWAP1 PUSH0 MSTORE PUSH1 0x20 PUSH0 KECCAK256 ADD PUSH0 SWAP1 SWAP2 SWAP1 SWAP2 SWAP1 SWAP2 POP SSTORE DUP1 DUP1 PUSH1 0x1 ADD SWAP2 POP POP PUSH2 0xCC6 JUMP JUMPDEST POP PUSH0 PUSH1 0xB PUSH0 PUSH2 0x100 EXP DUP2 SLOAD DUP2 PUSH1 0xFF MUL NOT AND SWAP1 DUP4 ISZERO ISZERO MUL OR SWAP1 SSTORE POP PUSH0 DUP6 GT ISZERO PUSH2 0xE82 JUMPI PUSH0 PUSH0 PUSH0 SWAP1 SLOAD SWAP1 PUSH2 0x100 EXP SWAP1 DIV PUSH20 0xFFFFFFFFFFFFFFFFFFFFFFFFFFFFFFFFFFFFFFFF AND PUSH20 0xFFFFFFFFFFFFFFFFFFFFFFFFFFFFFFFFFFFFFFFF AND DUP7 PUSH1 0x40 MLOAD PUSH2 0xDFD SWAP1 PUSH2 0x2642 JUMP JUMPDEST PUSH0 PUSH1 0x40 MLOAD DUP1 DUP4 SUB DUP2 DUP6 DUP8 GAS CALL SWAP3 POP POP POP RETURNDATASIZE DUP1 PUSH0 DUP2 EQ PUSH2 0xE37 JUMPI PUSH1 0x40 MLOAD SWAP2 POP PUSH1 0x1F NOT PUSH1 0x3F RETURNDATASIZE ADD AND DUP3 ADD PUSH1 0x40 MSTORE RETURNDATASIZE DUP3 MSTORE RETURNDATASIZE PUSH0 PUSH1 0x20 DUP5 ADD RETURNDATACOPY PUSH2 0xE3C JUMP JUMPDEST PUSH1 0x60 SWAP2 POP JUMPDEST POP POP SWAP1 POP DUP1 PUSH2 0xE80 JUMPI PUSH1 0x40 MLOAD PUSH32 0x8C379A000000000000000000000000000000000000000000000000000000000 DUP2 MSTORE PUSH1 0x4 ADD PUSH2 0xE77 SWAP1 PUSH2 0x26A0 JUMP JUMPDEST PUSH1 0x40 MLOAD DUP1 SWAP2 SUB SWAP1 REVERT JUMPDEST POP JUMPDEST PUSH0 PUSH0 SWAP1 POP JUMPDEST DUP3 MLOAD DUP2 LT ISZERO PUSH2 0xF7A JUMPI PUSH0 DUP4 DUP3 DUP2 MLOAD DUP2 LT PUSH2 0xEA4 JUMPI PUSH2 0xEA3 PUSH2 0x25E8 JUMP JUMPDEST JUMPDEST PUSH1 0x20 MUL PUSH1 0x20 ADD ADD MLOAD PUSH20 0xFFFFFFFFFFFFFFFFFFFFFFFFFFFFFFFFFFFFFFFF AND DUP4 DUP4 DUP2 MLOAD DUP2 LT PUSH2 0xED5 JUMPI PUSH2 0xED4 PUSH2 0x25E8 JUMP JUMPDEST JUMPDEST PUSH1 0x20 MUL PUSH1 0x20 ADD ADD MLOAD PUSH1 0x40 MLOAD PUSH2 0xEE9 SWAP1 PUSH2 0x2642 JUMP JUMPDEST PUSH0 PUSH1 0x40 MLOAD DUP1 DUP4 SUB DUP2 DUP6 DUP8 GAS CALL SWAP3 POP POP POP RETURNDATASIZE DUP1 PUSH0 DUP2 EQ PUSH2 0xF23 JUMPI PUSH1 0x40 MLOAD SWAP2 POP PUSH1 0x1F NOT PUSH1 0x3F RETURNDATASIZE ADD AND DUP3 ADD PUSH1 0x40 MSTORE RETURNDATASIZE DUP3 MSTORE RETURNDATASIZE PUSH0 PUSH1 0x20 DUP5 ADD RETURNDATACOPY PUSH2 0xF28 JUMP JUMPDEST PUSH1 0x60 SWAP2 POP JUMPDEST POP POP SWAP1 POP DUP1 PUSH2 0xF6C JUMPI PUSH1 0x40 MLOAD PUSH32 0x8C379A000000000000000000000000000000000000000000000000000000000 DUP2 MSTORE PUSH1 0x4 ADD PUSH2 0xF63 SWAP1 PUSH2 0x2708 JUMP JUMPDEST PUSH1 0x40 MLOAD DUP1 SWAP2 SUB SWAP1 REVERT JUMPDEST POP DUP1 DUP1 PUSH1 0x1 ADD SWAP2 POP POP PUSH2 0xE87 JUMP JUMPDEST POP PUSH1 0x1 SLOAD PUSH32 0x62802E42AFF12CBF661E2B5331F950782EE2168C5DF1E9A8012442542713EBE DUP4 DUP4 DUP8 DUP10 PUSH1 0x40 MLOAD PUSH2 0xFB3 SWAP5 SWAP4 SWAP3 SWAP2 SWAP1 PUSH2 0x27DD JUMP JUMPDEST PUSH1 0x40 MLOAD DUP1 SWAP2 SUB SWAP1 LOG2 PUSH2 0xFC7 PUSH0 DUP6 DUP5 DUP5 PUSH2 0x15DF JUMP JUMPDEST POP POP POP POP POP POP POP JUMPDEST PUSH0 PUSH1 0xD PUSH0 PUSH2 0x100 EXP DUP2 SLOAD DUP2 PUSH1 0xFF MUL NOT AND SWAP1 DUP4 ISZERO ISZERO MUL OR SWAP1 SSTORE POP JUMP JUMPDEST PUSH0 PUSH0 PUSH1 0x2 SLOAD GT DUP1 ISZERO PUSH2 0xFFD JUMPI POP PUSH1 0x2 SLOAD TIMESTAMP LT JUMPDEST SWAP1 POP SWAP1 JUMP JUMPDEST PUSH1 0x1 SLOAD DUP2 JUMP JUMPDEST PUSH1 0x9 DUP2 DUP2 SLOAD DUP2 LT PUSH2 0x1017 JUMPI PUSH0 DUP1 REVERT JUMPDEST SWAP1 PUSH0 MSTORE PUSH1 0x20 PUSH0 KECCAK256 ADD PUSH0 SWAP2 POP SWAP1 POP SLOAD DUP2 JUMP JUMPDEST PUSH1 0x2 DUP2 JUMP JUMPDEST PUSH0 PUSH0 PUSH0 PUSH0 PUSH0 PUSH0 PUSH1 0x1 SLOAD SWAP6 POP PUSH2 0x1040 PUSH2 0xFEA JUMP JUMPDEST SWAP5 POP PUSH2 0x104A PUSH2 0x13D5 JUMP JUMPDEST SWAP4 POP PUSH1 0x3 DUP1 SLOAD SWAP1 POP SWAP3 POP PUSH1 0x6 PUSH0 PUSH1 0x1 SLOAD DUP2 MSTORE PUSH1 0x20 ADD SWAP1 DUP2 MSTORE PUSH1 0x20 ADD PUSH0 KECCAK256 SLOAD SWAP2 POP SELFBALANCE SWAP1 POP SWAP1 SWAP2 SWAP3 SWAP4 SWAP5 SWAP6 JUMP JUMPDEST PUSH2 0x12C DUP2 JUMP JUMPDEST PUSH1 0x60 PUSH2 0x108D PUSH2 0x1088 PUSH2 0x1092 JUMP JUMPDEST PUSH2 0x1AB6 JUMP JUMPDEST SWAP1 POP SWAP1 JUMP JUMPDEST PUSH0 SELFBALANCE SWAP1 POP SWAP1 JUMP JUMPDEST PUSH1 0x60 PUSH1 0x3 DUP1 SLOAD DUP1 PUSH1 0x20 MUL PUSH1 0x20 ADD PUSH1 0x40 MLOAD SWAP1 DUP2 ADD PUSH1 0x40 MSTORE DUP1 SWAP3 SWAP2 SWAP1 DUP2 DUP2 MSTORE PUSH1 0x20 ADD DUP3 DUP1 SLOAD DUP1 ISZERO PUSH2 0x111A JUMPI PUSH1 0x20 MUL DUP3 ADD SWAP2 SWAP1 PUSH0 MSTORE PUSH1 0x20 PUSH0 KECCAK256 SWAP1 JUMPDEST DUP2 PUSH0 SWAP1 SLOAD SWAP1 PUSH2 0x100 EXP SWAP1 DIV PUSH20 0xFFFFFFFFFFFFFFFFFFFFFFFFFFFFFFFFFFFFFFFF AND PUSH20 0xFFFFFFFFFFFFFFFFFFFFFFFFFFFFFFFFFFFFFFFF AND DUP2 MSTORE PUSH1 0x20 ADD SWAP1 PUSH1 0x1 ADD SWAP1 DUP1 DUP4 GT PUSH2 0x10D1 JUMPI JUMPDEST POP POP POP POP POP SWAP1 POP SWAP1 JUMP JUMPDEST PUSH0 PUSH0 SWAP1 SLOAD SWAP1 PUSH2 0x100 EXP SWAP1 DIV PUSH20 0xFFFFFFFFFFFFFFFFFFFFFFFFFFFFFFFFFFFFFFFF AND DUP2 JUMP JUMPDEST PUSH0 PUSH1 0x6 PUSH0 PUSH1 0x1 SLOAD DUP2 MSTORE PUSH1 0x20 ADD SWAP1 DUP2 MSTORE PUSH1 0x20 ADD PUSH0 KECCAK256 SLOAD SWAP1 POP SWAP1 JUMP JUMPDEST PUSH1 0xC PUSH1 0x20 MSTORE DUP1 PUSH0 MSTORE PUSH1 0x40 PUSH0 KECCAK256 PUSH0 SWAP2 POP SWAP1 POP DUP1 PUSH0 ADD SLOAD SWAP1 DUP1 PUSH1 0x1 ADD PUSH0 SWAP1 SLOAD SWAP1 PUSH2 0x100 EXP SWAP1 DIV PUSH1 0xFF AND SWAP1 DUP1 PUSH1 0x2 ADD SLOAD SWAP1 DUP1 PUSH1 0x3 ADD SLOAD SWAP1 DUP1 PUSH1 0x4 ADD SLOAD SWAP1 POP DUP6 JUMP JUMPDEST PUSH1 0x8 DUP2 DUP2 SLOAD DUP2 LT PUSH2 0x11AF JUMPI PUSH0 DUP1 REVERT JUMPDEST SWAP1 PUSH0 MSTORE PUSH1 0x20 PUSH0 KECCAK256 ADD PUSH0 SWAP2 POP SLOAD SWAP1 PUSH2 0x100 EXP SWAP1 DIV PUSH20 0xFFFFFFFFFFFFFFFFFFFFFFFFFFFFFFFFFFFFFFFF AND DUP2 JUMP JUMPDEST PUSH0 PUSH0 SWAP1 SLOAD SWAP1 PUSH2 0x100 EXP SWAP1 DIV PUSH20 0xFFFFFFFFFFFFFFFFFFFFFFFFFFFFFFFFFFFFFFFF AND PUSH20 0xFFFFFFFFFFFFFFFFFFFFFFFFFFFFFFFFFFFFFFFF AND CALLER PUSH20 0xFFFFFFFFFFFFFFFFFFFFFFFFFFFFFFFFFFFFFFFF AND EQ PUSH2 0x1269 JUMPI PUSH1 0x40 MLOAD PUSH32 0x8C379A000000000000000000000000000000000000000000000000000000000 DUP2 MSTORE PUSH1 0x4 ADD PUSH2 0x1260 SWAP1 PUSH2 0x2878 JUMP JUMPDEST PUSH1 0x40 MLOAD DUP1 SWAP2 SUB SWAP1 REVERT JUMPDEST PUSH2 0x1271 PUSH2 0xFEA JUMP JUMPDEST ISZERO PUSH2 0x12B1 JUMPI PUSH1 0x40 MLOAD PUSH32 0x8C379A000000000000000000000000000000000000000000000000000000000 DUP2 MSTORE PUSH1 0x4 ADD PUSH2 0x12A8 SWAP1 PUSH2 0x28E0 JUMP JUMPDEST PUSH1 0x40 MLOAD DUP1 SWAP2 SUB SWAP1 REVERT JUMPDEST PUSH1 0x3 PUSH0 PUSH2 0x12BE SWAP2 SWAP1 PUSH2 0x1DC7 JUMP JUMPDEST PUSH1 0x1 DUP1 PUSH0 DUP3 DUP3 SLOAD PUSH2 0x12CF SWAP2 SWAP1 PUSH2 0x2358 JUMP JUMPDEST SWAP3 POP POP DUP2 SWAP1 SSTORE POP PUSH2 0x12C TIMESTAMP PUSH2 0x12E4 SWAP2 SWAP1 PUSH2 0x2358 JUMP JUMPDEST PUSH1 0x2 DUP2 SWAP1 SSTORE POP PUSH1 0x8 PUSH0 PUSH2 0x12F7 SWAP2 SWAP1 PUSH2 0x1DC7 JUMP JUMPDEST PUSH1 0x9 PUSH0 PUSH2 0x1304 SWAP2 SWAP1 PUSH2 0x1DE5 JUMP JUMPDEST PUSH0 PUSH1 0xA DUP2 SWAP1 SSTORE POP PUSH0 PUSH1 0xB PUSH0 PUSH2 0x100 EXP DUP2 SLOAD DUP2 PUSH1 0xFF MUL NOT AND SWAP1 DUP4 ISZERO ISZERO MUL OR SWAP1 SSTORE POP PUSH1 0x1 SLOAD PUSH32 0x278844837BCF8364A705384BF3A2812901F54155BAE86DEA81DD52AA5B9EC0E3 PUSH1 0x2 SLOAD PUSH1 0x40 MLOAD PUSH2 0x1358 SWAP2 SWAP1 PUSH2 0x1EAE JUMP JUMPDEST PUSH1 0x40 MLOAD DUP1 SWAP2 SUB SWAP1 LOG2 JUMP JUMPDEST PUSH1 0x60 PUSH0 PUSH2 0x136D PUSH2 0x13D5 JUMP JUMPDEST SWAP1 POP PUSH0 PUSH1 0x3C DUP3 PUSH2 0x137D SWAP2 SWAP1 PUSH2 0x2585 JUMP JUMPDEST SWAP1 POP PUSH0 PUSH1 0x3C DUP4 PUSH2 0x138D SWAP2 SWAP1 PUSH2 0x28FE JUMP JUMPDEST SWAP1 POP PUSH2 0x1398 DUP3 PUSH2 0x1BC5 JUMP JUMPDEST PUSH2 0x13A1 DUP3 PUSH2 0x1BC5 JUMP JUMPDEST PUSH1 0x40 MLOAD PUSH1 0x20 ADD PUSH2 0x13B2 SWAP3 SWAP2 SWAP1 PUSH2 0x29FC JUMP JUMPDEST PUSH1 0x40 MLOAD PUSH1 0x20 DUP2 DUP4 SUB SUB DUP2 MSTORE SWAP1 PUSH1 0x40 MSTORE SWAP4 POP POP POP POP SWAP1 JUMP JUMPDEST PUSH0 PUSH1 0x3 DUP1 SLOAD SWAP1 POP SWAP1 POP SWAP1 JUMP JUMPDEST PUSH0 PUSH2 0x13DE PUSH2 0xFEA JUMP JUMPDEST PUSH2 0x13EA JUMPI PUSH0 SWAP1 POP PUSH2 0x13FB JUMP JUMPDEST TIMESTAMP PUSH1 0x2 SLOAD PUSH2 0x13F8 SWAP2 SWAP1 PUSH2 0x25B5 JUMP JUMPDEST SWAP1 POP JUMPDEST SWAP1 JUMP JUMPDEST PUSH1 0x2 SLOAD DUP2 JUMP JUMPDEST PUSH1 0x60 PUSH1 0x40 MLOAD DUP1 PUSH1 0x40 ADD PUSH1 0x40 MSTORE DUP1 PUSH1 0x8 DUP2 MSTORE PUSH1 0x20 ADD PUSH32 0x302E303120455448000000000000000000000000000000000000000000000000 DUP2 MSTORE POP SWAP1 POP SWAP1 JUMP JUMPDEST PUSH1 0x3 DUP2 DUP2 SLOAD DUP2 LT PUSH2 0x1450 JUMPI PUSH0 DUP1 REVERT JUMPDEST SWAP1 PUSH0 MSTORE PUSH1 0x20 PUSH0 KECCAK256 ADD PUSH0 SWAP2 POP SLOAD SWAP1 PUSH2 0x100 EXP SWAP1 DIV PUSH20 0xFFFFFFFFFFFFFFFFFFFFFFFFFFFFFFFFFFFFFFFF AND DUP2 JUMP JUMPDEST PUSH0 PUSH0 PUSH1 0x3 DUP1 SLOAD SWAP1 POP SWAP1 POP PUSH0 PUSH0 SWAP1 POP JUMPDEST DUP2 DUP2 LT ISZERO PUSH2 0x15A0 JUMPI PUSH0 PUSH1 0x3 DUP3 DUP2 SLOAD DUP2 LT PUSH2 0x14A8 JUMPI PUSH2 0x14A7 PUSH2 0x25E8 JUMP JUMPDEST JUMPDEST SWAP1 PUSH0 MSTORE PUSH1 0x20 PUSH0 KECCAK256 ADD PUSH0 SWAP1 SLOAD SWAP1 PUSH2 0x100 EXP SWAP1 DIV PUSH20 0xFFFFFFFFFFFFFFFFFFFFFFFFFFFFFFFFFFFFFFFF AND PUSH20 0xFFFFFFFFFFFFFFFFFFFFFFFFFFFFFFFFFFFFFFFF AND PUSH7 0x2386F26FC10000 PUSH1 0x40 MLOAD PUSH2 0x14FA SWAP1 PUSH2 0x2642 JUMP JUMPDEST PUSH0 PUSH1 0x40 MLOAD DUP1 DUP4 SUB DUP2 DUP6 DUP8 GAS CALL SWAP3 POP POP POP RETURNDATASIZE DUP1 PUSH0 DUP2 EQ PUSH2 0x1534 JUMPI PUSH1 0x40 MLOAD SWAP2 POP PUSH1 0x1F NOT PUSH1 0x3F RETURNDATASIZE ADD AND DUP3 ADD PUSH1 0x40 MSTORE RETURNDATASIZE DUP3 MSTORE RETURNDATASIZE PUSH0 PUSH1 0x20 DUP5 ADD RETURNDATACOPY PUSH2 0x1539 JUMP JUMPDEST PUSH1 0x60 SWAP2 POP JUMPDEST POP POP SWAP1 POP DUP1 PUSH2 0x157D JUMPI PUSH1 0x40 MLOAD PUSH32 0x8C379A000000000000000000000000000000000000000000000000000000000 DUP2 MSTORE PUSH1 0x4 ADD PUSH2 0x1574 SWAP1 PUSH2 0x2A7F JUMP JUMPDEST PUSH1 0x40 MLOAD DUP1 SWAP2 SUB SWAP1 REVERT JUMPDEST PUSH7 0x2386F26FC10000 DUP5 PUSH2 0x1590 SWAP2 SWAP1 PUSH2 0x2358 JUMP JUMPDEST SWAP4 POP POP DUP1 DUP1 PUSH1 0x1 ADD SWAP2 POP POP PUSH2 0x148B JUMP JUMPDEST POP PUSH1 0x1 SLOAD PUSH32 0x799819FA5A51B1D91E60BB39C0FA0C5F3859104DBE9D25B95498AD5A27F1E2DB DUP4 PUSH1 0x40 MLOAD PUSH2 0x15D3 SWAP2 SWAP1 PUSH2 0x1EAE JUMP JUMPDEST PUSH1 0x40 MLOAD DUP1 SWAP2 SUB SWAP1 LOG2 POP SWAP1 JUMP JUMPDEST PUSH0 PUSH1 0xC PUSH0 PUSH1 0x1 SLOAD DUP2 MSTORE PUSH1 0x20 ADD SWAP1 DUP2 MSTORE PUSH1 0x20 ADD PUSH0 KECCAK256 SWAP1 POP PUSH1 0x1 SLOAD DUP2 PUSH0 ADD DUP2 SWAP1 SSTORE POP DUP5 DUP2 PUSH1 0x1 ADD PUSH0 PUSH2 0x100 EXP DUP2 SLOAD DUP2 PUSH1 0xFF MUL NOT AND SWAP1 DUP4 ISZERO ISZERO MUL OR SWAP1 SSTORE POP PUSH2 0x12C PUSH1 0x2 SLOAD PUSH2 0x162A SWAP2 SWAP1 PUSH2 0x25B5 JUMP JUMPDEST DUP2 PUSH1 0x2 ADD DUP2 SWAP1 SSTORE POP PUSH1 0x2 SLOAD DUP2 PUSH1 0x3 ADD DUP2 SWAP1 SSTORE POP DUP4 DUP2 PUSH1 0x4 ADD DUP2 SWAP1 SSTORE POP DUP1 PUSH1 0x5 ADD PUSH0 PUSH2 0x1655 SWAP2 SWAP1 PUSH2 0x1DC7 JUMP JUMPDEST DUP1 PUSH1 0x6 ADD PUSH0 PUSH2 0x1664 SWAP2 SWAP1 PUSH2 0x1DE5 JUMP JUMPDEST PUSH0 PUSH0 SWAP1 POP JUMPDEST DUP4 MLOAD DUP2 LT ISZERO PUSH2 0x173D JUMPI DUP2 PUSH1 0x5 ADD DUP5 DUP3 DUP2 MLOAD DUP2 LT PUSH2 0x1689 JUMPI PUSH2 0x1688 PUSH2 0x25E8 JUMP JUMPDEST JUMPDEST PUSH1 0x20 MUL PUSH1 0x20 ADD ADD MLOAD SWAP1 DUP1 PUSH1 0x1 DUP2 SLOAD ADD DUP1 DUP3 SSTORE DUP1 SWAP2 POP POP PUSH1 0x1 SWAP1 SUB SWAP1 PUSH0 MSTORE PUSH1 0x20 PUSH0 KECCAK256 ADD PUSH0 SWAP1 SWAP2 SWAP1 SWAP2 SWAP1 SWAP2 PUSH2 0x100 EXP DUP2 SLOAD DUP2 PUSH20 0xFFFFFFFFFFFFFFFFFFFFFFFFFFFFFFFFFFFFFFFF MUL NOT AND SWAP1 DUP4 PUSH20 0xFFFFFFFFFFFFFFFFFFFFFFFFFFFFFFFFFFFFFFFF AND MUL OR SWAP1 SSTORE POP DUP2 PUSH1 0x6 ADD DUP4 DUP3 DUP2 MLOAD DUP2 LT PUSH2 0x1705 JUMPI PUSH2 0x1704 PUSH2 0x25E8 JUMP JUMPDEST JUMPDEST PUSH1 0x20 MUL PUSH1 0x20 ADD ADD MLOAD SWAP1 DUP1 PUSH1 0x1 DUP2 SLOAD ADD DUP1 DUP3 SSTORE DUP1 SWAP2 POP POP PUSH1 0x1 SWAP1 SUB SWAP1 PUSH0 MSTORE PUSH1 0x20 PUSH0 KECCAK256 ADD PUSH0 SWAP1 SWAP2 SWAP1 SWAP2 SWAP1 SWAP2 POP SSTORE DUP1 DUP1 PUSH1 0x1 ADD SWAP2 POP POP PUSH2 0x1669 JUMP JUMPDEST POP PUSH0 PUSH1 0x2 DUP2 SWAP1 SSTORE POP PUSH1 0x3 PUSH0 PUSH2 0x1752 SWAP2 SWAP1 PUSH2 0x1DC7 JUMP JUMPDEST POP POP POP POP POP JUMP JUMPDEST PUSH1 0x60 PUSH0 DUP3 PUSH8 0xFFFFFFFFFFFFFFFF DUP2 GT ISZERO PUSH2 0x1776 JUMPI PUSH2 0x1775 PUSH2 0x24C3 JUMP JUMPDEST JUMPDEST PUSH1 0x40 MLOAD SWAP1 DUP1 DUP3 MSTORE DUP1 PUSH1 0x20 MUL PUSH1 0x20 ADD DUP3 ADD PUSH1 0x40 MSTORE DUP1 ISZERO PUSH2 0x17A4 JUMPI DUP2 PUSH1 0x20 ADD PUSH1 0x20 DUP3 MUL DUP1 CALLDATASIZE DUP4 CALLDATACOPY DUP1 DUP3 ADD SWAP2 POP POP SWAP1 POP JUMPDEST POP SWAP1 POP PUSH0 PUSH0 SWAP1 POP JUMPDEST DUP4 DUP2 LT ISZERO PUSH2 0x18E3 JUMPI PUSH0 PUSH2 0x17C3 PUSH1 0x3 DUP1 SLOAD SWAP1 POP PUSH2 0x1D1E JUMP JUMPDEST SWAP1 POP PUSH0 PUSH1 0x3 DUP3 DUP2 SLOAD DUP2 LT PUSH2 0x17DA JUMPI PUSH2 0x17D9 PUSH2 0x25E8 JUMP JUMPDEST JUMPDEST SWAP1 PUSH0 MSTORE PUSH1 0x20 PUSH0 KECCAK256 ADD PUSH0 SWAP1 SLOAD SWAP1 PUSH2 0x100 EXP SWAP1 DIV PUSH20 0xFFFFFFFFFFFFFFFFFFFFFFFFFFFFFFFFFFFFFFFF AND SWAP1 POP PUSH0 PUSH0 SWAP1 POP PUSH0 PUSH0 SWAP1 POP JUMPDEST DUP5 DUP2 LT ISZERO PUSH2 0x1878 JUMPI DUP3 PUSH20 0xFFFFFFFFFFFFFFFFFFFFFFFFFFFFFFFFFFFFFFFF AND DUP7 DUP3 DUP2 MLOAD DUP2 LT PUSH2 0x183F JUMPI PUSH2 0x183E PUSH2 0x25E8 JUMP JUMPDEST JUMPDEST PUSH1 0x20 MUL PUSH1 0x20 ADD ADD MLOAD PUSH20 0xFFFFFFFFFFFFFFFFFFFFFFFFFFFFFFFFFFFFFFFF AND SUB PUSH2 0x186B JUMPI PUSH1 0x1 SWAP2 POP PUSH2 0x1878 JUMP JUMPDEST DUP1 DUP1 PUSH1 0x1 ADD SWAP2 POP POP PUSH2 0x180D JUMP JUMPDEST POP DUP1 PUSH2 0x18DB JUMPI DUP2 DUP6 DUP6 DUP2 MLOAD DUP2 LT PUSH2 0x1892 JUMPI PUSH2 0x1891 PUSH2 0x25E8 JUMP JUMPDEST JUMPDEST PUSH1 0x20 MUL PUSH1 0x20 ADD ADD SWAP1 PUSH20 0xFFFFFFFFFFFFFFFFFFFFFFFFFFFFFFFFFFFFFFFF AND SWAP1 DUP2 PUSH20 0xFFFFFFFFFFFFFFFFFFFFFFFFFFFFFFFFFFFFFFFF AND DUP2 MSTORE POP POP DUP4 DUP1 PUSH2 0x18D7 SWAP1 PUSH2 0x2A9D JUMP JUMPDEST SWAP5 POP POP JUMPDEST POP POP POP PUSH2 0x17AC JUMP JUMPDEST DUP2 SWAP3 POP POP POP SWAP2 SWAP1 POP JUMP JUMPDEST PUSH1 0x60 PUSH0 DUP4 PUSH8 0xFFFFFFFFFFFFFFFF DUP2 GT ISZERO PUSH2 0x190A JUMPI PUSH2 0x1909 PUSH2 0x24C3 JUMP JUMPDEST JUMPDEST PUSH1 0x40 MLOAD SWAP1 DUP1 DUP3 MSTORE DUP1 PUSH1 0x20 MUL PUSH1 0x20 ADD DUP3 ADD PUSH1 0x40 MSTORE DUP1 ISZERO PUSH2 0x1938 JUMPI DUP2 PUSH1 0x20 ADD PUSH1 0x20 DUP3 MUL DUP1 CALLDATASIZE DUP4 CALLDATACOPY DUP1 DUP3 ADD SWAP2 POP POP SWAP1 POP JUMPDEST POP SWAP1 POP PUSH1 0x1 DUP5 SUB PUSH2 0x1968 JUMPI DUP3 DUP2 PUSH0 DUP2 MLOAD DUP2 LT PUSH2 0x1957 JUMPI PUSH2 0x1956 PUSH2 0x25E8 JUMP JUMPDEST JUMPDEST PUSH1 0x20 MUL PUSH1 0x20 ADD ADD DUP2 DUP2 MSTORE POP POP PUSH2 0x1AAC JUMP JUMPDEST PUSH1 0x2 DUP5 SUB PUSH2 0x19F3 JUMPI PUSH1 0x64 PUSH1 0x3C DUP5 PUSH2 0x197F SWAP2 SWAP1 PUSH2 0x22AF JUMP JUMPDEST PUSH2 0x1989 SWAP2 SWAP1 PUSH2 0x2585 JUMP JUMPDEST DUP2 PUSH0 DUP2 MLOAD DUP2 LT PUSH2 0x199C JUMPI PUSH2 0x199B PUSH2 0x25E8 JUMP JUMPDEST JUMPDEST PUSH1 0x20 MUL PUSH1 0x20 ADD ADD DUP2 DUP2 MSTORE POP POP DUP1 PUSH0 DUP2 MLOAD DUP2 LT PUSH2 0x19BB JUMPI PUSH2 0x19BA PUSH2 0x25E8 JUMP JUMPDEST JUMPDEST PUSH1 0x20 MUL PUSH1 0x20 ADD ADD MLOAD DUP4 PUSH2 0x19CE SWAP2 SWAP1 PUSH2 0x25B5 JUMP JUMPDEST DUP2 PUSH1 0x1 DUP2 MLOAD DUP2 LT PUSH2 0x19E2 JUMPI PUSH2 0x19E1 PUSH2 0x25E8 JUMP JUMPDEST JUMPDEST PUSH1 0x20 MUL PUSH1 0x20 ADD ADD DUP2 DUP2 MSTORE POP POP PUSH2 0x1AAB JUMP JUMPDEST PUSH0 PUSH1 0x64 PUSH1 0x32 DUP6 PUSH2 0x1A03 SWAP2 SWAP1 PUSH2 0x22AF JUMP JUMPDEST PUSH2 0x1A0D SWAP2 SWAP1 PUSH2 0x2585 JUMP JUMPDEST SWAP1 POP PUSH0 PUSH1 0x64 PUSH1 0x1E DUP7 PUSH2 0x1A1F SWAP2 SWAP1 PUSH2 0x22AF JUMP JUMPDEST PUSH2 0x1A29 SWAP2 SWAP1 PUSH2 0x2585 JUMP JUMPDEST SWAP1 POP PUSH0 DUP2 DUP4 DUP8 PUSH2 0x1A39 SWAP2 SWAP1 PUSH2 0x25B5 JUMP JUMPDEST PUSH2 0x1A43 SWAP2 SWAP1 PUSH2 0x25B5 JUMP JUMPDEST SWAP1 POP DUP3 DUP5 PUSH0 DUP2 MLOAD DUP2 LT PUSH2 0x1A59 JUMPI PUSH2 0x1A58 PUSH2 0x25E8 JUMP JUMPDEST JUMPDEST PUSH1 0x20 MUL PUSH1 0x20 ADD ADD DUP2 DUP2 MSTORE POP POP DUP2 DUP5 PUSH1 0x1 DUP2 MLOAD DUP2 LT PUSH2 0x1A7A JUMPI PUSH2 0x1A79 PUSH2 0x25E8 JUMP JUMPDEST JUMPDEST PUSH1 0x20 MUL PUSH1 0x20 ADD ADD DUP2 DUP2 MSTORE POP POP DUP1 DUP5 PUSH1 0x2 DUP2 MLOAD DUP2 LT PUSH2 0x1A9B JUMPI PUSH2 0x1A9A PUSH2 0x25E8 JUMP JUMPDEST JUMPDEST PUSH1 0x20 MUL PUSH1 0x20 ADD ADD DUP2 DUP2 MSTORE POP POP POP POP POP JUMPDEST JUMPDEST DUP1 SWAP2 POP POP SWAP3 SWAP2 POP POP JUMP JUMPDEST PUSH1 0x60 PUSH0 PUSH8 0xDE0B6B3A7640000 DUP4 PUSH2 0x1ACD SWAP2 SWAP1 PUSH2 0x2585 JUMP JUMPDEST SWAP1 POP PUSH0 PUSH6 0x5AF3107A4000 PUSH8 0xDE0B6B3A7640000 DUP6 PUSH2 0x1AEB SWAP2 SWAP1 PUSH2 0x28FE JUMP JUMPDEST PUSH2 0x1AF5 SWAP2 SWAP1 PUSH2 0x2585 JUMP JUMPDEST SWAP1 POP PUSH0 PUSH2 0x1B01 DUP3 PUSH2 0x1BC5 JUMP JUMPDEST SWAP1 POP PUSH1 0x1 DUP2 MLOAD SUB PUSH2 0x1B33 JUMPI DUP1 PUSH1 0x40 MLOAD PUSH1 0x20 ADD PUSH2 0x1B1D SWAP2 SWAP1 PUSH2 0x2B2E JUMP JUMPDEST PUSH1 0x40 MLOAD PUSH1 0x20 DUP2 DUP4 SUB SUB DUP2 MSTORE SWAP1 PUSH1 0x40 MSTORE SWAP1 POP PUSH2 0x1B91 JUMP JUMPDEST PUSH1 0x2 DUP2 MLOAD SUB PUSH2 0x1B63 JUMPI DUP1 PUSH1 0x40 MLOAD PUSH1 0x20 ADD PUSH2 0x1B4D SWAP2 SWAP1 PUSH2 0x2B99 JUMP JUMPDEST PUSH1 0x40 MLOAD PUSH1 0x20 DUP2 DUP4 SUB SUB DUP2 MSTORE SWAP1 PUSH1 0x40 MSTORE SWAP1 POP PUSH2 0x1B90 JUMP JUMPDEST PUSH1 0x3 DUP2 MLOAD SUB PUSH2 0x1B8F JUMPI DUP1 PUSH1 0x40 MLOAD PUSH1 0x20 ADD PUSH2 0x1B7D SWAP2 SWAP1 PUSH2 0x2C04 JUMP JUMPDEST PUSH1 0x40 MLOAD PUSH1 0x20 DUP2 DUP4 SUB SUB DUP2 MSTORE SWAP1 PUSH1 0x40 MSTORE SWAP1 POP JUMPDEST JUMPDEST JUMPDEST PUSH2 0x1B9A DUP4 PUSH2 0x1BC5 JUMP JUMPDEST DUP2 PUSH1 0x40 MLOAD PUSH1 0x20 ADD PUSH2 0x1BAC SWAP3 SWAP2 SWAP1 PUSH2 0x2CB9 JUMP JUMPDEST PUSH1 0x40 MLOAD PUSH1 0x20 DUP2 DUP4 SUB SUB DUP2 MSTORE SWAP1 PUSH1 0x40 MSTORE SWAP4 POP POP POP POP SWAP2 SWAP1 POP JUMP JUMPDEST PUSH1 0x60 PUSH0 DUP3 SUB PUSH2 0x1C0B JUMPI PUSH1 0x40 MLOAD DUP1 PUSH1 0x40 ADD PUSH1 0x40 MSTORE DUP1 PUSH1 0x1 DUP2 MSTORE PUSH1 0x20 ADD PUSH32 0x3000000000000000000000000000000000000000000000000000000000000000 DUP2 MSTORE POP SWAP1 POP PUSH2 0x1D19 JUMP JUMPDEST PUSH0 DUP3 SWAP1 POP PUSH0 JUMPDEST PUSH0 DUP3 EQ PUSH2 0x1C3A JUMPI DUP1 DUP1 PUSH2 0x1C23 SWAP1 PUSH2 0x2A9D JUMP JUMPDEST SWAP2 POP POP PUSH1 0xA DUP3 PUSH2 0x1C33 SWAP2 SWAP1 PUSH2 0x2585 JUMP JUMPDEST SWAP2 POP PUSH2 0x1C11 JUMP JUMPDEST PUSH0 DUP2 PUSH8 0xFFFFFFFFFFFFFFFF DUP2 GT ISZERO PUSH2 0x1C55 JUMPI PUSH2 0x1C54 PUSH2 0x24C3 JUMP JUMPDEST JUMPDEST PUSH1 0x40 MLOAD SWAP1 DUP1 DUP3 MSTORE DUP1 PUSH1 0x1F ADD PUSH1 0x1F NOT AND PUSH1 0x20 ADD DUP3 ADD PUSH1 0x40 MSTORE DUP1 ISZERO PUSH2 0x1C87 JUMPI DUP2 PUSH1 0x20 ADD PUSH1 0x1 DUP3 MUL DUP1 CALLDATASIZE DUP4 CALLDATACOPY DUP1 DUP3 ADD SWAP2 POP POP SWAP1 POP JUMPDEST POP SWAP1 POP DUP5 SWAP3 POP JUMPDEST PUSH0 DUP4 EQ PUSH2 0x1D12 JUMPI PUSH1 0xA DUP4 PUSH2 0x1CA2 SWAP2 SWAP1 PUSH2 0x28FE JUMP JUMPDEST PUSH1 0x30 PUSH2 0x1CAE SWAP2 SWAP1 PUSH2 0x2358 JUMP JUMPDEST PUSH1 0xF8 SHL DUP2 DUP4 PUSH2 0x1CBC SWAP1 PUSH2 0x2CF2 JUMP JUMPDEST SWAP4 POP DUP4 DUP2 MLOAD DUP2 LT PUSH2 0x1CD0 JUMPI PUSH2 0x1CCF PUSH2 0x25E8 JUMP JUMPDEST JUMPDEST PUSH1 0x20 ADD ADD SWAP1 PUSH31 0xFFFFFFFFFFFFFFFFFFFFFFFFFFFFFFFFFFFFFFFFFFFFFFFFFFFFFFFFFFFFFF NOT AND SWAP1 DUP2 PUSH0 BYTE SWAP1 MSTORE8 POP PUSH1 0xA DUP4 PUSH2 0x1D0B SWAP2 SWAP1 PUSH2 0x2585 JUMP JUMPDEST SWAP3 POP PUSH2 0x1C8E JUMP JUMPDEST DUP1 SWAP4 POP POP POP POP JUMPDEST SWAP2 SWAP1 POP JUMP JUMPDEST PUSH0 PUSH0 DUP3 GT PUSH2 0x1D61 JUMPI PUSH1 0x40 MLOAD PUSH32 0x8C379A000000000000000000000000000000000000000000000000000000000 DUP2 MSTORE PUSH1 0x4 ADD PUSH2 0x1D58 SWAP1 PUSH2 0x2D63 JUMP JUMPDEST PUSH1 0x40 MLOAD DUP1 SWAP2 SUB SWAP1 REVERT JUMPDEST PUSH0 TIMESTAMP PREVRANDAO CALLER PUSH1 0x3 DUP1 SLOAD SWAP1 POP PUSH1 0x7 SLOAD PUSH1 0x40 MLOAD PUSH1 0x20 ADD PUSH2 0x1D82 SWAP6 SWAP5 SWAP4 SWAP3 SWAP2 SWAP1 PUSH2 0x2DE6 JUMP JUMPDEST PUSH1 0x40 MLOAD PUSH1 0x20 DUP2 DUP4 SUB SUB DUP2 MSTORE SWAP1 PUSH1 0x40 MSTORE DUP1 MLOAD SWAP1 PUSH1 0x20 ADD KECCAK256 PUSH0 SHR SWAP1 POP PUSH1 0x7 PUSH0 DUP2 SLOAD DUP1 SWAP3 SWAP2 SWAP1 PUSH2 0x1DAE SWAP1 PUSH2 0x2A9D JUMP JUMPDEST SWAP2 SWAP1 POP SSTORE POP DUP3 DUP2 PUSH2 0x1DBF SWAP2 SWAP1 PUSH2 0x28FE JUMP JUMPDEST SWAP2 POP POP SWAP2 SWAP1 POP JUMP JUMPDEST POP DUP1 SLOAD PUSH0 DUP3 SSTORE SWAP1 PUSH0 MSTORE PUSH1 0x20 PUSH0 KECCAK256 SWAP1 DUP2 ADD SWAP1 PUSH2 0x1DE2 SWAP2 SWAP1 PUSH2 0x1E03 JUMP JUMPDEST POP JUMP JUMPDEST POP DUP1 SLOAD PUSH0 DUP3 SSTORE SWAP1 PUSH0 MSTORE PUSH1 0x20 PUSH0 KECCAK256 SWAP1 DUP2 ADD SWAP1 PUSH2 0x1E00 SWAP2 SWAP1 PUSH2 0x1E03 JUMP JUMPDEST POP JUMP JUMPDEST JUMPDEST DUP1 DUP3 GT ISZERO PUSH2 0x1E1A JUMPI PUSH0 DUP2 PUSH0 SWAP1 SSTORE POP PUSH1 0x1 ADD PUSH2 0x1E04 JUMP JUMPDEST POP SWAP1 JUMP JUMPDEST PUSH0 DUP3 DUP3 MSTORE PUSH1 0x20 DUP3 ADD SWAP1 POP SWAP3 SWAP2 POP POP JUMP JUMPDEST PUSH32 0x44697265637420455448206E6F7420616C6C6F77656400000000000000000000 PUSH0 DUP3 ADD MSTORE POP JUMP JUMPDEST PUSH0 PUSH2 0x1E62 PUSH1 0x16 DUP4 PUSH2 0x1E1E JUMP JUMPDEST SWAP2 POP PUSH2 0x1E6D DUP3 PUSH2 0x1E2E JUMP JUMPDEST PUSH1 0x20 DUP3 ADD SWAP1 POP SWAP2 SWAP1 POP JUMP JUMPDEST PUSH0 PUSH1 0x20 DUP3 ADD SWAP1 POP DUP2 DUP2 SUB PUSH0 DUP4 ADD MSTORE PUSH2 0x1E8F DUP2 PUSH2 0x1E56 JUMP JUMPDEST SWAP1 POP SWAP2 SWAP1 POP JUMP JUMPDEST PUSH0 DUP2 SWAP1 POP SWAP2 SWAP1 POP JUMP JUMPDEST PUSH2 0x1EA8 DUP2 PUSH2 0x1E96 JUMP JUMPDEST DUP3 MSTORE POP POP JUMP JUMPDEST PUSH0 PUSH1 0x20 DUP3 ADD SWAP1 POP PUSH2 0x1EC1 PUSH0 DUP4 ADD DUP5 PUSH2 0x1E9F JUMP JUMPDEST SWAP3 SWAP2 POP POP JUMP JUMPDEST PUSH0 DUP2 ISZERO ISZERO SWAP1 POP SWAP2 SWAP1 POP JUMP JUMPDEST PUSH2 0x1EDB DUP2 PUSH2 0x1EC7 JUMP JUMPDEST DUP3 MSTORE POP POP JUMP JUMPDEST PUSH0 PUSH1 0x20 DUP3 ADD SWAP1 POP PUSH2 0x1EF4 PUSH0 DUP4 ADD DUP5 PUSH2 0x1ED2 JUMP JUMPDEST SWAP3 SWAP2 POP POP JUMP JUMPDEST PUSH0 PUSH0 REVERT JUMPDEST PUSH2 0x1F07 DUP2 PUSH2 0x1E96 JUMP JUMPDEST DUP2 EQ PUSH2 0x1F11 JUMPI PUSH0 PUSH0 REVERT JUMPDEST POP JUMP JUMPDEST PUSH0 DUP2 CALLDATALOAD SWAP1 POP PUSH2 0x1F22 DUP2 PUSH2 0x1EFE JUMP JUMPDEST SWAP3 SWAP2 POP POP JUMP JUMPDEST PUSH0 PUSH1 0x20 DUP3 DUP5 SUB SLT ISZERO PUSH2 0x1F3D JUMPI PUSH2 0x1F3C PUSH2 0x1EFA JUMP JUMPDEST JUMPDEST PUSH0 PUSH2 0x1F4A DUP5 DUP3 DUP6 ADD PUSH2 0x1F14 JUMP JUMPDEST SWAP2 POP POP SWAP3 SWAP2 POP POP JUMP JUMPDEST PUSH0 PUSH1 0xC0 DUP3 ADD SWAP1 POP PUSH2 0x1F66 PUSH0 DUP4 ADD DUP10 PUSH2 0x1E9F JUMP JUMPDEST PUSH2 0x1F73 PUSH1 0x20 DUP4 ADD DUP9 PUSH2 0x1ED2 JUMP JUMPDEST PUSH2 0x1F80 PUSH1 0x40 DUP4 ADD DUP8 PUSH2 0x1E9F JUMP JUMPDEST PUSH2 0x1F8D PUSH1 0x60 DUP4 ADD DUP7 PUSH2 0x1E9F JUMP JUMPDEST PUSH2 0x1F9A PUSH1 0x80 DUP4 ADD DUP6 PUSH2 0x1E9F JUMP JUMPDEST PUSH2 0x1FA7 PUSH1 0xA0 DUP4 ADD DUP5 PUSH2 0x1E9F JUMP JUMPDEST SWAP8 SWAP7 POP POP POP POP POP POP POP JUMP JUMPDEST PUSH0 DUP2 MLOAD SWAP1 POP SWAP2 SWAP1 POP JUMP JUMPDEST DUP3 DUP2 DUP4 MCOPY PUSH0 DUP4 DUP4 ADD MSTORE POP POP POP JUMP JUMPDEST PUSH0 PUSH1 0x1F NOT PUSH1 0x1F DUP4 ADD AND SWAP1 POP SWAP2 SWAP1 POP JUMP JUMPDEST PUSH0 PUSH2 0x1FE4 DUP3 PUSH2 0x1FB2 JUMP JUMPDEST PUSH2 0x1FEE DUP2 DUP6 PUSH2 0x1E1E JUMP JUMPDEST SWAP4 POP PUSH2 0x1FFE DUP2 DUP6 PUSH1 0x20 DUP7 ADD PUSH2 0x1FBC JUMP JUMPDEST PUSH2 0x2007 DUP2 PUSH2 0x1FCA JUMP JUMPDEST DUP5 ADD SWAP2 POP POP SWAP3 SWAP2 POP POP JUMP JUMPDEST PUSH0 PUSH1 0x20 DUP3 ADD SWAP1 POP DUP2 DUP2 SUB PUSH0 DUP4 ADD MSTORE PUSH2 0x202A DUP2 DUP5 PUSH2 0x1FDA JUMP JUMPDEST SWAP1 POP SWAP3 SWAP2 POP POP JUMP JUMPDEST PUSH0 DUP2 MLOAD SWAP1 POP SWAP2 SWAP1 POP JUMP JUMPDEST PUSH0 DUP3 DUP3 MSTORE PUSH1 0x20 DUP3 ADD SWAP1 POP SWAP3 SWAP2 POP POP JUMP JUMPDEST PUSH0 DUP2 SWAP1 POP PUSH1 0x20 DUP3 ADD SWAP1 POP SWAP2 SWAP1 POP JUMP JUMPDEST PUSH0 PUSH20 0xFFFFFFFFFFFFFFFFFFFFFFFFFFFFFFFFFFFFFFFF DUP3 AND SWAP1 POP SWAP2 SWAP1 POP JUMP JUMPDEST PUSH0 PUSH2 0x2084 DUP3 PUSH2 0x205B JUMP JUMPDEST SWAP1 POP SWAP2 SWAP1 POP JUMP JUMPDEST PUSH2 0x2094 DUP2 PUSH2 0x207A JUMP JUMPDEST DUP3 MSTORE POP POP JUMP JUMPDEST PUSH0 PUSH2 0x20A5 DUP4 DUP4 PUSH2 0x208B JUMP JUMPDEST PUSH1 0x20 DUP4 ADD SWAP1 POP SWAP3 SWAP2 POP POP JUMP JUMPDEST PUSH0 PUSH1 0x20 DUP3 ADD SWAP1 POP SWAP2 SWAP1 POP JUMP JUMPDEST PUSH0 PUSH2 0x20C7 DUP3 PUSH2 0x2032 JUMP JUMPDEST PUSH2 0x20D1 DUP2 DUP6 PUSH2 0x203C JUMP JUMPDEST SWAP4 POP PUSH2 0x20DC DUP4 PUSH2 0x204C JUMP JUMPDEST DUP1 PUSH0 JUMPDEST DUP4 DUP2 LT ISZERO PUSH2 0x210C JUMPI DUP2 MLOAD PUSH2 0x20F3 DUP9 DUP3 PUSH2 0x209A JUMP JUMPDEST SWAP8 POP PUSH2 0x20FE DUP4 PUSH2 0x20B1 JUMP JUMPDEST SWAP3 POP POP PUSH1 0x1 DUP2 ADD SWAP1 POP PUSH2 0x20DF JUMP JUMPDEST POP DUP6 SWAP4 POP POP POP POP SWAP3 SWAP2 POP POP JUMP JUMPDEST PUSH0 PUSH1 0x20 DUP3 ADD SWAP1 POP DUP2 DUP2 SUB PUSH0 DUP4 ADD MSTORE PUSH2 0x2131 DUP2 DUP5 PUSH2 0x20BD JUMP JUMPDEST SWAP1 POP SWAP3 SWAP2 POP POP JUMP JUMPDEST PUSH2 0x2142 DUP2 PUSH2 0x207A JUMP JUMPDEST DUP3 MSTORE POP POP JUMP JUMPDEST PUSH0 PUSH1 0x20 DUP3 ADD SWAP1 POP PUSH2 0x215B PUSH0 DUP4 ADD DUP5 PUSH2 0x2139 JUMP JUMPDEST SWAP3 SWAP2 POP POP JUMP JUMPDEST PUSH0 PUSH1 0xA0 DUP3 ADD SWAP1 POP PUSH2 0x2174 PUSH0 DUP4 ADD DUP9 PUSH2 0x1E9F JUMP JUMPDEST PUSH2 0x2181 PUSH1 0x20 DUP4 ADD DUP8 PUSH2 0x1ED2 JUMP JUMPDEST PUSH2 0x218E PUSH1 0x40 DUP4 ADD DUP7 PUSH2 0x1E9F JUMP JUMPDEST PUSH2 0x219B PUSH1 0x60 DUP4 ADD DUP6 PUSH2 0x1E9F JUMP JUMPDEST PUSH2 0x21A8 PUSH1 0x80 DUP4 ADD DUP5 PUSH2 0x1E9F JUMP JUMPDEST SWAP7 SWAP6 POP POP POP POP POP POP JUMP JUMPDEST PUSH32 0x7469636B6574436F756E74203E20300000000000000000000000000000000000 PUSH0 DUP3 ADD MSTORE POP JUMP JUMPDEST PUSH0 PUSH2 0x21E6 PUSH1 0xF DUP4 PUSH2 0x1E1E JUMP JUMPDEST SWAP2 POP PUSH2 0x21F1 DUP3 PUSH2 0x21B2 JUMP JUMPDEST PUSH1 0x20 DUP3 ADD SWAP1 POP SWAP2 SWAP1 POP JUMP JUMPDEST PUSH0 PUSH1 0x20 DUP3 ADD SWAP1 POP DUP2 DUP2 SUB PUSH0 DUP4 ADD MSTORE PUSH2 0x2213 DUP2 PUSH2 0x21DA JUMP JUMPDEST SWAP1 POP SWAP2 SWAP1 POP JUMP JUMPDEST PUSH32 0x4E6F2061637469766520726F756E640000000000000000000000000000000000 PUSH0 DUP3 ADD MSTORE POP JUMP JUMPDEST PUSH0 PUSH2 0x224E PUSH1 0xF DUP4 PUSH2 0x1E1E JUMP JUMPDEST SWAP2 POP PUSH2 0x2259 DUP3 PUSH2 0x221A JUMP JUMPDEST PUSH1 0x20 DUP3 ADD SWAP1 POP SWAP2 SWAP1 POP JUMP JUMPDEST PUSH0 PUSH1 0x20 DUP3 ADD SWAP1 POP DUP2 DUP2 SUB PUSH0 DUP4 ADD MSTORE PUSH2 0x227B DUP2 PUSH2 0x2242 JUMP JUMPDEST SWAP1 POP SWAP2 SWAP1 POP JUMP JUMPDEST PUSH32 0x4E487B7100000000000000000000000000000000000000000000000000000000 PUSH0 MSTORE PUSH1 0x11 PUSH1 0x4 MSTORE PUSH1 0x24 PUSH0 REVERT JUMPDEST PUSH0 PUSH2 0x22B9 DUP3 PUSH2 0x1E96 JUMP JUMPDEST SWAP2 POP PUSH2 0x22C4 DUP4 PUSH2 0x1E96 JUMP JUMPDEST SWAP3 POP DUP3 DUP3 MUL PUSH2 0x22D2 DUP2 PUSH2 0x1E96 JUMP JUMPDEST SWAP2 POP DUP3 DUP3 DIV DUP5 EQ DUP4 ISZERO OR PUSH2 0x22E9 JUMPI PUSH2 0x22E8 PUSH2 0x2282 JUMP JUMPDEST JUMPDEST POP SWAP3 SWAP2 POP POP JUMP JUMPDEST PUSH32 0x496E636F72726563742045544800000000000000000000000000000000000000 PUSH0 DUP3 ADD MSTORE POP JUMP JUMPDEST PUSH0 PUSH2 0x2324 PUSH1 0xD DUP4 PUSH2 0x1E1E JUMP JUMPDEST SWAP2 POP PUSH2 0x232F DUP3 PUSH2 0x22F0 JUMP JUMPDEST PUSH1 0x20 DUP3 ADD SWAP1 POP SWAP2 SWAP1 POP JUMP JUMPDEST PUSH0 PUSH1 0x20 DUP3 ADD SWAP1 POP DUP2 DUP2 SUB PUSH0 DUP4 ADD MSTORE PUSH2 0x2351 DUP2 PUSH2 0x2318 JUMP JUMPDEST SWAP1 POP SWAP2 SWAP1 POP JUMP JUMPDEST PUSH0 PUSH2 0x2362 DUP3 PUSH2 0x1E96 JUMP JUMPDEST SWAP2 POP PUSH2 0x236D DUP4 PUSH2 0x1E96 JUMP JUMPDEST SWAP3 POP DUP3 DUP3 ADD SWAP1 POP DUP1 DUP3 GT ISZERO PUSH2 0x2385 JUMPI PUSH2 0x2384 PUSH2 0x2282 JUMP JUMPDEST JUMPDEST SWAP3 SWAP2 POP POP JUMP JUMPDEST PUSH32 0x45786365656473207065722D61646472657373206C696D697400000000000000 PUSH0 DUP3 ADD MSTORE POP JUMP JUMPDEST PUSH0 PUSH2 0x23BF PUSH1 0x19 DUP4 PUSH2 0x1E1E JUMP JUMPDEST SWAP2 POP PUSH2 0x23CA DUP3 PUSH2 0x238B JUMP JUMPDEST PUSH1 0x20 DUP3 ADD SWAP1 POP SWAP2 SWAP1 POP JUMP JUMPDEST PUSH0 PUSH1 0x20 DUP3 ADD SWAP1 POP DUP2 DUP2 SUB PUSH0 DUP4 ADD MSTORE PUSH2 0x23EC DUP2 PUSH2 0x23B3 JUMP JUMPDEST SWAP1 POP SWAP2 SWAP1 POP JUMP JUMPDEST PUSH32 0x5265656E7472616E637900000000000000000000000000000000000000000000 PUSH0 DUP3 ADD MSTORE POP JUMP JUMPDEST PUSH0 PUSH2 0x2427 PUSH1 0xA DUP4 PUSH2 0x1E1E JUMP JUMPDEST SWAP2 POP PUSH2 0x2432 DUP3 PUSH2 0x23F3 JUMP JUMPDEST PUSH1 0x20 DUP3 ADD SWAP1 POP SWAP2 SWAP1 POP JUMP JUMPDEST PUSH0 PUSH1 0x20 DUP3 ADD SWAP1 POP DUP2 DUP2 SUB PUSH0 DUP4 ADD MSTORE PUSH2 0x2454 DUP2 PUSH2 0x241B JUMP JUMPDEST SWAP1 POP SWAP2 SWAP1 POP JUMP JUMPDEST PUSH32 0x526F756E64206E6F7420656E6465640000000000000000000000000000000000 PUSH0 DUP3 ADD MSTORE POP JUMP JUMPDEST PUSH0 PUSH2 0x248F PUSH1 0xF DUP4 PUSH2 0x1E1E JUMP JUMPDEST SWAP2 POP PUSH2 0x249A DUP3 PUSH2 0x245B JUMP JUMPDEST PUSH1 0x20 DUP3 ADD SWAP1 POP SWAP2 SWAP1 POP JUMP JUMPDEST PUSH0 PUSH1 0x20 DUP3 ADD SWAP1 POP DUP2 DUP2 SUB PUSH0 DUP4 ADD MSTORE PUSH2 0x24BC DUP2 PUSH2 0x2483 JUMP JUMPDEST SWAP1 POP SWAP2 SWAP1 POP JUMP JUMPDEST PUSH32 0x4E487B7100000000000000000000000000000000000000000000000000000000 PUSH0 MSTORE PUSH1 0x41 PUSH1 0x4 MSTORE PUSH1 0x24 PUSH0 REVERT JUMPDEST PUSH32 0x4E6F20656E747269657300000000000000000000000000000000000000000000 PUSH0 DUP3 ADD MSTORE POP JUMP JUMPDEST PUSH0 PUSH2 0x2524 PUSH1 0xA DUP4 PUSH2 0x1E1E JUMP JUMPDEST SWAP2 POP PUSH2 0x252F DUP3 PUSH2 0x24F0 JUMP JUMPDEST PUSH1 0x20 DUP3 ADD SWAP1 POP SWAP2 SWAP1 POP JUMP JUMPDEST PUSH0 PUSH1 0x20 DUP3 ADD SWAP1 POP DUP2 DUP2 SUB PUSH0 DUP4 ADD MSTORE PUSH2 0x2551 DUP2 PUSH2 0x2518 JUMP JUMPDEST SWAP1 POP SWAP2 SWAP1 POP JUMP JUMPDEST PUSH32 0x4E487B7100000000000000000000000000000000000000000000000000000000 PUSH0 MSTORE PUSH1 0x12 PUSH1 0x4 MSTORE PUSH1 0x24 PUSH0 REVERT JUMPDEST PUSH0 PUSH2 0x258F DUP3 PUSH2 0x1E96 JUMP JUMPDEST SWAP2 POP PUSH2 0x259A DUP4 PUSH2 0x1E96 JUMP JUMPDEST SWAP3 POP DUP3 PUSH2 0x25AA JUMPI PUSH2 0x25A9 PUSH2 0x2558 JUMP JUMPDEST JUMPDEST DUP3 DUP3 DIV SWAP1 POP SWAP3 SWAP2 POP POP JUMP JUMPDEST PUSH0 PUSH2 0x25BF DUP3 PUSH2 0x1E96 JUMP JUMPDEST SWAP2 POP PUSH2 0x25CA DUP4 PUSH2 0x1E96 JUMP JUMPDEST SWAP3 POP DUP3 DUP3 SUB SWAP1 POP DUP2 DUP2 GT ISZERO PUSH2 0x25E2 JUMPI PUSH2 0x25E1 PUSH2 0x2282 JUMP JUMPDEST JUMPDEST SWAP3 SWAP2 POP POP JUMP JUMPDEST PUSH32 0x4E487B7100000000000000000000000000000000000000000000000000000000 PUSH0 MSTORE PUSH1 0x32 PUSH1 0x4 MSTORE PUSH1 0x24 PUSH0 REVERT JUMPDEST PUSH0 DUP2 SWAP1 POP SWAP3 SWAP2 POP POP JUMP JUMPDEST POP JUMP JUMPDEST PUSH0 PUSH2 0x262D PUSH0 DUP4 PUSH2 0x2615 JUMP JUMPDEST SWAP2 POP PUSH2 0x2638 DUP3 PUSH2 0x261F JUMP JUMPDEST PUSH0 DUP3 ADD SWAP1 POP SWAP2 SWAP1 POP JUMP JUMPDEST PUSH0 PUSH2 0x264C DUP3 PUSH2 0x2622 JUMP JUMPDEST SWAP2 POP DUP2 SWAP1 POP SWAP2 SWAP1 POP JUMP JUMPDEST PUSH32 0x466565207472616E73666572206661696C656400000000000000000000000000 PUSH0 DUP3 ADD MSTORE POP JUMP JUMPDEST PUSH0 PUSH2 0x268A PUSH1 0x13 DUP4 PUSH2 0x1E1E JUMP JUMPDEST SWAP2 POP PUSH2 0x2695 DUP3 PUSH2 0x2656 JUMP JUMPDEST PUSH1 0x20 DUP3 ADD SWAP1 POP SWAP2 SWAP1 POP JUMP JUMPDEST PUSH0 PUSH1 0x20 DUP3 ADD SWAP1 POP DUP2 DUP2 SUB PUSH0 DUP4 ADD MSTORE PUSH2 0x26B7 DUP2 PUSH2 0x267E JUMP JUMPDEST SWAP1 POP SWAP2 SWAP1 POP JUMP JUMPDEST PUSH32 0x5072697A65207472616E73666572206661696C65640000000000000000000000 PUSH0 DUP3 ADD MSTORE POP JUMP JUMPDEST PUSH0 PUSH2 0x26F2 PUSH1 0x15 DUP4 PUSH2 0x1E1E JUMP JUMPDEST SWAP2 POP PUSH2 0x26FD DUP3 PUSH2 0x26BE JUMP JUMPDEST PUSH1 0x20 DUP3 ADD SWAP1 POP SWAP2 SWAP1 POP JUMP JUMPDEST PUSH0 PUSH1 0x20 DUP3 ADD SWAP1 POP DUP2 DUP2 SUB PUSH0 DUP4 ADD MSTORE PUSH2 0x271F DUP2 PUSH2 0x26E6 JUMP JUMPDEST SWAP1 POP SWAP2 SWAP1 POP JUMP JUMPDEST PUSH0 DUP2 MLOAD SWAP1 POP SWAP2 SWAP1 POP JUMP JUMPDEST PUSH0 DUP3 DUP3 MSTORE PUSH1 0x20 DUP3 ADD SWAP1 POP SWAP3 SWAP2 POP POP JUMP JUMPDEST PUSH0 DUP2 SWAP1 POP PUSH1 0x20 DUP3 ADD SWAP1 POP SWAP2 SWAP1 POP JUMP JUMPDEST PUSH2 0x2758 DUP2 PUSH2 0x1E96 JUMP JUMPDEST DUP3 MSTORE POP POP JUMP JUMPDEST PUSH0 PUSH2 0x2769 DUP4 DUP4 PUSH2 0x274F JUMP JUMPDEST PUSH1 0x20 DUP4 ADD SWAP1 POP SWAP3 SWAP2 POP POP JUMP JUMPDEST PUSH0 PUSH1 0x20 DUP3 ADD SWAP1 POP SWAP2 SWAP1 POP JUMP JUMPDEST PUSH0 PUSH2 0x278B DUP3 PUSH2 0x2726 JUMP JUMPDEST PUSH2 0x2795 DUP2 DUP6 PUSH2 0x2730 JUMP JUMPDEST SWAP4 POP PUSH2 0x27A0 DUP4 PUSH2 0x2740 JUMP JUMPDEST DUP1 PUSH0 JUMPDEST DUP4 DUP2 LT ISZERO PUSH2 0x27D0 JUMPI DUP2 MLOAD PUSH2 0x27B7 DUP9 DUP3 PUSH2 0x275E JUMP JUMPDEST SWAP8 POP PUSH2 0x27C2 DUP4 PUSH2 0x2775 JUMP JUMPDEST SWAP3 POP POP PUSH1 0x1 DUP2 ADD SWAP1 POP PUSH2 0x27A3 JUMP JUMPDEST POP DUP6 SWAP4 POP POP POP POP SWAP3 SWAP2 POP POP JUMP JUMPDEST PUSH0 PUSH1 0x80 DUP3 ADD SWAP1 POP DUP2 DUP2 SUB PUSH0 DUP4 ADD MSTORE PUSH2 0x27F5 DUP2 DUP8 PUSH2 0x20BD JUMP JUMPDEST SWAP1 POP DUP2 DUP2 SUB PUSH1 0x20 DUP4 ADD MSTORE PUSH2 0x2809 DUP2 DUP7 PUSH2 0x2781 JUMP JUMPDEST SWAP1 POP PUSH2 0x2818 PUSH1 0x40 DUP4 ADD DUP6 PUSH2 0x1E9F JUMP JUMPDEST PUSH2 0x2825 PUSH1 0x60 DUP4 ADD DUP5 PUSH2 0x1E9F JUMP JUMPDEST SWAP6 SWAP5 POP POP POP POP POP JUMP JUMPDEST PUSH32 0x4F6E6C79206F776E657200000000000000000000000000000000000000000000 PUSH0 DUP3 ADD MSTORE POP JUMP JUMPDEST PUSH0 PUSH2 0x2862 PUSH1 0xA DUP4 PUSH2 0x1E1E JUMP JUMPDEST SWAP2 POP PUSH2 0x286D DUP3 PUSH2 0x282E JUMP JUMPDEST PUSH1 0x20 DUP3 ADD SWAP1 POP SWAP2 SWAP1 POP JUMP JUMPDEST PUSH0 PUSH1 0x20 DUP3 ADD SWAP1 POP DUP2 DUP2 SUB PUSH0 DUP4 ADD MSTORE PUSH2 0x288F DUP2 PUSH2 0x2856 JUMP JUMPDEST SWAP1 POP SWAP2 SWAP1 POP JUMP JUMPDEST PUSH32 0x526F756E6420616C726561647920616374697665000000000000000000000000 PUSH0 DUP3 ADD MSTORE POP JUMP JUMPDEST PUSH0 PUSH2 0x28CA PUSH1 0x14 DUP4 PUSH2 0x1E1E JUMP JUMPDEST SWAP2 POP PUSH2 0x28D5 DUP3 PUSH2 0x2896 JUMP JUMPDEST PUSH1 0x20 DUP3 ADD SWAP1 POP SWAP2 SWAP1 POP JUMP JUMPDEST PUSH0 PUSH1 0x20 DUP3 ADD SWAP1 POP DUP2 DUP2 SUB PUSH0 DUP4 ADD MSTORE PUSH2 0x28F7 DUP2 PUSH2 0x28BE JUMP JUMPDEST SWAP1 POP SWAP2 SWAP1 POP JUMP JUMPDEST PUSH0 PUSH2 0x2908 DUP3 PUSH2 0x1E96 JUMP JUMPDEST SWAP2 POP PUSH2 0x2913 DUP4 PUSH2 0x1E96 JUMP JUMPDEST SWAP3 POP DUP3 PUSH2 0x2923 JUMPI PUSH2 0x2922 PUSH2 0x2558 JUMP JUMPDEST JUMPDEST DUP3 DUP3 MOD SWAP1 POP SWAP3 SWAP2 POP POP JUMP JUMPDEST PUSH0 DUP2 SWAP1 POP SWAP3 SWAP2 POP POP JUMP JUMPDEST PUSH0 PUSH2 0x2942 DUP3 PUSH2 0x1FB2 JUMP JUMPDEST PUSH2 0x294C DUP2 DUP6 PUSH2 0x292E JUMP JUMPDEST SWAP4 POP PUSH2 0x295C DUP2 DUP6 PUSH1 0x20 DUP7 ADD PUSH2 0x1FBC JUMP JUMPDEST DUP1 DUP5 ADD SWAP2 POP POP SWAP3 SWAP2 POP POP JUMP JUMPDEST PUSH32 0x206D696E20000000000000000000000000000000000000000000000000000000 PUSH0 DUP3 ADD MSTORE POP JUMP JUMPDEST PUSH0 PUSH2 0x299C PUSH1 0x5 DUP4 PUSH2 0x292E JUMP JUMPDEST SWAP2 POP PUSH2 0x29A7 DUP3 PUSH2 0x2968 JUMP JUMPDEST PUSH1 0x5 DUP3 ADD SWAP1 POP SWAP2 SWAP1 POP JUMP JUMPDEST PUSH32 0x2073656300000000000000000000000000000000000000000000000000000000 PUSH0 DUP3 ADD MSTORE POP JUMP JUMPDEST PUSH0 PUSH2 0x29E6 PUSH1 0x4 DUP4 PUSH2 0x292E JUMP JUMPDEST SWAP2 POP PUSH2 0x29F1 DUP3 PUSH2 0x29B2 JUMP JUMPDEST PUSH1 0x4 DUP3 ADD SWAP1 POP SWAP2 SWAP1 POP JUMP JUMPDEST PUSH0 PUSH2 0x2A07 DUP3 DUP6 PUSH2 0x2938 JUMP JUMPDEST SWAP2 POP PUSH2 0x2A12 DUP3 PUSH2 0x2990 JUMP JUMPDEST SWAP2 POP PUSH2 0x2A1E DUP3 DUP5 PUSH2 0x2938 JUMP JUMPDEST SWAP2 POP PUSH2 0x2A29 DUP3 PUSH2 0x29DA JUMP JUMPDEST SWAP2 POP DUP2 SWAP1 POP SWAP4 SWAP3 POP POP POP JUMP JUMPDEST PUSH32 0x526566756E64207472616E73666572206661696C656400000000000000000000 PUSH0 DUP3 ADD MSTORE POP JUMP JUMPDEST PUSH0 PUSH2 0x2A69 PUSH1 0x16 DUP4 PUSH2 0x1E1E JUMP JUMPDEST SWAP2 POP PUSH2 0x2A74 DUP3 PUSH2 0x2A35 JUMP JUMPDEST PUSH1 0x20 DUP3 ADD SWAP1 POP SWAP2 SWAP1 POP JUMP JUMPDEST PUSH0 PUSH1 0x20 DUP3 ADD SWAP1 POP DUP2 DUP2 SUB PUSH0 DUP4 ADD MSTORE PUSH2 0x2A96 DUP2 PUSH2 0x2A5D JUMP JUMPDEST SWAP1 POP SWAP2 SWAP1 POP JUMP JUMPDEST PUSH0 PUSH2 0x2AA7 DUP3 PUSH2 0x1E96 JUMP JUMPDEST SWAP2 POP PUSH32 0xFFFFFFFFFFFFFFFFFFFFFFFFFFFFFFFFFFFFFFFFFFFFFFFFFFFFFFFFFFFFFFFF DUP3 SUB PUSH2 0x2AD9 JUMPI PUSH2 0x2AD8 PUSH2 0x2282 JUMP JUMPDEST JUMPDEST PUSH1 0x1 DUP3 ADD SWAP1 POP SWAP2 SWAP1 POP JUMP JUMPDEST PUSH32 0x3030300000000000000000000000000000000000000000000000000000000000 PUSH0 DUP3 ADD MSTORE POP JUMP JUMPDEST PUSH0 PUSH2 0x2B18 PUSH1 0x3 DUP4 PUSH2 0x292E JUMP JUMPDEST SWAP2 POP PUSH2 0x2B23 DUP3 PUSH2 0x2AE4 JUMP JUMPDEST PUSH1 0x3 DUP3 ADD SWAP1 POP SWAP2 SWAP1 POP JUMP JUMPDEST PUSH0 PUSH2 0x2B38 DUP3 PUSH2 0x2B0C JUMP JUMPDEST SWAP2 POP PUSH2 0x2B44 DUP3 DUP5 PUSH2 0x2938 JUMP JUMPDEST SWAP2 POP DUP2 SWAP1 POP SWAP3 SWAP2 POP POP JUMP JUMPDEST PUSH32 0x3030000000000000000000000000000000000000000000000000000000000000 PUSH0 DUP3 ADD MSTORE POP JUMP JUMPDEST PUSH0 PUSH2 0x2B83 PUSH1 0x2 DUP4 PUSH2 0x292E JUMP JUMPDEST SWAP2 POP PUSH2 0x2B8E DUP3 PUSH2 0x2B4F JUMP JUMPDEST PUSH1 0x2 DUP3 ADD SWAP1 POP SWAP2 SWAP1 POP JUMP JUMPDEST PUSH0 PUSH2 0x2BA3 DUP3 PUSH2 0x2B77 JUMP JUMPDEST SWAP2 POP PUSH2 0x2BAF DUP3 DUP5 PUSH2 0x2938 JUMP JUMPDEST SWAP2 POP DUP2 SWAP1 POP SWAP3 SWAP2 POP POP JUMP JUMPDEST PUSH32 0x3000000000000000000000000000000000000000000000000000000000000000 PUSH0 DUP3 ADD MSTORE POP JUMP JUMPDEST PUSH0 PUSH2 0x2BEE PUSH1 0x1 DUP4 PUSH2 0x292E JUMP JUMPDEST SWAP2 POP PUSH2 0x2BF9 DUP3 PUSH2 0x2BBA JUMP JUMPDEST PUSH1 0x1 DUP3 ADD SWAP1 POP SWAP2 SWAP1 POP JUMP JUMPDEST PUSH0 PUSH2 0x2C0E DUP3 PUSH2 0x2BE2 JUMP JUMPDEST SWAP2 POP PUSH2 0x2C1A DUP3 DUP5 PUSH2 0x2938 JUMP JUMPDEST SWAP2 POP DUP2 SWAP1 POP SWAP3 SWAP2 POP POP JUMP JUMPDEST PUSH32 0x2E00000000000000000000000000000000000000000000000000000000000000 PUSH0 DUP3 ADD MSTORE POP JUMP JUMPDEST PUSH0 PUSH2 0x2C59 PUSH1 0x1 DUP4 PUSH2 0x292E JUMP JUMPDEST SWAP2 POP PUSH2 0x2C64 DUP3 PUSH2 0x2C25 JUMP JUMPDEST PUSH1 0x1 DUP3 ADD SWAP1 POP SWAP2 SWAP1 POP JUMP JUMPDEST PUSH32 0x2045544800000000000000000000000000000000000000000000000000000000 PUSH0 DUP3 ADD MSTORE POP JUMP JUMPDEST PUSH0 PUSH2 0x2CA3 PUSH1 0x4 DUP4 PUSH2 0x292E JUMP JUMPDEST SWAP2 POP PUSH2 0x2CAE DUP3 PUSH2 0x2C6F JUMP JUMPDEST PUSH1 0x4 DUP3 ADD SWAP1 POP SWAP2 SWAP1 POP JUMP JUMPDEST PUSH0 PUSH2 0x2CC4 DUP3 DUP6 PUSH2 0x2938 JUMP JUMPDEST SWAP2 POP PUSH2 0x2CCF DUP3 PUSH2 0x2C4D JUMP JUMPDEST SWAP2 POP PUSH2 0x2CDB DUP3 DUP5 PUSH2 0x2938 JUMP JUMPDEST SWAP2 POP PUSH2 0x2CE6 DUP3 PUSH2 0x2C97 JUMP JUMPDEST SWAP2 POP DUP2 SWAP1 POP SWAP4 SWAP3 POP POP POP JUMP JUMPDEST PUSH0 PUSH2 0x2CFC DUP3 PUSH2 0x1E96 JUMP JUMPDEST SWAP2 POP PUSH0 DUP3 SUB PUSH2 0x2D0E JUMPI PUSH2 0x2D0D PUSH2 0x2282 JUMP JUMPDEST JUMPDEST PUSH1 0x1 DUP3 SUB SWAP1 POP SWAP2 SWAP1 POP JUMP JUMPDEST PUSH32 0x6D61784578636C75736976653D30000000000000000000000000000000000000 PUSH0 DUP3 ADD MSTORE POP JUMP JUMPDEST PUSH0 PUSH2 0x2D4D PUSH1 0xE DUP4 PUSH2 0x1E1E JUMP JUMPDEST SWAP2 POP PUSH2 0x2D58 DUP3 PUSH2 0x2D19 JUMP JUMPDEST PUSH1 0x20 DUP3 ADD SWAP1 POP SWAP2 SWAP1 POP JUMP JUMPDEST PUSH0 PUSH1 0x20 DUP3 ADD SWAP1 POP DUP2 DUP2 SUB PUSH0 DUP4 ADD MSTORE PUSH2 0x2D7A DUP2 PUSH2 0x2D41 JUMP JUMPDEST SWAP1 POP SWAP2 SWAP1 POP JUMP JUMPDEST PUSH0 DUP2 SWAP1 POP SWAP2 SWAP1 POP JUMP JUMPDEST PUSH2 0x2D9B PUSH2 0x2D96 DUP3 PUSH2 0x1E96 JUMP JUMPDEST PUSH2 0x2D81 JUMP JUMPDEST DUP3 MSTORE POP POP JUMP JUMPDEST PUSH0 DUP2 PUSH1 0x60 SHL SWAP1 POP SWAP2 SWAP1 POP JUMP JUMPDEST PUSH0 PUSH2 0x2DB7 DUP3 PUSH2 0x2DA1 JUMP JUMPDEST SWAP1 POP SWAP2 SWAP1 POP JUMP JUMPDEST PUSH0 PUSH2 0x2DC8 DUP3 PUSH2 0x2DAD JUMP JUMPDEST SWAP1 POP SWAP2 SWAP1 POP JUMP JUMPDEST PUSH2 0x2DE0 PUSH2 0x2DDB DUP3 PUSH2 0x207A JUMP JUMPDEST PUSH2 0x2DBE JUMP JUMPDEST DUP3 MSTORE POP POP JUMP JUMPDEST PUSH0 PUSH2 0x2DF1 DUP3 DUP9 PUSH2 0x2D8A JUMP JUMPDEST PUSH1 0x20 DUP3 ADD SWAP2 POP PUSH2 0x2E01 DUP3 DUP8 PUSH2 0x2D8A JUMP JUMPDEST PUSH1 0x20 DUP3 ADD SWAP2 POP PUSH2 0x2E11 DUP3 DUP7 PUSH2 0x2DCF JUMP JUMPDEST PUSH1 0x14 DUP3 ADD SWAP2 POP PUSH2 0x2E21 DUP3 DUP6 PUSH2 0x2D8A JUMP JUMPDEST PUSH1 0x20 DUP3 ADD SWAP2 POP PUSH2 0x2E31 DUP3 DUP5 PUSH2 0x2D8A JUMP JUMPDEST PUSH1 0x20 DUP3 ADD SWAP2 POP DUP2 SWAP1 POP SWAP7 SWAP6 POP POP POP POP POP POP JUMP INVALID LOG2 PUSH5 0x6970667358 0x22 SLT KECCAK256 PUSH6 0xAB39121867AF EXTSTATICCALL 0xED EOFCREATE 0x3F NUMBER 0xDA LOG1 MCOPY 0xAC CREATE2 0xD4 PUSH25 0xA4D8F9A236A6EEC600D1839C164736F6C634300081E003300 "
				},
				"gasEstimates": {
					"creation": {
						"codeDepositCost": "2379600",
						"executionCost": "31828",
						"totalCost": "2411428"
					},
					"external": {
						"": "534",
						"HOUSE_FEE_BPS()": "371",
						"MAX_TICKETS_PER_ADDR()": "393",
						"MIN_UNIQUE_PLAYERS()": "392",
						"ROUND_DURATION()": "436",
						"TICKET_PRICE()": "415",
						"buyTickets(uint256)": "infinite",
						"getPlayerCount()": "2529",
						"getPlayers()": "infinite",
						"getPrizePool()": "402",
						"getPrizePoolReadable()": "infinite",
						"getRoundSummary()": "infinite",
						"getTicketPriceReadable()": "infinite",
						"getTimeRemaining()": "infinite",
						"getTimeRemainingReadable()": "infinite",
						"getUniquePlayerCount()": "4675",
						"history(uint256)": "infinite",
						"isRoundActive()": "4641",
						"lastPrizePool()": "2449",
						"lastPrizes(uint256)": "infinite",
						"lastRoundRefunded()": "2578",
						"lastWinners(uint256)": "5055",
						"owner()": "2552",
						"players(uint256)": "5054",
						"roundEndTime()": "2491",
						"roundNumber()": "2515",
						"selectWinner()": "infinite",
						"startNewRound()": "infinite"
					},
					"internal": {
						"_archiveRound(bool,uint256,address[] memory,uint256[] memory)": "infinite",
						"_computePrizes(uint256,uint256)": "infinite",
						"_formatEth(uint256)": "infinite",
						"_pickUniqueWinners(uint256)": "infinite",
						"_random(uint256)": "infinite",
						"_refundAll()": "infinite",
						"_u(uint256)": "infinite"
					}
				},
				"methodIdentifiers": {
					"HOUSE_FEE_BPS()": "1594b256",
					"MAX_TICKETS_PER_ADDR()": "1a1b716c",
					"MIN_UNIQUE_PLAYERS()": "59499087",
					"ROUND_DURATION()": "6641ea08",
					"TICKET_PRICE()": "1a95f15f",
					"buyTickets(uint256)": "2f366637",
					"getPlayerCount()": "c2e52206",
					"getPlayers()": "8b5b9ccc",
					"getPrizePool()": "884bf67c",
					"getPrizePoolReadable()": "6c48d697",
					"getRoundSummary()": "5dfa872d",
					"getTicketPriceReadable()": "ef80113b",
					"getTimeRemaining()": "dac6270d",
					"getTimeRemainingReadable()": "bfe75634",
					"getUniquePlayerCount()": "91aae8f8",
					"history(uint256)": "a7a38f0b",
					"isRoundActive()": "45945a45",
					"lastPrizePool()": "06f81b15",
					"lastPrizes(uint256)": "5012f335",
					"lastRoundRefunded()": "2492b5b8",
					"lastWinners(uint256)": "adda2c2e",
					"owner()": "8da5cb5b",
					"players(uint256)": "f71d96cb",
					"roundEndTime()": "e40205d6",
					"roundNumber()": "4e2786fb",
					"selectWinner()": "33a99e04",
					"startNewRound()": "bd85948c"
				}
			},
			"storageLayout": {
				"storage": [
					{
						"astId": 4,
						"contract": "contracts/DecentralizedLottery.sol:DecentralizedLottery",
						"label": "owner",
						"offset": 0,
						"slot": "0",
						"type": "t_address"
					},
					{
						"astId": 21,
						"contract": "contracts/DecentralizedLottery.sol:DecentralizedLottery",
						"label": "roundNumber",
						"offset": 0,
						"slot": "1",
						"type": "t_uint256"
					},
					{
						"astId": 23,
						"contract": "contracts/DecentralizedLottery.sol:DecentralizedLottery",
						"label": "roundEndTime",
						"offset": 0,
						"slot": "2",
						"type": "t_uint256"
					},
					{
						"astId": 26,
						"contract": "contracts/DecentralizedLottery.sol:DecentralizedLottery",
						"label": "players",
						"offset": 0,
						"slot": "3",
						"type": "t_array(t_address)dyn_storage"
					},
					{
						"astId": 32,
						"contract": "contracts/DecentralizedLottery.sol:DecentralizedLottery",
						"label": "ticketsPerRound",
						"offset": 0,
						"slot": "4",
						"type": "t_mapping(t_uint256,t_mapping(t_address,t_uint256))"
					},
					{
						"astId": 38,
						"contract": "contracts/DecentralizedLottery.sol:DecentralizedLottery",
						"label": "hasJoined",
						"offset": 0,
						"slot": "5",
						"type": "t_mapping(t_uint256,t_mapping(t_address,t_bool))"
					},
					{
						"astId": 42,
						"contract": "contracts/DecentralizedLottery.sol:DecentralizedLottery",
						"label": "uniquePlayersCount",
						"offset": 0,
						"slot": "6",
						"type": "t_mapping(t_uint256,t_uint256)"
					},
					{
						"astId": 44,
						"contract": "contracts/DecentralizedLottery.sol:DecentralizedLottery",
						"label": "nonce",
						"offset": 0,
						"slot": "7",
						"type": "t_uint256"
					},
					{
						"astId": 47,
						"contract": "contracts/DecentralizedLottery.sol:DecentralizedLottery",
						"label": "lastWinners",
						"offset": 0,
						"slot": "8",
						"type": "t_array(t_address)dyn_storage"
					},
					{
						"astId": 50,
						"contract": "contracts/DecentralizedLottery.sol:DecentralizedLottery",
						"label": "lastPrizes",
						"offset": 0,
						"slot": "9",
						"type": "t_array(t_uint256)dyn_storage"
					},
					{
						"astId": 52,
						"contract": "contracts/DecentralizedLottery.sol:DecentralizedLottery",
						"label": "lastPrizePool",
						"offset": 0,
						"slot": "10",
						"type": "t_uint256"
					},
					{
						"astId": 54,
						"contract": "contracts/DecentralizedLottery.sol:DecentralizedLottery",
						"label": "lastRoundRefunded",
						"offset": 0,
						"slot": "11",
						"type": "t_bool"
					},
					{
						"astId": 76,
						"contract": "contracts/DecentralizedLottery.sol:DecentralizedLottery",
						"label": "history",
						"offset": 0,
						"slot": "12",
						"type": "t_mapping(t_uint256,t_struct(RoundHistory)71_storage)"
					},
					{
						"astId": 124,
						"contract": "contracts/DecentralizedLottery.sol:DecentralizedLottery",
						"label": "_locked",
						"offset": 0,
						"slot": "13",
						"type": "t_bool"
					}
				],
				"types": {
					"t_address": {
						"encoding": "inplace",
						"label": "address",
						"numberOfBytes": "20"
					},
					"t_array(t_address)dyn_storage": {
						"base": "t_address",
						"encoding": "dynamic_array",
						"label": "address[]",
						"numberOfBytes": "32"
					},
					"t_array(t_uint256)dyn_storage": {
						"base": "t_uint256",
						"encoding": "dynamic_array",
						"label": "uint256[]",
						"numberOfBytes": "32"
					},
					"t_bool": {
						"encoding": "inplace",
						"label": "bool",
						"numberOfBytes": "1"
					},
					"t_mapping(t_address,t_bool)": {
						"encoding": "mapping",
						"key": "t_address",
						"label": "mapping(address => bool)",
						"numberOfBytes": "32",
						"value": "t_bool"
					},
					"t_mapping(t_address,t_uint256)": {
						"encoding": "mapping",
						"key": "t_address",
						"label": "mapping(address => uint256)",
						"numberOfBytes": "32",
						"value": "t_uint256"
					},
					"t_mapping(t_uint256,t_mapping(t_address,t_bool))": {
						"encoding": "mapping",
						"key": "t_uint256",
						"label": "mapping(uint256 => mapping(address => bool))",
						"numberOfBytes": "32",
						"value": "t_mapping(t_address,t_bool)"
					},
					"t_mapping(t_uint256,t_mapping(t_address,t_uint256))": {
						"encoding": "mapping",
						"key": "t_uint256",
						"label": "mapping(uint256 => mapping(address => uint256))",
						"numberOfBytes": "32",
						"value": "t_mapping(t_address,t_uint256)"
					},
					"t_mapping(t_uint256,t_struct(RoundHistory)71_storage)": {
						"encoding": "mapping",
						"key": "t_uint256",
						"label": "mapping(uint256 => struct DecentralizedLottery.RoundHistory)",
						"numberOfBytes": "32",
						"value": "t_struct(RoundHistory)71_storage"
					},
					"t_mapping(t_uint256,t_uint256)": {
						"encoding": "mapping",
						"key": "t_uint256",
						"label": "mapping(uint256 => uint256)",
						"numberOfBytes": "32",
						"value": "t_uint256"
					},
					"t_struct(RoundHistory)71_storage": {
						"encoding": "inplace",
						"label": "struct DecentralizedLottery.RoundHistory",
						"members": [
							{
								"astId": 56,
								"contract": "contracts/DecentralizedLottery.sol:DecentralizedLottery",
								"label": "round",
								"offset": 0,
								"slot": "0",
								"type": "t_uint256"
							},
							{
								"astId": 58,
								"contract": "contracts/DecentralizedLottery.sol:DecentralizedLottery",
								"label": "refunded",
								"offset": 0,
								"slot": "1",
								"type": "t_bool"
							},
							{
								"astId": 60,
								"contract": "contracts/DecentralizedLottery.sol:DecentralizedLottery",
								"label": "startTime",
								"offset": 0,
								"slot": "2",
								"type": "t_uint256"
							},
							{
								"astId": 62,
								"contract": "contracts/DecentralizedLottery.sol:DecentralizedLottery",
								"label": "endTime",
								"offset": 0,
								"slot": "3",
								"type": "t_uint256"
							},
							{
								"astId": 64,
								"contract": "contracts/DecentralizedLottery.sol:DecentralizedLottery",
								"label": "prizePoolOrRefundTotal",
								"offset": 0,
								"slot": "4",
								"type": "t_uint256"
							},
							{
								"astId": 67,
								"contract": "contracts/DecentralizedLottery.sol:DecentralizedLottery",
								"label": "winners",
								"offset": 0,
								"slot": "5",
								"type": "t_array(t_address)dyn_storage"
							},
							{
								"astId": 70,
								"contract": "contracts/DecentralizedLottery.sol:DecentralizedLottery",
								"label": "prizes",
								"offset": 0,
								"slot": "6",
								"type": "t_array(t_uint256)dyn_storage"
							}
						],
						"numberOfBytes": "224"
					},
					"t_uint256": {
						"encoding": "inplace",
						"label": "uint256",
						"numberOfBytes": "32"
					}
				}
			},
			"userdoc": {
				"kind": "user",
				"methods": {
					"buyTickets(uint256)": {
						"notice": "Buy N tickets for the active round. Must send exact ETH = N * TICKET_PRICE."
					},
					"getPlayerCount()": {
						"notice": "total entries (tickets) for current round"
					},
					"getPrizePoolReadable()": {
						"notice": "\"<x.yyyy> ETH\""
					},
					"getRoundSummary()": {
						"notice": "Compact round snapshot for UIs"
					},
					"getTicketPriceReadable()": {
						"notice": "\"0.01 ETH\""
					},
					"getTimeRemainingReadable()": {
						"notice": "\"M min S sec\""
					},
					"getUniquePlayerCount()": {
						"notice": "unique addresses that joined this round"
					},
					"selectWinner()": {
						"notice": "Settle the round:  - if not enough unique players -> refund all tickets  - else -> pay house fee then split pool among up to 3 unique winners  Anyone can call after round end."
					},
					"startNewRound()": {
						"notice": "Start a new lottery round. Only owner. Round must be inactive."
					}
				},
				"notice": "Time-boxed lottery:  - Owner starts a round (fixed duration).  - Players buy tickets at fixed price (ETH).  - After the end, anyone may settle:      * if enough unique players -> pick up to 3 unique winners & pay (minus fee)      * else -> automatically refund all tickets  SECURITY   - onlyOwner can start a round   - CEI pattern for all transfers   - simple nonReentrant guard on settlement/refunds  RANDOMNESS   - simple on-chain pseudo-randomness (OK for class/test; NOT for real-money prod)",
				"version": 1
			}
		}
	}
}