{
	"data": {
		"bytecode": {
			"linkReferences": {},
			"object": "6080604052348015600e575f5ffd5b50335f5f6101000a81548173ffffffffffffffffffffffffffffffffffffffff021916908373ffffffffffffffffffffffffffffffffffffffff1602179055505f600181905550612e7a806100625f395ff3fe60806040526004361061019f575f3560e01c80636c48d697116100eb578063bd85948c11610089578063dac6270d11610063578063dac6270d146105e9578063e40205d614610613578063ef80113b1461063d578063f71d96cb14610667576101df565b8063bd85948c1461057f578063bfe7563414610595578063c2e52206146105bf576101df565b80638da5cb5b116100c55780638da5cb5b146104af57806391aae8f8146104d9578063a7a38f0b14610503578063adda2c2e14610543576101df565b80636c48d69714610431578063884bf67c1461045b5780638b5b9ccc14610485576101df565b806333a99e04116101585780635012f335116101325780635012f3351461037257806359499087146103ae5780635dfa872d146103d85780636641ea0814610407576101df565b806333a99e041461030857806345945a451461031e5780634e2786fb14610348576101df565b806306f81b151461021a5780631594b256146102445780631a1b716c1461026e5780631a95f15f146102985780632492b5b8146102c25780632f366637146102ec576101df565b366101df576040517f08c379a00000000000000000000000000000000000000000000000000000000081526004016101d690611e78565b60405180910390fd5b6040517f08c379a000000000000000000000000000000000000000000000000000000000815260040161021190611e78565b60405180910390fd5b348015610225575f5ffd5b5061022e6106a3565b60405161023b9190611eae565b60405180910390f35b34801561024f575f5ffd5b506102586106a9565b6040516102659190611eae565b60405180910390f35b348015610279575f5ffd5b506102826106af565b60405161028f9190611eae565b60405180910390f35b3480156102a3575f5ffd5b506102ac6106b4565b6040516102b99190611eae565b60405180910390f35b3480156102cd575f5ffd5b506102d66106bf565b6040516102e39190611ee1565b60405180910390f35b61030660048036038101906103019190611f28565b6106d1565b005b348015610313575f5ffd5b5061031c610a6d565b005b348015610329575f5ffd5b50610332610fea565b60405161033f9190611ee1565b60405180910390f35b348015610353575f5ffd5b5061035c611002565b6040516103699190611eae565b60405180910390f35b34801561037d575f5ffd5b5061039860048036038101906103939190611f28565b611008565b6040516103a59190611eae565b60405180910390f35b3480156103b9575f5ffd5b506103c2611028565b6040516103cf9190611eae565b60405180910390f35b3480156103e3575f5ffd5b506103ec61102d565b6040516103fe96959493929190611f53565b60405180910390f35b348015610412575f5ffd5b5061041b611075565b6040516104289190611eae565b60405180910390f35b34801561043c575f5ffd5b5061044561107b565b6040516104529190612012565b60405180910390f35b348015610466575f5ffd5b5061046f611092565b60405161047c9190611eae565b60405180910390f35b348015610490575f5ffd5b50610499611099565b6040516104a69190612119565b60405180910390f35b3480156104ba575f5ffd5b506104c3611124565b6040516104d09190612148565b60405180910390f35b3480156104e4575f5ffd5b506104ed611148565b6040516104fa9190611eae565b60405180910390f35b34801561050e575f5ffd5b5061052960048036038101906105249190611f28565b611162565b60405161053a959493929190612161565b60405180910390f35b34801561054e575f5ffd5b5061056960048036038101906105649190611f28565b6111a0565b6040516105769190612148565b60405180910390f35b34801561058a575f5ffd5b506105936111db565b005b3480156105a0575f5ffd5b506105a9611362565b6040516105b69190612012565b60405180910390f35b3480156105ca575f5ffd5b506105d36113c9565b6040516105e09190611eae565b60405180910390f35b3480156105f4575f5ffd5b506105fd6113d5565b60405161060a9190611eae565b60405180910390f35b34801561061e575f5ffd5b506106276113fe565b6040516106349190611eae565b60405180910390f35b348015610648575f5ffd5b50610651611404565b60405161065e9190612012565b60405180910390f35b348015610672575f5ffd5b5061068d60048036038101906106889190611f28565b611441565b60405161069a9190612148565b60405180910390f35b600a5481565b6101f481565b600a81565b662386f26fc1000081565b600b5f9054906101000a900460ff1681565b5f8111610713576040517f08c379a000000000000000000000000000000000000000000000000000000000815260040161070a906121fc565b60405180910390fd5b61071b610fea565b61075a576040517f08c379a000000000000000000000000000000000000000000000000000000000815260040161075190612264565b60405180910390fd5b662386f26fc100008161076d91906122af565b34146107ae576040517f08c379a00000000000000000000000000000000000000000000000000000000081526004016107a59061233a565b60405180910390fd5b5f60045f60015481526020019081526020015f205f3373ffffffffffffffffffffffffffffffffffffffff1673ffffffffffffffffffffffffffffffffffffffff1681526020019081526020015f20549050600a828261080e9190612358565b111561084f576040517f08c379a0000000000000000000000000000000000000000000000000000000008152600401610846906123d5565b60405180910390fd5b60055f60015481526020019081526020015f205f3373ffffffffffffffffffffffffffffffffffffffff1673ffffffffffffffffffffffffffffffffffffffff1681526020019081526020015f205f9054906101000a900460ff1661093f57600160055f60015481526020019081526020015f205f3373ffffffffffffffffffffffffffffffffffffffff1673ffffffffffffffffffffffffffffffffffffffff1681526020019081526020015f205f6101000a81548160ff021916908315150217905550600160065f60015481526020019081526020015f205f8282546109379190612358565b925050819055505b5f5f90505b828110156109b957600333908060018154018082558091505060019003905f5260205f20015f9091909190916101000a81548173ffffffffffffffffffffffffffffffffffffffff021916908373ffffffffffffffffffffffffffffffffffffffff1602179055508080600101915050610944565b5081816109c69190612358565b60045f60015481526020019081526020015f205f3373ffffffffffffffffffffffffffffffffffffffff1673ffffffffffffffffffffffffffffffffffffffff1681526020019081526020015f20819055506001543373ffffffffffffffffffffffffffffffffffffffff167f2a91574e12ad96234e84923e146b0946ecfb871cd8d5534dc1fdcbe87a7c01b384604051610a619190611eae565b60405180910390a35050565b600d5f9054906101000a900460ff1615610abc576040517f08c379a0000000000000000000000000000000000000000000000000000000008152600401610ab39061243d565b60405180910390fd5b6001600d5f6101000a81548160ff021916908315150217905550610ade610fea565b158015610aec57505f600254115b610b2b576040517f08c379a0000000000000000000000000000000000000000000000000000000008152600401610b22906124a5565b60405180910390fd5b5f60065f60015481526020019081526020015f205490506002811015610bfa575f610b5461147c565b9050610bf36001825f67ffffffffffffffff811115610b7657610b756124c3565b5b604051908082528060200260200182016040528015610ba45781602001602082028036833780820191505090505b505f67ffffffffffffffff811115610bbf57610bbe6124c3565b5b604051908082528060200260200182016040528015610bed5781602001602082028036833780820191505090505b506115df565b5050610fcf565b5f60038054905011610c41576040517f08c379a0000000000000000000000000000000000000000000000000000000008152600401610c389061253a565b60405180910390fd5b5f47905080600a819055505f6127106101f483610c5e91906122af565b610c689190612585565b90505f8183610c7791906125b5565b90505f6003851015610c895784610c8c565b60035b90505f610c9882611759565b90505f610ca583856118ed565b905060085f610cb49190611dc7565b60095f610cc19190611de5565b5f5f90505b8251811015610d96576008838281518110610ce457610ce36125e8565b5b6020026020010151908060018154018082558091505060019003905f5260205f20015f9091909190916101000a81548173ffffffffffffffffffffffffffffffffffffffff021916908373ffffffffffffffffffffffffffffffffffffffff1602179055506009828281518110610d5e57610d5d6125e8565b5b6020026020010151908060018154018082558091505060019003905f5260205f20015f90919091909150558080600101915050610cc6565b505f600b5f6101000a81548160ff0219169083151502179055505f851115610e82575f5f5f9054906101000a900473ffffffffffffffffffffffffffffffffffffffff1673ffffffffffffffffffffffffffffffffffffffff1686604051610dfd90612642565b5f6040518083038185875af1925050503d805f8114610e37576040519150601f19603f3d011682016040523d82523d5f602084013e610e3c565b606091505b5050905080610e80576040517f08c379a0000000000000000000000000000000000000000000000000000000008152600401610e77906126a0565b60405180910390fd5b505b5f5f90505b8251811015610f7a575f838281518110610ea457610ea36125e8565b5b602002602001015173ffffffffffffffffffffffffffffffffffffffff16838381518110610ed557610ed46125e8565b5b6020026020010151604051610ee990612642565b5f6040518083038185875af1925050503d805f8114610f23576040519150601f19603f3d011682016040523d82523d5f602084013e610f28565b606091505b5050905080610f6c576040517f08c379a0000000000000000000000000000000000000000000000000000000008152600401610f6390612708565b60405180910390fd5b508080600101915050610e87565b506001547f062802e42aff12cbf661e2b5331f950782ee2168c5df1e9a8012442542713ebe83838789604051610fb394939291906127dd565b60405180910390a2610fc75f8584846115df565b505050505050505b5f600d5f6101000a81548160ff021916908315150217905550565b5f5f600254118015610ffd575060025442105b905090565b60015481565b60098181548110611017575f80fd5b905f5260205f20015f915090505481565b600281565b5f5f5f5f5f5f6001549550611040610fea565b945061104a6113d5565b9350600380549050925060065f60015481526020019081526020015f20549150479050909192939495565b61012c81565b606061108d611088611092565b611ab6565b905090565b5f47905090565b6060600380548060200260200160405190810160405280929190818152602001828054801561111a57602002820191905f5260205f20905b815f9054906101000a900473ffffffffffffffffffffffffffffffffffffffff1673ffffffffffffffffffffffffffffffffffffffff16815260200190600101908083116110d1575b5050505050905090565b5f5f9054906101000a900473ffffffffffffffffffffffffffffffffffffffff1681565b5f60065f60015481526020019081526020015f2054905090565b600c602052805f5260405f205f91509050805f015490806001015f9054906101000a900460ff16908060020154908060030154908060040154905085565b600881815481106111af575f80fd5b905f5260205f20015f915054906101000a900473ffffffffffffffffffffffffffffffffffffffff1681565b5f5f9054906101000a900473ffffffffffffffffffffffffffffffffffffffff1673ffffffffffffffffffffffffffffffffffffffff163373ffffffffffffffffffffffffffffffffffffffff1614611269576040517f08c379a000000000000000000000000000000000000000000000000000000000815260040161126090612878565b60405180910390fd5b611271610fea565b156112b1576040517f08c379a00000000000000000000000000000000000000000000000000000000081526004016112a8906128e0565b60405180910390fd5b60035f6112be9190611dc7565b6001805f8282546112cf9190612358565b9250508190555061012c426112e49190612358565b60028190555060085f6112f79190611dc7565b60095f6113049190611de5565b5f600a819055505f600b5f6101000a81548160ff0219169083151502179055506001547f278844837bcf8364a705384bf3a2812901f54155bae86dea81dd52aa5b9ec0e36002546040516113589190611eae565b60405180910390a2565b60605f61136d6113d5565b90505f603c8261137d9190612585565b90505f603c8361138d91906128fe565b905061139882611bc5565b6113a182611bc5565b6040516020016113b29291906129fc565b604051602081830303815290604052935050505090565b5f600380549050905090565b5f6113de610fea565b6113ea575f90506113fb565b426002546113f891906125b5565b90505b90565b60025481565b60606040518060400160405280600881526020017f302e303120455448000000000000000000000000000000000000000000000000815250905090565b60038181548110611450575f80fd5b905f5260205f20015f915054906101000a900473ffffffffffffffffffffffffffffffffffffffff1681565b5f5f60038054905090505f5f90505b818110156115a0575f600382815481106114a8576114a76125e8565b5b905f5260205f20015f9054906101000a900473ffffffffffffffffffffffffffffffffffffffff1673ffffffffffffffffffffffffffffffffffffffff16662386f26fc100006040516114fa90612642565b5f6040518083038185875af1925050503d805f8114611534576040519150601f19603f3d011682016040523d82523d5f602084013e611539565b606091505b505090508061157d576040517f08c379a000000000000000000000000000000000000000000000000000000000815260040161157490612a7f565b60405180910390fd5b662386f26fc10000846115909190612358565b935050808060010191505061148b565b506001547f799819fa5a51b1d91e60bb39c0fa0c5f3859104dbe9d25b95498ad5a27f1e2db836040516115d39190611eae565b60405180910390a25090565b5f600c5f60015481526020019081526020015f209050600154815f018190555084816001015f6101000a81548160ff02191690831515021790555061012c60025461162a91906125b5565b81600201819055506002548160030181905550838160040181905550806005015f6116559190611dc7565b806006015f6116649190611de5565b5f5f90505b835181101561173d5781600501848281518110611689576116886125e8565b5b6020026020010151908060018154018082558091505060019003905f5260205f20015f9091909190916101000a81548173ffffffffffffffffffffffffffffffffffffffff021916908373ffffffffffffffffffffffffffffffffffffffff16021790555081600601838281518110611705576117046125e8565b5b6020026020010151908060018154018082558091505060019003905f5260205f20015f90919091909150558080600101915050611669565b505f60028190555060035f6117529190611dc7565b5050505050565b60605f8267ffffffffffffffff811115611776576117756124c3565b5b6040519080825280602002602001820160405280156117a45781602001602082028036833780820191505090505b5090505f5f90505b838110156118e3575f6117c3600380549050611d1e565b90505f600382815481106117da576117d96125e8565b5b905f5260205f20015f9054906101000a900473ffffffffffffffffffffffffffffffffffffffff1690505f5f90505f5f90505b84811015611878578273ffffffffffffffffffffffffffffffffffffffff1686828151811061183f5761183e6125e8565b5b602002602001015173ffffffffffffffffffffffffffffffffffffffff160361186b5760019150611878565b808060010191505061180d565b50806118db5781858581518110611892576118916125e8565b5b602002602001019073ffffffffffffffffffffffffffffffffffffffff16908173ffffffffffffffffffffffffffffffffffffffff168152505083806118d790612a9d565b9450505b5050506117ac565b8192505050919050565b60605f8367ffffffffffffffff81111561190a576119096124c3565b5b6040519080825280602002602001820160405280156119385781602001602082028036833780820191505090505b509050600184036119685782815f81518110611957576119566125e8565b5b602002602001018181525050611aac565b600284036119f3576064603c8461197f91906122af565b6119899190612585565b815f8151811061199c5761199b6125e8565b5b602002602001018181525050805f815181106119bb576119ba6125e8565b5b6020026020010151836119ce91906125b5565b816001815181106119e2576119e16125e8565b5b602002602001018181525050611aab565b5f6064603285611a0391906122af565b611a0d9190612585565b90505f6064601e86611a1f91906122af565b611a299190612585565b90505f818387611a3991906125b5565b611a4391906125b5565b905082845f81518110611a5957611a586125e8565b5b6020026020010181815250508184600181518110611a7a57611a796125e8565b5b6020026020010181815250508084600281518110611a9b57611a9a6125e8565b5b6020026020010181815250505050505b5b8091505092915050565b60605f670de0b6b3a764000083611acd9190612585565b90505f655af3107a4000670de0b6b3a764000085611aeb91906128fe565b611af59190612585565b90505f611b0182611bc5565b90506001815103611b335780604051602001611b1d9190612b2e565b6040516020818303038152906040529050611b91565b6002815103611b635780604051602001611b4d9190612b99565b6040516020818303038152906040529050611b90565b6003815103611b8f5780604051602001611b7d9190612c04565b60405160208183030381529060405290505b5b5b611b9a83611bc5565b81604051602001611bac929190612cb9565b6040516020818303038152906040529350505050919050565b60605f8203611c0b576040518060400160405280600181526020017f30000000000000000000000000000000000000000000000000000000000000008152509050611d19565b5f8290505f5b5f8214611c3a578080611c2390612a9d565b915050600a82611c339190612585565b9150611c11565b5f8167ffffffffffffffff811115611c5557611c546124c3565b5b6040519080825280601f01601f191660200182016040528015611c875781602001600182028036833780820191505090505b5090508492505b5f8314611d1257600a83611ca291906128fe565b6030611cae9190612358565b60f81b8183611cbc90612cf2565b93508381518110611cd057611ccf6125e8565b5b60200101907effffffffffffffffffffffffffffffffffffffffffffffffffffffffffffff191690815f1a905350600a83611d0b9190612585565b9250611c8e565b8093505050505b919050565b5f5f8211611d61576040517f08c379a0000000000000000000000000000000000000000000000000000000008152600401611d5890612d63565b60405180910390fd5b5f424433600380549050600754604051602001611d82959493929190612de6565b604051602081830303815290604052805190602001205f1c905060075f815480929190611dae90612a9d565b91905055508281611dbf91906128fe565b915050919050565b5080545f8255905f5260205f2090810190611de29190611e03565b50565b5080545f8255905f5260205f2090810190611e009190611e03565b50565b5b80821115611e1a575f815f905550600101611e04565b5090565b5f82825260208201905092915050565b7f44697265637420455448206e6f7420616c6c6f776564000000000000000000005f82015250565b5f611e62601683611e1e565b9150611e6d82611e2e565b602082019050919050565b5f6020820190508181035f830152611e8f81611e56565b9050919050565b5f819050919050565b611ea881611e96565b82525050565b5f602082019050611ec15f830184611e9f565b92915050565b5f8115159050919050565b611edb81611ec7565b82525050565b5f602082019050611ef45f830184611ed2565b92915050565b5f5ffd5b611f0781611e96565b8114611f11575f5ffd5b50565b5f81359050611f2281611efe565b92915050565b5f60208284031215611f3d57611f3c611efa565b5b5f611f4a84828501611f14565b91505092915050565b5f60c082019050611f665f830189611e9f565b611f736020830188611ed2565b611f806040830187611e9f565b611f8d6060830186611e9f565b611f9a6080830185611e9f565b611fa760a0830184611e9f565b979650505050505050565b5f81519050919050565b8281835e5f83830152505050565b5f601f19601f8301169050919050565b5f611fe482611fb2565b611fee8185611e1e565b9350611ffe818560208601611fbc565b61200781611fca565b840191505092915050565b5f6020820190508181035f83015261202a8184611fda565b905092915050565b5f81519050919050565b5f82825260208201905092915050565b5f819050602082019050919050565b5f73ffffffffffffffffffffffffffffffffffffffff82169050919050565b5f6120848261205b565b9050919050565b6120948161207a565b82525050565b5f6120a5838361208b565b60208301905092915050565b5f602082019050919050565b5f6120c782612032565b6120d1818561203c565b93506120dc8361204c565b805f5b8381101561210c5781516120f3888261209a565b97506120fe836120b1565b9250506001810190506120df565b5085935050505092915050565b5f6020820190508181035f83015261213181846120bd565b905092915050565b6121428161207a565b82525050565b5f60208201905061215b5f830184612139565b92915050565b5f60a0820190506121745f830188611e9f565b6121816020830187611ed2565b61218e6040830186611e9f565b61219b6060830185611e9f565b6121a86080830184611e9f565b9695505050505050565b7f7469636b6574436f756e74203e203000000000000000000000000000000000005f82015250565b5f6121e6600f83611e1e565b91506121f1826121b2565b602082019050919050565b5f6020820190508181035f830152612213816121da565b9050919050565b7f4e6f2061637469766520726f756e6400000000000000000000000000000000005f82015250565b5f61224e600f83611e1e565b91506122598261221a565b602082019050919050565b5f6020820190508181035f83015261227b81612242565b9050919050565b7f4e487b71000000000000000000000000000000000000000000000000000000005f52601160045260245ffd5b5f6122b982611e96565b91506122c483611e96565b92508282026122d281611e96565b915082820484148315176122e9576122e8612282565b5b5092915050565b7f496e636f727265637420455448000000000000000000000000000000000000005f82015250565b5f612324600d83611e1e565b915061232f826122f0565b602082019050919050565b5f6020820190508181035f83015261235181612318565b9050919050565b5f61236282611e96565b915061236d83611e96565b925082820190508082111561238557612384612282565b5b92915050565b7f45786365656473207065722d61646472657373206c696d6974000000000000005f82015250565b5f6123bf601983611e1e565b91506123ca8261238b565b602082019050919050565b5f6020820190508181035f8301526123ec816123b3565b9050919050565b7f5265656e7472616e6379000000000000000000000000000000000000000000005f82015250565b5f612427600a83611e1e565b9150612432826123f3565b602082019050919050565b5f6020820190508181035f8301526124548161241b565b9050919050565b7f526f756e64206e6f7420656e64656400000000000000000000000000000000005f82015250565b5f61248f600f83611e1e565b915061249a8261245b565b602082019050919050565b5f6020820190508181035f8301526124bc81612483565b9050919050565b7f4e487b71000000000000000000000000000000000000000000000000000000005f52604160045260245ffd5b7f4e6f20656e7472696573000000000000000000000000000000000000000000005f82015250565b5f612524600a83611e1e565b915061252f826124f0565b602082019050919050565b5f6020820190508181035f83015261255181612518565b9050919050565b7f4e487b71000000000000000000000000000000000000000000000000000000005f52601260045260245ffd5b5f61258f82611e96565b915061259a83611e96565b9250826125aa576125a9612558565b5b828204905092915050565b5f6125bf82611e96565b91506125ca83611e96565b92508282039050818111156125e2576125e1612282565b5b92915050565b7f4e487b71000000000000000000000000000000000000000000000000000000005f52603260045260245ffd5b5f81905092915050565b50565b5f61262d5f83612615565b91506126388261261f565b5f82019050919050565b5f61264c82612622565b9150819050919050565b7f466565207472616e73666572206661696c6564000000000000000000000000005f82015250565b5f61268a601383611e1e565b915061269582612656565b602082019050919050565b5f6020820190508181035f8301526126b78161267e565b9050919050565b7f5072697a65207472616e73666572206661696c656400000000000000000000005f82015250565b5f6126f2601583611e1e565b91506126fd826126be565b602082019050919050565b5f6020820190508181035f83015261271f816126e6565b9050919050565b5f81519050919050565b5f82825260208201905092915050565b5f819050602082019050919050565b61275881611e96565b82525050565b5f612769838361274f565b60208301905092915050565b5f602082019050919050565b5f61278b82612726565b6127958185612730565b93506127a083612740565b805f5b838110156127d05781516127b7888261275e565b97506127c283612775565b9250506001810190506127a3565b5085935050505092915050565b5f6080820190508181035f8301526127f581876120bd565b905081810360208301526128098186612781565b90506128186040830185611e9f565b6128256060830184611e9f565b95945050505050565b7f4f6e6c79206f776e6572000000000000000000000000000000000000000000005f82015250565b5f612862600a83611e1e565b915061286d8261282e565b602082019050919050565b5f6020820190508181035f83015261288f81612856565b9050919050565b7f526f756e6420616c7265616479206163746976650000000000000000000000005f82015250565b5f6128ca601483611e1e565b91506128d582612896565b602082019050919050565b5f6020820190508181035f8301526128f7816128be565b9050919050565b5f61290882611e96565b915061291383611e96565b92508261292357612922612558565b5b828206905092915050565b5f81905092915050565b5f61294282611fb2565b61294c818561292e565b935061295c818560208601611fbc565b80840191505092915050565b7f206d696e200000000000000000000000000000000000000000000000000000005f82015250565b5f61299c60058361292e565b91506129a782612968565b600582019050919050565b7f20736563000000000000000000000000000000000000000000000000000000005f82015250565b5f6129e660048361292e565b91506129f1826129b2565b600482019050919050565b5f612a078285612938565b9150612a1282612990565b9150612a1e8284612938565b9150612a29826129da565b91508190509392505050565b7f526566756e64207472616e73666572206661696c6564000000000000000000005f82015250565b5f612a69601683611e1e565b9150612a7482612a35565b602082019050919050565b5f6020820190508181035f830152612a9681612a5d565b9050919050565b5f612aa782611e96565b91507fffffffffffffffffffffffffffffffffffffffffffffffffffffffffffffffff8203612ad957612ad8612282565b5b600182019050919050565b7f30303000000000000000000000000000000000000000000000000000000000005f82015250565b5f612b1860038361292e565b9150612b2382612ae4565b600382019050919050565b5f612b3882612b0c565b9150612b448284612938565b915081905092915050565b7f30300000000000000000000000000000000000000000000000000000000000005f82015250565b5f612b8360028361292e565b9150612b8e82612b4f565b600282019050919050565b5f612ba382612b77565b9150612baf8284612938565b915081905092915050565b7f30000000000000000000000000000000000000000000000000000000000000005f82015250565b5f612bee60018361292e565b9150612bf982612bba565b600182019050919050565b5f612c0e82612be2565b9150612c1a8284612938565b915081905092915050565b7f2e000000000000000000000000000000000000000000000000000000000000005f82015250565b5f612c5960018361292e565b9150612c6482612c25565b600182019050919050565b7f20455448000000000000000000000000000000000000000000000000000000005f82015250565b5f612ca360048361292e565b9150612cae82612c6f565b600482019050919050565b5f612cc48285612938565b9150612ccf82612c4d565b9150612cdb8284612938565b9150612ce682612c97565b91508190509392505050565b5f612cfc82611e96565b91505f8203612d0e57612d0d612282565b5b600182039050919050565b7f6d61784578636c75736976653d300000000000000000000000000000000000005f82015250565b5f612d4d600e83611e1e565b9150612d5882612d19565b602082019050919050565b5f6020820190508181035f830152612d7a81612d41565b9050919050565b5f819050919050565b612d9b612d9682611e96565b612d81565b82525050565b5f8160601b9050919050565b5f612db782612da1565b9050919050565b5f612dc882612dad565b9050919050565b612de0612ddb8261207a565b612dbe565b82525050565b5f612df18288612d8a565b602082019150612e018287612d8a565b602082019150612e118286612dcf565b601482019150612e218285612d8a565b602082019150612e318284612d8a565b602082019150819050969550505050505056fea264697066735822122065ab39121867affbedec3f43daa15eacf5d4780a4d8f9a236a6eec600d1839c164736f6c634300081e0033",
			"opcodes": "PUSH1 0x80 PUSH1 0x40 MSTORE CALLVALUE DUP1 ISZERO PUSH1 0xE JUMPI PUSH0 PUSH0 REVERT JUMPDEST POP CALLER PUSH0 PUSH0 PUSH2 0x100 EXP DUP2 SLOAD DUP2 PUSH20 0xFFFFFFFFFFFFFFFFFFFFFFFFFFFFFFFFFFFFFFFF MUL NOT AND SWAP1 DUP4 PUSH20 0xFFFFFFFFFFFFFFFFFFFFFFFFFFFFFFFFFFFFFFFF AND MUL OR SWAP1 SSTORE POP PUSH0 PUSH1 0x1 DUP2 SWAP1 SSTORE POP PUSH2 0x2E7A DUP1 PUSH2 0x62 PUSH0 CODECOPY PUSH0 RETURN INVALID PUSH1 0x80 PUSH1 0x40 MSTORE PUSH1 0x4 CALLDATASIZE LT PUSH2 0x19F JUMPI PUSH0 CALLDATALOAD PUSH1 0xE0 SHR DUP1 PUSH4 0x6C48D697 GT PUSH2 0xEB JUMPI DUP1 PUSH4 0xBD85948C GT PUSH2 0x89 JUMPI DUP1 PUSH4 0xDAC6270D GT PUSH2 0x63 JUMPI DUP1 PUSH4 0xDAC6270D EQ PUSH2 0x5E9 JUMPI DUP1 PUSH4 0xE40205D6 EQ PUSH2 0x613 JUMPI DUP1 PUSH4 0xEF80113B EQ PUSH2 0x63D JUMPI DUP1 PUSH4 0xF71D96CB EQ PUSH2 0x667 JUMPI PUSH2 0x1DF JUMP JUMPDEST DUP1 PUSH4 0xBD85948C EQ PUSH2 0x57F JUMPI DUP1 PUSH4 0xBFE75634 EQ PUSH2 0x595 JUMPI DUP1 PUSH4 0xC2E52206 EQ PUSH2 0x5BF JUMPI PUSH2 0x1DF JUMP JUMPDEST DUP1 PUSH4 0x8DA5CB5B GT PUSH2 0xC5 JUMPI DUP1 PUSH4 0x8DA5CB5B EQ PUSH2 0x4AF JUMPI DUP1 PUSH4 0x91AAE8F8 EQ PUSH2 0x4D9 JUMPI DUP1 PUSH4 0xA7A38F0B EQ PUSH2 0x503 JUMPI DUP1 PUSH4 0xADDA2C2E EQ PUSH2 0x543 JUMPI PUSH2 0x1DF JUMP JUMPDEST DUP1 PUSH4 0x6C48D697 EQ PUSH2 0x431 JUMPI DUP1 PUSH4 0x884BF67C EQ PUSH2 0x45B JUMPI DUP1 PUSH4 0x8B5B9CCC EQ PUSH2 0x485 JUMPI PUSH2 0x1DF JUMP JUMPDEST DUP1 PUSH4 0x33A99E04 GT PUSH2 0x158 JUMPI DUP1 PUSH4 0x5012F335 GT PUSH2 0x132 JUMPI DUP1 PUSH4 0x5012F335 EQ PUSH2 0x372 JUMPI DUP1 PUSH4 0x59499087 EQ PUSH2 0x3AE JUMPI DUP1 PUSH4 0x5DFA872D EQ PUSH2 0x3D8 JUMPI DUP1 PUSH4 0x6641EA08 EQ PUSH2 0x407 JUMPI PUSH2 0x1DF JUMP JUMPDEST DUP1 PUSH4 0x33A99E04 EQ PUSH2 0x308 JUMPI DUP1 PUSH4 0x45945A45 EQ PUSH2 0x31E JUMPI DUP1 PUSH4 0x4E2786FB EQ PUSH2 0x348 JUMPI PUSH2 0x1DF JUMP JUMPDEST DUP1 PUSH4 0x6F81B15 EQ PUSH2 0x21A JUMPI DUP1 PUSH4 0x1594B256 EQ PUSH2 0x244 JUMPI DUP1 PUSH4 0x1A1B716C EQ PUSH2 0x26E JUMPI DUP1 PUSH4 0x1A95F15F EQ PUSH2 0x298 JUMPI DUP1 PUSH4 0x2492B5B8 EQ PUSH2 0x2C2 JUMPI DUP1 PUSH4 0x2F366637 EQ PUSH2 0x2EC JUMPI PUSH2 0x1DF JUMP JUMPDEST CALLDATASIZE PUSH2 0x1DF JUMPI PUSH1 0x40 MLOAD PUSH32 0x8C379A000000000000000000000000000000000000000000000000000000000 DUP2 MSTORE PUSH1 0x4 ADD PUSH2 0x1D6 SWAP1 PUSH2 0x1E78 JUMP JUMPDEST PUSH1 0x40 MLOAD DUP1 SWAP2 SUB SWAP1 REVERT JUMPDEST PUSH1 0x40 MLOAD PUSH32 0x8C379A000000000000000000000000000000000000000000000000000000000 DUP2 MSTORE PUSH1 0x4 ADD PUSH2 0x211 SWAP1 PUSH2 0x1E78 JUMP JUMPDEST PUSH1 0x40 MLOAD DUP1 SWAP2 SUB SWAP1 REVERT JUMPDEST CALLVALUE DUP1 ISZERO PUSH2 0x225 JUMPI PUSH0 PUSH0 REVERT JUMPDEST POP PUSH2 0x22E PUSH2 0x6A3 JUMP JUMPDEST PUSH1 0x40 MLOAD PUSH2 0x23B SWAP2 SWAP1 PUSH2 0x1EAE JUMP JUMPDEST PUSH1 0x40 MLOAD DUP1 SWAP2 SUB SWAP1 RETURN JUMPDEST CALLVALUE DUP1 ISZERO PUSH2 0x24F JUMPI PUSH0 PUSH0 REVERT JUMPDEST POP PUSH2 0x258 PUSH2 0x6A9 JUMP JUMPDEST PUSH1 0x40 MLOAD PUSH2 0x265 SWAP2 SWAP1 PUSH2 0x1EAE JUMP JUMPDEST PUSH1 0x40 MLOAD DUP1 SWAP2 SUB SWAP1 RETURN JUMPDEST CALLVALUE DUP1 ISZERO PUSH2 0x279 JUMPI PUSH0 PUSH0 REVERT JUMPDEST POP PUSH2 0x282 PUSH2 0x6AF JUMP JUMPDEST PUSH1 0x40 MLOAD PUSH2 0x28F SWAP2 SWAP1 PUSH2 0x1EAE JUMP JUMPDEST PUSH1 0x40 MLOAD DUP1 SWAP2 SUB SWAP1 RETURN JUMPDEST CALLVALUE DUP1 ISZERO PUSH2 0x2A3 JUMPI PUSH0 PUSH0 REVERT JUMPDEST POP PUSH2 0x2AC PUSH2 0x6B4 JUMP JUMPDEST PUSH1 0x40 MLOAD PUSH2 0x2B9 SWAP2 SWAP1 PUSH2 0x1EAE JUMP JUMPDEST PUSH1 0x40 MLOAD DUP1 SWAP2 SUB SWAP1 RETURN JUMPDEST CALLVALUE DUP1 ISZERO PUSH2 0x2CD JUMPI PUSH0 PUSH0 REVERT JUMPDEST POP PUSH2 0x2D6 PUSH2 0x6BF JUMP JUMPDEST PUSH1 0x40 MLOAD PUSH2 0x2E3 SWAP2 SWAP1 PUSH2 0x1EE1 JUMP JUMPDEST PUSH1 0x40 MLOAD DUP1 SWAP2 SUB SWAP1 RETURN JUMPDEST PUSH2 0x306 PUSH1 0x4 DUP1 CALLDATASIZE SUB DUP2 ADD SWAP1 PUSH2 0x301 SWAP2 SWAP1 PUSH2 0x1F28 JUMP JUMPDEST PUSH2 0x6D1 JUMP JUMPDEST STOP JUMPDEST CALLVALUE DUP1 ISZERO PUSH2 0x313 JUMPI PUSH0 PUSH0 REVERT JUMPDEST POP PUSH2 0x31C PUSH2 0xA6D JUMP JUMPDEST STOP JUMPDEST CALLVALUE DUP1 ISZERO PUSH2 0x329 JUMPI PUSH0 PUSH0 REVERT JUMPDEST POP PUSH2 0x332 PUSH2 0xFEA JUMP JUMPDEST PUSH1 0x40 MLOAD PUSH2 0x33F SWAP2 SWAP1 PUSH2 0x1EE1 JUMP JUMPDEST PUSH1 0x40 MLOAD DUP1 SWAP2 SUB SWAP1 RETURN JUMPDEST CALLVALUE DUP1 ISZERO PUSH2 0x353 JUMPI PUSH0 PUSH0 REVERT JUMPDEST POP PUSH2 0x35C PUSH2 0x1002 JUMP JUMPDEST PUSH1 0x40 MLOAD PUSH2 0x369 SWAP2 SWAP1 PUSH2 0x1EAE JUMP JUMPDEST PUSH1 0x40 MLOAD DUP1 SWAP2 SUB SWAP1 RETURN JUMPDEST CALLVALUE DUP1 ISZERO PUSH2 0x37D JUMPI PUSH0 PUSH0 REVERT JUMPDEST POP PUSH2 0x398 PUSH1 0x4 DUP1 CALLDATASIZE SUB DUP2 ADD SWAP1 PUSH2 0x393 SWAP2 SWAP1 PUSH2 0x1F28 JUMP JUMPDEST PUSH2 0x1008 JUMP JUMPDEST PUSH1 0x40 MLOAD PUSH2 0x3A5 SWAP2 SWAP1 PUSH2 0x1EAE JUMP JUMPDEST PUSH1 0x40 MLOAD DUP1 SWAP2 SUB SWAP1 RETURN JUMPDEST CALLVALUE DUP1 ISZERO PUSH2 0x3B9 JUMPI PUSH0 PUSH0 REVERT JUMPDEST POP PUSH2 0x3C2 PUSH2 0x1028 JUMP JUMPDEST PUSH1 0x40 MLOAD PUSH2 0x3CF SWAP2 SWAP1 PUSH2 0x1EAE JUMP JUMPDEST PUSH1 0x40 MLOAD DUP1 SWAP2 SUB SWAP1 RETURN JUMPDEST CALLVALUE DUP1 ISZERO PUSH2 0x3E3 JUMPI PUSH0 PUSH0 REVERT JUMPDEST POP PUSH2 0x3EC PUSH2 0x102D JUMP JUMPDEST PUSH1 0x40 MLOAD PUSH2 0x3FE SWAP7 SWAP6 SWAP5 SWAP4 SWAP3 SWAP2 SWAP1 PUSH2 0x1F53 JUMP JUMPDEST PUSH1 0x40 MLOAD DUP1 SWAP2 SUB SWAP1 RETURN JUMPDEST CALLVALUE DUP1 ISZERO PUSH2 0x412 JUMPI PUSH0 PUSH0 REVERT JUMPDEST POP PUSH2 0x41B PUSH2 0x1075 JUMP JUMPDEST PUSH1 0x40 MLOAD PUSH2 0x428 SWAP2 SWAP1 PUSH2 0x1EAE JUMP JUMPDEST PUSH1 0x40 MLOAD DUP1 SWAP2 SUB SWAP1 RETURN JUMPDEST CALLVALUE DUP1 ISZERO PUSH2 0x43C JUMPI PUSH0 PUSH0 REVERT JUMPDEST POP PUSH2 0x445 PUSH2 0x107B JUMP JUMPDEST PUSH1 0x40 MLOAD PUSH2 0x452 SWAP2 SWAP1 PUSH2 0x2012 JUMP JUMPDEST PUSH1 0x40 MLOAD DUP1 SWAP2 SUB SWAP1 RETURN JUMPDEST CALLVALUE DUP1 ISZERO PUSH2 0x466 JUMPI PUSH0 PUSH0 REVERT JUMPDEST POP PUSH2 0x46F PUSH2 0x1092 JUMP JUMPDEST PUSH1 0x40 MLOAD PUSH2 0x47C SWAP2 SWAP1 PUSH2 0x1EAE JUMP JUMPDEST PUSH1 0x40 MLOAD DUP1 SWAP2 SUB SWAP1 RETURN JUMPDEST CALLVALUE DUP1 ISZERO PUSH2 0x490 JUMPI PUSH0 PUSH0 REVERT JUMPDEST POP PUSH2 0x499 PUSH2 0x1099 JUMP JUMPDEST PUSH1 0x40 MLOAD PUSH2 0x4A6 SWAP2 SWAP1 PUSH2 0x2119 JUMP JUMPDEST PUSH1 0x40 MLOAD DUP1 SWAP2 SUB SWAP1 RETURN JUMPDEST CALLVALUE DUP1 ISZERO PUSH2 0x4BA JUMPI PUSH0 PUSH0 REVERT JUMPDEST POP PUSH2 0x4C3 PUSH2 0x1124 JUMP JUMPDEST PUSH1 0x40 MLOAD PUSH2 0x4D0 SWAP2 SWAP1 PUSH2 0x2148 JUMP JUMPDEST PUSH1 0x40 MLOAD DUP1 SWAP2 SUB SWAP1 RETURN JUMPDEST CALLVALUE DUP1 ISZERO PUSH2 0x4E4 JUMPI PUSH0 PUSH0 REVERT JUMPDEST POP PUSH2 0x4ED PUSH2 0x1148 JUMP JUMPDEST PUSH1 0x40 MLOAD PUSH2 0x4FA SWAP2 SWAP1 PUSH2 0x1EAE JUMP JUMPDEST PUSH1 0x40 MLOAD DUP1 SWAP2 SUB SWAP1 RETURN JUMPDEST CALLVALUE DUP1 ISZERO PUSH2 0x50E JUMPI PUSH0 PUSH0 REVERT JUMPDEST POP PUSH2 0x529 PUSH1 0x4 DUP1 CALLDATASIZE SUB DUP2 ADD SWAP1 PUSH2 0x524 SWAP2 SWAP1 PUSH2 0x1F28 JUMP JUMPDEST PUSH2 0x1162 JUMP JUMPDEST PUSH1 0x40 MLOAD PUSH2 0x53A SWAP6 SWAP5 SWAP4 SWAP3 SWAP2 SWAP1 PUSH2 0x2161 JUMP JUMPDEST PUSH1 0x40 MLOAD DUP1 SWAP2 SUB SWAP1 RETURN JUMPDEST CALLVALUE DUP1 ISZERO PUSH2 0x54E JUMPI PUSH0 PUSH0 REVERT JUMPDEST POP PUSH2 0x569 PUSH1 0x4 DUP1 CALLDATASIZE SUB DUP2 ADD SWAP1 PUSH2 0x564 SWAP2 SWAP1 PUSH2 0x1F28 JUMP JUMPDEST PUSH2 0x11A0 JUMP JUMPDEST PUSH1 0x40 MLOAD PUSH2 0x576 SWAP2 SWAP1 PUSH2 0x2148 JUMP JUMPDEST PUSH1 0x40 MLOAD DUP1 SWAP2 SUB SWAP1 RETURN JUMPDEST CALLVALUE DUP1 ISZERO PUSH2 0x58A JUMPI PUSH0 PUSH0 REVERT JUMPDEST POP PUSH2 0x593 PUSH2 0x11DB JUMP JUMPDEST STOP JUMPDEST CALLVALUE DUP1 ISZERO PUSH2 0x5A0 JUMPI PUSH0 PUSH0 REVERT JUMPDEST POP PUSH2 0x5A9 PUSH2 0x1362 JUMP JUMPDEST PUSH1 0x40 MLOAD PUSH2 0x5B6 SWAP2 SWAP1 PUSH2 0x2012 JUMP JUMPDEST PUSH1 0x40 MLOAD DUP1 SWAP2 SUB SWAP1 RETURN JUMPDEST CALLVALUE DUP1 ISZERO PUSH2 0x5CA JUMPI PUSH0 PUSH0 REVERT JUMPDEST POP PUSH2 0x5D3 PUSH2 0x13C9 JUMP JUMPDEST PUSH1 0x40 MLOAD PUSH2 0x5E0 SWAP2 SWAP1 PUSH2 0x1EAE JUMP JUMPDEST PUSH1 0x40 MLOAD DUP1 SWAP2 SUB SWAP1 RETURN JUMPDEST CALLVALUE DUP1 ISZERO PUSH2 0x5F4 JUMPI PUSH0 PUSH0 REVERT JUMPDEST POP PUSH2 0x5FD PUSH2 0x13D5 JUMP JUMPDEST PUSH1 0x40 MLOAD PUSH2 0x60A SWAP2 SWAP1 PUSH2 0x1EAE JUMP JUMPDEST PUSH1 0x40 MLOAD DUP1 SWAP2 SUB SWAP1 RETURN JUMPDEST CALLVALUE DUP1 ISZERO PUSH2 0x61E JUMPI PUSH0 PUSH0 REVERT JUMPDEST POP PUSH2 0x627 PUSH2 0x13FE JUMP JUMPDEST PUSH1 0x40 MLOAD PUSH2 0x634 SWAP2 SWAP1 PUSH2 0x1EAE JUMP JUMPDEST PUSH1 0x40 MLOAD DUP1 SWAP2 SUB SWAP1 RETURN JUMPDEST CALLVALUE DUP1 ISZERO PUSH2 0x648 JUMPI PUSH0 PUSH0 REVERT JUMPDEST POP PUSH2 0x651 PUSH2 0x1404 JUMP JUMPDEST PUSH1 0x40 MLOAD PUSH2 0x65E SWAP2 SWAP1 PUSH2 0x2012 JUMP JUMPDEST PUSH1 0x40 MLOAD DUP1 SWAP2 SUB SWAP1 RETURN JUMPDEST CALLVALUE DUP1 ISZERO PUSH2 0x672 JUMPI PUSH0 PUSH0 REVERT JUMPDEST POP PUSH2 0x68D PUSH1 0x4 DUP1 CALLDATASIZE SUB DUP2 ADD SWAP1 PUSH2 0x688 SWAP2 SWAP1 PUSH2 0x1F28 JUMP JUMPDEST PUSH2 0x1441 JUMP JUMPDEST PUSH1 0x40 MLOAD PUSH2 0x69A SWAP2 SWAP1 PUSH2 0x2148 JUMP JUMPDEST PUSH1 0x40 MLOAD DUP1 SWAP2 SUB SWAP1 RETURN JUMPDEST PUSH1 0xA SLOAD DUP2 JUMP JUMPDEST PUSH2 0x1F4 DUP2 JUMP JUMPDEST PUSH1 0xA DUP2 JUMP JUMPDEST PUSH7 0x2386F26FC10000 DUP2 JUMP JUMPDEST PUSH1 0xB PUSH0 SWAP1 SLOAD SWAP1 PUSH2 0x100 EXP SWAP1 DIV PUSH1 0xFF AND DUP2 JUMP JUMPDEST PUSH0 DUP2 GT PUSH2 0x713 JUMPI PUSH1 0x40 MLOAD PUSH32 0x8C379A000000000000000000000000000000000000000000000000000000000 DUP2 MSTORE PUSH1 0x4 ADD PUSH2 0x70A SWAP1 PUSH2 0x21FC JUMP JUMPDEST PUSH1 0x40 MLOAD DUP1 SWAP2 SUB SWAP1 REVERT JUMPDEST PUSH2 0x71B PUSH2 0xFEA JUMP JUMPDEST PUSH2 0x75A JUMPI PUSH1 0x40 MLOAD PUSH32 0x8C379A000000000000000000000000000000000000000000000000000000000 DUP2 MSTORE PUSH1 0x4 ADD PUSH2 0x751 SWAP1 PUSH2 0x2264 JUMP JUMPDEST PUSH1 0x40 MLOAD DUP1 SWAP2 SUB SWAP1 REVERT JUMPDEST PUSH7 0x2386F26FC10000 DUP2 PUSH2 0x76D SWAP2 SWAP1 PUSH2 0x22AF JUMP JUMPDEST CALLVALUE EQ PUSH2 0x7AE JUMPI PUSH1 0x40 MLOAD PUSH32 0x8C379A000000000000000000000000000000000000000000000000000000000 DUP2 MSTORE PUSH1 0x4 ADD PUSH2 0x7A5 SWAP1 PUSH2 0x233A JUMP JUMPDEST PUSH1 0x40 MLOAD DUP1 SWAP2 SUB SWAP1 REVERT JUMPDEST PUSH0 PUSH1 0x4 PUSH0 PUSH1 0x1 SLOAD DUP2 MSTORE PUSH1 0x20 ADD SWAP1 DUP2 MSTORE PUSH1 0x20 ADD PUSH0 KECCAK256 PUSH0 CALLER PUSH20 0xFFFFFFFFFFFFFFFFFFFFFFFFFFFFFFFFFFFFFFFF AND PUSH20 0xFFFFFFFFFFFFFFFFFFFFFFFFFFFFFFFFFFFFFFFF AND DUP2 MSTORE PUSH1 0x20 ADD SWAP1 DUP2 MSTORE PUSH1 0x20 ADD PUSH0 KECCAK256 SLOAD SWAP1 POP PUSH1 0xA DUP3 DUP3 PUSH2 0x80E SWAP2 SWAP1 PUSH2 0x2358 JUMP JUMPDEST GT ISZERO PUSH2 0x84F JUMPI PUSH1 0x40 MLOAD PUSH32 0x8C379A000000000000000000000000000000000000000000000000000000000 DUP2 MSTORE PUSH1 0x4 ADD PUSH2 0x846 SWAP1 PUSH2 0x23D5 JUMP JUMPDEST PUSH1 0x40 MLOAD DUP1 SWAP2 SUB SWAP1 REVERT JUMPDEST PUSH1 0x5 PUSH0 PUSH1 0x1 SLOAD DUP2 MSTORE PUSH1 0x20 ADD SWAP1 DUP2 MSTORE PUSH1 0x20 ADD PUSH0 KECCAK256 PUSH0 CALLER PUSH20 0xFFFFFFFFFFFFFFFFFFFFFFFFFFFFFFFFFFFFFFFF AND PUSH20 0xFFFFFFFFFFFFFFFFFFFFFFFFFFFFFFFFFFFFFFFF AND DUP2 MSTORE PUSH1 0x20 ADD SWAP1 DUP2 MSTORE PUSH1 0x20 ADD PUSH0 KECCAK256 PUSH0 SWAP1 SLOAD SWAP1 PUSH2 0x100 EXP SWAP1 DIV PUSH1 0xFF AND PUSH2 0x93F JUMPI PUSH1 0x1 PUSH1 0x5 PUSH0 PUSH1 0x1 SLOAD DUP2 MSTORE PUSH1 0x20 ADD SWAP1 DUP2 MSTORE PUSH1 0x20 ADD PUSH0 KECCAK256 PUSH0 CALLER PUSH20 0xFFFFFFFFFFFFFFFFFFFFFFFFFFFFFFFFFFFFFFFF AND PUSH20 0xFFFFFFFFFFFFFFFFFFFFFFFFFFFFFFFFFFFFFFFF AND DUP2 MSTORE PUSH1 0x20 ADD SWAP1 DUP2 MSTORE PUSH1 0x20 ADD PUSH0 KECCAK256 PUSH0 PUSH2 0x100 EXP DUP2 SLOAD DUP2 PUSH1 0xFF MUL NOT AND SWAP1 DUP4 ISZERO ISZERO MUL OR SWAP1 SSTORE POP PUSH1 0x1 PUSH1 0x6 PUSH0 PUSH1 0x1 SLOAD DUP2 MSTORE PUSH1 0x20 ADD SWAP1 DUP2 MSTORE PUSH1 0x20 ADD PUSH0 KECCAK256 PUSH0 DUP3 DUP3 SLOAD PUSH2 0x937 SWAP2 SWAP1 PUSH2 0x2358 JUMP JUMPDEST SWAP3 POP POP DUP2 SWAP1 SSTORE POP JUMPDEST PUSH0 PUSH0 SWAP1 POP JUMPDEST DUP3 DUP2 LT ISZERO PUSH2 0x9B9 JUMPI PUSH1 0x3 CALLER SWAP1 DUP1 PUSH1 0x1 DUP2 SLOAD ADD DUP1 DUP3 SSTORE DUP1 SWAP2 POP POP PUSH1 0x1 SWAP1 SUB SWAP1 PUSH0 MSTORE PUSH1 0x20 PUSH0 KECCAK256 ADD PUSH0 SWAP1 SWAP2 SWAP1 SWAP2 SWAP1 SWAP2 PUSH2 0x100 EXP DUP2 SLOAD DUP2 PUSH20 0xFFFFFFFFFFFFFFFFFFFFFFFFFFFFFFFFFFFFFFFF MUL NOT AND SWAP1 DUP4 PUSH20 0xFFFFFFFFFFFFFFFFFFFFFFFFFFFFFFFFFFFFFFFF AND MUL OR SWAP1 SSTORE POP DUP1 DUP1 PUSH1 0x1 ADD SWAP2 POP POP PUSH2 0x944 JUMP JUMPDEST POP DUP2 DUP2 PUSH2 0x9C6 SWAP2 SWAP1 PUSH2 0x2358 JUMP JUMPDEST PUSH1 0x4 PUSH0 PUSH1 0x1 SLOAD DUP2 MSTORE PUSH1 0x20 ADD SWAP1 DUP2 MSTORE PUSH1 0x20 ADD PUSH0 KECCAK256 PUSH0 CALLER PUSH20 0xFFFFFFFFFFFFFFFFFFFFFFFFFFFFFFFFFFFFFFFF AND PUSH20 0xFFFFFFFFFFFFFFFFFFFFFFFFFFFFFFFFFFFFFFFF AND DUP2 MSTORE PUSH1 0x20 ADD SWAP1 DUP2 MSTORE PUSH1 0x20 ADD PUSH0 KECCAK256 DUP2 SWAP1 SSTORE POP PUSH1 0x1 SLOAD CALLER PUSH20 0xFFFFFFFFFFFFFFFFFFFFFFFFFFFFFFFFFFFFFFFF AND PUSH32 0x2A91574E12AD96234E84923E146B0946ECFB871CD8D5534DC1FDCBE87A7C01B3 DUP5 PUSH1 0x40 MLOAD PUSH2 0xA61 SWAP2 SWAP1 PUSH2 0x1EAE JUMP JUMPDEST PUSH1 0x40 MLOAD DUP1 SWAP2 SUB SWAP1 LOG3 POP POP JUMP JUMPDEST PUSH1 0xD PUSH0 SWAP1 SLOAD SWAP1 PUSH2 0x100 EXP SWAP1 DIV PUSH1 0xFF AND ISZERO PUSH2 0xABC JUMPI PUSH1 0x40 MLOAD PUSH32 0x8C379A000000000000000000000000000000000000000000000000000000000 DUP2 MSTORE PUSH1 0x4 ADD PUSH2 0xAB3 SWAP1 PUSH2 0x243D JUMP JUMPDEST PUSH1 0x40 MLOAD DUP1 SWAP2 SUB SWAP1 REVERT JUMPDEST PUSH1 0x1 PUSH1 0xD PUSH0 PUSH2 0x100 EXP DUP2 SLOAD DUP2 PUSH1 0xFF MUL NOT AND SWAP1 DUP4 ISZERO ISZERO MUL OR SWAP1 SSTORE POP PUSH2 0xADE PUSH2 0xFEA JUMP JUMPDEST ISZERO DUP1 ISZERO PUSH2 0xAEC JUMPI POP PUSH0 PUSH1 0x2 SLOAD GT JUMPDEST PUSH2 0xB2B JUMPI PUSH1 0x40 MLOAD PUSH32 0x8C379A000000000000000000000000000000000000000000000000000000000 DUP2 MSTORE PUSH1 0x4 ADD PUSH2 0xB22 SWAP1 PUSH2 0x24A5 JUMP JUMPDEST PUSH1 0x40 MLOAD DUP1 SWAP2 SUB SWAP1 REVERT JUMPDEST PUSH0 PUSH1 0x6 PUSH0 PUSH1 0x1 SLOAD DUP2 MSTORE PUSH1 0x20 ADD SWAP1 DUP2 MSTORE PUSH1 0x20 ADD PUSH0 KECCAK256 SLOAD SWAP1 POP PUSH1 0x2 DUP2 LT ISZERO PUSH2 0xBFA JUMPI PUSH0 PUSH2 0xB54 PUSH2 0x147C JUMP JUMPDEST SWAP1 POP PUSH2 0xBF3 PUSH1 0x1 DUP3 PUSH0 PUSH8 0xFFFFFFFFFFFFFFFF DUP2 GT ISZERO PUSH2 0xB76 JUMPI PUSH2 0xB75 PUSH2 0x24C3 JUMP JUMPDEST JUMPDEST PUSH1 0x40 MLOAD SWAP1 DUP1 DUP3 MSTORE DUP1 PUSH1 0x20 MUL PUSH1 0x20 ADD DUP3 ADD PUSH1 0x40 MSTORE DUP1 ISZERO PUSH2 0xBA4 JUMPI DUP2 PUSH1 0x20 ADD PUSH1 0x20 DUP3 MUL DUP1 CALLDATASIZE DUP4 CALLDATACOPY DUP1 DUP3 ADD SWAP2 POP POP SWAP1 POP JUMPDEST POP PUSH0 PUSH8 0xFFFFFFFFFFFFFFFF DUP2 GT ISZERO PUSH2 0xBBF JUMPI PUSH2 0xBBE PUSH2 0x24C3 JUMP JUMPDEST JUMPDEST PUSH1 0x40 MLOAD SWAP1 DUP1 DUP3 MSTORE DUP1 PUSH1 0x20 MUL PUSH1 0x20 ADD DUP3 ADD PUSH1 0x40 MSTORE DUP1 ISZERO PUSH2 0xBED JUMPI DUP2 PUSH1 0x20 ADD PUSH1 0x20 DUP3 MUL DUP1 CALLDATASIZE DUP4 CALLDATACOPY DUP1 DUP3 ADD SWAP2 POP POP SWAP1 POP JUMPDEST POP PUSH2 0x15DF JUMP JUMPDEST POP POP PUSH2 0xFCF JUMP JUMPDEST PUSH0 PUSH1 0x3 DUP1 SLOAD SWAP1 POP GT PUSH2 0xC41 JUMPI PUSH1 0x40 MLOAD PUSH32 0x8C379A000000000000000000000000000000000000000000000000000000000 DUP2 MSTORE PUSH1 0x4 ADD PUSH2 0xC38 SWAP1 PUSH2 0x253A JUMP JUMPDEST PUSH1 0x40 MLOAD DUP1 SWAP2 SUB SWAP1 REVERT JUMPDEST PUSH0 SELFBALANCE SWAP1 POP DUP1 PUSH1 0xA DUP2 SWAP1 SSTORE POP PUSH0 PUSH2 0x2710 PUSH2 0x1F4 DUP4 PUSH2 0xC5E SWAP2 SWAP1 PUSH2 0x22AF JUMP JUMPDEST PUSH2 0xC68 SWAP2 SWAP1 PUSH2 0x2585 JUMP JUMPDEST SWAP1 POP PUSH0 DUP2 DUP4 PUSH2 0xC77 SWAP2 SWAP1 PUSH2 0x25B5 JUMP JUMPDEST SWAP1 POP PUSH0 PUSH1 0x3 DUP6 LT ISZERO PUSH2 0xC89 JUMPI DUP5 PUSH2 0xC8C JUMP JUMPDEST PUSH1 0x3 JUMPDEST SWAP1 POP PUSH0 PUSH2 0xC98 DUP3 PUSH2 0x1759 JUMP JUMPDEST SWAP1 POP PUSH0 PUSH2 0xCA5 DUP4 DUP6 PUSH2 0x18ED JUMP JUMPDEST SWAP1 POP PUSH1 0x8 PUSH0 PUSH2 0xCB4 SWAP2 SWAP1 PUSH2 0x1DC7 JUMP JUMPDEST PUSH1 0x9 PUSH0 PUSH2 0xCC1 SWAP2 SWAP1 PUSH2 0x1DE5 JUMP JUMPDEST PUSH0 PUSH0 SWAP1 POP JUMPDEST DUP3 MLOAD DUP2 LT ISZERO PUSH2 0xD96 JUMPI PUSH1 0x8 DUP4 DUP3 DUP2 MLOAD DUP2 LT PUSH2 0xCE4 JUMPI PUSH2 0xCE3 PUSH2 0x25E8 JUMP JUMPDEST JUMPDEST PUSH1 0x20 MUL PUSH1 0x20 ADD ADD MLOAD SWAP1 DUP1 PUSH1 0x1 DUP2 SLOAD ADD DUP1 DUP3 SSTORE DUP1 SWAP2 POP POP PUSH1 0x1 SWAP1 SUB SWAP1 PUSH0 MSTORE PUSH1 0x20 PUSH0 KECCAK256 ADD PUSH0 SWAP1 SWAP2 SWAP1 SWAP2 SWAP1 SWAP2 PUSH2 0x100 EXP DUP2 SLOAD DUP2 PUSH20 0xFFFFFFFFFFFFFFFFFFFFFFFFFFFFFFFFFFFFFFFF MUL NOT AND SWAP1 DUP4 PUSH20 0xFFFFFFFFFFFFFFFFFFFFFFFFFFFFFFFFFFFFFFFF AND MUL OR SWAP1 SSTORE POP PUSH1 0x9 DUP3 DUP3 DUP2 MLOAD DUP2 LT PUSH2 0xD5E JUMPI PUSH2 0xD5D PUSH2 0x25E8 JUMP JUMPDEST JUMPDEST PUSH1 0x20 MUL PUSH1 0x20 ADD ADD MLOAD SWAP1 DUP1 PUSH1 0x1 DUP2 SLOAD ADD DUP1 DUP3 SSTORE DUP1 SWAP2 POP POP PUSH1 0x1 SWAP1 SUB SWAP1 PUSH0 MSTORE PUSH1 0x20 PUSH0 KECCAK256 ADD PUSH0 SWAP1 SWAP2 SWAP1 SWAP2 SWAP1 SWAP2 POP SSTORE DUP1 DUP1 PUSH1 0x1 ADD SWAP2 POP POP PUSH2 0xCC6 JUMP JUMPDEST POP PUSH0 PUSH1 0xB PUSH0 PUSH2 0x100 EXP DUP2 SLOAD DUP2 PUSH1 0xFF MUL NOT AND SWAP1 DUP4 ISZERO ISZERO MUL OR SWAP1 SSTORE POP PUSH0 DUP6 GT ISZERO PUSH2 0xE82 JUMPI PUSH0 PUSH0 PUSH0 SWAP1 SLOAD SWAP1 PUSH2 0x100 EXP SWAP1 DIV PUSH20 0xFFFFFFFFFFFFFFFFFFFFFFFFFFFFFFFFFFFFFFFF AND PUSH20 0xFFFFFFFFFFFFFFFFFFFFFFFFFFFFFFFFFFFFFFFF AND DUP7 PUSH1 0x40 MLOAD PUSH2 0xDFD SWAP1 PUSH2 0x2642 JUMP JUMPDEST PUSH0 PUSH1 0x40 MLOAD DUP1 DUP4 SUB DUP2 DUP6 DUP8 GAS CALL SWAP3 POP POP POP RETURNDATASIZE DUP1 PUSH0 DUP2 EQ PUSH2 0xE37 JUMPI PUSH1 0x40 MLOAD SWAP2 POP PUSH1 0x1F NOT PUSH1 0x3F RETURNDATASIZE ADD AND DUP3 ADD PUSH1 0x40 MSTORE RETURNDATASIZE DUP3 MSTORE RETURNDATASIZE PUSH0 PUSH1 0x20 DUP5 ADD RETURNDATACOPY PUSH2 0xE3C JUMP JUMPDEST PUSH1 0x60 SWAP2 POP JUMPDEST POP POP SWAP1 POP DUP1 PUSH2 0xE80 JUMPI PUSH1 0x40 MLOAD PUSH32 0x8C379A000000000000000000000000000000000000000000000000000000000 DUP2 MSTORE PUSH1 0x4 ADD PUSH2 0xE77 SWAP1 PUSH2 0x26A0 JUMP JUMPDEST PUSH1 0x40 MLOAD DUP1 SWAP2 SUB SWAP1 REVERT JUMPDEST POP JUMPDEST PUSH0 PUSH0 SWAP1 POP JUMPDEST DUP3 MLOAD DUP2 LT ISZERO PUSH2 0xF7A JUMPI PUSH0 DUP4 DUP3 DUP2 MLOAD DUP2 LT PUSH2 0xEA4 JUMPI PUSH2 0xEA3 PUSH2 0x25E8 JUMP JUMPDEST JUMPDEST PUSH1 0x20 MUL PUSH1 0x20 ADD ADD MLOAD PUSH20 0xFFFFFFFFFFFFFFFFFFFFFFFFFFFFFFFFFFFFFFFF AND DUP4 DUP4 DUP2 MLOAD DUP2 LT PUSH2 0xED5 JUMPI PUSH2 0xED4 PUSH2 0x25E8 JUMP JUMPDEST JUMPDEST PUSH1 0x20 MUL PUSH1 0x20 ADD ADD MLOAD PUSH1 0x40 MLOAD PUSH2 0xEE9 SWAP1 PUSH2 0x2642 JUMP JUMPDEST PUSH0 PUSH1 0x40 MLOAD DUP1 DUP4 SUB DUP2 DUP6 DUP8 GAS CALL SWAP3 POP POP POP RETURNDATASIZE DUP1 PUSH0 DUP2 EQ PUSH2 0xF23 JUMPI PUSH1 0x40 MLOAD SWAP2 POP PUSH1 0x1F NOT PUSH1 0x3F RETURNDATASIZE ADD AND DUP3 ADD PUSH1 0x40 MSTORE RETURNDATASIZE DUP3 MSTORE RETURNDATASIZE PUSH0 PUSH1 0x20 DUP5 ADD RETURNDATACOPY PUSH2 0xF28 JUMP JUMPDEST PUSH1 0x60 SWAP2 POP JUMPDEST POP POP SWAP1 POP DUP1 PUSH2 0xF6C JUMPI PUSH1 0x40 MLOAD PUSH32 0x8C379A000000000000000000000000000000000000000000000000000000000 DUP2 MSTORE PUSH1 0x4 ADD PUSH2 0xF63 SWAP1 PUSH2 0x2708 JUMP JUMPDEST PUSH1 0x40 MLOAD DUP1 SWAP2 SUB SWAP1 REVERT JUMPDEST POP DUP1 DUP1 PUSH1 0x1 ADD SWAP2 POP POP PUSH2 0xE87 JUMP JUMPDEST POP PUSH1 0x1 SLOAD PUSH32 0x62802E42AFF12CBF661E2B5331F950782EE2168C5DF1E9A8012442542713EBE DUP4 DUP4 DUP8 DUP10 PUSH1 0x40 MLOAD PUSH2 0xFB3 SWAP5 SWAP4 SWAP3 SWAP2 SWAP1 PUSH2 0x27DD JUMP JUMPDEST PUSH1 0x40 MLOAD DUP1 SWAP2 SUB SWAP1 LOG2 PUSH2 0xFC7 PUSH0 DUP6 DUP5 DUP5 PUSH2 0x15DF JUMP JUMPDEST POP POP POP POP POP POP POP JUMPDEST PUSH0 PUSH1 0xD PUSH0 PUSH2 0x100 EXP DUP2 SLOAD DUP2 PUSH1 0xFF MUL NOT AND SWAP1 DUP4 ISZERO ISZERO MUL OR SWAP1 SSTORE POP JUMP JUMPDEST PUSH0 PUSH0 PUSH1 0x2 SLOAD GT DUP1 ISZERO PUSH2 0xFFD JUMPI POP PUSH1 0x2 SLOAD TIMESTAMP LT JUMPDEST SWAP1 POP SWAP1 JUMP JUMPDEST PUSH1 0x1 SLOAD DUP2 JUMP JUMPDEST PUSH1 0x9 DUP2 DUP2 SLOAD DUP2 LT PUSH2 0x1017 JUMPI PUSH0 DUP1 REVERT JUMPDEST SWAP1 PUSH0 MSTORE PUSH1 0x20 PUSH0 KECCAK256 ADD PUSH0 SWAP2 POP SWAP1 POP SLOAD DUP2 JUMP JUMPDEST PUSH1 0x2 DUP2 JUMP JUMPDEST PUSH0 PUSH0 PUSH0 PUSH0 PUSH0 PUSH0 PUSH1 0x1 SLOAD SWAP6 POP PUSH2 0x1040 PUSH2 0xFEA JUMP JUMPDEST SWAP5 POP PUSH2 0x104A PUSH2 0x13D5 JUMP JUMPDEST SWAP4 POP PUSH1 0x3 DUP1 SLOAD SWAP1 POP SWAP3 POP PUSH1 0x6 PUSH0 PUSH1 0x1 SLOAD DUP2 MSTORE PUSH1 0x20 ADD SWAP1 DUP2 MSTORE PUSH1 0x20 ADD PUSH0 KECCAK256 SLOAD SWAP2 POP SELFBALANCE SWAP1 POP SWAP1 SWAP2 SWAP3 SWAP4 SWAP5 SWAP6 JUMP JUMPDEST PUSH2 0x12C DUP2 JUMP JUMPDEST PUSH1 0x60 PUSH2 0x108D PUSH2 0x1088 PUSH2 0x1092 JUMP JUMPDEST PUSH2 0x1AB6 JUMP JUMPDEST SWAP1 POP SWAP1 JUMP JUMPDEST PUSH0 SELFBALANCE SWAP1 POP SWAP1 JUMP JUMPDEST PUSH1 0x60 PUSH1 0x3 DUP1 SLOAD DUP1 PUSH1 0x20 MUL PUSH1 0x20 ADD PUSH1 0x40 MLOAD SWAP1 DUP2 ADD PUSH1 0x40 MSTORE DUP1 SWAP3 SWAP2 SWAP1 DUP2 DUP2 MSTORE PUSH1 0x20 ADD DUP3 DUP1 SLOAD DUP1 ISZERO PUSH2 0x111A JUMPI PUSH1 0x20 MUL DUP3 ADD SWAP2 SWAP1 PUSH0 MSTORE PUSH1 0x20 PUSH0 KECCAK256 SWAP1 JUMPDEST DUP2 PUSH0 SWAP1 SLOAD SWAP1 PUSH2 0x100 EXP SWAP1 DIV PUSH20 0xFFFFFFFFFFFFFFFFFFFFFFFFFFFFFFFFFFFFFFFF AND PUSH20 0xFFFFFFFFFFFFFFFFFFFFFFFFFFFFFFFFFFFFFFFF AND DUP2 MSTORE PUSH1 0x20 ADD SWAP1 PUSH1 0x1 ADD SWAP1 DUP1 DUP4 GT PUSH2 0x10D1 JUMPI JUMPDEST POP POP POP POP POP SWAP1 POP SWAP1 JUMP JUMPDEST PUSH0 PUSH0 SWAP1 SLOAD SWAP1 PUSH2 0x100 EXP SWAP1 DIV PUSH20 0xFFFFFFFFFFFFFFFFFFFFFFFFFFFFFFFFFFFFFFFF AND DUP2 JUMP JUMPDEST PUSH0 PUSH1 0x6 PUSH0 PUSH1 0x1 SLOAD DUP2 MSTORE PUSH1 0x20 ADD SWAP1 DUP2 MSTORE PUSH1 0x20 ADD PUSH0 KECCAK256 SLOAD SWAP1 POP SWAP1 JUMP JUMPDEST PUSH1 0xC PUSH1 0x20 MSTORE DUP1 PUSH0 MSTORE PUSH1 0x40 PUSH0 KECCAK256 PUSH0 SWAP2 POP SWAP1 POP DUP1 PUSH0 ADD SLOAD SWAP1 DUP1 PUSH1 0x1 ADD PUSH0 SWAP1 SLOAD SWAP1 PUSH2 0x100 EXP SWAP1 DIV PUSH1 0xFF AND SWAP1 DUP1 PUSH1 0x2 ADD SLOAD SWAP1 DUP1 PUSH1 0x3 ADD SLOAD SWAP1 DUP1 PUSH1 0x4 ADD SLOAD SWAP1 POP DUP6 JUMP JUMPDEST PUSH1 0x8 DUP2 DUP2 SLOAD DUP2 LT PUSH2 0x11AF JUMPI PUSH0 DUP1 REVERT JUMPDEST SWAP1 PUSH0 MSTORE PUSH1 0x20 PUSH0 KECCAK256 ADD PUSH0 SWAP2 POP SLOAD SWAP1 PUSH2 0x100 EXP SWAP1 DIV PUSH20 0xFFFFFFFFFFFFFFFFFFFFFFFFFFFFFFFFFFFFFFFF AND DUP2 JUMP JUMPDEST PUSH0 PUSH0 SWAP1 SLOAD SWAP1 PUSH2 0x100 EXP SWAP1 DIV PUSH20 0xFFFFFFFFFFFFFFFFFFFFFFFFFFFFFFFFFFFFFFFF AND PUSH20 0xFFFFFFFFFFFFFFFFFFFFFFFFFFFFFFFFFFFFFFFF AND CALLER PUSH20 0xFFFFFFFFFFFFFFFFFFFFFFFFFFFFFFFFFFFFFFFF AND EQ PUSH2 0x1269 JUMPI PUSH1 0x40 MLOAD PUSH32 0x8C379A000000000000000000000000000000000000000000000000000000000 DUP2 MSTORE PUSH1 0x4 ADD PUSH2 0x1260 SWAP1 PUSH2 0x2878 JUMP JUMPDEST PUSH1 0x40 MLOAD DUP1 SWAP2 SUB SWAP1 REVERT JUMPDEST PUSH2 0x1271 PUSH2 0xFEA JUMP JUMPDEST ISZERO PUSH2 0x12B1 JUMPI PUSH1 0x40 MLOAD PUSH32 0x8C379A000000000000000000000000000000000000000000000000000000000 DUP2 MSTORE PUSH1 0x4 ADD PUSH2 0x12A8 SWAP1 PUSH2 0x28E0 JUMP JUMPDEST PUSH1 0x40 MLOAD DUP1 SWAP2 SUB SWAP1 REVERT JUMPDEST PUSH1 0x3 PUSH0 PUSH2 0x12BE SWAP2 SWAP1 PUSH2 0x1DC7 JUMP JUMPDEST PUSH1 0x1 DUP1 PUSH0 DUP3 DUP3 SLOAD PUSH2 0x12CF SWAP2 SWAP1 PUSH2 0x2358 JUMP JUMPDEST SWAP3 POP POP DUP2 SWAP1 SSTORE POP PUSH2 0x12C TIMESTAMP PUSH2 0x12E4 SWAP2 SWAP1 PUSH2 0x2358 JUMP JUMPDEST PUSH1 0x2 DUP2 SWAP1 SSTORE POP PUSH1 0x8 PUSH0 PUSH2 0x12F7 SWAP2 SWAP1 PUSH2 0x1DC7 JUMP JUMPDEST PUSH1 0x9 PUSH0 PUSH2 0x1304 SWAP2 SWAP1 PUSH2 0x1DE5 JUMP JUMPDEST PUSH0 PUSH1 0xA DUP2 SWAP1 SSTORE POP PUSH0 PUSH1 0xB PUSH0 PUSH2 0x100 EXP DUP2 SLOAD DUP2 PUSH1 0xFF MUL NOT AND SWAP1 DUP4 ISZERO ISZERO MUL OR SWAP1 SSTORE POP PUSH1 0x1 SLOAD PUSH32 0x278844837BCF8364A705384BF3A2812901F54155BAE86DEA81DD52AA5B9EC0E3 PUSH1 0x2 SLOAD PUSH1 0x40 MLOAD PUSH2 0x1358 SWAP2 SWAP1 PUSH2 0x1EAE JUMP JUMPDEST PUSH1 0x40 MLOAD DUP1 SWAP2 SUB SWAP1 LOG2 JUMP JUMPDEST PUSH1 0x60 PUSH0 PUSH2 0x136D PUSH2 0x13D5 JUMP JUMPDEST SWAP1 POP PUSH0 PUSH1 0x3C DUP3 PUSH2 0x137D SWAP2 SWAP1 PUSH2 0x2585 JUMP JUMPDEST SWAP1 POP PUSH0 PUSH1 0x3C DUP4 PUSH2 0x138D SWAP2 SWAP1 PUSH2 0x28FE JUMP JUMPDEST SWAP1 POP PUSH2 0x1398 DUP3 PUSH2 0x1BC5 JUMP JUMPDEST PUSH2 0x13A1 DUP3 PUSH2 0x1BC5 JUMP JUMPDEST PUSH1 0x40 MLOAD PUSH1 0x20 ADD PUSH2 0x13B2 SWAP3 SWAP2 SWAP1 PUSH2 0x29FC JUMP JUMPDEST PUSH1 0x40 MLOAD PUSH1 0x20 DUP2 DUP4 SUB SUB DUP2 MSTORE SWAP1 PUSH1 0x40 MSTORE SWAP4 POP POP POP POP SWAP1 JUMP JUMPDEST PUSH0 PUSH1 0x3 DUP1 SLOAD SWAP1 POP SWAP1 POP SWAP1 JUMP JUMPDEST PUSH0 PUSH2 0x13DE PUSH2 0xFEA JUMP JUMPDEST PUSH2 0x13EA JUMPI PUSH0 SWAP1 POP PUSH2 0x13FB JUMP JUMPDEST TIMESTAMP PUSH1 0x2 SLOAD PUSH2 0x13F8 SWAP2 SWAP1 PUSH2 0x25B5 JUMP JUMPDEST SWAP1 POP JUMPDEST SWAP1 JUMP JUMPDEST PUSH1 0x2 SLOAD DUP2 JUMP JUMPDEST PUSH1 0x60 PUSH1 0x40 MLOAD DUP1 PUSH1 0x40 ADD PUSH1 0x40 MSTORE DUP1 PUSH1 0x8 DUP2 MSTORE PUSH1 0x20 ADD PUSH32 0x302E303120455448000000000000000000000000000000000000000000000000 DUP2 MSTORE POP SWAP1 POP SWAP1 JUMP JUMPDEST PUSH1 0x3 DUP2 DUP2 SLOAD DUP2 LT PUSH2 0x1450 JUMPI PUSH0 DUP1 REVERT JUMPDEST SWAP1 PUSH0 MSTORE PUSH1 0x20 PUSH0 KECCAK256 ADD PUSH0 SWAP2 POP SLOAD SWAP1 PUSH2 0x100 EXP SWAP1 DIV PUSH20 0xFFFFFFFFFFFFFFFFFFFFFFFFFFFFFFFFFFFFFFFF AND DUP2 JUMP JUMPDEST PUSH0 PUSH0 PUSH1 0x3 DUP1 SLOAD SWAP1 POP SWAP1 POP PUSH0 PUSH0 SWAP1 POP JUMPDEST DUP2 DUP2 LT ISZERO PUSH2 0x15A0 JUMPI PUSH0 PUSH1 0x3 DUP3 DUP2 SLOAD DUP2 LT PUSH2 0x14A8 JUMPI PUSH2 0x14A7 PUSH2 0x25E8 JUMP JUMPDEST JUMPDEST SWAP1 PUSH0 MSTORE PUSH1 0x20 PUSH0 KECCAK256 ADD PUSH0 SWAP1 SLOAD SWAP1 PUSH2 0x100 EXP SWAP1 DIV PUSH20 0xFFFFFFFFFFFFFFFFFFFFFFFFFFFFFFFFFFFFFFFF AND PUSH20 0xFFFFFFFFFFFFFFFFFFFFFFFFFFFFFFFFFFFFFFFF AND PUSH7 0x2386F26FC10000 PUSH1 0x40 MLOAD PUSH2 0x14FA SWAP1 PUSH2 0x2642 JUMP JUMPDEST PUSH0 PUSH1 0x40 MLOAD DUP1 DUP4 SUB DUP2 DUP6 DUP8 GAS CALL SWAP3 POP POP POP RETURNDATASIZE DUP1 PUSH0 DUP2 EQ PUSH2 0x1534 JUMPI PUSH1 0x40 MLOAD SWAP2 POP PUSH1 0x1F NOT PUSH1 0x3F RETURNDATASIZE ADD AND DUP3 ADD PUSH1 0x40 MSTORE RETURNDATASIZE DUP3 MSTORE RETURNDATASIZE PUSH0 PUSH1 0x20 DUP5 ADD RETURNDATACOPY PUSH2 0x1539 JUMP JUMPDEST PUSH1 0x60 SWAP2 POP JUMPDEST POP POP SWAP1 POP DUP1 PUSH2 0x157D JUMPI PUSH1 0x40 MLOAD PUSH32 0x8C379A000000000000000000000000000000000000000000000000000000000 DUP2 MSTORE PUSH1 0x4 ADD PUSH2 0x1574 SWAP1 PUSH2 0x2A7F JUMP JUMPDEST PUSH1 0x40 MLOAD DUP1 SWAP2 SUB SWAP1 REVERT JUMPDEST PUSH7 0x2386F26FC10000 DUP5 PUSH2 0x1590 SWAP2 SWAP1 PUSH2 0x2358 JUMP JUMPDEST SWAP4 POP POP DUP1 DUP1 PUSH1 0x1 ADD SWAP2 POP POP PUSH2 0x148B JUMP JUMPDEST POP PUSH1 0x1 SLOAD PUSH32 0x799819FA5A51B1D91E60BB39C0FA0C5F3859104DBE9D25B95498AD5A27F1E2DB DUP4 PUSH1 0x40 MLOAD PUSH2 0x15D3 SWAP2 SWAP1 PUSH2 0x1EAE JUMP JUMPDEST PUSH1 0x40 MLOAD DUP1 SWAP2 SUB SWAP1 LOG2 POP SWAP1 JUMP JUMPDEST PUSH0 PUSH1 0xC PUSH0 PUSH1 0x1 SLOAD DUP2 MSTORE PUSH1 0x20 ADD SWAP1 DUP2 MSTORE PUSH1 0x20 ADD PUSH0 KECCAK256 SWAP1 POP PUSH1 0x1 SLOAD DUP2 PUSH0 ADD DUP2 SWAP1 SSTORE POP DUP5 DUP2 PUSH1 0x1 ADD PUSH0 PUSH2 0x100 EXP DUP2 SLOAD DUP2 PUSH1 0xFF MUL NOT AND SWAP1 DUP4 ISZERO ISZERO MUL OR SWAP1 SSTORE POP PUSH2 0x12C PUSH1 0x2 SLOAD PUSH2 0x162A SWAP2 SWAP1 PUSH2 0x25B5 JUMP JUMPDEST DUP2 PUSH1 0x2 ADD DUP2 SWAP1 SSTORE POP PUSH1 0x2 SLOAD DUP2 PUSH1 0x3 ADD DUP2 SWAP1 SSTORE POP DUP4 DUP2 PUSH1 0x4 ADD DUP2 SWAP1 SSTORE POP DUP1 PUSH1 0x5 ADD PUSH0 PUSH2 0x1655 SWAP2 SWAP1 PUSH2 0x1DC7 JUMP JUMPDEST DUP1 PUSH1 0x6 ADD PUSH0 PUSH2 0x1664 SWAP2 SWAP1 PUSH2 0x1DE5 JUMP JUMPDEST PUSH0 PUSH0 SWAP1 POP JUMPDEST DUP4 MLOAD DUP2 LT ISZERO PUSH2 0x173D JUMPI DUP2 PUSH1 0x5 ADD DUP5 DUP3 DUP2 MLOAD DUP2 LT PUSH2 0x1689 JUMPI PUSH2 0x1688 PUSH2 0x25E8 JUMP JUMPDEST JUMPDEST PUSH1 0x20 MUL PUSH1 0x20 ADD ADD MLOAD SWAP1 DUP1 PUSH1 0x1 DUP2 SLOAD ADD DUP1 DUP3 SSTORE DUP1 SWAP2 POP POP PUSH1 0x1 SWAP1 SUB SWAP1 PUSH0 MSTORE PUSH1 0x20 PUSH0 KECCAK256 ADD PUSH0 SWAP1 SWAP2 SWAP1 SWAP2 SWAP1 SWAP2 PUSH2 0x100 EXP DUP2 SLOAD DUP2 PUSH20 0xFFFFFFFFFFFFFFFFFFFFFFFFFFFFFFFFFFFFFFFF MUL NOT AND SWAP1 DUP4 PUSH20 0xFFFFFFFFFFFFFFFFFFFFFFFFFFFFFFFFFFFFFFFF AND MUL OR SWAP1 SSTORE POP DUP2 PUSH1 0x6 ADD DUP4 DUP3 DUP2 MLOAD DUP2 LT PUSH2 0x1705 JUMPI PUSH2 0x1704 PUSH2 0x25E8 JUMP JUMPDEST JUMPDEST PUSH1 0x20 MUL PUSH1 0x20 ADD ADD MLOAD SWAP1 DUP1 PUSH1 0x1 DUP2 SLOAD ADD DUP1 DUP3 SSTORE DUP1 SWAP2 POP POP PUSH1 0x1 SWAP1 SUB SWAP1 PUSH0 MSTORE PUSH1 0x20 PUSH0 KECCAK256 ADD PUSH0 SWAP1 SWAP2 SWAP1 SWAP2 SWAP1 SWAP2 POP SSTORE DUP1 DUP1 PUSH1 0x1 ADD SWAP2 POP POP PUSH2 0x1669 JUMP JUMPDEST POP PUSH0 PUSH1 0x2 DUP2 SWAP1 SSTORE POP PUSH1 0x3 PUSH0 PUSH2 0x1752 SWAP2 SWAP1 PUSH2 0x1DC7 JUMP JUMPDEST POP POP POP POP POP JUMP JUMPDEST PUSH1 0x60 PUSH0 DUP3 PUSH8 0xFFFFFFFFFFFFFFFF DUP2 GT ISZERO PUSH2 0x1776 JUMPI PUSH2 0x1775 PUSH2 0x24C3 JUMP JUMPDEST JUMPDEST PUSH1 0x40 MLOAD SWAP1 DUP1 DUP3 MSTORE DUP1 PUSH1 0x20 MUL PUSH1 0x20 ADD DUP3 ADD PUSH1 0x40 MSTORE DUP1 ISZERO PUSH2 0x17A4 JUMPI DUP2 PUSH1 0x20 ADD PUSH1 0x20 DUP3 MUL DUP1 CALLDATASIZE DUP4 CALLDATACOPY DUP1 DUP3 ADD SWAP2 POP POP SWAP1 POP JUMPDEST POP SWAP1 POP PUSH0 PUSH0 SWAP1 POP JUMPDEST DUP4 DUP2 LT ISZERO PUSH2 0x18E3 JUMPI PUSH0 PUSH2 0x17C3 PUSH1 0x3 DUP1 SLOAD SWAP1 POP PUSH2 0x1D1E JUMP JUMPDEST SWAP1 POP PUSH0 PUSH1 0x3 DUP3 DUP2 SLOAD DUP2 LT PUSH2 0x17DA JUMPI PUSH2 0x17D9 PUSH2 0x25E8 JUMP JUMPDEST JUMPDEST SWAP1 PUSH0 MSTORE PUSH1 0x20 PUSH0 KECCAK256 ADD PUSH0 SWAP1 SLOAD SWAP1 PUSH2 0x100 EXP SWAP1 DIV PUSH20 0xFFFFFFFFFFFFFFFFFFFFFFFFFFFFFFFFFFFFFFFF AND SWAP1 POP PUSH0 PUSH0 SWAP1 POP PUSH0 PUSH0 SWAP1 POP JUMPDEST DUP5 DUP2 LT ISZERO PUSH2 0x1878 JUMPI DUP3 PUSH20 0xFFFFFFFFFFFFFFFFFFFFFFFFFFFFFFFFFFFFFFFF AND DUP7 DUP3 DUP2 MLOAD DUP2 LT PUSH2 0x183F JUMPI PUSH2 0x183E PUSH2 0x25E8 JUMP JUMPDEST JUMPDEST PUSH1 0x20 MUL PUSH1 0x20 ADD ADD MLOAD PUSH20 0xFFFFFFFFFFFFFFFFFFFFFFFFFFFFFFFFFFFFFFFF AND SUB PUSH2 0x186B JUMPI PUSH1 0x1 SWAP2 POP PUSH2 0x1878 JUMP JUMPDEST DUP1 DUP1 PUSH1 0x1 ADD SWAP2 POP POP PUSH2 0x180D JUMP JUMPDEST POP DUP1 PUSH2 0x18DB JUMPI DUP2 DUP6 DUP6 DUP2 MLOAD DUP2 LT PUSH2 0x1892 JUMPI PUSH2 0x1891 PUSH2 0x25E8 JUMP JUMPDEST JUMPDEST PUSH1 0x20 MUL PUSH1 0x20 ADD ADD SWAP1 PUSH20 0xFFFFFFFFFFFFFFFFFFFFFFFFFFFFFFFFFFFFFFFF AND SWAP1 DUP2 PUSH20 0xFFFFFFFFFFFFFFFFFFFFFFFFFFFFFFFFFFFFFFFF AND DUP2 MSTORE POP POP DUP4 DUP1 PUSH2 0x18D7 SWAP1 PUSH2 0x2A9D JUMP JUMPDEST SWAP5 POP POP JUMPDEST POP POP POP PUSH2 0x17AC JUMP JUMPDEST DUP2 SWAP3 POP POP POP SWAP2 SWAP1 POP JUMP JUMPDEST PUSH1 0x60 PUSH0 DUP4 PUSH8 0xFFFFFFFFFFFFFFFF DUP2 GT ISZERO PUSH2 0x190A JUMPI PUSH2 0x1909 PUSH2 0x24C3 JUMP JUMPDEST JUMPDEST PUSH1 0x40 MLOAD SWAP1 DUP1 DUP3 MSTORE DUP1 PUSH1 0x20 MUL PUSH1 0x20 ADD DUP3 ADD PUSH1 0x40 MSTORE DUP1 ISZERO PUSH2 0x1938 JUMPI DUP2 PUSH1 0x20 ADD PUSH1 0x20 DUP3 MUL DUP1 CALLDATASIZE DUP4 CALLDATACOPY DUP1 DUP3 ADD SWAP2 POP POP SWAP1 POP JUMPDEST POP SWAP1 POP PUSH1 0x1 DUP5 SUB PUSH2 0x1968 JUMPI DUP3 DUP2 PUSH0 DUP2 MLOAD DUP2 LT PUSH2 0x1957 JUMPI PUSH2 0x1956 PUSH2 0x25E8 JUMP JUMPDEST JUMPDEST PUSH1 0x20 MUL PUSH1 0x20 ADD ADD DUP2 DUP2 MSTORE POP POP PUSH2 0x1AAC JUMP JUMPDEST PUSH1 0x2 DUP5 SUB PUSH2 0x19F3 JUMPI PUSH1 0x64 PUSH1 0x3C DUP5 PUSH2 0x197F SWAP2 SWAP1 PUSH2 0x22AF JUMP JUMPDEST PUSH2 0x1989 SWAP2 SWAP1 PUSH2 0x2585 JUMP JUMPDEST DUP2 PUSH0 DUP2 MLOAD DUP2 LT PUSH2 0x199C JUMPI PUSH2 0x199B PUSH2 0x25E8 JUMP JUMPDEST JUMPDEST PUSH1 0x20 MUL PUSH1 0x20 ADD ADD DUP2 DUP2 MSTORE POP POP DUP1 PUSH0 DUP2 MLOAD DUP2 LT PUSH2 0x19BB JUMPI PUSH2 0x19BA PUSH2 0x25E8 JUMP JUMPDEST JUMPDEST PUSH1 0x20 MUL PUSH1 0x20 ADD ADD MLOAD DUP4 PUSH2 0x19CE SWAP2 SWAP1 PUSH2 0x25B5 JUMP JUMPDEST DUP2 PUSH1 0x1 DUP2 MLOAD DUP2 LT PUSH2 0x19E2 JUMPI PUSH2 0x19E1 PUSH2 0x25E8 JUMP JUMPDEST JUMPDEST PUSH1 0x20 MUL PUSH1 0x20 ADD ADD DUP2 DUP2 MSTORE POP POP PUSH2 0x1AAB JUMP JUMPDEST PUSH0 PUSH1 0x64 PUSH1 0x32 DUP6 PUSH2 0x1A03 SWAP2 SWAP1 PUSH2 0x22AF JUMP JUMPDEST PUSH2 0x1A0D SWAP2 SWAP1 PUSH2 0x2585 JUMP JUMPDEST SWAP1 POP PUSH0 PUSH1 0x64 PUSH1 0x1E DUP7 PUSH2 0x1A1F SWAP2 SWAP1 PUSH2 0x22AF JUMP JUMPDEST PUSH2 0x1A29 SWAP2 SWAP1 PUSH2 0x2585 JUMP JUMPDEST SWAP1 POP PUSH0 DUP2 DUP4 DUP8 PUSH2 0x1A39 SWAP2 SWAP1 PUSH2 0x25B5 JUMP JUMPDEST PUSH2 0x1A43 SWAP2 SWAP1 PUSH2 0x25B5 JUMP JUMPDEST SWAP1 POP DUP3 DUP5 PUSH0 DUP2 MLOAD DUP2 LT PUSH2 0x1A59 JUMPI PUSH2 0x1A58 PUSH2 0x25E8 JUMP JUMPDEST JUMPDEST PUSH1 0x20 MUL PUSH1 0x20 ADD ADD DUP2 DUP2 MSTORE POP POP DUP2 DUP5 PUSH1 0x1 DUP2 MLOAD DUP2 LT PUSH2 0x1A7A JUMPI PUSH2 0x1A79 PUSH2 0x25E8 JUMP JUMPDEST JUMPDEST PUSH1 0x20 MUL PUSH1 0x20 ADD ADD DUP2 DUP2 MSTORE POP POP DUP1 DUP5 PUSH1 0x2 DUP2 MLOAD DUP2 LT PUSH2 0x1A9B JUMPI PUSH2 0x1A9A PUSH2 0x25E8 JUMP JUMPDEST JUMPDEST PUSH1 0x20 MUL PUSH1 0x20 ADD ADD DUP2 DUP2 MSTORE POP POP POP POP POP JUMPDEST JUMPDEST DUP1 SWAP2 POP POP SWAP3 SWAP2 POP POP JUMP JUMPDEST PUSH1 0x60 PUSH0 PUSH8 0xDE0B6B3A7640000 DUP4 PUSH2 0x1ACD SWAP2 SWAP1 PUSH2 0x2585 JUMP JUMPDEST SWAP1 POP PUSH0 PUSH6 0x5AF3107A4000 PUSH8 0xDE0B6B3A7640000 DUP6 PUSH2 0x1AEB SWAP2 SWAP1 PUSH2 0x28FE JUMP JUMPDEST PUSH2 0x1AF5 SWAP2 SWAP1 PUSH2 0x2585 JUMP JUMPDEST SWAP1 POP PUSH0 PUSH2 0x1B01 DUP3 PUSH2 0x1BC5 JUMP JUMPDEST SWAP1 POP PUSH1 0x1 DUP2 MLOAD SUB PUSH2 0x1B33 JUMPI DUP1 PUSH1 0x40 MLOAD PUSH1 0x20 ADD PUSH2 0x1B1D SWAP2 SWAP1 PUSH2 0x2B2E JUMP JUMPDEST PUSH1 0x40 MLOAD PUSH1 0x20 DUP2 DUP4 SUB SUB DUP2 MSTORE SWAP1 PUSH1 0x40 MSTORE SWAP1 POP PUSH2 0x1B91 JUMP JUMPDEST PUSH1 0x2 DUP2 MLOAD SUB PUSH2 0x1B63 JUMPI DUP1 PUSH1 0x40 MLOAD PUSH1 0x20 ADD PUSH2 0x1B4D SWAP2 SWAP1 PUSH2 0x2B99 JUMP JUMPDEST PUSH1 0x40 MLOAD PUSH1 0x20 DUP2 DUP4 SUB SUB DUP2 MSTORE SWAP1 PUSH1 0x40 MSTORE SWAP1 POP PUSH2 0x1B90 JUMP JUMPDEST PUSH1 0x3 DUP2 MLOAD SUB PUSH2 0x1B8F JUMPI DUP1 PUSH1 0x40 MLOAD PUSH1 0x20 ADD PUSH2 0x1B7D SWAP2 SWAP1 PUSH2 0x2C04 JUMP JUMPDEST PUSH1 0x40 MLOAD PUSH1 0x20 DUP2 DUP4 SUB SUB DUP2 MSTORE SWAP1 PUSH1 0x40 MSTORE SWAP1 POP JUMPDEST JUMPDEST JUMPDEST PUSH2 0x1B9A DUP4 PUSH2 0x1BC5 JUMP JUMPDEST DUP2 PUSH1 0x40 MLOAD PUSH1 0x20 ADD PUSH2 0x1BAC SWAP3 SWAP2 SWAP1 PUSH2 0x2CB9 JUMP JUMPDEST PUSH1 0x40 MLOAD PUSH1 0x20 DUP2 DUP4 SUB SUB DUP2 MSTORE SWAP1 PUSH1 0x40 MSTORE SWAP4 POP POP POP POP SWAP2 SWAP1 POP JUMP JUMPDEST PUSH1 0x60 PUSH0 DUP3 SUB PUSH2 0x1C0B JUMPI PUSH1 0x40 MLOAD DUP1 PUSH1 0x40 ADD PUSH1 0x40 MSTORE DUP1 PUSH1 0x1 DUP2 MSTORE PUSH1 0x20 ADD PUSH32 0x3000000000000000000000000000000000000000000000000000000000000000 DUP2 MSTORE POP SWAP1 POP PUSH2 0x1D19 JUMP JUMPDEST PUSH0 DUP3 SWAP1 POP PUSH0 JUMPDEST PUSH0 DUP3 EQ PUSH2 0x1C3A JUMPI DUP1 DUP1 PUSH2 0x1C23 SWAP1 PUSH2 0x2A9D JUMP JUMPDEST SWAP2 POP POP PUSH1 0xA DUP3 PUSH2 0x1C33 SWAP2 SWAP1 PUSH2 0x2585 JUMP JUMPDEST SWAP2 POP PUSH2 0x1C11 JUMP JUMPDEST PUSH0 DUP2 PUSH8 0xFFFFFFFFFFFFFFFF DUP2 GT ISZERO PUSH2 0x1C55 JUMPI PUSH2 0x1C54 PUSH2 0x24C3 JUMP JUMPDEST JUMPDEST PUSH1 0x40 MLOAD SWAP1 DUP1 DUP3 MSTORE DUP1 PUSH1 0x1F ADD PUSH1 0x1F NOT AND PUSH1 0x20 ADD DUP3 ADD PUSH1 0x40 MSTORE DUP1 ISZERO PUSH2 0x1C87 JUMPI DUP2 PUSH1 0x20 ADD PUSH1 0x1 DUP3 MUL DUP1 CALLDATASIZE DUP4 CALLDATACOPY DUP1 DUP3 ADD SWAP2 POP POP SWAP1 POP JUMPDEST POP SWAP1 POP DUP5 SWAP3 POP JUMPDEST PUSH0 DUP4 EQ PUSH2 0x1D12 JUMPI PUSH1 0xA DUP4 PUSH2 0x1CA2 SWAP2 SWAP1 PUSH2 0x28FE JUMP JUMPDEST PUSH1 0x30 PUSH2 0x1CAE SWAP2 SWAP1 PUSH2 0x2358 JUMP JUMPDEST PUSH1 0xF8 SHL DUP2 DUP4 PUSH2 0x1CBC SWAP1 PUSH2 0x2CF2 JUMP JUMPDEST SWAP4 POP DUP4 DUP2 MLOAD DUP2 LT PUSH2 0x1CD0 JUMPI PUSH2 0x1CCF PUSH2 0x25E8 JUMP JUMPDEST JUMPDEST PUSH1 0x20 ADD ADD SWAP1 PUSH31 0xFFFFFFFFFFFFFFFFFFFFFFFFFFFFFFFFFFFFFFFFFFFFFFFFFFFFFFFFFFFFFF NOT AND SWAP1 DUP2 PUSH0 BYTE SWAP1 MSTORE8 POP PUSH1 0xA DUP4 PUSH2 0x1D0B SWAP2 SWAP1 PUSH2 0x2585 JUMP JUMPDEST SWAP3 POP PUSH2 0x1C8E JUMP JUMPDEST DUP1 SWAP4 POP POP POP POP JUMPDEST SWAP2 SWAP1 POP JUMP JUMPDEST PUSH0 PUSH0 DUP3 GT PUSH2 0x1D61 JUMPI PUSH1 0x40 MLOAD PUSH32 0x8C379A000000000000000000000000000000000000000000000000000000000 DUP2 MSTORE PUSH1 0x4 ADD PUSH2 0x1D58 SWAP1 PUSH2 0x2D63 JUMP JUMPDEST PUSH1 0x40 MLOAD DUP1 SWAP2 SUB SWAP1 REVERT JUMPDEST PUSH0 TIMESTAMP PREVRANDAO CALLER PUSH1 0x3 DUP1 SLOAD SWAP1 POP PUSH1 0x7 SLOAD PUSH1 0x40 MLOAD PUSH1 0x20 ADD PUSH2 0x1D82 SWAP6 SWAP5 SWAP4 SWAP3 SWAP2 SWAP1 PUSH2 0x2DE6 JUMP JUMPDEST PUSH1 0x40 MLOAD PUSH1 0x20 DUP2 DUP4 SUB SUB DUP2 MSTORE SWAP1 PUSH1 0x40 MSTORE DUP1 MLOAD SWAP1 PUSH1 0x20 ADD KECCAK256 PUSH0 SHR SWAP1 POP PUSH1 0x7 PUSH0 DUP2 SLOAD DUP1 SWAP3 SWAP2 SWAP1 PUSH2 0x1DAE SWAP1 PUSH2 0x2A9D JUMP JUMPDEST SWAP2 SWAP1 POP SSTORE POP DUP3 DUP2 PUSH2 0x1DBF SWAP2 SWAP1 PUSH2 0x28FE JUMP JUMPDEST SWAP2 POP POP SWAP2 SWAP1 POP JUMP JUMPDEST POP DUP1 SLOAD PUSH0 DUP3 SSTORE SWAP1 PUSH0 MSTORE PUSH1 0x20 PUSH0 KECCAK256 SWAP1 DUP2 ADD SWAP1 PUSH2 0x1DE2 SWAP2 SWAP1 PUSH2 0x1E03 JUMP JUMPDEST POP JUMP JUMPDEST POP DUP1 SLOAD PUSH0 DUP3 SSTORE SWAP1 PUSH0 MSTORE PUSH1 0x20 PUSH0 KECCAK256 SWAP1 DUP2 ADD SWAP1 PUSH2 0x1E00 SWAP2 SWAP1 PUSH2 0x1E03 JUMP JUMPDEST POP JUMP JUMPDEST JUMPDEST DUP1 DUP3 GT ISZERO PUSH2 0x1E1A JUMPI PUSH0 DUP2 PUSH0 SWAP1 SSTORE POP PUSH1 0x1 ADD PUSH2 0x1E04 JUMP JUMPDEST POP SWAP1 JUMP JUMPDEST PUSH0 DUP3 DUP3 MSTORE PUSH1 0x20 DUP3 ADD SWAP1 POP SWAP3 SWAP2 POP POP JUMP JUMPDEST PUSH32 0x44697265637420455448206E6F7420616C6C6F77656400000000000000000000 PUSH0 DUP3 ADD MSTORE POP JUMP JUMPDEST PUSH0 PUSH2 0x1E62 PUSH1 0x16 DUP4 PUSH2 0x1E1E JUMP JUMPDEST SWAP2 POP PUSH2 0x1E6D DUP3 PUSH2 0x1E2E JUMP JUMPDEST PUSH1 0x20 DUP3 ADD SWAP1 POP SWAP2 SWAP1 POP JUMP JUMPDEST PUSH0 PUSH1 0x20 DUP3 ADD SWAP1 POP DUP2 DUP2 SUB PUSH0 DUP4 ADD MSTORE PUSH2 0x1E8F DUP2 PUSH2 0x1E56 JUMP JUMPDEST SWAP1 POP SWAP2 SWAP1 POP JUMP JUMPDEST PUSH0 DUP2 SWAP1 POP SWAP2 SWAP1 POP JUMP JUMPDEST PUSH2 0x1EA8 DUP2 PUSH2 0x1E96 JUMP JUMPDEST DUP3 MSTORE POP POP JUMP JUMPDEST PUSH0 PUSH1 0x20 DUP3 ADD SWAP1 POP PUSH2 0x1EC1 PUSH0 DUP4 ADD DUP5 PUSH2 0x1E9F JUMP JUMPDEST SWAP3 SWAP2 POP POP JUMP JUMPDEST PUSH0 DUP2 ISZERO ISZERO SWAP1 POP SWAP2 SWAP1 POP JUMP JUMPDEST PUSH2 0x1EDB DUP2 PUSH2 0x1EC7 JUMP JUMPDEST DUP3 MSTORE POP POP JUMP JUMPDEST PUSH0 PUSH1 0x20 DUP3 ADD SWAP1 POP PUSH2 0x1EF4 PUSH0 DUP4 ADD DUP5 PUSH2 0x1ED2 JUMP JUMPDEST SWAP3 SWAP2 POP POP JUMP JUMPDEST PUSH0 PUSH0 REVERT JUMPDEST PUSH2 0x1F07 DUP2 PUSH2 0x1E96 JUMP JUMPDEST DUP2 EQ PUSH2 0x1F11 JUMPI PUSH0 PUSH0 REVERT JUMPDEST POP JUMP JUMPDEST PUSH0 DUP2 CALLDATALOAD SWAP1 POP PUSH2 0x1F22 DUP2 PUSH2 0x1EFE JUMP JUMPDEST SWAP3 SWAP2 POP POP JUMP JUMPDEST PUSH0 PUSH1 0x20 DUP3 DUP5 SUB SLT ISZERO PUSH2 0x1F3D JUMPI PUSH2 0x1F3C PUSH2 0x1EFA JUMP JUMPDEST JUMPDEST PUSH0 PUSH2 0x1F4A DUP5 DUP3 DUP6 ADD PUSH2 0x1F14 JUMP JUMPDEST SWAP2 POP POP SWAP3 SWAP2 POP POP JUMP JUMPDEST PUSH0 PUSH1 0xC0 DUP3 ADD SWAP1 POP PUSH2 0x1F66 PUSH0 DUP4 ADD DUP10 PUSH2 0x1E9F JUMP JUMPDEST PUSH2 0x1F73 PUSH1 0x20 DUP4 ADD DUP9 PUSH2 0x1ED2 JUMP JUMPDEST PUSH2 0x1F80 PUSH1 0x40 DUP4 ADD DUP8 PUSH2 0x1E9F JUMP JUMPDEST PUSH2 0x1F8D PUSH1 0x60 DUP4 ADD DUP7 PUSH2 0x1E9F JUMP JUMPDEST PUSH2 0x1F9A PUSH1 0x80 DUP4 ADD DUP6 PUSH2 0x1E9F JUMP JUMPDEST PUSH2 0x1FA7 PUSH1 0xA0 DUP4 ADD DUP5 PUSH2 0x1E9F JUMP JUMPDEST SWAP8 SWAP7 POP POP POP POP POP POP POP JUMP JUMPDEST PUSH0 DUP2 MLOAD SWAP1 POP SWAP2 SWAP1 POP JUMP JUMPDEST DUP3 DUP2 DUP4 MCOPY PUSH0 DUP4 DUP4 ADD MSTORE POP POP POP JUMP JUMPDEST PUSH0 PUSH1 0x1F NOT PUSH1 0x1F DUP4 ADD AND SWAP1 POP SWAP2 SWAP1 POP JUMP JUMPDEST PUSH0 PUSH2 0x1FE4 DUP3 PUSH2 0x1FB2 JUMP JUMPDEST PUSH2 0x1FEE DUP2 DUP6 PUSH2 0x1E1E JUMP JUMPDEST SWAP4 POP PUSH2 0x1FFE DUP2 DUP6 PUSH1 0x20 DUP7 ADD PUSH2 0x1FBC JUMP JUMPDEST PUSH2 0x2007 DUP2 PUSH2 0x1FCA JUMP JUMPDEST DUP5 ADD SWAP2 POP POP SWAP3 SWAP2 POP POP JUMP JUMPDEST PUSH0 PUSH1 0x20 DUP3 ADD SWAP1 POP DUP2 DUP2 SUB PUSH0 DUP4 ADD MSTORE PUSH2 0x202A DUP2 DUP5 PUSH2 0x1FDA JUMP JUMPDEST SWAP1 POP SWAP3 SWAP2 POP POP JUMP JUMPDEST PUSH0 DUP2 MLOAD SWAP1 POP SWAP2 SWAP1 POP JUMP JUMPDEST PUSH0 DUP3 DUP3 MSTORE PUSH1 0x20 DUP3 ADD SWAP1 POP SWAP3 SWAP2 POP POP JUMP JUMPDEST PUSH0 DUP2 SWAP1 POP PUSH1 0x20 DUP3 ADD SWAP1 POP SWAP2 SWAP1 POP JUMP JUMPDEST PUSH0 PUSH20 0xFFFFFFFFFFFFFFFFFFFFFFFFFFFFFFFFFFFFFFFF DUP3 AND SWAP1 POP SWAP2 SWAP1 POP JUMP JUMPDEST PUSH0 PUSH2 0x2084 DUP3 PUSH2 0x205B JUMP JUMPDEST SWAP1 POP SWAP2 SWAP1 POP JUMP JUMPDEST PUSH2 0x2094 DUP2 PUSH2 0x207A JUMP JUMPDEST DUP3 MSTORE POP POP JUMP JUMPDEST PUSH0 PUSH2 0x20A5 DUP4 DUP4 PUSH2 0x208B JUMP JUMPDEST PUSH1 0x20 DUP4 ADD SWAP1 POP SWAP3 SWAP2 POP POP JUMP JUMPDEST PUSH0 PUSH1 0x20 DUP3 ADD SWAP1 POP SWAP2 SWAP1 POP JUMP JUMPDEST PUSH0 PUSH2 0x20C7 DUP3 PUSH2 0x2032 JUMP JUMPDEST PUSH2 0x20D1 DUP2 DUP6 PUSH2 0x203C JUMP JUMPDEST SWAP4 POP PUSH2 0x20DC DUP4 PUSH2 0x204C JUMP JUMPDEST DUP1 PUSH0 JUMPDEST DUP4 DUP2 LT ISZERO PUSH2 0x210C JUMPI DUP2 MLOAD PUSH2 0x20F3 DUP9 DUP3 PUSH2 0x209A JUMP JUMPDEST SWAP8 POP PUSH2 0x20FE DUP4 PUSH2 0x20B1 JUMP JUMPDEST SWAP3 POP POP PUSH1 0x1 DUP2 ADD SWAP1 POP PUSH2 0x20DF JUMP JUMPDEST POP DUP6 SWAP4 POP POP POP POP SWAP3 SWAP2 POP POP JUMP JUMPDEST PUSH0 PUSH1 0x20 DUP3 ADD SWAP1 POP DUP2 DUP2 SUB PUSH0 DUP4 ADD MSTORE PUSH2 0x2131 DUP2 DUP5 PUSH2 0x20BD JUMP JUMPDEST SWAP1 POP SWAP3 SWAP2 POP POP JUMP JUMPDEST PUSH2 0x2142 DUP2 PUSH2 0x207A JUMP JUMPDEST DUP3 MSTORE POP POP JUMP JUMPDEST PUSH0 PUSH1 0x20 DUP3 ADD SWAP1 POP PUSH2 0x215B PUSH0 DUP4 ADD DUP5 PUSH2 0x2139 JUMP JUMPDEST SWAP3 SWAP2 POP POP JUMP JUMPDEST PUSH0 PUSH1 0xA0 DUP3 ADD SWAP1 POP PUSH2 0x2174 PUSH0 DUP4 ADD DUP9 PUSH2 0x1E9F JUMP JUMPDEST PUSH2 0x2181 PUSH1 0x20 DUP4 ADD DUP8 PUSH2 0x1ED2 JUMP JUMPDEST PUSH2 0x218E PUSH1 0x40 DUP4 ADD DUP7 PUSH2 0x1E9F JUMP JUMPDEST PUSH2 0x219B PUSH1 0x60 DUP4 ADD DUP6 PUSH2 0x1E9F JUMP JUMPDEST PUSH2 0x21A8 PUSH1 0x80 DUP4 ADD DUP5 PUSH2 0x1E9F JUMP JUMPDEST SWAP7 SWAP6 POP POP POP POP POP POP JUMP JUMPDEST PUSH32 0x7469636B6574436F756E74203E20300000000000000000000000000000000000 PUSH0 DUP3 ADD MSTORE POP JUMP JUMPDEST PUSH0 PUSH2 0x21E6 PUSH1 0xF DUP4 PUSH2 0x1E1E JUMP JUMPDEST SWAP2 POP PUSH2 0x21F1 DUP3 PUSH2 0x21B2 JUMP JUMPDEST PUSH1 0x20 DUP3 ADD SWAP1 POP SWAP2 SWAP1 POP JUMP JUMPDEST PUSH0 PUSH1 0x20 DUP3 ADD SWAP1 POP DUP2 DUP2 SUB PUSH0 DUP4 ADD MSTORE PUSH2 0x2213 DUP2 PUSH2 0x21DA JUMP JUMPDEST SWAP1 POP SWAP2 SWAP1 POP JUMP JUMPDEST PUSH32 0x4E6F2061637469766520726F756E640000000000000000000000000000000000 PUSH0 DUP3 ADD MSTORE POP JUMP JUMPDEST PUSH0 PUSH2 0x224E PUSH1 0xF DUP4 PUSH2 0x1E1E JUMP JUMPDEST SWAP2 POP PUSH2 0x2259 DUP3 PUSH2 0x221A JUMP JUMPDEST PUSH1 0x20 DUP3 ADD SWAP1 POP SWAP2 SWAP1 POP JUMP JUMPDEST PUSH0 PUSH1 0x20 DUP3 ADD SWAP1 POP DUP2 DUP2 SUB PUSH0 DUP4 ADD MSTORE PUSH2 0x227B DUP2 PUSH2 0x2242 JUMP JUMPDEST SWAP1 POP SWAP2 SWAP1 POP JUMP JUMPDEST PUSH32 0x4E487B7100000000000000000000000000000000000000000000000000000000 PUSH0 MSTORE PUSH1 0x11 PUSH1 0x4 MSTORE PUSH1 0x24 PUSH0 REVERT JUMPDEST PUSH0 PUSH2 0x22B9 DUP3 PUSH2 0x1E96 JUMP JUMPDEST SWAP2 POP PUSH2 0x22C4 DUP4 PUSH2 0x1E96 JUMP JUMPDEST SWAP3 POP DUP3 DUP3 MUL PUSH2 0x22D2 DUP2 PUSH2 0x1E96 JUMP JUMPDEST SWAP2 POP DUP3 DUP3 DIV DUP5 EQ DUP4 ISZERO OR PUSH2 0x22E9 JUMPI PUSH2 0x22E8 PUSH2 0x2282 JUMP JUMPDEST JUMPDEST POP SWAP3 SWAP2 POP POP JUMP JUMPDEST PUSH32 0x496E636F72726563742045544800000000000000000000000000000000000000 PUSH0 DUP3 ADD MSTORE POP JUMP JUMPDEST PUSH0 PUSH2 0x2324 PUSH1 0xD DUP4 PUSH2 0x1E1E JUMP JUMPDEST SWAP2 POP PUSH2 0x232F DUP3 PUSH2 0x22F0 JUMP JUMPDEST PUSH1 0x20 DUP3 ADD SWAP1 POP SWAP2 SWAP1 POP JUMP JUMPDEST PUSH0 PUSH1 0x20 DUP3 ADD SWAP1 POP DUP2 DUP2 SUB PUSH0 DUP4 ADD MSTORE PUSH2 0x2351 DUP2 PUSH2 0x2318 JUMP JUMPDEST SWAP1 POP SWAP2 SWAP1 POP JUMP JUMPDEST PUSH0 PUSH2 0x2362 DUP3 PUSH2 0x1E96 JUMP JUMPDEST SWAP2 POP PUSH2 0x236D DUP4 PUSH2 0x1E96 JUMP JUMPDEST SWAP3 POP DUP3 DUP3 ADD SWAP1 POP DUP1 DUP3 GT ISZERO PUSH2 0x2385 JUMPI PUSH2 0x2384 PUSH2 0x2282 JUMP JUMPDEST JUMPDEST SWAP3 SWAP2 POP POP JUMP JUMPDEST PUSH32 0x45786365656473207065722D61646472657373206C696D697400000000000000 PUSH0 DUP3 ADD MSTORE POP JUMP JUMPDEST PUSH0 PUSH2 0x23BF PUSH1 0x19 DUP4 PUSH2 0x1E1E JUMP JUMPDEST SWAP2 POP PUSH2 0x23CA DUP3 PUSH2 0x238B JUMP JUMPDEST PUSH1 0x20 DUP3 ADD SWAP1 POP SWAP2 SWAP1 POP JUMP JUMPDEST PUSH0 PUSH1 0x20 DUP3 ADD SWAP1 POP DUP2 DUP2 SUB PUSH0 DUP4 ADD MSTORE PUSH2 0x23EC DUP2 PUSH2 0x23B3 JUMP JUMPDEST SWAP1 POP SWAP2 SWAP1 POP JUMP JUMPDEST PUSH32 0x5265656E7472616E637900000000000000000000000000000000000000000000 PUSH0 DUP3 ADD MSTORE POP JUMP JUMPDEST PUSH0 PUSH2 0x2427 PUSH1 0xA DUP4 PUSH2 0x1E1E JUMP JUMPDEST SWAP2 POP PUSH2 0x2432 DUP3 PUSH2 0x23F3 JUMP JUMPDEST PUSH1 0x20 DUP3 ADD SWAP1 POP SWAP2 SWAP1 POP JUMP JUMPDEST PUSH0 PUSH1 0x20 DUP3 ADD SWAP1 POP DUP2 DUP2 SUB PUSH0 DUP4 ADD MSTORE PUSH2 0x2454 DUP2 PUSH2 0x241B JUMP JUMPDEST SWAP1 POP SWAP2 SWAP1 POP JUMP JUMPDEST PUSH32 0x526F756E64206E6F7420656E6465640000000000000000000000000000000000 PUSH0 DUP3 ADD MSTORE POP JUMP JUMPDEST PUSH0 PUSH2 0x248F PUSH1 0xF DUP4 PUSH2 0x1E1E JUMP JUMPDEST SWAP2 POP PUSH2 0x249A DUP3 PUSH2 0x245B JUMP JUMPDEST PUSH1 0x20 DUP3 ADD SWAP1 POP SWAP2 SWAP1 POP JUMP JUMPDEST PUSH0 PUSH1 0x20 DUP3 ADD SWAP1 POP DUP2 DUP2 SUB PUSH0 DUP4 ADD MSTORE PUSH2 0x24BC DUP2 PUSH2 0x2483 JUMP JUMPDEST SWAP1 POP SWAP2 SWAP1 POP JUMP JUMPDEST PUSH32 0x4E487B7100000000000000000000000000000000000000000000000000000000 PUSH0 MSTORE PUSH1 0x41 PUSH1 0x4 MSTORE PUSH1 0x24 PUSH0 REVERT JUMPDEST PUSH32 0x4E6F20656E747269657300000000000000000000000000000000000000000000 PUSH0 DUP3 ADD MSTORE POP JUMP JUMPDEST PUSH0 PUSH2 0x2524 PUSH1 0xA DUP4 PUSH2 0x1E1E JUMP JUMPDEST SWAP2 POP PUSH2 0x252F DUP3 PUSH2 0x24F0 JUMP JUMPDEST PUSH1 0x20 DUP3 ADD SWAP1 POP SWAP2 SWAP1 POP JUMP JUMPDEST PUSH0 PUSH1 0x20 DUP3 ADD SWAP1 POP DUP2 DUP2 SUB PUSH0 DUP4 ADD MSTORE PUSH2 0x2551 DUP2 PUSH2 0x2518 JUMP JUMPDEST SWAP1 POP SWAP2 SWAP1 POP JUMP JUMPDEST PUSH32 0x4E487B7100000000000000000000000000000000000000000000000000000000 PUSH0 MSTORE PUSH1 0x12 PUSH1 0x4 MSTORE PUSH1 0x24 PUSH0 REVERT JUMPDEST PUSH0 PUSH2 0x258F DUP3 PUSH2 0x1E96 JUMP JUMPDEST SWAP2 POP PUSH2 0x259A DUP4 PUSH2 0x1E96 JUMP JUMPDEST SWAP3 POP DUP3 PUSH2 0x25AA JUMPI PUSH2 0x25A9 PUSH2 0x2558 JUMP JUMPDEST JUMPDEST DUP3 DUP3 DIV SWAP1 POP SWAP3 SWAP2 POP POP JUMP JUMPDEST PUSH0 PUSH2 0x25BF DUP3 PUSH2 0x1E96 JUMP JUMPDEST SWAP2 POP PUSH2 0x25CA DUP4 PUSH2 0x1E96 JUMP JUMPDEST SWAP3 POP DUP3 DUP3 SUB SWAP1 POP DUP2 DUP2 GT ISZERO PUSH2 0x25E2 JUMPI PUSH2 0x25E1 PUSH2 0x2282 JUMP JUMPDEST JUMPDEST SWAP3 SWAP2 POP POP JUMP JUMPDEST PUSH32 0x4E487B7100000000000000000000000000000000000000000000000000000000 PUSH0 MSTORE PUSH1 0x32 PUSH1 0x4 MSTORE PUSH1 0x24 PUSH0 REVERT JUMPDEST PUSH0 DUP2 SWAP1 POP SWAP3 SWAP2 POP POP JUMP JUMPDEST POP JUMP JUMPDEST PUSH0 PUSH2 0x262D PUSH0 DUP4 PUSH2 0x2615 JUMP JUMPDEST SWAP2 POP PUSH2 0x2638 DUP3 PUSH2 0x261F JUMP JUMPDEST PUSH0 DUP3 ADD SWAP1 POP SWAP2 SWAP1 POP JUMP JUMPDEST PUSH0 PUSH2 0x264C DUP3 PUSH2 0x2622 JUMP JUMPDEST SWAP2 POP DUP2 SWAP1 POP SWAP2 SWAP1 POP JUMP JUMPDEST PUSH32 0x466565207472616E73666572206661696C656400000000000000000000000000 PUSH0 DUP3 ADD MSTORE POP JUMP JUMPDEST PUSH0 PUSH2 0x268A PUSH1 0x13 DUP4 PUSH2 0x1E1E JUMP JUMPDEST SWAP2 POP PUSH2 0x2695 DUP3 PUSH2 0x2656 JUMP JUMPDEST PUSH1 0x20 DUP3 ADD SWAP1 POP SWAP2 SWAP1 POP JUMP JUMPDEST PUSH0 PUSH1 0x20 DUP3 ADD SWAP1 POP DUP2 DUP2 SUB PUSH0 DUP4 ADD MSTORE PUSH2 0x26B7 DUP2 PUSH2 0x267E JUMP JUMPDEST SWAP1 POP SWAP2 SWAP1 POP JUMP JUMPDEST PUSH32 0x5072697A65207472616E73666572206661696C65640000000000000000000000 PUSH0 DUP3 ADD MSTORE POP JUMP JUMPDEST PUSH0 PUSH2 0x26F2 PUSH1 0x15 DUP4 PUSH2 0x1E1E JUMP JUMPDEST SWAP2 POP PUSH2 0x26FD DUP3 PUSH2 0x26BE JUMP JUMPDEST PUSH1 0x20 DUP3 ADD SWAP1 POP SWAP2 SWAP1 POP JUMP JUMPDEST PUSH0 PUSH1 0x20 DUP3 ADD SWAP1 POP DUP2 DUP2 SUB PUSH0 DUP4 ADD MSTORE PUSH2 0x271F DUP2 PUSH2 0x26E6 JUMP JUMPDEST SWAP1 POP SWAP2 SWAP1 POP JUMP JUMPDEST PUSH0 DUP2 MLOAD SWAP1 POP SWAP2 SWAP1 POP JUMP JUMPDEST PUSH0 DUP3 DUP3 MSTORE PUSH1 0x20 DUP3 ADD SWAP1 POP SWAP3 SWAP2 POP POP JUMP JUMPDEST PUSH0 DUP2 SWAP1 POP PUSH1 0x20 DUP3 ADD SWAP1 POP SWAP2 SWAP1 POP JUMP JUMPDEST PUSH2 0x2758 DUP2 PUSH2 0x1E96 JUMP JUMPDEST DUP3 MSTORE POP POP JUMP JUMPDEST PUSH0 PUSH2 0x2769 DUP4 DUP4 PUSH2 0x274F JUMP JUMPDEST PUSH1 0x20 DUP4 ADD SWAP1 POP SWAP3 SWAP2 POP POP JUMP JUMPDEST PUSH0 PUSH1 0x20 DUP3 ADD SWAP1 POP SWAP2 SWAP1 POP JUMP JUMPDEST PUSH0 PUSH2 0x278B DUP3 PUSH2 0x2726 JUMP JUMPDEST PUSH2 0x2795 DUP2 DUP6 PUSH2 0x2730 JUMP JUMPDEST SWAP4 POP PUSH2 0x27A0 DUP4 PUSH2 0x2740 JUMP JUMPDEST DUP1 PUSH0 JUMPDEST DUP4 DUP2 LT ISZERO PUSH2 0x27D0 JUMPI DUP2 MLOAD PUSH2 0x27B7 DUP9 DUP3 PUSH2 0x275E JUMP JUMPDEST SWAP8 POP PUSH2 0x27C2 DUP4 PUSH2 0x2775 JUMP JUMPDEST SWAP3 POP POP PUSH1 0x1 DUP2 ADD SWAP1 POP PUSH2 0x27A3 JUMP JUMPDEST POP DUP6 SWAP4 POP POP POP POP SWAP3 SWAP2 POP POP JUMP JUMPDEST PUSH0 PUSH1 0x80 DUP3 ADD SWAP1 POP DUP2 DUP2 SUB PUSH0 DUP4 ADD MSTORE PUSH2 0x27F5 DUP2 DUP8 PUSH2 0x20BD JUMP JUMPDEST SWAP1 POP DUP2 DUP2 SUB PUSH1 0x20 DUP4 ADD MSTORE PUSH2 0x2809 DUP2 DUP7 PUSH2 0x2781 JUMP JUMPDEST SWAP1 POP PUSH2 0x2818 PUSH1 0x40 DUP4 ADD DUP6 PUSH2 0x1E9F JUMP JUMPDEST PUSH2 0x2825 PUSH1 0x60 DUP4 ADD DUP5 PUSH2 0x1E9F JUMP JUMPDEST SWAP6 SWAP5 POP POP POP POP POP JUMP JUMPDEST PUSH32 0x4F6E6C79206F776E657200000000000000000000000000000000000000000000 PUSH0 DUP3 ADD MSTORE POP JUMP JUMPDEST PUSH0 PUSH2 0x2862 PUSH1 0xA DUP4 PUSH2 0x1E1E JUMP JUMPDEST SWAP2 POP PUSH2 0x286D DUP3 PUSH2 0x282E JUMP JUMPDEST PUSH1 0x20 DUP3 ADD SWAP1 POP SWAP2 SWAP1 POP JUMP JUMPDEST PUSH0 PUSH1 0x20 DUP3 ADD SWAP1 POP DUP2 DUP2 SUB PUSH0 DUP4 ADD MSTORE PUSH2 0x288F DUP2 PUSH2 0x2856 JUMP JUMPDEST SWAP1 POP SWAP2 SWAP1 POP JUMP JUMPDEST PUSH32 0x526F756E6420616C726561647920616374697665000000000000000000000000 PUSH0 DUP3 ADD MSTORE POP JUMP JUMPDEST PUSH0 PUSH2 0x28CA PUSH1 0x14 DUP4 PUSH2 0x1E1E JUMP JUMPDEST SWAP2 POP PUSH2 0x28D5 DUP3 PUSH2 0x2896 JUMP JUMPDEST PUSH1 0x20 DUP3 ADD SWAP1 POP SWAP2 SWAP1 POP JUMP JUMPDEST PUSH0 PUSH1 0x20 DUP3 ADD SWAP1 POP DUP2 DUP2 SUB PUSH0 DUP4 ADD MSTORE PUSH2 0x28F7 DUP2 PUSH2 0x28BE JUMP JUMPDEST SWAP1 POP SWAP2 SWAP1 POP JUMP JUMPDEST PUSH0 PUSH2 0x2908 DUP3 PUSH2 0x1E96 JUMP JUMPDEST SWAP2 POP PUSH2 0x2913 DUP4 PUSH2 0x1E96 JUMP JUMPDEST SWAP3 POP DUP3 PUSH2 0x2923 JUMPI PUSH2 0x2922 PUSH2 0x2558 JUMP JUMPDEST JUMPDEST DUP3 DUP3 MOD SWAP1 POP SWAP3 SWAP2 POP POP JUMP JUMPDEST PUSH0 DUP2 SWAP1 POP SWAP3 SWAP2 POP POP JUMP JUMPDEST PUSH0 PUSH2 0x2942 DUP3 PUSH2 0x1FB2 JUMP JUMPDEST PUSH2 0x294C DUP2 DUP6 PUSH2 0x292E JUMP JUMPDEST SWAP4 POP PUSH2 0x295C DUP2 DUP6 PUSH1 0x20 DUP7 ADD PUSH2 0x1FBC JUMP JUMPDEST DUP1 DUP5 ADD SWAP2 POP POP SWAP3 SWAP2 POP POP JUMP JUMPDEST PUSH32 0x206D696E20000000000000000000000000000000000000000000000000000000 PUSH0 DUP3 ADD MSTORE POP JUMP JUMPDEST PUSH0 PUSH2 0x299C PUSH1 0x5 DUP4 PUSH2 0x292E JUMP JUMPDEST SWAP2 POP PUSH2 0x29A7 DUP3 PUSH2 0x2968 JUMP JUMPDEST PUSH1 0x5 DUP3 ADD SWAP1 POP SWAP2 SWAP1 POP JUMP JUMPDEST PUSH32 0x2073656300000000000000000000000000000000000000000000000000000000 PUSH0 DUP3 ADD MSTORE POP JUMP JUMPDEST PUSH0 PUSH2 0x29E6 PUSH1 0x4 DUP4 PUSH2 0x292E JUMP JUMPDEST SWAP2 POP PUSH2 0x29F1 DUP3 PUSH2 0x29B2 JUMP JUMPDEST PUSH1 0x4 DUP3 ADD SWAP1 POP SWAP2 SWAP1 POP JUMP JUMPDEST PUSH0 PUSH2 0x2A07 DUP3 DUP6 PUSH2 0x2938 JUMP JUMPDEST SWAP2 POP PUSH2 0x2A12 DUP3 PUSH2 0x2990 JUMP JUMPDEST SWAP2 POP PUSH2 0x2A1E DUP3 DUP5 PUSH2 0x2938 JUMP JUMPDEST SWAP2 POP PUSH2 0x2A29 DUP3 PUSH2 0x29DA JUMP JUMPDEST SWAP2 POP DUP2 SWAP1 POP SWAP4 SWAP3 POP POP POP JUMP JUMPDEST PUSH32 0x526566756E64207472616E73666572206661696C656400000000000000000000 PUSH0 DUP3 ADD MSTORE POP JUMP JUMPDEST PUSH0 PUSH2 0x2A69 PUSH1 0x16 DUP4 PUSH2 0x1E1E JUMP JUMPDEST SWAP2 POP PUSH2 0x2A74 DUP3 PUSH2 0x2A35 JUMP JUMPDEST PUSH1 0x20 DUP3 ADD SWAP1 POP SWAP2 SWAP1 POP JUMP JUMPDEST PUSH0 PUSH1 0x20 DUP3 ADD SWAP1 POP DUP2 DUP2 SUB PUSH0 DUP4 ADD MSTORE PUSH2 0x2A96 DUP2 PUSH2 0x2A5D JUMP JUMPDEST SWAP1 POP SWAP2 SWAP1 POP JUMP JUMPDEST PUSH0 PUSH2 0x2AA7 DUP3 PUSH2 0x1E96 JUMP JUMPDEST SWAP2 POP PUSH32 0xFFFFFFFFFFFFFFFFFFFFFFFFFFFFFFFFFFFFFFFFFFFFFFFFFFFFFFFFFFFFFFFF DUP3 SUB PUSH2 0x2AD9 JUMPI PUSH2 0x2AD8 PUSH2 0x2282 JUMP JUMPDEST JUMPDEST PUSH1 0x1 DUP3 ADD SWAP1 POP SWAP2 SWAP1 POP JUMP JUMPDEST PUSH32 0x3030300000000000000000000000000000000000000000000000000000000000 PUSH0 DUP3 ADD MSTORE POP JUMP JUMPDEST PUSH0 PUSH2 0x2B18 PUSH1 0x3 DUP4 PUSH2 0x292E JUMP JUMPDEST SWAP2 POP PUSH2 0x2B23 DUP3 PUSH2 0x2AE4 JUMP JUMPDEST PUSH1 0x3 DUP3 ADD SWAP1 POP SWAP2 SWAP1 POP JUMP JUMPDEST PUSH0 PUSH2 0x2B38 DUP3 PUSH2 0x2B0C JUMP JUMPDEST SWAP2 POP PUSH2 0x2B44 DUP3 DUP5 PUSH2 0x2938 JUMP JUMPDEST SWAP2 POP DUP2 SWAP1 POP SWAP3 SWAP2 POP POP JUMP JUMPDEST PUSH32 0x3030000000000000000000000000000000000000000000000000000000000000 PUSH0 DUP3 ADD MSTORE POP JUMP JUMPDEST PUSH0 PUSH2 0x2B83 PUSH1 0x2 DUP4 PUSH2 0x292E JUMP JUMPDEST SWAP2 POP PUSH2 0x2B8E DUP3 PUSH2 0x2B4F JUMP JUMPDEST PUSH1 0x2 DUP3 ADD SWAP1 POP SWAP2 SWAP1 POP JUMP JUMPDEST PUSH0 PUSH2 0x2BA3 DUP3 PUSH2 0x2B77 JUMP JUMPDEST SWAP2 POP PUSH2 0x2BAF DUP3 DUP5 PUSH2 0x2938 JUMP JUMPDEST SWAP2 POP DUP2 SWAP1 POP SWAP3 SWAP2 POP POP JUMP JUMPDEST PUSH32 0x3000000000000000000000000000000000000000000000000000000000000000 PUSH0 DUP3 ADD MSTORE POP JUMP JUMPDEST PUSH0 PUSH2 0x2BEE PUSH1 0x1 DUP4 PUSH2 0x292E JUMP JUMPDEST SWAP2 POP PUSH2 0x2BF9 DUP3 PUSH2 0x2BBA JUMP JUMPDEST PUSH1 0x1 DUP3 ADD SWAP1 POP SWAP2 SWAP1 POP JUMP JUMPDEST PUSH0 PUSH2 0x2C0E DUP3 PUSH2 0x2BE2 JUMP JUMPDEST SWAP2 POP PUSH2 0x2C1A DUP3 DUP5 PUSH2 0x2938 JUMP JUMPDEST SWAP2 POP DUP2 SWAP1 POP SWAP3 SWAP2 POP POP JUMP JUMPDEST PUSH32 0x2E00000000000000000000000000000000000000000000000000000000000000 PUSH0 DUP3 ADD MSTORE POP JUMP JUMPDEST PUSH0 PUSH2 0x2C59 PUSH1 0x1 DUP4 PUSH2 0x292E JUMP JUMPDEST SWAP2 POP PUSH2 0x2C64 DUP3 PUSH2 0x2C25 JUMP JUMPDEST PUSH1 0x1 DUP3 ADD SWAP1 POP SWAP2 SWAP1 POP JUMP JUMPDEST PUSH32 0x2045544800000000000000000000000000000000000000000000000000000000 PUSH0 DUP3 ADD MSTORE POP JUMP JUMPDEST PUSH0 PUSH2 0x2CA3 PUSH1 0x4 DUP4 PUSH2 0x292E JUMP JUMPDEST SWAP2 POP PUSH2 0x2CAE DUP3 PUSH2 0x2C6F JUMP JUMPDEST PUSH1 0x4 DUP3 ADD SWAP1 POP SWAP2 SWAP1 POP JUMP JUMPDEST PUSH0 PUSH2 0x2CC4 DUP3 DUP6 PUSH2 0x2938 JUMP JUMPDEST SWAP2 POP PUSH2 0x2CCF DUP3 PUSH2 0x2C4D JUMP JUMPDEST SWAP2 POP PUSH2 0x2CDB DUP3 DUP5 PUSH2 0x2938 JUMP JUMPDEST SWAP2 POP PUSH2 0x2CE6 DUP3 PUSH2 0x2C97 JUMP JUMPDEST SWAP2 POP DUP2 SWAP1 POP SWAP4 SWAP3 POP POP POP JUMP JUMPDEST PUSH0 PUSH2 0x2CFC DUP3 PUSH2 0x1E96 JUMP JUMPDEST SWAP2 POP PUSH0 DUP3 SUB PUSH2 0x2D0E JUMPI PUSH2 0x2D0D PUSH2 0x2282 JUMP JUMPDEST JUMPDEST PUSH1 0x1 DUP3 SUB SWAP1 POP SWAP2 SWAP1 POP JUMP JUMPDEST PUSH32 0x6D61784578636C75736976653D30000000000000000000000000000000000000 PUSH0 DUP3 ADD MSTORE POP JUMP JUMPDEST PUSH0 PUSH2 0x2D4D PUSH1 0xE DUP4 PUSH2 0x1E1E JUMP JUMPDEST SWAP2 POP PUSH2 0x2D58 DUP3 PUSH2 0x2D19 JUMP JUMPDEST PUSH1 0x20 DUP3 ADD SWAP1 POP SWAP2 SWAP1 POP JUMP JUMPDEST PUSH0 PUSH1 0x20 DUP3 ADD SWAP1 POP DUP2 DUP2 SUB PUSH0 DUP4 ADD MSTORE PUSH2 0x2D7A DUP2 PUSH2 0x2D41 JUMP JUMPDEST SWAP1 POP SWAP2 SWAP1 POP JUMP JUMPDEST PUSH0 DUP2 SWAP1 POP SWAP2 SWAP1 POP JUMP JUMPDEST PUSH2 0x2D9B PUSH2 0x2D96 DUP3 PUSH2 0x1E96 JUMP JUMPDEST PUSH2 0x2D81 JUMP JUMPDEST DUP3 MSTORE POP POP JUMP JUMPDEST PUSH0 DUP2 PUSH1 0x60 SHL SWAP1 POP SWAP2 SWAP1 POP JUMP JUMPDEST PUSH0 PUSH2 0x2DB7 DUP3 PUSH2 0x2DA1 JUMP JUMPDEST SWAP1 POP SWAP2 SWAP1 POP JUMP JUMPDEST PUSH0 PUSH2 0x2DC8 DUP3 PUSH2 0x2DAD JUMP JUMPDEST SWAP1 POP SWAP2 SWAP1 POP JUMP JUMPDEST PUSH2 0x2DE0 PUSH2 0x2DDB DUP3 PUSH2 0x207A JUMP JUMPDEST PUSH2 0x2DBE JUMP JUMPDEST DUP3 MSTORE POP POP JUMP JUMPDEST PUSH0 PUSH2 0x2DF1 DUP3 DUP9 PUSH2 0x2D8A JUMP JUMPDEST PUSH1 0x20 DUP3 ADD SWAP2 POP PUSH2 0x2E01 DUP3 DUP8 PUSH2 0x2D8A JUMP JUMPDEST PUSH1 0x20 DUP3 ADD SWAP2 POP PUSH2 0x2E11 DUP3 DUP7 PUSH2 0x2DCF JUMP JUMPDEST PUSH1 0x14 DUP3 ADD SWAP2 POP PUSH2 0x2E21 DUP3 DUP6 PUSH2 0x2D8A JUMP JUMPDEST PUSH1 0x20 DUP3 ADD SWAP2 POP PUSH2 0x2E31 DUP3 DUP5 PUSH2 0x2D8A JUMP JUMPDEST PUSH1 0x20 DUP3 ADD SWAP2 POP DUP2 SWAP1 POP SWAP7 SWAP6 POP POP POP POP POP POP JUMP INVALID LOG2 PUSH5 0x6970667358 0x22 SLT KECCAK256 PUSH6 0xAB39121867AF EXTSTATICCALL 0xED EOFCREATE 0x3F NUMBER 0xDA LOG1 MCOPY 0xAC CREATE2 0xD4 PUSH25 0xA4D8F9A236A6EEC600D1839C164736F6C634300081E003300 "
		},
		"gasEstimates": {
			"creation": {
				"codeDepositCost": "2379600",
				"executionCost": "31828",
				"totalCost": "2411428"
			},
			"external": {
				"": "534",
				"HOUSE_FEE_BPS()": "371",
				"MAX_TICKETS_PER_ADDR()": "393",
				"MIN_UNIQUE_PLAYERS()": "392",
				"ROUND_DURATION()": "436",
				"TICKET_PRICE()": "415",
				"buyTickets(uint256)": "infinite",
				"getPlayerCount()": "2529",
				"getPlayers()": "infinite",
				"getPrizePool()": "402",
				"getPrizePoolReadable()": "infinite",
				"getRoundSummary()": "infinite",
				"getTicketPriceReadable()": "infinite",
				"getTimeRemaining()": "infinite",
				"getTimeRemainingReadable()": "infinite",
				"getUniquePlayerCount()": "4675",
				"history(uint256)": "infinite",
				"isRoundActive()": "4641",
				"lastPrizePool()": "2449",
				"lastPrizes(uint256)": "infinite",
				"lastRoundRefunded()": "2578",
				"lastWinners(uint256)": "5055",
				"owner()": "2552",
				"players(uint256)": "5054",
				"roundEndTime()": "2491",
				"roundNumber()": "2515",
				"selectWinner()": "infinite",
				"startNewRound()": "infinite"
			},
			"internal": {
				"_archiveRound(bool,uint256,address[] memory,uint256[] memory)": "infinite",
				"_computePrizes(uint256,uint256)": "infinite",
				"_formatEth(uint256)": "infinite",
				"_pickUniqueWinners(uint256)": "infinite",
				"_random(uint256)": "infinite",
				"_refundAll()": "infinite",
				"_u(uint256)": "infinite"
			}
		},
		"methodIdentifiers": {
			"HOUSE_FEE_BPS()": "1594b256",
			"MAX_TICKETS_PER_ADDR()": "1a1b716c",
			"MIN_UNIQUE_PLAYERS()": "59499087",
			"ROUND_DURATION()": "6641ea08",
			"TICKET_PRICE()": "1a95f15f",
			"buyTickets(uint256)": "2f366637",
			"getPlayerCount()": "c2e52206",
			"getPlayers()": "8b5b9ccc",
			"getPrizePool()": "884bf67c",
			"getPrizePoolReadable()": "6c48d697",
			"getRoundSummary()": "5dfa872d",
			"getTicketPriceReadable()": "ef80113b",
			"getTimeRemaining()": "dac6270d",
			"getTimeRemainingReadable()": "bfe75634",
			"getUniquePlayerCount()": "91aae8f8",
			"history(uint256)": "a7a38f0b",
			"isRoundActive()": "45945a45",
			"lastPrizePool()": "06f81b15",
			"lastPrizes(uint256)": "5012f335",
			"lastRoundRefunded()": "2492b5b8",
			"lastWinners(uint256)": "adda2c2e",
			"owner()": "8da5cb5b",
			"players(uint256)": "f71d96cb",
			"roundEndTime()": "e40205d6",
			"roundNumber()": "4e2786fb",
			"selectWinner()": "33a99e04",
			"startNewRound()": "bd85948c"
		}
	},
	"abi": [
		{
			"inputs": [],
			"stateMutability": "nonpayable",
			"type": "constructor"
		},
		{
			"anonymous": false,
			"inputs": [
				{
					"indexed": true,
					"internalType": "uint256",
					"name": "round",
					"type": "uint256"
				},
				{
					"indexed": false,
					"internalType": "uint256",
					"name": "totalRefunded",
					"type": "uint256"
				}
			],
			"name": "RoundRefunded",
			"type": "event"
		},
		{
			"anonymous": false,
			"inputs": [
				{
					"indexed": true,
					"internalType": "uint256",
					"name": "round",
					"type": "uint256"
				},
				{
					"indexed": false,
					"internalType": "uint256",
					"name": "endTime",
					"type": "uint256"
				}
			],
			"name": "RoundStarted",
			"type": "event"
		},
		{
			"anonymous": false,
			"inputs": [
				{
					"indexed": true,
					"internalType": "address",
					"name": "player",
					"type": "address"
				},
				{
					"indexed": false,
					"internalType": "uint256",
					"name": "ticketCount",
					"type": "uint256"
				},
				{
					"indexed": true,
					"internalType": "uint256",
					"name": "round",
					"type": "uint256"
				}
			],
			"name": "TicketPurchased",
			"type": "event"
		},
		{
			"anonymous": false,
			"inputs": [
				{
					"indexed": true,
					"internalType": "uint256",
					"name": "round",
					"type": "uint256"
				},
				{
					"indexed": false,
					"internalType": "address[]",
					"name": "winners",
					"type": "address[]"
				},
				{
					"indexed": false,
					"internalType": "uint256[]",
					"name": "prizes",
					"type": "uint256[]"
				},
				{
					"indexed": false,
					"internalType": "uint256",
					"name": "poolAfterFee",
					"type": "uint256"
				},
				{
					"indexed": false,
					"internalType": "uint256",
					"name": "feePaid",
					"type": "uint256"
				}
			],
			"name": "WinnersSelected",
			"type": "event"
		},
		{
			"stateMutability": "payable",
			"type": "fallback"
		},
		{
			"inputs": [],
			"name": "HOUSE_FEE_BPS",
			"outputs": [
				{
					"internalType": "uint256",
					"name": "",
					"type": "uint256"
				}
			],
			"stateMutability": "view",
			"type": "function"
		},
		{
			"inputs": [],
			"name": "MAX_TICKETS_PER_ADDR",
			"outputs": [
				{
					"internalType": "uint256",
					"name": "",
					"type": "uint256"
				}
			],
			"stateMutability": "view",
			"type": "function"
		},
		{
			"inputs": [],
			"name": "MIN_UNIQUE_PLAYERS",
			"outputs": [
				{
					"internalType": "uint256",
					"name": "",
					"type": "uint256"
				}
			],
			"stateMutability": "view",
			"type": "function"
		},
		{
			"inputs": [],
			"name": "ROUND_DURATION",
			"outputs": [
				{
					"internalType": "uint256",
					"name": "",
					"type": "uint256"
				}
			],
			"stateMutability": "view",
			"type": "function"
		},
		{
			"inputs": [],
			"name": "TICKET_PRICE",
			"outputs": [
				{
					"internalType": "uint256",
					"name": "",
					"type": "uint256"
				}
			],
			"stateMutability": "view",
			"type": "function"
		},
		{
			"inputs": [
				{
					"internalType": "uint256",
					"name": "ticketCount",
					"type": "uint256"
				}
			],
			"name": "buyTickets",
			"outputs": [],
			"stateMutability": "payable",
			"type": "function"
		},
		{
			"inputs": [],
			"name": "getPlayerCount",
			"outputs": [
				{
					"internalType": "uint256",
					"name": "",
					"type": "uint256"
				}
			],
			"stateMutability": "view",
			"type": "function"
		},
		{
			"inputs": [],
			"name": "getPlayers",
			"outputs": [
				{
					"internalType": "address[]",
					"name": "",
					"type": "address[]"
				}
			],
			"stateMutability": "view",
			"type": "function"
		},
		{
			"inputs": [],
			"name": "getPrizePool",
			"outputs": [
				{
					"internalType": "uint256",
					"name": "",
					"type": "uint256"
				}
			],
			"stateMutability": "view",
			"type": "function"
		},
		{
			"inputs": [],
			"name": "getPrizePoolReadable",
			"outputs": [
				{
					"internalType": "string",
					"name": "",
					"type": "string"
				}
			],
			"stateMutability": "view",
			"type": "function"
		},
		{
			"inputs": [],
			"name": "getRoundSummary",
			"outputs": [
				{
					"internalType": "uint256",
					"name": "_round",
					"type": "uint256"
				},
				{
					"internalType": "bool",
					"name": "_active",
					"type": "bool"
				},
				{
					"internalType": "uint256",
					"name": "_timeLeftSec",
					"type": "uint256"
				},
				{
					"internalType": "uint256",
					"name": "_tickets",
					"type": "uint256"
				},
				{
					"internalType": "uint256",
					"name": "_unique",
					"type": "uint256"
				},
				{
					"internalType": "uint256",
					"name": "_poolWei",
					"type": "uint256"
				}
			],
			"stateMutability": "view",
			"type": "function"
		},
		{
			"inputs": [],
			"name": "getTicketPriceReadable",
			"outputs": [
				{
					"internalType": "string",
					"name": "",
					"type": "string"
				}
			],
			"stateMutability": "pure",
			"type": "function"
		},
		{
			"inputs": [],
			"name": "getTimeRemaining",
			"outputs": [
				{
					"internalType": "uint256",
					"name": "",
					"type": "uint256"
				}
			],
			"stateMutability": "view",
			"type": "function"
		},
		{
			"inputs": [],
			"name": "getTimeRemainingReadable",
			"outputs": [
				{
					"internalType": "string",
					"name": "",
					"type": "string"
				}
			],
			"stateMutability": "view",
			"type": "function"
		},
		{
			"inputs": [],
			"name": "getUniquePlayerCount",
			"outputs": [
				{
					"internalType": "uint256",
					"name": "",
					"type": "uint256"
				}
			],
			"stateMutability": "view",
			"type": "function"
		},
		{
			"inputs": [
				{
					"internalType": "uint256",
					"name": "",
					"type": "uint256"
				}
			],
			"name": "history",
			"outputs": [
				{
					"internalType": "uint256",
					"name": "round",
					"type": "uint256"
				},
				{
					"internalType": "bool",
					"name": "refunded",
					"type": "bool"
				},
				{
					"internalType": "uint256",
					"name": "startTime",
					"type": "uint256"
				},
				{
					"internalType": "uint256",
					"name": "endTime",
					"type": "uint256"
				},
				{
					"internalType": "uint256",
					"name": "prizePoolOrRefundTotal",
					"type": "uint256"
				}
			],
			"stateMutability": "view",
			"type": "function"
		},
		{
			"inputs": [],
			"name": "isRoundActive",
			"outputs": [
				{
					"internalType": "bool",
					"name": "",
					"type": "bool"
				}
			],
			"stateMutability": "view",
			"type": "function"
		},
		{
			"inputs": [],
			"name": "lastPrizePool",
			"outputs": [
				{
					"internalType": "uint256",
					"name": "",
					"type": "uint256"
				}
			],
			"stateMutability": "view",
			"type": "function"
		},
		{
			"inputs": [
				{
					"internalType": "uint256",
					"name": "",
					"type": "uint256"
				}
			],
			"name": "lastPrizes",
			"outputs": [
				{
					"internalType": "uint256",
					"name": "",
					"type": "uint256"
				}
			],
			"stateMutability": "view",
			"type": "function"
		},
		{
			"inputs": [],
			"name": "lastRoundRefunded",
			"outputs": [
				{
					"internalType": "bool",
					"name": "",
					"type": "bool"
				}
			],
			"stateMutability": "view",
			"type": "function"
		},
		{
			"inputs": [
				{
					"internalType": "uint256",
					"name": "",
					"type": "uint256"
				}
			],
			"name": "lastWinners",
			"outputs": [
				{
					"internalType": "address",
					"name": "",
					"type": "address"
				}
			],
			"stateMutability": "view",
			"type": "function"
		},
		{
			"inputs": [],
			"name": "owner",
			"outputs": [
				{
					"internalType": "address",
					"name": "",
					"type": "address"
				}
			],
			"stateMutability": "view",
			"type": "function"
		},
		{
			"inputs": [
				{
					"internalType": "uint256",
					"name": "",
					"type": "uint256"
				}
			],
			"name": "players",
			"outputs": [
				{
					"internalType": "address",
					"name": "",
					"type": "address"
				}
			],
			"stateMutability": "view",
			"type": "function"
		},
		{
			"inputs": [],
			"name": "roundEndTime",
			"outputs": [
				{
					"internalType": "uint256",
					"name": "",
					"type": "uint256"
				}
			],
			"stateMutability": "view",
			"type": "function"
		},
		{
			"inputs": [],
			"name": "roundNumber",
			"outputs": [
				{
					"internalType": "uint256",
					"name": "",
					"type": "uint256"
				}
			],
			"stateMutability": "view",
			"type": "function"
		},
		{
			"inputs": [],
			"name": "selectWinner",
			"outputs": [],
			"stateMutability": "nonpayable",
			"type": "function"
		},
		{
			"inputs": [],
			"name": "startNewRound",
			"outputs": [],
			"stateMutability": "nonpayable",
			"type": "function"
		},
		{
			"stateMutability": "payable",
			"type": "receive"
		}
	]
}